:020000040800F2
:10000000B8E9002015630008FD5F0008FF5F0008E5
:10001000016000080360000805600008000000009F
:100020000000000000000000000000000760000861
:1000300009600008000000000B6000080D60000867
:1000400035630008396300083D6300084163000818
:1000500045630008496300084D63000851630008C8
:10006000556300085963000873490008F1580008F7
:100070005D63000861630008656300086963000848
:100080006D630008716300087563000879630008F8
:100090007D630008816300088563000889630008A8
:1000A0008D63000891630008956300089963000858
:1000B0009D630008A1630008A56300084160000873
:1000C000A9630008AD630008B163000889610008F6
:1000D000A9610008B5630008B9630008BD630008A2
:1000E000C1630008C5630008C9630008CD63000848
:1000F000D1630008D5630008D9630008E9580008F7
:10010000DD630008E1630008E5630008F9580008B2
:10011000E9630008ED630008F1630008F563000877
:10012000F9630008FD630008016400080564000825
:1001300069600008096400080D6400081164000883
:1001400015640008196400081D6400084B6000086D
:1001500021640008256400086B600008376000080F
:10016000296400082D640008316400083564000823
:10017000396400083D640008416400080000000084
:1001800045640008496400084D6400085164000893
:100190005564000831480008596400085D6400088F
:1001A0006164000865640008696400086D64000803
:1001B0007164000875640008796400087D640008B3
:1001C000816400088564000800F5E07002689142CF
:1001D00003D343689A18914202D380680028F5D16E
:1001E0007047DFF85807016891B94FF4803181609A
:1001F0004FF4805141604FF0FF31C1600161042133
:10020000DFF83C274161C2F8BC11DFF83817016004
:100210000120704701F1080313F0070305D001F135
:100220000803C3F1080303F007035918D21A8161C8
:10023000C26042F001034B60511828234B60DFF885
:10024000FC160969C16170472DE9F84F064601F1B6
:10025000080010F0070008BF884607D001F1080029
:10026000C0F1080000F0070000EB010802F10800EF
:1002700010F0070006D002F10800C0F1080000F0FD
:10028000070082181546A5EB0800A0EB030903EB55
:10029000080B43F00300C8F80400AB4528BF01F089
:1002A0001BFA2879C00758BF01F016FAB9F1100FF0
:1002B00038BF01F011FAB069854209D1F0684844AD
:1002C000F060C6F818B040F00100CBF804006DE112
:1002D000706985420BD1B0684844B060C6F814B06C
:1002E00040F00101CBF8041040F80B005EE16868B3
:1002F00000F00301012940F0AD80C008C00001906A
:10030000C00820283AD2D5F808A0EF680090BD4276
:1003100008BF01F0E1F9554508BF01F0DDF9686853
:100320000099C008C000B0EBC10F18BF01F0D4F9AC
:10033000009806EBC00000F128018A4507D031691A
:100340008A45C0F08280DAF80C10A9427DD1574569
:1003500006D1009A3068012191408843306076E0F0
:100360002830874205D0306987426ED3B868A842EA
:100370006BD1CAF80C70C7F808A068E0EF68D5F830
:1003800018A0AF420CD0A8683169884223D3C16855
:10039000A94204BFB968A9421DD1C760B8601CE07A
:1003A00005F11400076837B905F110000768A7B117
:1003B00001E00846076807F114010A68002A02BF35
:1003C00007F110010A68002AF3D13169884202D38B
:1003D0000021016001E001F07FF9BAF1000F36D091
:1003E000E86906EB800000F5987001688D4208D13D
:1003F0000760A7B9EA69706801219140884370607D
:1004000025E03069824508D3DAF81000A84214BF0D
:10041000CAF81470CAF8107001E001F05DF9B7B1C4
:100420003069874211D3C7F818A0296929B18142E0
:1004300026BF39618F6101F04FF9686938B13169C0
:10044000884202D37861876101E001F045F90198A3
:100450004519814468684008400068604FEAD90542
:1004600049F00100CBF8040049F80B90202D23D26D
:1004700006EBC50000F12807BA46B9F1100F38BFE6
:1004800001F02AF9306820FA05F1C90704D40121E6
:10049000A9400843306006E0B868316988422CBF43
:1004A000824601F019F9C7F808B0CAF80CB0CBF8C9
:1004B00008A0CBF80C7079E05FEA192108BF002092
:1004C00023D0B1F5803F28BF1F201ED2A1F5807038
:1004D000000C00F008008140A1F58052120C02F0DF
:1004E00004029140A1F580431B0CC0F10E0003F003
:1004F0000203801AC01A994000EBD130C11D29FABD
:1005000001F202F0010101EB4000CBF81C000022D7
:10051000CBF81420CBF8102006EB8001726822FA89
:1005200000F3DB0701F5987107D4012303FA00F00B
:1005300010437060C1F800B01DE01F2809680EBFAD
:1005400000204008C0F1190009FA00F000E011464F
:100550004A68D208D2004A4514D0C20F01EB820289
:1005600002F1100340001A68002AF0D1306983427A
:100570001AD3C3F800B0CBF81810CBF80CB0CBF8F6
:1005800008B013E032698868914228BF90420BD3CB
:10059000C0F80CB0C1F808B0CBF80800CBF80C10CC
:1005A0000020CBF8180001E001F096F808F10800EF
:1005B000BDE8E68F2DE9FA4D0546DFF880030068B7
:1005C00084B008B9FFF70DFEDFF870030499806866
:1005D00041182F31401E21EA00000499814280F029
:1005E000A88105F5D876B16839B1326880188242A1
:1005F00080F09F818142C0F09C8101F071F8002859
:100600001EBF0446D0F8008014F1010F00F0918164
:100610003068716840448142306038BF0146716083
:10062000A86980BB286908B1844200D22C610020EF
:10063000F0613461C6F8148005F12801BF480068F4
:1006400068624FF0FF302862002001F10802C960A3
:100650001160801C10312028D2609260F5D3B84818
:10066000854203D1A8F12802214629E055F8040C5F
:10067000C00805EBC000A0F1080108EB0400401A17
:10068000A0F128021CE005F5E071084600E0806852
:10069000D0B1026843689A189442F8D1027B1207DD
:1006A00012D4AA6903689A420ED347683B449A421F
:1006B0000AD208EB07014160E868A96908EB00026B
:1006C0002846FFF7A7FD1EE128698442084638BF87
:1006D0002C6108EB040100E0806880B102688A4266
:1006E000FAD1017B09070AD40460416841444160A2
:1006F0002146049B284606B0BDE8F04DA4E5AF694D
:1007000039462846FFF760FD0168406840180290AE
:100710002F3800F1080111F0070105D000F10801A0
:10072000C1F1080101F00701081807F11001884222
:1007300034BF0097009000980830019004F1080140
:10074000009800F1180A11F007014FF0000BA8F112
:10075000280005D004F10801C1F1080101F00701EA
:100760000A19401AAA61E86040F00101516080183E
:100770002821416071480069E861019810F0070084
:1007800018BF00F0A9FF00991B20486005F5E07133
:10079000B1E80C500198A0E80C503461C6F8148000
:1007A000C6F81CB00198B061029800E08A460722A2
:1007B000CAF804200AF104010A1D82420BF1010B60
:1007C000F4D3BBF1020FB8BF00F086FF0098B84227
:1007D00000F09980C01BC119C4084A685208520031
:1007E0004A6040F001017960C051202C20D205EB15
:1007F000C40101F12806B046102838BF00F06CFF94
:10080000286820FA04F1C90704D40121A140084353
:10081000286006E0B068296988422CBF804600F055
:100820005BFFB760C8F80C70C7F80880FE606AE02C
:10083000010A08BF002223D0B1F5803F28BF1F2244
:100840001ED2A1F58072120C02F008029140A1F5AF
:1008500080531B0C03F004039940A1F58044240C41
:10086000C2F10E0204F00204D21A121BA14002EBE4
:10087000D131CA1D20FA02F303F0010202EB41025A
:10088000FA6100237B613B6105EB82016B6823FA0F
:1008900002F4E40701F5987105D401209040184353
:1008A00068600F601CE01F2A09680EBF0022520812
:1008B000C2F1190200FA02F200E019464B68DB08A7
:1008C000DB00834210D0D30F01EB830303F110044C
:1008D00052002368002BF0D12869844211D327608D
:1008E000B961FF60BF600EE02A698868914228BF45
:1008F000904206D3C7608F60B860F9600020B8618D
:1009000001E000F0E9FEE8680499814211D2401A42
:10091000E860A969049A5218AA6140F00100506089
:10092000049840F00300486006B001F10800BDE8FB
:10093000F08D002006B0BDE8F08D000068E10020D9
:100940002CDC00206859883C2DE9F04D0446002637
:1009500088465FEA1820C8F1000B08BF002123D0A9
:10096000B0F5803F28BF1F211ED2A0F58071090C71
:1009700001F008018840A0F58052120C02F0040238
:100980009040A0F580431B0CC1F10E0103F002035F
:10099000891AC91A984001EBD030C11D28FA01F21A
:1009A00002F0010101EB400104EB8100D0F83001BD
:1009B00030B31F290EBF00224A08C2F1190208FAFB
:1009C00002F2002300E052004768FF08FF00A7EB97
:1009D00008075F4503D25FEA070B06460CD047695C
:1009E0004FEAD27E00EB8E00002F00691CBF8742C9
:1009F0003B460028E7D1184600283CD1002E3CD1C8
:100A0000012088404000414208436168084000F0EE
:100A1000678141420840411E080B00F0100021FA96
:100A200000F2510901F0080122FA01F39A0802F0DC
:100A30000407FB405A0802F00205081823FA05F2E1
:100A40003844C2F340032818181822FA03F1081892
:100A500004EB8000D0F830010DE008464168C90879
:100A6000C900A1EB080159453CBF8B460646016908
:100A70000029F2D140690028F0D1002E00F0308129
:100A8000A068A0EB0800834580F02A812069864297
:100A9000C0F024817068C008C00008EB0B0108EBAF
:100AA0000605884218BF00F017FEAE4280F016819E
:100AB000F768D6F818A0B7420CD0B0682169884210
:100AC00023D3C168B14204BFB968B1421DD1C76028
:100AD000B8601CE006F11400076837B906F1100091
:100AE0000768A7B101E00846076807F114010A6822
:100AF000002A02BF07F110010A68002AF3D1216918
:100B0000884202D30021016001E000F0E5FDBAF166
:100B1000000F38D0F06904EB800000F59870016890
:100B20008E4209D10760380014D1F2696068012152
:100B300091408843606026E02069824508D3DAF856
:100B40001000B04214BFCAF81470CAF8107001E067
:100B500000F0C2FDBFB12069874212D3C7F818A0C8
:100B6000306930B12169884226BF3861876100F061
:100B7000B3FD706938B12169884202D37861876119
:100B800001E000F0A9FDBBF1100F0CD208EB0B0047
:100B900040F00300706008EB0B008019416841F0E1
:100BA0000101416096E048F0030070604BF00100E5
:100BB00068604FEADB004BF805B020281DD204EB3B
:100BC000C00101F12807216821FA00F2D207BB46D3
:100BD00005D4012202FA00F00843206006E0B8685C
:100BE000216988422CBF834600F076FDBD60CBF8BA
:100BF0000C50C5F808B0EF606CE05FEA1B2108BF3D
:100C0000002023D0B1F5803F28BF1F201ED2A1F5C0
:100C10008070000C00F008008140A1F58052120C99
:100C200002F004029140A1F580431B0CC0F10E00BC
:100C300003F00203801AC01A994000EBD130C11DA5
:100C40002BFA01F202F0010101EB4000E861002201
:100C50006A612A6104EB8001626822FA00F3DB0713
:100C600001F5987106D4012303FA00F01043606087
:100C70000D601CE01F2809680EBF00204008C0F16D
:100C800019000BFA00F000E011464A68D208D200C1
:100C90005A4510D0C20F01EB820202F1100340004E
:100CA0001A68002AF0D12069834211D31D60A9611E
:100CB000ED60AD600EE022698868914228BF9042E5
:100CC00006D3C5608D60A860E9600020A86101E0DE
:100CD00000F002FD06F10800BDE8F08D00F0FCFC1C
:100CE0000020BDE8F08D2DE9F84F04468846606885
:100CF00041420840411E080B00F0100021FA00F2AA
:100D0000510901F0080122FA01F39A0802F00402E5
:100D100023FA02F56B0803F00203081825FA03F61C
:100D20001018C6F340051818284426FA05F10818CB
:100D300004EB8000D0F830014168C908C9000646BC
:100D4000A1EB080A09E008464168C908C900A1EBFF
:100D5000080151453CBF8A46064601690029F2D187
:100D600040690028F0D120698642C0F0C4807068D4
:100D7000C00808EB0A09C00008EB060B484518BF7D
:100D800000F0AAFC5E4580F0B680F768B569B7420E
:100D90000CD0B0682169884223D3C168B14204BF36
:100DA000B968B1421DD1C760B8601CE006F11400FB
:100DB000076837B906F110000768A7B101E00846D7
:100DC000076807F114010A68002A02BF07F1100141
:100DD0000A68002AF3D12169884202D30021016008
:100DE00001E000F079FC002D34D0F06904EB8000C4
:100DF00000F5987001688E4209D10760380011D162
:100E0000F2696068012191408843606022E02069B6
:100E1000854205D32869B04214BF6F612F6101E09C
:100E200000F05AFCB7B12069874211D3BD61306927
:100E300030B12169884226BF3861876100F04CFCDF
:100E4000706938B12169884202D37861876101E015
:100E500000F042FCBAF1100F09D249F003007060B3
:100E600009EB0600416841F0010141603FE048F0B4
:100E7000030070604AF00100CBF804004AF80BA0B0
:100E8000D4F808804FEAD805202D28BF00F024FCB4
:100E9000B8F1000F27D0D4F81490009504EBC500EA
:100EA00000F128052F46B8F1100F38BF00F014FCF0
:100EB0002068009920FA01F2D10705D4009A012197
:100EC00091400843206006E0A868216988422CBF51
:100ED000074600F001FCC5F80890C7F80C90C9F867
:100EE0000870C9F80C50C4F808A0C4F814B006F192
:100EF0000800BDE8F28F00F0EFFB0020BDE8F28FA4
:100F00002DE9F04F83B00546C046C046F52DDFF809
:100F1000C04780F007810B2D31BF102705F10B0072
:100F2000C708FF002168FE0821FA06F010F0030F41
:100F300042D0C04300F00100861904EBC60000F166
:100F40002808F700D8F808506868C008C000B84200
:100F500018BF00F0C1FBD5F80890454508BF00F068
:100F6000BBFB4D4508BF00F0B7FB6868C008C00078
:100F7000B84218BF00F0B0FBC84505D12068012178
:100F8000B140884320600DE02069814508D3D9F83D
:100F90000C00A84204D1C8F80890C9F80C8001E000
:100FA00000F09AFB47F00300686078190835416843
:100FB00041F001014160FDE0A168B94280F0C480C8
:100FC000002800F0A680012505FA06F149004A42F2
:100FD000B0401143084041420840411E080B00F058
:100FE000100021FA00F2510901F0080322FA03F17E
:100FF0008A0802F0040221FA02F6710801F00208E0
:10100000181826FA08F11018C1F3400640443018A9
:1010100021FA06F202EB000804EBC80000F12809EF
:101020004FEAC80AD9F808607068C008C000504587
:1010300018BF00F051FBD6F808B04E4508BF00F0CD
:101040004BFB5E4508BF00F047FB7068C008C0005E
:10105000504518BF00F040FBD94505D1206805FA7E
:1010600008F1884320600DE02069834508D3DBF850
:101070000C00B04204D1C9F808B0CBF80C9001E0E4
:1010800000F02AFB47F003007060AAEB0708B819CC
:10109000019048F0010001994860019848F80080EB
:1010A000A7684FEAD70ABAF1200F28BF00F014FB57
:1010B00047B3CDF800A004EBCA00D4F8149000F1B7
:1010C000280AD346102F38BF00F006FB206800998D
:1010D00020FA01F2D10705D4009905FA01F108437D
:1010E000206007E0DAF80800216988422CBF8346B7
:1010F00000F0F2FACAF80890CBF80C90C9F808B0E2
:10110000C9F80CA0C4F8088006F1080501986061D0
:1011100050E06068C0B339462046FFF7E4FD0500A3
:1011200012D047E015F1400F28BF4FF0FF370BD228
:1011300005F10B00C7086068FF0028B1394620465A
:10114000FFF702FC050035D1A068B8421CD3C11BD3
:10115000626910290AD3B8186061A16041F00103E7
:101160004360095047F0030050600AE00021A1608D
:10117000616140F0030151608018416841F0010154
:10118000416002F1080515E0E06887420DD2C01BFE
:10119000A169E0607A18A26140F00100506001F19D
:1011A000080547F00300486004E039462046FFF791
:1011B00001FA0546C046C046284603B0BDE8F08F98
:1011C00000B970472DE9F047A0F10804C046C046B9
:1011D000DFF8FC5428698442C0F07482616801F031
:1011E0000302012A00F06E82CA084FEAC208CA0749
:1011F00008EB040936D4226811F0030F00F0648272
:10120000A41A84429044C0F05D8269698C4200F067
:10121000D880D608202E70D2D4F80CA0A7685445E8
:1012200008BF00F059FABC4208BF00F055FA6068E8
:10123000C008C000B0EBC60F18BF00F04DFA05EBB8
:10124000C60000F128018F4205D029698F4251D391
:10125000F968A1424ED1BA453DD128680121B1407B
:10126000884328604C4580F02D82D9F80400C107DE
:1012700040F12882810700F17A81A969894540F00F
:10128000B580E868AC614044E86040F0010161600D
:1012900069698C4202D100216961A960E9698142D2
:1012A00080F01282DFF82C04006808B9FEF799FF7D
:1012B000A969002900F00882E868292824BF284687
:1012C000FEF782FFE869E968884280F0FD814FF00F
:1012D000FF30E861F8E12830824506D02869824570
:1012E00008D3DAF80800A04204D1C7F80CA0CAF865
:1012F0000870B7E700F0F0F9B4E7E768A669A7421D
:101300000BD0A168814222D3C868A04204BFB8684C
:10131000A0421CD1CF60B9601BE004F114010F683A
:1013200037B904F110010F689FB101E011460F6851
:1013300007F114021368002B02BF07F110021368B3
:10134000002BF3D1814202D30020086001E000F0BD
:10135000C3F9002E86D0E06905EB800000F5987097
:1013600001688C4209D10760380011D1E2696868D0
:10137000012191408843686074E72869864205D35B
:101380003069A04214BF7761376101E000F0A4F931
:10139000002F3FF467AF28698742ABD3BE61216954
:1013A00029B1814226BF39618F6100F095F96069EA
:1013B00000283FF457AF296988429BD37861876141
:1013C00050E799F8040000F0030003287FF44AAFC7
:1013D000C5F80880D9F8040040084000C9F80400A6
:1013E00048F00100606048F804806DE16969894552
:1013F00008D1A8686C614044A86040F001016160B8
:10140000005161E1C008C0004FEAD00ABAF1200FD4
:10141000804436D2D9F80C70D9F80860B94508BFB5
:1014200000F05AF9B14508BF00F056F9D9F80400A8
:10143000C008C000B0EBCA0F18BF00F04DF905EBB3
:10144000CA0000F128018E4206D029698E42C0F000
:101450008180F16849457DD1B74206D128680121D4
:1014600001FA0AF18843286076E02830874205D0E7
:10147000286987426ED3B86848456BD1F760BE6073
:101480006AE0D9F80C70D9F818604F450DD0D9F83A
:1014900008002969884223D3C168494504BFB96857
:1014A00049451DD1C760B8601CE009F11400076808
:1014B00037B909F110000768A7B101E008460768CD
:1014C00007F114010A68002A02BF07F110010A6837
:1014D000002AF3D12969884202D30021016001E08A
:1014E00000F0FAF8002E37D0D9F81C0005EB800088
:1014F00000F59870016889450AD10760380012D15B
:10150000D9F81C206868012191408843686023E075
:101510002869864205D33069484514BF7761376131
:1015200001E000F0D9F8BFB12869874212D3BE614B
:10153000D9F8101029B1814226BF39618F6100F0BE
:10154000CBF8D9F8140038B12969884202D3786100
:10155000876101E000F0C0F848F00100606048F8E1
:101560000480686984420BD1C5F80880ACE040086B
:101570004000C9F8040048F00100606048F80480A9
:101580004FEAD807202F22D205EBC70000F1280927
:101590004E46B8F1100F38BF00F09EF8286820FAC8
:1015A00007F1C90704D40121B9400843286007E0C6
:1015B000D9F80800296988422CBF064600F08CF84B
:1015C000C9F80840F460A660C4F80C907CE05FEABB
:1015D000182008BF002123D0B0F5803F28BF1F216D
:1015E0001ED2A0F58071090C01F008018840A0F519
:1015F0008052120C02F004029040A0F580431B0CB4
:10160000C1F10E0103F00203891AC91A984001EBD7
:10161000D030C11D28FA01F202F0010101EB4001B6
:10162000002262612261E16105EB81006A6822FAB1
:1016300001F3DB0700F5987006D4012303FA01F1EA
:101640001143696004601CE01F2900680EBF00217F
:101650004908C1F1190108FA01F100E01046426899
:10166000D208D200424510D0CA0F00EB820202F12C
:10167000100349001A68002AF0D129698B4211D35E
:101680001C60A061E460A4600EE02A698168904259
:1016900028BF914206D3CC608460E060A160002046
:1016A000A06101E000F018F8286A401E28620BD102
:1016B000D5F8C80100E080680028FCD14FF0FF3069
:1016C000286201E000F008F8C046C046BDE8F08797
:1016D0002CDC002068E10020012000F017B8000099
:1016E0000749086808B1002070470648C008C000D4
:1016F00008600549C908C900091A0160704700BFA0
:10170000A4E10020BFE90020B8ED002080B500F082
:1017100007F8024A11001820ABBEFBE726000200C2
:1017200080B500F033F802000023DB4310689842D4
:1017300004D011000220ABBE002010605068984217
:1017400004D0111D0220ABBE0020506001BD00007E
:1017500010B584B0040000F019F8A1004218106818
:101760000021C94388420DD107A00090002C01D16F
:10177000002000E00420019003200290694601202F
:10178000ABBE106004B010BD3A74740000487047DE
:1017900054010020F8B504002568002600272068C1
:1017A00000F0E1FE012840F09280206800F0D4FEB5
:1017B000002800F08C80206800F0CEFE800203D567
:1017C0005FF4001021684861206800F0C5FEC00287
:1017D00003D55FF4801021684861206800F0BCFEEA
:1017E000400103D55FF0806021684861206800F007
:1017F000B3FE800702D5022021684861206800F00E
:10180000ABFE800012D515F58860006830F02E0020
:1018100015F588610860200001F028F80121206892
:1018200000F0A8FE5FF0005021684861206800F0D9
:1018300093FEC00102D5200000F0D8FD206800F022
:101840008BFE000705D5200001F002F80820216872
:101850004861206800F080FE800124D5206800F0F7
:10186000D4FE070000200600A068864217D2380088
:10187000F040C00711D515EB461010F5A0600068C8
:10188000000405D53100C9B2200000F04BF804E097
:101890003100C9B2200000F0BDFA761CE4E75FF029
:1018A000007021684861206800F056FEC0060ED521
:1018B0002068806930F0100021688861200000F005
:1018C00015FD2068806950F0100021688861F1BD25
:1018D00010B5040094F88C02012801D102200DE01B
:1018E000012084F88C02206800F0F0FD01212068BE
:1018F00000F066FE002084F88C02002010BD10B5B8
:10190000040094F88C02012801D1022009E0012092
:1019100084F88C02206800F040FF002084F88C02DC
:10192000002010BD70B504000D002668EDB216EB66
:10193000451010F5A0608068400715D5EDB216EB94
:10194000451010F5A06004218160EDB216EB451042
:1019500010F5A060EDB216EB451111F5A061C96854
:1019600051F00201C16071E0EDB216EB451010F5C7
:10197000A0608068800607D5EDB216EB451010F523
:10198000A0602021816061E0EDB216EB451010F5FA
:10199000A0608068000728D5EDB216EB451010F561
:1019A000A060EDB216EB451111F5A061C96851F0C8
:1019B0000201C1600520EDB2282101FB054181F83B
:1019C0005900EDB216EB451010F5A06010218160B2
:1019D000EDB216EB451010F5A060082181602900DA
:1019E000C9B2206800F016FE30E0EDB216EB4510EB
:1019F00010F5A0608068400528D5EDB216EB4510C3
:101A000010F5A060EDB216EB451111F5A061C968A3
:101A100051F00201C1602900C9B2206800F0FAFD4E
:101A2000EDB216EB451010F5A06010218160082082
:101A3000EDB2282101FB054181F85900EDB216EB0A
:101A4000451010F5A0604FF480618160EDB216EB97
:101A5000451010F5A060806880051BD5EDB216EB2F
:101A6000451010F5A060EDB216EB451111F5A0611F
:101A7000C96851F00201C1602900C9B2206800F0B4
:101A8000C9FDEDB216EB451010F5A0604FF40071E2
:101A90008160BEE1EDB216EB451010F5A0608068E4
:101AA000C00740F18C802069002812D0EDB22820B8
:101AB00000FB0540406CEDB216EB451111F5A0613D
:101AC00009694903490B401AEDB2282101FB054180
:101AD00088640120EDB2282101FB054181F85900FD
:101AE0000020EDB2282101FB05414865EDB216EB5F
:101AF000451010F5A06001218160EDB2282000FBA7
:101B0000054090F83B00002807D0EDB2282000FBEC
:101B1000054090F83B0002281AD1EDB216EB4510B3
:101B200010F5A060EDB216EB451111F5A061C96882
:101B300051F00201C1602900C9B2206800F06AFDBD
:101B4000EDB216EB451010F5A0601021816027E082
:101B5000EDB2282000FB054090F83B0003281FD180
:101B6000EDB216EB451010F5A060006850F0005083
:101B7000EDB216EB451111F5A06108600120EDB240
:101B8000282101FB054181F85800EDB2282000FB17
:101B9000054090F858202900C9B2200000F06DFEE1
:101BA000EDB2282000FB054090F84C0090F00100B9
:101BB000EDB2282101FB054181F84C0029E1EDB28D
:101BC00016EB451010F5A0608068800740F18F800B
:101BD000EDB216EB451010F5A060EDB216EB451115
:101BE00011F5A061C96831F00201C160EDB2282091
:101BF00000FB054090F85900012807D10120EDB203
:101C0000282101FB054181F858005DE0EDB2282054
:101C100000FB054090F85900052807D10520EDB2DA
:101C2000282101FB054181F858004DE0EDB2282044
:101C300000FB054090F85900062807D0EDB2282097
:101C400000FB054090F8590008283DD1EDB228204E
:101C500000FB0540406D411CEDB2282202FB05420D
:101C6000516504280DD30020EDB2282101FB054168
:101C700048650420EDB2282101FB054181F8580098
:101C800006E00220EDB2282101FB054181F8580051
:101C9000EDB216EB451010F5A060006830F0804002
:101CA000EDB216EB451111F5A0610860EDB216EB2F
:101CB000451010F5A060006850F00040EDB216EB42
:101CC000451111F5A0610860EDB216EB451010F555
:101CD000A06002218160EDB2282000FB054090F851
:101CE00058202900C9B2200000F0C7FD91E0EDB2F4
:101CF00016EB451010F5A060806800062CD5EDB2FB
:101D000016EB451010F5A060EDB216EB451111F57C
:101D1000A061C96851F00201C160EDB2282000FB4A
:101D20000540406D401CEDB2282101FB054148658E
:101D30000620EDB2282101FB054181F85900290058
:101D4000C9B2206800F066FCEDB216EB451010F544
:101D5000A060802181605CE0EDB216EB451010F5CB
:101D6000A0608068C00654D5EDB2282000FB054075
:101D700090F83B00032812D1EDB216EB451010F598
:101D8000A060EDB216EB451111F5A061C96851F0E4
:101D90000201C1602900C9B2206800F03BFC0320A9
:101DA000EDB2282101FB054181F85900EDB216EB97
:101DB000451010F5A06010218160EDB2282000FBD5
:101DC000054090F83B00002807D0EDB2282000FB2A
:101DD000054090F83B0002281BD1EDB216EB4510F0
:101DE00010F5A060006830F08040EDB216EB4511B0
:101DF00011F5A0610860EDB216EB451010F5A0607A
:101E0000006850F00040EDB216EB451111F5A061ED
:101E1000086070BD70B504000D002668EDB216EBC9
:101E2000451010F5A0608068400715D5EDB216EB9F
:101E3000451010F5A06004218160EDB216EB45104D
:101E400010F5A060EDB216EB451111F5A061C9685F
:101E500051F00201C16048E2EDB216EB451010F5F9
:101E6000A0608068800631D5EDB216EB451010F504
:101E7000A06020218160EDB2282000FB054090F891
:101E80003900012840F031820420EDB2282101FB05
:101E9000054181F85900EDB216EB451010F5A06030
:101EA000EDB216EB451111F5A061C96851F00201C0
:101EB000C1602900C9B2206800F0ACFB0220EDB27D
:101EC000282101FB054181F858000EE2EDB216EB26
:101ED000451010F5A0608068400627D50420EDB2BB
:101EE000282101FB054181F859000020EDB228218D
:101EF00001FB05414865EDB216EB451010F5A060F9
:101F0000EDB216EB451111F5A061C96851F002015F
:101F1000C1602900C9B2206800F07CFBEDB216EB6D
:101F2000451010F5A06040218160DEE1EDB216EBB6
:101F3000451010F5A060806880051BD5EDB216EB4A
:101F4000451010F5A060EDB216EB451111F5A0613A
:101F5000C96851F00201C1602900C9B2206800F0CF
:101F600059FBEDB216EB451010F5A0604FF400716F
:101F70008160BAE1EDB216EB451010F5A060806803
:101F8000C00727D50020EDB2282101FB0541486597
:101F9000EDB216EB451010F5A060EDB216EB451151
:101FA00011F5A061C96851F00201C1602900C9B2F0
:101FB000206800F02FFBEDB216EB451010F5A06085
:101FC000012181600120EDB2282101FB054181F84A
:101FD00059008AE1EDB216EB451010F5A06080685B
:101FE000000721D5EDB216EB451010F5A0600821D1
:101FF0008160EDB216EB451010F5A060EDB216EB66
:10200000451111F5A061C96851F00201C1602900B4
:10201000C9B2206800F0FEFA0520EDB2282101FBCC
:10202000054181F8590060E1EDB216EB451010F55D
:10203000A0608068C00627D50020EDB2282101FBF2
:1020400005414865EDB216EB451010F5A060EDB204
:1020500016EB451111F5A061C96851F00201C1608C
:102060002900C9B2206800F0D5FA0320EDB228217A
:1020700001FB054181F85900EDB216EB451010F552
:10208000A0601021816030E1EDB216EB451010F533
:10209000A0608068000621D5EDB216EB451010F562
:1020A000A060EDB216EB451111F5A061C96851F0C1
:1020B0000201C1602900C9B2206800F0ABFA062015
:1020C000EDB2282101FB054181F85900EDB216EB74
:1020D000451010F5A0608021816006E1EDB216EB9D
:1020E000451010F5A0608068400529D5EDB216EBCB
:1020F000451010F5A060EDB216EB451111F5A06189
:10210000C96851F00201C1602900C9B2206800F01D
:1021100081FAEDB216EB451010F5A0601021816038
:10212000EDB216EB451010F5A0604FF480618160B0
:102130000820EDB2282101FB054181F85900D4E0C7
:10214000EDB216EB451010F5A0608068800740F1F5
:10215000CC80EDB216EB451010F5A060EDB216EB99
:10216000451111F5A061C96831F00201C160EDB2FD
:10217000282000FB054090F8590001281ED10120BD
:10218000EDB2282101FB054181F85800EDB228206D
:1021900000FB054090F83B00022840F09480EDB22F
:1021A000282000FB054090F84D0090F00100EDB2B2
:1021B000282101FB054181F84D0084E0EDB2282083
:1021C00000FB054090F85900032807D10220EDB22A
:1021D000282101FB054181F8580074E0EDB2282068
:1021E00000FB054090F8590004280ED10220EDB202
:1021F000282101FB054181F858000020EDB228217B
:1022000001FB054181F839005DE0EDB2282000FBBB
:10221000054090F85900052807D10520EDB2282186
:1022200001FB054181F858004DE0EDB2282000FB8C
:10223000054090F85900062807D0EDB2282000FB91
:10224000054090F8590008283DD1EDB2282000FB48
:102250000540406D411CEDB2282202FB054251654C
:1022600004280DD30020EDB2282101FB054148656B
:102270000420EDB2282101FB054181F8580006E059
:102280000220EDB2282101FB054181F85800EDB292
:1022900016EB451010F5A060006830F08040EDB2FC
:1022A00016EB451111F5A0610860EDB216EB451073
:1022B00010F5A060006850F00040EDB216EB45113B
:1022C00011F5A0610860EDB216EB451010F5A060A5
:1022D00002218160EDB2282000FB054090F85820D3
:1022E0002900C9B2200000F0C8FA70BD2DE9F843FA
:1022F0000400256800265FF000092068006A814616
:1023000019F00F000600C9F343400700C9F30A1093
:1023100080463800022802D0052860D060E0B8F17D
:10232000000F5BD0F6B2282000FB0640006C0028AE
:1023300054D0424692B2F6B2282000FB0640016C0F
:10234000206800F0F3F8F6B2282000FB0640006C8D
:1023500018EB0000F6B2282101FB06410864F6B232
:10236000282000FB0640806C18EB0000F6B2282104
:1023700001FB06418864F6B215EB461010F5A0602B
:1023800000691949084229D0F6B215EB461010F53C
:10239000A060006830F08040F6B215EB461111F5F0
:1023A000A0610860F6B215EB461010F5A060006859
:1023B00050F00040F6B215EB461111F5A06108602F
:1023C000F6B2282000FB064090F84C0090F0010087
:1023D000F6B2282101FB064181F84C0000E0FFE73E
:1023E000BDE8F183000000000000F81F30B583B0A5
:1023F0000400256815F588600068019015F588606F
:1024000000680090009830F02E000090019880073E
:102410000FD50198C00708D52068806930F00050BA
:1024200021688861200000F01AFA009850F002003C
:102430000090019800073CD5009850F008000090EB
:102440000198400727D5A06902280FD1019810F400
:10245000C020B0F5802F04D10221206800F08AF856
:102460000CE00121206800F085F807E0E06803280F
:1024700004D14EF6602015F580614860200000F020
:10248000EEF9E068002814D12068806950F000500F
:10249000216888610DE015F58860006830F02E0035
:1024A00015F5886108602068806950F00050216847
:1024B00088610198800603D5009850F020000090B4
:1024C000009815F58861086037BD00000100886834
:1024D00050F00100886000207047010088684008C3
:1024E000400088600020704702000023880150F0FF
:1024F000200010615B1CDFF87800834201D30320C9
:1025000003E010698006F5D4002070470100002226
:1025100010200861521CDFF85800824201D30320CA
:1025200003E00869C006F5D40020704730B403000A
:102530000800002192B2D41C042594FBF5F4002578
:102540002900A14206D213F580552D680560491C6B
:10255000001DF6E730BC7047010000204A691000FA
:102560008A6910407047406910F001007047000010
:10257000410D0300020012F58060006880088000B1
:1025800012F58063186012F580600068C9B211F01E
:102590000303184312F580631860C9B2012905D1FD
:1025A0004BF6803012F58063586007E0C9B202290B
:1025B00004D141F2707012F58063586000207047BA
:1025C00081B0020012F5886000680090009830F039
:1025D0002E0000900098C00408D4C9B2012905D18A
:1025E000009850F4805012F5886318600098C00479
:1025F00008D5C9B2002905D1009830F4805012F5F1
:1026000088631860002001B0704710F58060406951
:1026100080B2704710B402000023C9B212EB41101F
:1026200010F5A0600068C9B212EB411010F5A0606F
:102630000068000356D5C9B212EB411010F5A06036
:10264000006850F08040C9B212EB411414F5A06448
:102650002060D06A000436D1C9B212EB411010F5E7
:10266000A060006840004008C9B212EB411414F5A4
:10267000A0642060C9B212EB411010F5A0600068A0
:1026800050F00040C9B212EB411414F5A064206070
:10269000C9B212EB411010F5A060006830F40040A0
:1026A000C9B212EB411414F5A06420605B1CB3F5B1
:1026B0007A7F6FD8C9B212EB411010F5A0600068A4
:1026C0000028F3D466E0C9B212EB411010F5A06007
:1026D000006850F00040C9B212EB411414F5A06438
:1026E000206057E0C9B212EB411010F5A0600068FD
:1026F00050F08040C9B212EB411414F5A064206080
:1027000012F580600069000436D1C9B212EB4110A5
:1027100010F5A060006840004008C9B212EB4114F7
:1027200014F5A0642060C9B212EB411010F5A0604E
:10273000006850F00040C9B212EB411414F5A064D7
:102740002060C9B212EB411010F5A060006830F4AF
:102750000040C9B212EB411414F5A06420605B1C68
:10276000B3F57A7F16D8C9B212EB411010F5A0600C
:1027700000680028F3D40DE0C9B212EB411010F547
:10278000A060006850F00040C9B212EB411414F58B
:10279000A0642060002010BC7047F8B5040000263B
:1027A0002000FFF79AFE10212000FFF79DFE200079
:1027B000FFF7ACFE00200500EDB2102D14DAEDB2EB
:1027C00014EB451010F5A0600068070057F0804733
:1027D0007F007F0837F40047EDB214EB451010F589
:1027E000A06007606D1CE7E700200500EDB2102D2A
:1027F00020DAEDB214EB451010F5A0600068070078
:1028000057F0804757F0004737F40047EDB214EB1C
:10281000451010F5A0600760761CB6F57A7F07D8E2
:10282000EDB214EB451010F5A06000680028F3D459
:102830006D1CDBE75FF0FF3014F5806148615FF0ED
:10284000FF3060612000FFF741FE0020F2BD000074
:1028500010B50400D4F8900200F020F810BD10B5B7
:102860000400D4F8900200F033F810BD10B5040055
:10287000D4F8900200F045F810BD704710B5040080
:10288000D4F8B002FFF724F8002010BD10B5040002
:10289000D4F8B002FFF733F8002010BD10B50400E3
:1028A000D4F8A802401CC4F8A802200000F001F8E7
:1028B00010BD10B5040020780A2808D1D4F86402AD
:1028C000002804D02000D4F864128969884710BD1C
:1028D00010B50400207800280CD1012084F81E02D5
:1028E000D4F8B40200280AD004212000D4F8B4227D
:1028F000904704E02078012801D1022020700020B8
:1029000010BD10B504002000FFF7C0FF21792000A2
:1029100000F022F86179200000F01EF8002084F811
:102920001E02D4F8B402002804D005212000D4F8F7
:10293000B4229047074800F021F805A000F01EF8E7
:102940002000FFF79BFF03202070002010BD000037
:102950000A000000C86200080200C9B20B290BDAA5
:10296000C9B212EB8100D0F86C024004400CC9B22D
:1029700012EB8103C3F86C02002070470EB400B55F
:1029800082B003A90091024600AB012103487844BC
:102990000A3000F005F806BC5DF810FB4539000070
:1029A0002DE9F04F80460FF2847095B092461D4697
:1029B000D0E90023CDE9132303AE00200391B061D9
:1029C0000DF1340900E0A2440020ADF8020013AB81
:1029D0004FF0FF3251460DF1020000F0B3FB044608
:1029E000012C05DA9AF80000441EA441E443E40FE8
:1029F000BDF8020025280CBFA4F1010BA346BBF1D2
:102A0000010F0EDB574617F8011B0398C04700283B
:102A1000039000F0CE81B069401CBBF1010BB061A6
:102A2000F1D1BDF80200252804D10020F06030610A
:102A3000706105E00028C6D1B069BCE140F001003A
:102A40001AF8011F2029F9D023290DD02B2904D0F1
:102A50002D2906D030290AD00CE040F0020080B2C7
:102A6000EEE740F00400FAE740F00800F7E740F036
:102A70001000F4E72A290FD12968296051F8042BA6
:102A80002960002A326204D5514240F004003162CC
:102A900080B20AF1010A15E0002131620CE0316ACE
:102AA0006FF00043994205D001EB810302EB430133
:102AB000303931620AF1010A9AF80020A2F130019E
:102AC0000A29ECD39AF800102E2903D04FF0FF31D9
:102AD000F16122E01AF8011F2A2908D1296829602A
:102AE0000AF1010A51F8042B2960F26115E0002176
:102AF000F1610CE0F1696FF00043994205D001EB00
:102B0000810302EB43013039F1610AF1010A9AF8BD
:102B10000020A2F130010A29ECD3B0840FF2146036
:102B20009AF8001000F01EFB08B11AF8010B8DF89E
:102B300032009DF83200682804BF9AF80000682827
:102B400004D162208DF832000AF1010A0DA8B060AC
:102B50001AF8014B252C13D0582C40D0632C00F0D0
:102B60009880642C18BF692C71D06F2C37D0702CD2
:102B70002BD0732C0AD0752C18BF782C2FD0ABE03B
:102B80000120F06025208DF83400AFE09DF8320080
:102B90006C282868286014D050F8044B28607460B2
:102BA000F769002F04D5204600F0E8FA074606E052
:102BB0003A460021204600F0FDFA00B1071B3761BC
:102BC00094E050F8042B28607FE02868286050F8D3
:102BD000041B286002910DA87060782155E09DF8D3
:102BE00032006C280DD0712818BF6A2809D12868D6
:102BF000C01D20F007022A60D2E9000108322A60D5
:102C000004E02968296051F8040B296002909DF8BE
:102C10003200682802D102A8008803E0622802D1AD
:102C200002A80078029096F82400000728D50298A0
:102C300030B344F02000782822D1F068302100F829
:102C40000910401C411CF16000F8094018E09DF893
:102C50003200294600F0B2F80028029002D5F06850
:102C60002D2109E0B08C810702D5F0682B2103E00B
:102C7000C00705D5F068202100F80910401CF0605D
:102C80000DA8F16808187060214602A800F0CFF97D
:102C90002CE09DF832006C2809D00120F0602868F3
:102CA000286050F8041B28608DF834101EE0286856
:102CB000286001AA50F8041B2860ADF80410002019
:102CC000ADF806004FF0FF30F06102A9404600F079
:102CD0009BF800280AD56CE00120F06025208DF8D3
:102CE00034001CB10220F06089F80140306AF168BC
:102CF000401A7169401A3169441A96F82400400755
:102D00000FD420208DF80000002708E0012300AA3E
:102D100002A9404600F0F2F900284AD17F1CA742E0
:102D2000F4DBF7680DF1340B0AE01BF8011B039884
:102D3000C047002803903CD0B069401CB0617F1EA2
:102D4000002FF2D130208DF800004FF0000B776992
:102D500008E0012300AA02A9404600F0CFF940BBD9
:102D60000BF1010BBB45F4DB3769D6F804B009E081
:102D70001BF8011B0398C0470390D0B1B069401CF9
:102D8000B0617F1E002FF3D196F8240040077FF535
:102D90001BAE20208DF8000000E07F1CA742BFF68C
:102DA00013AE012300AA02A9404600F0A7F90028AB
:102DB000F3D04FF0FF3015B0BDE8F08F622815D08A
:102DC00068280CD06C2818BF742816D07A2814D123
:102DD0000A680A6052F8040B0A60002170470A680A
:102DE0000A6052F8040B0A6000B20BE00A680A603D
:102DF00052F8040B0A6040B204E00A680A6052F814
:102E0000040B0A60C11770472DE9F44F0D4694B0CA
:102E1000D5F820A0BAF1000F804648BF6FF0004AF5
:102E200000F0F4F9696A401801900FF21030D0E90F
:102E30000023CDE9022395F82800400702D4019829
:102E4000412805D240200DF110090190002607E02D
:102E5000FEF756F85FEA0009F8D1AAE7AAEB040AE0
:102E6000BAF1010FC0F28B801498018802AA0DF10B
:102E7000010000F0D0F90028044600F18E8014987B
:102E8000008810B9641E00F18880A24577DB2869AC
:102E900001992218914260D26E624042A969401A9B
:102EA0006969461A95F8280040070FD420208DF84C
:102EB0000000002708E0012300AA2946404600F050
:102EC0001DF9002869D17F1CB742F4DB2F69CB467E
:102ED0000AE01BF8011B6868C047002868605CD0E6
:102EE000E869401CE8617F1E002FF2D130208DF888
:102EF00000004FF0000BAF6909E0012300AA29464A
:102F0000404600F0FBF8002847D10BF1010BBB4510
:102F1000F3DB6F69D5F808B009E01BF8011B68689E
:102F2000C0476860C8B3E869401CE8617F1E002F95
:102F3000F3D195F8280040070DD520208DF800002A
:102F400007E0012300AA2946404600F0D7F820BB3D
:102F50007F1CB742F5DB00262E61224628690DF161
:102F60000101484400F064F9286920182861149888
:102F7000801C1490801E008800287FF46FAF686A60
:102F80002969401AA969401A6969A0EB010A95F8F4
:102F90002800400710D400240CE04FF0FF363EE03C
:102FA00068682021C04700286860F6D0E869401CA6
:102FB000E861641C5445F3DB2B694A4629464046C8
:102FC00000F09CF80028E8D1AC69002709E06868A7
:102FD0003021C04700286860DFD0E869401CE86104
:102FE0007F1CA742F3DB6B69AA682946404600F0C4
:102FF00085F80028D1D195F8280040070DD5002488
:1030000009E068682021C04700286860C5D0E869E9
:10301000401CE861641C5445F3DB2E616E6204A819
:1030200081451CBF4846FEF7CBF83046C3E6F0B4F6
:10303000C2686F2908BF082405D041F02003782B0F
:1030400014BF0A24102418230668642918BF6929AC
:10305000374602D1002E48BF7F425FB9056A4DB99D
:10306000082C27D190F82810090723D530211723E1
:10307000D1751FE0B7FBF4F604FB16773037FFB2CB
:103080005D1E3A2FA4BFA1F1510C6744AF542B46EB
:10309000370003D085689E18B542EBD3082C09D1C0
:1030A00090F82810090705D5995C302902D05B1EDD
:1030B000302199549A188260C3F11801026A416163
:1030C000914208DA511A81614FF6EF72018D114079
:1030D0000185F0BC7047002A0ED590F8282002F038
:1030E0001402102A08D1426A0369D21A8369D21ADB
:1030F000531A012BA8BF8361F0BC7047F8B5044692
:103100000D4616461F46002004E0E869401CE861B1
:103110007F1E002047B116F8011B6868A0470028F1
:103120006860F2D14FF0FF30F2BD000000000000F7
:1031300000000000686C747A4C0000000000000081
:1031400000000000F8B504460D4616461F4600F084
:10315000ABF83B4632462946204601B0BDE8F04078
:1031600000F0B9B80278C9B28A421AB11CBF10F88F
:10317000012FF9E718BF00207047000000F101039C
:10318000810704D010F8011B89B18107FAD10268C8
:10319000B2F10131914311F0803F04BF50F8042F88
:1031A000F6E710F8011B11B110F8011BFBE7C01A7C
:1031B00070470000C9B2830706D0521E22D310F810
:1031C000013B9942F7D11FE0083A13D302F1040200
:1031D00041EA012141EA014150F8043B121F21BF9D
:1031E0004B40A3F1013C2CEA030C1CF0803FF3D0D0
:1031F000C9B2001F083210F8013B521E28BF91EAE5
:10320000030FF8D818BF0120401E704780B500F0AA
:103210004BF8012002BD70B504460D46164600F07D
:1032200043F8324629462046BDE8704000F046B8D3
:1032300062B38B0708D0521E11F8013B00F8013B26
:1032400000F024808B07F6D1830740F0208000BF78
:10325000103A07D330B4B1E83810103AA0E838106B
:10326000F9D230BC530724BFB1E80810A0E8081019
:1032700044BF51F8043B40F8043BD20724BF31F867
:10328000022B20F8022B44BF0B7803707047083ADA
:1032900007D3B1E80810083A40F8043B40F804CBE3
:1032A000F7D25307E4E7000080B5DFF80C0000F028
:1032B00035F8806902BD00000800002030B430B944
:1032C0000FF24800D0E90045C2E900451BE001705B
:1032D000012030BC704730B431B90FF23800D0E96A
:1032E0000045C3E900450EE01AB930BC6FF001009B
:1032F000704708B10A7802800978481E804130BCC6
:10330000C043C00F7047002030BC70470000000071
:1033100000000000000000000000000070470000F6
:1033200070B582B0040000252078C00740F1AF805E
:10333000DFF83808006810F00C0004280BD0DFF824
:103340002C08006810F00C00082810D1DFF82008C5
:10335000006840020BD5DFF810080068800340F1D8
:1033600096806068002840F09280012063E2DFF8D8
:10337000F807006830F48030DFF8EC170860DFF8F9
:10338000E807006830F48020DFF8DC170860DFF819
:10339000D807006830F48030DFF8CC17086000F000
:1033A00027FC0500DFF8C0070068800308D500F09F
:1033B0001FFC401B41F289318842F3D303203AE2DB
:1033C000DFF8A407006830F48030DFF89C1708604D
:1033D0006068B0F5803F10D1DFF88C07006830F4EA
:1033E0008020DFF884170860DFF87C07006850F45D
:1033F0008030DFF87417086024E06068B0F5A02F13
:1034000010D1DFF86407006850F48020DFF8581707
:103410000860DFF85407006850F48030DFF8481780
:1034200008600FE0DFF84007006830F48020DFF824
:1034300038170860DFF83007006830F48030DFF8B4
:10344000281708606068002810D000F0D1FB050044
:10345000DFF814070068800319D400F0C9FB401B93
:1034600041F289318842F3D30320E4E100F0C0FB4C
:103470000500DFF8F4060068800308D500F0B8FB0B
:10348000401B41F289318842F3D30320D3E12078F5
:1034900080076ED5DFF8D406006810F00C0F0BD053
:1034A000DFF8C806006810F00C0008281FD1DFF80C
:1034B000C006006840021AD4DFF8AC060068800736
:1034C00004D5E068012801D00120B4E1DFF89806B6
:1034D00000685FF0F851B1FA81F130F0F80022692C
:1034E00012FA01F10843DFF88016086041E0E06855
:1034F000002827D0DFF87006006850F00100DFF8E0
:103500006816086000F074FB0500DFF85C060068D0
:10351000800706D400F06CFB401B6528F5D3032020
:1035200089E1DFF8440600685FF0F851B1FA81F1F3
:1035300030F0F800226912FA01F10843DFF828168A
:10354000086016E0DFF82006006840084000DFF859
:103550001816086000F04CFB0500DFF80C06006848
:10356000800706D500F044FB401B6528F5D30320F7
:1035700061E12078000730D56069002816D0DFF8B7
:10358000F405006850F00100DFF8E815086000F06D
:103590002FFB0500DFF8DC05006880071DD400F074
:1035A00027FB401B6528F5D3032044E1DFF8C40561
:1035B000006840084000DFF8BC15086000F018FB08
:1035C0000500DFF8B0050068800706D500F010FBA5
:1035D000401B6528F5D303202DE12078400740F1FA
:1035E000B480DFF89405006850F08050DFF888154B
:1035F0000860DFF88405006810F0805000900098A3
:10360000DFF87805006850F48070DFF87015086006
:1036100000F0EEFA0500DFF864050068C00506D486
:1036200000F0E6FA401B6528F5D3032003E1DFF83C
:103630005005006840084000DFF844150860DFF8D6
:103640004005006830F00400DFF834150860DFF84A
:103650003005006840084000DFF82415086000F0DD
:10366000C7FA0500DFF818050068800708D500F0E4
:10367000BFFA401B41F289318842F3D30320DAE0DC
:10368000DFF8FC04006840084000DFF8F41408602C
:10369000A068012810D1DFF8E804006830F00400C9
:1036A000DFF8DC140860DFF8D804006850F001008F
:1036B000DFF8CC14086023E0A068052810D1DFF8FB
:1036C000C004006850F00400DFF8B4140860DFF8AC
:1036D000B004006850F00100DFF8A41408600FE0A7
:1036E000DFF89C04006830F00400DFF894140860F0
:1036F000DFF88C04006840084000DFF8841408609C
:10370000A068002810D000F073FA0500DFF87004FC
:103710000068800719D400F06BFA401B41F2893130
:103720008842F3D3032086E000F062FA0500DFF858
:1037300050040068800708D500F05AFA401B41F297
:1037400089318842F3D3032075E0A069002871D045
:10375000DFF81804006810F00C00082868D0A06991
:1037600002284ED1DFF80004006830F08070DFF8E6
:10377000F813086000F03CFA0500DFF8EC0300687D
:10378000800106D500F034FA401B6528F5D30320EC
:1037900051E0DFF8F003B0FA80F14FF44040B0FAA6
:1037A00080F2F020B0FA80F0236A666A16FA01F11E
:1037B0001943A36A5B085B1E13FA02F21143E26924
:1037C0001143E26A12FA00F0084350F00050DFF8AB
:1037D000A0130860DFF89003006850F08070DFF8F5
:1037E0008813086000F004FA0500DFF87C03006825
:1037F00080011FD400F0FCF9401B6528F5D303209D
:1038000019E0DFF86403006830F08070DFF85813C7
:10381000086000F0EDF90500DFF84C030068800156
:1038200008D500F0E5F9401B6528F5D3032002E038
:10383000012000E0002076BD70B504000D000026D8
:10384000DFF84403006810F00F00A84280F0838086
:10385000DFF834030068000900012843DFF828136B
:103860000860DFF82403006810F00F00A84201D0C0
:1038700001200DE12078800709D5DFF8F00200680B
:1038800030F0F000A1680843DFF8E012086020780B
:10389000C00740F1DF806068012806D1DFF8C80268
:1038A0000068800312D40120F2E06068022806D18B
:1038B000DFF8B4020068800108D40120E8E0DFF8F6
:1038C000A8020068800701D40120E1E0DFF89C0233
:1038D00000688008800061680843DFF89012086083
:1038E00000F086F906006068012810D1DFF87C023C
:1038F000006810F00C00042800F0AC8000F078F9AB
:10390000801B41F289318842F0D30320C0E0606817
:10391000022810D1DFF85402006810F00C000828CB
:1039200000F0988000F064F9801B41F289318842F0
:10393000F0D30320ACE0DFF83402006810F00C0F85
:1039400000F0888000F054F9801B41F289318842F0
:10395000F1D303209CE02078800709D5DFF80C0222
:10396000006830F0F000A1680843DFF8001208603A
:103970002078C0075CD56068012806D1DFF8E8012F
:103980000068800312D4012082E06068022806D11A
:10399000DFF8D4010068800108D4012078E0DFF866
:1039A000C8010068800701D4012071E0DFF8BC0184
:1039B00000688008800061680843DFF8B011086083
:1039C00000F016F90600606801280FD1DFF89C01AD
:1039D000006810F00C0004282AD000F009F9801BC0
:1039E00041F289318842F1D3032051E06068022816
:1039F0000FD1DFF87801006810F00C00082817D00C
:103A000000F0F6F8801B41F289318842F1D303209F
:103A10003EE0DFF85801006810F00C0F08D000F00D
:103A2000E7F8801B41F289318842F2D303202FE06E
:103A3000DFF854010068000900012843DFF848114D
:103A40000860DFF84401006810F00F00A84201D0C0
:103A500001201DE02078400709D5DFF8100100683B
:103A600030F4E050E1680843DFF800110860207886
:103A7000000709D5DFF8F400006830F460402169E0
:103A800050EAC100394908600F2000F099F8002081
:103A900070BDF0B40021002200230020334C2468C4
:103AA00014F00C04002C04D0042C05D0082C06D0F3
:103AB00040E0364C20003FE0354C20003CE02C4CF0
:103AC000246814F03F042100294C2468640210D5B6
:103AD000274C24682E4DB5FBF1F547F6C0763440EF
:103AE000284EB6FA86F62700F74007FB05F42200B9
:103AF0000FE01F4C2468254DB5FBF1F547F6C07665
:103B00003440204EB6FA86F62700F74007FB05F44E
:103B10002200174C246814F440344FF44045B5FAA1
:103B200085F52600EE40741C64002300B2FBF3F41C
:103B3000200001E0154C2000F0BC704710B5FFF7E5
:103B4000A8FF0A4909685FF07062B2FA82F2114B6D
:103B500011F0F0010C00D440E15C0200CA400E48B4
:103B600002600D48006810BD00380240083802406D
:103B7000043802407438024040380240007000406F
:103B8000703802400000FE03003C02400024F400B4
:103B900040787D01046300086001002080B516486C
:103BA000006850F4007014490860032000F09AF88F
:103BB0000F2000F005F800F002F8002002BD704769
:103BC00010B50400FFF7BAFF4FF47A71B0FBF1F0C3
:103BD00000F0AFF8002221005FF0FF3000F088F81D
:103BE000002010BD05480068401C0449086070476B
:103BF0000248006870470000003C02409CE1002041
:103C000010F00702564B1B6819004FF6FF031940CE
:103C1000544B53EA02231943514B196070475048E3
:103C20000068C0F302207047012110F01F0291408C
:103C30004D4A40B2430942F823107047012110F069
:103C40001F029140494A40B2430942F8231070478D
:103C500010B440B2002808D50A01454B40B210F01C
:103C60000F04E31803F8042C03E00A01414B40B2AF
:103C7000C25410BC704770B4030013F00704D4F1B1
:103C80000706052E01D3042001E0D4F10700261D0C
:103C9000072E01D2002500E0E51E012616FA00F0ED
:103CA000401E0840A8400121A940491E1140084378
:103CB00070BC704710B50400601EB0F1807F01D366
:103CC00001200EE0601E2C4908600F215FF0FF30DC
:103CD000FFF7BEFF00202949086007202849086037
:103CE000002010BD10B504002000FFF789FF10BDB3
:103CF000F8B504000D0016000027FFF790FF07003D
:103D0000320029003800FFF7B6FF0100200040B262
:103D1000FFF79EFFF1BD10B50400200040B2FFF791
:103D200083FF10BD10B50400200040B2FFF786FFEE
:103D300010BD10B504002000FFF7BCFF10BD042823
:103D400006D10F49096851F004010D4A116005E0E0
:103D50000B49096831F00401094A116070470000FD
:103D60000CED00E00000FA0500E100E080E100E079
:103D700018ED00E000E400E014E000E018E000E0EE
:103D800010E000E02DE9F84304000025002600279C
:103D90005FF000085FF000092078C00714D5DFF855
:103DA000A406006830F40000DFF898160860DFF819
:103DB00094060068616B0843DFF888160860606B42
:103DC000002801D1012080462068000314D5DFF8C7
:103DD0007806006830F44010E16B0843DFF868169D
:103DE0000860E06BB0F5801F01D101208046E06BD8
:103DF000002801D1012081462068C00214D5DFF8D7
:103E00004806006830F44000216C0843DFF838169B
:103E10000860206CB0F5800F01D101208046206C35
:103E2000002801D1012081462068C00101D5012070
:103E300080462078800640F18280DFF81006006816
:103E400010F44070216B11F44071884277D0DFF894
:103E50000006006850F08050DFF8F4150860DFF8C5
:103E6000F005006810F0805000900098DFF8E4053D
:103E7000006850F48070DFF8DC150860FFF7B8FECA
:103E80000500DFF8D0050068C00506D4FFF7B0FED6
:103E9000401B6528F5D30320D2E2DFF8B0050068A7
:103EA00030F440700600DFF8A405006850F480305C
:103EB000DFF898150860DFF89405006830F480306A
:103EC000DFF888150860DFF884050660B00710D5B4
:103ED000FFF78EFE0500DFF874050068800708D440
:103EE000FFF786FE401B41F289318842F3D303205D
:103EF000A6E2206B10F44070B0F5407F0DD1DFF8E2
:103F00004405006830F4F810216BDFF84C251140AF
:103F10000843DFF83015086007E0DFF8280500687F
:103F200030F4F810DFF81C150860DFF82005006891
:103F3000216B0905090D0843DFF81015086020788A
:103F4000C0060FD5DFF80005006830F08070DFF89C
:103F5000F8140860DFF8F0040068A16B0843DFF88C
:103F6000E81408602068400409D5DFF8F004006810
:103F700030F44030616E0843DFF8E01408602068D8
:103F8000000409D5DFF8D404006830F44020A16EA5
:103F90000843DFF8C81408602068C00309D5DFF8BB
:103FA000BC04006830F44010E16E0843DFF8AC1444
:103FB00008602068800309D5DFF8A004006830F4A9
:103FC0004000216F0843DFF8941408602078400611
:103FD00009D5DFF88804006880088000616C084318
:103FE000DFF8781408602078000609D5DFF86C0443
:103FF000006830F00C00A16C0843DFF86014086022
:104000002068C00509D5DFF85404006830F030009E
:10401000E16C0843DFF8441408602068800509D586
:10402000DFF83804006830F0C000216D0843DFF885
:104030002C1408602068400509D5DFF820040068CA
:1040400030F44070616D0843DFF810140860206898
:10405000000509D5DFF80404006830F44060A16D64
:104060000843DFF8F81308602068C00409D5DFF8BA
:10407000EC03006830F44050E16D0843DFF8DC13D6
:1040800008602068800409D5DFF8D003006830F4A8
:104090004040216E0843DFF8C413086020684002E6
:1040A00009D5DFF8B803006830F08060A16F0843DD
:1040B000DFF8A8130860206880020FD5DFF89C03A2
:1040C000006830F00060E16F0843DFF8901308608B
:1040D000E06FB0F1006F01D1012081462078000728
:1040E00001D5012081462068400309D5DFF86C0323
:1040F000006830F04070616F0843DFF860130860BB
:10410000206800020AD5DFF85403006830F08050C0
:10411000D4F880100843DFF844130860B8F1010FA9
:1041200004D02068B0F1007F40F0C980DFF8300390
:10413000006830F08060DFF828130860FFF758FD52
:104140000500DFF81C030068000106D5FFF750FDED
:10415000401B6528F5D3032072E12078C00725D5E0
:10416000606B002822D1DFF8FC02006810F44030B8
:104170004FF44041B1FA81F10200CA401600DFF865
:10418000E402006810F07060F021B1FA81F10200E1
:10419000CA4017006068310451EA801050EA076095
:1041A000A16850EA0170DFF8BC12086020680003C3
:1041B00003D5E06BB0F5801F06D02068C00231D572
:1041C000206CB0F5800F2DD1DFF89802006810F454
:1041D00040304FF44041B1FA81F10200CA4016006C
:1041E000DFF88002006810F0E0400E21B1FA81F1A2
:1041F0000200CA4017006068310451EA8010E1688B
:1042000050EA016050EA0770DFF858120860DFF8E2
:104210003802006840094001616A491E0843DFF81E
:10422000281208602068C00121D5DFF83802006834
:1042300010F07060F021B1FA81F10200CA4016005E
:10424000DFF82002006810F0E0400E21B1FA81F1A1
:104250000200CA40170060682169090451EA801011
:1042600050EA066050EA0770DFF8F811086020682D
:1042700080010DD560682169090451EA8010E16868
:1042800050EA0160A16850EA0170DFF8D8110860B7
:10429000DFF8CC01006850F08060DFF8C4110860DE
:1042A000FFF7A6FC0500DFF8B8010068000106D49E
:1042B000FFF79EFC401B6528F5D30320C0E0B9F151
:1042C000010F40F0BC80DFF89801006830F08050AA
:1042D000DFF88C110860FFF78BFC0500DFF8800128
:1042E0000068800006D5FFF783FC401B6528F5D3E6
:1042F0000320A5E02068000302D5E06B002805D06C
:104300002068C00231D5206C00282ED1DFF858017A
:10431000006810F440304FF44041B1FA81F10200DE
:10432000CA401600DFF84001006810F0E0400E219E
:10433000B1FA81F10200CA4017006069310451EA04
:104340008010A16950EA016050EA0770DFF8181187
:104350000860DFF8F400006830F4F850A16A491EE4
:1043600050EA0120DFF8E01008602068800225D5BF
:10437000E06FB0F1006F21D1DFF8EC00006810F0C1
:104380007060F021B1FA81F10200CA401600DFF836
:10439000D800006810F0E0400E21B1FA81F102006F
:1043A000CA4017006069216A090451EA801050EA86
:1043B000066050EA0770DFF8B01008602078000748
:1043C00029D5DFF8A400006810F07060F021B1FA80
:1043D00081F10200CA401600DFF88C00006810F47A
:1043E00040304FF44041B1FA81F10200CA40170059
:1043F0006069390451EA801050EA0660E16950EAC8
:104400000170194908601048006830F44030E16AD2
:1044100008430D4908601248006850F08050104968
:104420000860FFF7E5FB05000D480068800006D432
:10443000FFF7DEFB401B6528F6D3032000E00020D9
:10444000BDE8F283083802408C38024070380240E0
:104450004038024000700040FFFCFF0F90380240DF
:10446000003802408438024088380240BFF34F8F42
:10447000BFF36F8F0020DFF834150860DFF83005D8
:10448000006850F40030DFF828150860BFF34F8F44
:10449000BFF36F8F7047F0B40026DFF818753E60E9
:1044A000DFF8146536683000C0F34E36340010F083
:1044B0000706361D3100C0F3C9063500B5FA85F68A
:1044C00016F01F063200BFF34F8F2E0016FA02F7C8
:1044D00014FA01FC5CEA07073B00DFF8E0743B607C
:1044E00037007E1E002FF1D12600741E002EECD165
:1044F000BFF34F8FDFF8B864366856F48036DFF8C4
:10450000B0743E60BFF34F8FBFF36F8FF0BC704746
:1045100010B582B00020040000F0CCF8FFF73EFB9D
:1045200000F052F8002000F087FADFF894040068E9
:1045300050F00200DFF888140860DFF88404006897
:1045400010F00200009000981020DFF87814086046
:10455000DFF87404DFF86C1448600020DFF864149E
:1045600088600320DFF85C14C860DFF85814DFF8B7
:104570005C0400F0ADFA00220F210A20FFF7B8FB1F
:104580000A20FFF7C8FBDFF8480400780128FAD1B9
:104590000020DFF83C140870641CE4B2322CF2D125
:1045A000002000F07DFA00200400ECE7DFF824048E
:1045B0000068411CDFF81C241160C92803D30020C7
:1045C000DFF810140860704700B5B3B0DFF80804D6
:1045D00000688009800150F01000DFF8FC130860CB
:1045E000DFF8F403006830F48000DFF8EC130860B3
:1045F000DFF8E803006850F08050DFF8E01308604F
:10460000DFF8D803006810F0805000900098DFF8C1
:10461000D003006830F4404050F48040DFF8C0130D
:104620000860DFF8BC03006810F440400090009878
:10463000022006900120099010200A9000200C9082
:1046400000200D9010200E9006A8FEF769FE0F20A6
:104650000190002002900020039000200490002090
:104660000590002101A8FFF7E7F84CF20120129015
:10467000C020139000201690022014900220159064
:1046800001201B9000201F900020269000202B90DE
:1046900000202C9012A8FFF775FBFFF74FFA4FF49C
:1046A0007A71B0FBF1F0FFF744FB0420FFF747FB02
:1046B00033B000BD80B5FFF7D9FEFFF7ECFE01BDBA
:1046C00010B586B004002068DFF8201388421BD1A3
:1046D000DFF81403006850F40050C3490860C24872
:1046E000006810F40050009000987420019002209F
:1046F000029000200390032004900520059001A95A
:10470000BB4800F0E5F952E02068BA4988422FD151
:10471000B548006850F48010B3490860B24800689A
:1047200010F4801000900098A548006850F0200018
:10473000A3490860A248006810F02000009000988B
:104740004FF4707001900220029002200390032029
:1047500004900520059001A9A24800F0B9F90222B1
:1047600002215520FFF7C4FA5520FFF7D4FA1EE0C6
:104770002068A14988421AD19B48006850F4001073
:10478000994908609848006810F40010009000985B
:104790004FF4C040019002200290002003900320BB
:1047A00004900520059001A9944800F091F906B005
:1047B00010BD80B58F48924908600020904948603C
:1047C0004FF480608E4988604FF470608C49C860F7
:1047D00000208B4908610020894948614FF400702E
:1047E0008749886100208649086200208449486220
:1047F00000208349886207208149C86200208049DF
:10480000086300207E4948637D4800F08BFA7C48AD
:104810000068406850F0600079490968486078484D
:104820000068006850F0400075490968086001BDE3
:1048300010B5734800688068400600F196807048A3
:1048400000688068C00740F190806D48006840684B
:10485000400640F18A80674800F088F80400694803
:10486000007890F0010067490870664800780028D9
:1048700067D16548007890F001006349087062488C
:10488000007801282ED1614800686149098810FA32
:1048900081F041F6FE71884260D25D480088411C7B
:1048A0005B4A11805B49594A126812FA80F0A4B23F
:1048B000594A1288120352EA141221F8102054485F
:1048C0000088411C524A11805249504A126812FA1B
:1048D00080F0A4B2504A1288120352EA141221F84E
:1048E00010203BE04D4800684D49098810FA81F0DE
:1048F00041F6FE71884231D249480088411C484A3D
:1049000011804849454A126812FA80F0A4B2424A1E
:104910001288120352EA141221F81020404800882D
:10492000411C3F4A11803F493C4A126812FA80F00C
:10493000A4B2394A1288120352EA141221F8102044
:104940000CE035480480384834490968344A1288F4
:1049500011FA82F1304A128820F811203348007889
:10496000002802D101203149087010BDC06880B212
:10497000704780B52E480068C00614D52D480088C1
:104980000A2808D1FFF715FF00202A4908800A20CD
:10499000FFF7C8F904E027480088401C2549088033
:1049A00010202349086001BD0000000050EF00E026
:1049B00014ED00E084ED00E080ED00E060EF00E049
:1049C0003038024080E10020000011100004024055
:1049D000B0E1002098E10020043802404038024055
:1049E000007000400014024044380240003401408E
:1049F00000100240005001400054014000180240E5
:104A0000F4DE0020B3E10020B2E10020809100201C
:104A1000A8E1002078490020AEE1002090D90020D4
:104A2000AAE100208891002068010020B1E1002067
:104A3000143C0140ACE1002030B587B00400E4B282
:104A4000002C2BD1DFF87C000500DFF87C0000682B
:104A500050F48070DFF870100860DFF86C000068B8
:104A600010F4807000900098DFF86000E4B250F815
:104A70002400019001200290012003900320049063
:104A800001A9280000F024F80022DFF84000E4B279
:104A900050F8241089B2280000F015F907B030BD95
:104AA00038B50400E4B2002C0BD1DFF81800050083
:104AB000DFF81800E4B250F8241089B2280000F0A2
:104AC0000CF931BD0020024030380240306300084C
:104AD000F8B4002200230024002500263200102A0A
:104AE00080F0EF800126964033000E681E403400AF
:104AF0009C4240F0E4804E68022E02D04E68122E96
:104B000016D1D60810EB8606366A35000F2612F04D
:104B10000707FFB2BF00BE40B5430E6912F007079A
:104B2000FFB2BF00BE403543D60810EB86063562A3
:104B30000668350003261700FFB27F00BE40B5436C
:104B40000E7916F003061700FFB27F00BE40354312
:104B500005604E68012E08D04E68022E05D04E68C2
:104B6000112E02D04E68122E19D186683500032608
:104B70001700FFB27F00BE40B543CE681700FFB2FA
:104B80007F00BE403543856046683500012696406B
:104B9000B5434E68C6F30016964035434560C66877
:104BA000350003261700FFB27F00BE40B5438E6874
:104BB0001700FFB27F00BE403543C5604E68F60067
:104BC0007DD5484E366856F48046464F3E60454E89
:104BD000366816F480460096009E434E970856F8B5
:104BE000276035000F2612F00307FFB2BF00BE405A
:104BF000B5433E4EB04201D100262DE03C4EB042BE
:104C000001D1012628E03B4EB04201D1022623E02B
:104C1000394EB04201D103261EE0384EB04201D1D8
:104C2000042619E0364EB04201D1052614E0354E77
:104C3000B04201D106260FE0334EB04201D1072623
:104C40000AE0324EB04201D1082605E0304EB042B3
:104C500001D1092600E00A26F6B212F00307FFB2DE
:104C6000BF00BE403543204E970846F82750294ED6
:104C700036683500A5434E68F60300D52543254E1A
:104C80003560254E36683500A5434E68B60300D51D
:104C90002543214E3560214E36683500A5434E68C8
:104CA000F60200D525431D4E35601D4E3668350091
:104CB000A5434E68B60200D52543194E3560521CF7
:104CC0000DE7F1BC7047D2B2002A02D089B28161EF
:104CD00002E089B20B0483617047426989B24A409D
:104CE00042617047443802400838014000000240E9
:104CF0000004024000080240000C02400010024084
:104D00000014024000180240001C02400020024033
:104D100000240240003C0140043C0140083C0140AA
:104D20000C3C014038B50400002C01D1012064E0A6
:104D300094F85D00002805D1002084F85C00200074
:104D4000FFF7BEFC022084F85D002068006830F0A8
:104D5000400021680860E068B0F5E06F02D90020EB
:104D6000050002E04FF480500500E068B0F5706F78
:104D700005D0E068B0F5E06F01D00020A062206BA4
:104D8000002808D1E068B0F5E06F02D90220206366
:104D900001E0012020636068A1680843216908439D
:104DA00061690843A16911F400710843E16908438E
:104DB000216A0843A16A084321680860206B022821
:104DC00005D12068006850F4006021680860A0697F
:104DD000000C10F00400616A0843616B0843E1684D
:104DE0000843284321684860E06A21680861002080
:104DF0002066012084F85D00002032BD10B504005B
:104E000020688069800713D42068806900060FD469
:104E10002068806940060BD420688069800607D42A
:104E200020688069C00603D42068806900070CD51B
:104E30002068006810F07A007A2806D194F83500CE
:104E4000322802D1200000F0CAF92068806980076A
:104E50000FD42068806900060BD420688069400662
:104E600007D420688069800603D420688069C00662
:104E700010D52068006810F0720072280AD194F8EA
:104E80003500122803D094F83500522802D12000B2
:104E900000F052F820688069400713D420688069C8
:104EA00000060FD42068806940060BD42068806912
:104EB000800607D420688069C00603D42068806912
:104EC00000070CD52068006810F07C007C2806D113
:104ED00094F83500422802D1200000F0E1F9206862
:104EE000806940070FD42068806900060BD42068D1
:104EF0008069400607D420688069800603D4206852
:104F00008069C00610D52068006810F0740074280D
:104F10000AD194F83500222803D094F8350062288D
:104F200002D1200000F0B2F810BD70477047704702
:104F3000704770477047704738B5040094F83400E4
:104F4000012801D102209FE0012084F8340020686C
:104F5000806980070CD5606A411C61620078216815
:104F60008862208D401E2085608D401E608587E010
:104F700020688069000633D5208D002825D1608DFA
:104F8000002822D0206840688005800D0500608DD3
:104F9000FF280CDD002000905FF08073FF222900C5
:104FA00089B2200000F0D6F9FF20208568E00020BB
:104FB00000905FF00073628DD2B2290089B22000A8
:104FC00000F0C8F9608D20855AE0002084F8340094
:104FD000A06B50F04000A0632000FFF7ACFF4FE053
:104FE00020688069400614D5608D002806D12068AD
:104FF000406850F480402168486041E0002084F817
:105000003400A06B50F04000A0632000FFF793FF36
:1050100036E020688069800621D52068006830F07D
:10502000F2002168086020202168C861206840687B
:10503000DFF81C13084021684860012084F835001F
:10504000002084F8340094F83500522803D1200061
:10505000FFF76FFF14E02000FFF767FF10E0206804
:105060008069C0060CD510202168C861002084F832
:105070003400A06B50F00400A0632000FFF75BFF3A
:10508000002084F83400002032BD000038B5040050
:1050900094F83400012801D102209FE0012084F817
:1050A00034002068806940070CD5606A411C616249
:1050B0002168496A0170208D401E2085608D401E48
:1050C000608587E020688069000633D5208D002840
:1050D00025D1608D002822D0206840688005800D91
:1050E0000500608DFF280CDD002000905FF08073CC
:1050F000FF22290089B2200000F02CF9FF20208532
:1051000068E0002000905FF00073628DD2B2290049
:1051100089B2200000F01EF9608D20855AE0002041
:1051200084F83400A06B50F04000A0632000FFF72B
:1051300002FF4FE020688069400614D5608D00288A
:1051400006D12068406850F480402168486041E002
:10515000002084F83400A06B50F04000A0632000D1
:10516000FFF7E9FE36E020688069800621D52068D7
:10517000006830F0F4002168086020202168C861D0
:1051800020684068DFF8C8110840216848600120A5
:1051900084F83500002084F8340094F83500622843
:1051A00003D12000FFF7C6FE14E02000FFF7BEFE8B
:1051B00010E020688069C0060CD510202168C86105
:1051C000002084F83400A06B50F00400A06320009D
:1051D000FFF7B1FE002084F83400002032BD10B586
:1051E000040094F83400012801D1022057E0012086
:1051F00084F8340020688069C00617D5608D0028C7
:1052000006D110202168C861002084F8340042E0F3
:1052100010202168C861A06B50F00400A06300203A
:1052200084F834002000FFF786FE34E020688069AF
:10523000000703D508202168C8612CE02068806938
:10524000800618D52068006830F0FE0021680860EC
:105250002068406850F400402168486020202168A0
:10526000C861012084F83500002084F83400200053
:10527000FFF75DFE0FE02068806980070BD5608D29
:10528000002808D0606A411C616200782168886249
:10529000608D401E6085002084F83400002010BD21
:1052A00010B5040094F83400012801D102204DE02B
:1052B000012084F8340020688069C0060DD51020D4
:1052C0002168C861002084F83400A06B50F004000D
:1052D000A0632000FFF72FFE34E0206880690007FC
:1052E00003D508202168C8612CE020688069400748
:1052F0000CD5606A411C61622168496A0170208D89
:10530000401E2085608D401E60851BE020688069FE
:10531000800617D52068006830F0FC00216808601E
:105320002068406850F400402168486020202168CF
:10533000C861012084F83500002084F83400200082
:10534000FFF7F6FD002084F83400002010BD0000B7
:1053500000E800FE70B4039C0025066876683500FE
:10536000074E354089B28E05B60DD2B256EA0246D6
:105370001E43264335430668756070BC70470000C5
:10538000009800FC10B504002068C069C0070ED565
:1053900020680068C0050AD57FF001002168086216
:1053A000E06E50F00100E066012084F8690020689A
:1053B000C06980070ED520688068C0070AD57FF0D5
:1053C000020021680862E06E50F00400E0660120EF
:1053D00084F869002068C06940070ED5206880689D
:1053E000C0070AD57FF0040021680862E06E50F023
:1053F0000200E066012084F869002068C0690007A7
:105400000ED520688068C0070AD57FF008002168A3
:105410000862E06E50F00800E066012084F8690040
:10542000E06E002802D0200000F099F82068C069E2
:1054300080060CD520680068800608D5200000F0A2
:1054400003F92068806950F00800216888612068AD
:10545000C069000606D520680068000602D5200055
:1054600000F07EF82068C069400606D52068006814
:10547000400602D5200000F0C9F810BD2DE9F0412A
:1054800004000D0016001F00FEF7B2FB8046F6B2C6
:10549000002E2FD12068C0692840A8425AD017F1A9
:1054A000010FF7D0002F05D0FEF7A2FBB0EB0800EC
:1054B000B842EFD32068006830F0800021680860AF
:1054C0002068006830F020002168086020680068CB
:1054D00030F48070216808602068806840084000CF
:1054E00021688860012084F86900002084F8680041
:1054F000032030E02068C0692840A8422AD117F173
:10550000010FF7D0002F05D0FEF772FBB0EB0800BB
:10551000B842EFD32068006830F08000216808604E
:105520002068006830F0200021680860206800686A
:1055300030F480702168086020688068400840006E
:1055400021688860012084F86900002084F86800E0
:10555000032000E00020BDE8F081704770477047ED
:1055600038B5040094F86900122803D094F8690053
:10557000322849D1B4F85200002826D120680068AA
:1055800030F080002168086094F86900322803D167
:10559000222084F8690008E0206880684008400004
:1055A00021688860012084F869007FF07E43002232
:1055B00040212000FFF762FF002801D0032024E0F3
:1055C0002000FFF7CAFF00201FE0A068B0F5805F51
:1055D0000DD1206900280AD1E06C05002888C0059B
:1055E000C00D21688862E06C801CE06405E0E06C1E
:1055F000411CE164007821688862B4F85200401EC2
:10560000A4F85200002000E0022032BD10B50400D2
:105610002068006830F040002168086094F8690054
:10562000322803D1222084F8690008E020688068CD
:105630004008400021688860012084F8690020004B
:10564000FFF78BFF002010BD70B50400B4F85C605C
:1056500094F86900222803D094F86900322844D1D4
:10566000A068B0F5805F0CD12069002809D1606D79
:1056700005002068406A30402880606D801C6065AD
:1056800006E0606D411C61652168496A3140017026
:10569000B4F85A00401EA4F85A00B4F85A00002882
:1056A00021D12068006830F020002168086094F85B
:1056B0006900322803D1122084F869000EE02068C6
:1056C000006830F4807021680860206880684008B5
:1056D000400021688860012084F869002000FFF7FD
:1056E0003DFF002002E0002000E0022070BD00002D
:1056F00038B5DFF838020468DFF824020568DFF8FF
:1057000024020068DFF82812884205D3DFF8180267
:10571000006810F000601EE0DFF808020068DFF8A3
:105720001412884205D3DFF81002006810F0006000
:1057300011E0DFF8F0010068DFF80012884205D3BD
:10574000DFF8FC01006810F0006004E0DFF8F4010D
:10575000006810F00060002800F0C580DFF8C0018C
:105760000068002800F08380DFF8B8010068DFF8E7
:10577000C011884205D35FF00060DFF8CC110860EB
:105780001EE0DFF8A0010068DFF8A811884205D309
:105790005FF00060DFF8B411086011E0DFF8840109
:1057A0000068DFF89811884205D35FF00060DFF8E9
:1057B000A011086004E05FF00060DFF89811086055
:1057C000DFF868010068DFF85C110968C860DFF87D
:1057D00050010068B0F5803F03D2DFF84401006853
:1057E00001E04FF6FF70DFF83C1109684860DFF810
:1057F000340100F0B5F8DFF82C010068006850F0C3
:105800000100DFF8201109680860DFF81401006862
:10581000B0F5803F03D2DFF80801006801E04FF6E1
:10582000FF70DFF80811096811EB4000DFF8FC1089
:105830000860DFF8EC000068B0F5803F03D2DFF8C5
:10584000E000006801E04FF6FF70DFF8D41009684F
:10585000081ADFF8CC100860DFF8C800006800689C
:1058600050F00100DFF8BC10096808603BE0DFF889
:10587000B4000068006840084000DFF8A81009681C
:105880000860DFF8A0000068DFF8A410884205D3A4
:105890005FF00060DFF8B01008601EE0DFF8840001
:1058A0000068DFF89010884205D35FF00060DFF8F1
:1058B0009C10086011E0DFF86C000068DFF87C10D5
:1058C000884205D35FF00060DFF88410086004E0D0
:1058D0005FF00060DFF87C1008600021DFF84C000A
:1058E000006800F07FF831BD80B5FFF701FF01BD12
:1058F00080B5FFF7FDFE01BD80B5DFF85C000068F4
:105900008068000607D500F06EF8010089B2DFF864
:105910004C0000F001F801BD89B2C1607047000081
:105920005C010020BCDF00200464024094E1002000
:1059300059640240B960024000640240596002406C
:1059400004600240006002400C64024008640240AF
:105950000C60024008600240ACE00020003C0040C7
:1059600001000022002901D1012036E0486A002808
:10597000022081F8350008680068020018480240DB
:1059800048688B681843CB6818430B6918434B6908
:1059900018438B691843CB6918430B6A18430243B9
:1059A000486A042803D1C86A0B6B1843024308688D
:1059B0000260086840690200D208D200486A0243C7
:1059C000486A042801D1886A0243086842610020BD
:1059D000C864012081F835000020704700000000F5
:1059E0003F8010F0704700207047000010B4364A26
:1059F0000021134653F8084B844205D1002342F896
:105A0000313002EBC10113E053F8084B491C8442CA
:105A10001EBF491C53F8084B84421EBF491C53F853
:105A2000084B8442EAD0491C1029E3D310BC7047CC
:105A30004B6010BC704770B4234C0023254655F8CA
:105A4000086B8E4209D1014604EBC303012A04BF4F
:105A50005A685118596070BC704755F8086B5B1C48
:105A60008E421EBF5B1C55F8086B8E421EBF5B1C2E
:105A700055F8086B8E42E6D05B1C102BDFD370BC50
:105A8000704710B4104A0021134653F8084B844263
:105A900004D102EBC10010BC4068704753F8084BBA
:105AA000491C84421EBF491C53F8084B84421EBF48
:105AB000491C53F8084B8442EBD0491C1029E4D30D
:105AC00010BC00207047000004DE00202DE9F041EA
:105AD00004460D4620780321084216461F4658D03A
