:020000040800F2
:1000000060110020F5610008B15E0008B35E0008D1
:10001000B55E0008B75E0008B95E00080000000089
:10002000000000000000000000000000BB5E0008AF
:10003000BD5E000800000000BF5E0008C15E000851
:1000400015620008196200081D620008216200089C
:1000500025620008296200082D620008316200084C
:100060003562000839620008C94800084558000890
:100070003D620008416200084562000849620008CC
:100080004D6200085162000855620008596200087C
:100090005D6200086162000865620008696200082C
:1000A0006D620008716200087562000879620008DC
:1000B0007D6200088162000885620008F55E000824
:1000C000896200088D620008916200083D600008A6
:1000D0005D60000895620008996200089D62000852
:1000E000A1620008A5620008A9620008AD620008CC
:1000F000B1620008B5620008B96200083D58000806
:10010000BD620008C1620008C56200084D580008C1
:10011000C9620008CD620008D1620008D5620008FB
:10012000D9620008DD620008E1620008E5620008AB
:100130001D5F0008E9620008ED620008F162000836
:10014000F5620008F9620008FD620008FF5E000821
:1001500001630008056300081F5F0008EB5E0008EC
:10016000096300080D6300081163000815630008A7
:10017000196300081D6300082163000800000000E7
:1001800025630008296300082D6300083163000817
:10019000356300087F470008396300083D630008A5
:1001A0004163000845630008496300084D63000887
:1001B0005163000855630008596300085D63000837
:1001C000616300086563000800F5E0700268914211
:1001D00003D343689A18914202D380680028F5D16E
:1001E0007047DFF85807016891B94FF4803181609A
:1001F0004FF4805141604FF0FF31C1600161042133
:10020000DFF83C274161C2F8BC11DFF83817016004
:100210000120704701F1080313F0070305D001F135
:100220000803C3F1080303F007035918D21A8161C8
:10023000C26042F001034B60511828234B60DFF885
:10024000FC160969C16170472DE9F84F064601F1B6
:10025000080010F0070008BF884607D001F1080029
:10026000C0F1080000F0070000EB010802F10800EF
:1002700010F0070006D002F10800C0F1080000F0FD
:10028000070082181546A5EB0800A0EB030903EB55
:10029000080B43F00300C8F80400AB4528BF01F089
:1002A0000BFA2879C00758BF01F006FAB9F1100F10
:1002B00038BF01F001FAB069854209D1F0684844BD
:1002C000F060C6F818B040F00100CBF804006DE112
:1002D000706985420BD1B0684844B060C6F814B06C
:1002E00040F00101CBF8041040F80B005EE16868B3
:1002F00000F00301012940F0AD80C008C00001906A
:10030000C00820283AD2D5F808A0EF680090BD4276
:1003100008BF01F0D1F9554508BF01F0CDF9686873
:100320000099C008C000B0EBC10F18BF01F0C4F9BC
:10033000009806EBC00000F128018A4507D031691A
:100340008A45C0F08280DAF80C10A9427DD1574569
:1003500006D1009A3068012191408843306076E0F0
:100360002830874205D0306987426ED3B868A842EA
:100370006BD1CAF80C70C7F808A068E0EF68D5F830
:1003800018A0AF420CD0A8683169884223D3C16855
:10039000A94204BFB968A9421DD1C760B8601CE07A
:1003A00005F11400076837B905F110000768A7B117
:1003B00001E00846076807F114010A68002A02BF35
:1003C00007F110010A68002AF3D13169884202D38B
:1003D0000021016001E001F06FF9BAF1000F36D0A1
:1003E000E86906EB800000F5987001688D4208D13D
:1003F0000760A7B9EA69706801219140884370607D
:1004000025E03069824508D3DAF81000A84214BF0D
:10041000CAF81470CAF8107001E001F04DF9B7B1D4
:100420003069874211D3C7F818A0296929B18142E0
:1004300026BF39618F6101F03FF9686938B13169D0
:10044000884202D37861876101E001F035F90198B3
:100450004519814468684008400068604FEAD90542
:1004600049F00100CBF8040049F80B90202D23D26D
:1004700006EBC50000F12807BA46B9F1100F38BFE6
:1004800001F01AF9306820FA05F1C90704D40121F6
:10049000A9400843306006E0B868316988422CBF43
:1004A000824601F009F9C7F808B0CAF80CB0CBF8D9
:1004B00008A0CBF80C7079E05FEA192108BF002092
:1004C00023D0B1F5803F28BF1F201ED2A1F5807038
:1004D000000C00F008008140A1F58052120C02F0DF
:1004E00004029140A1F580431B0CC0F10E0003F003
:1004F0000203801AC01A994000EBD130C11D29FABD
:1005000001F202F0010101EB4000CBF81C000022D7
:10051000CBF81420CBF8102006EB8001726822FA89
:1005200000F3DB0701F5987107D4012303FA00F00B
:1005300010437060C1F800B01DE009681F280EBFAD
:1005400000204008C0F1190009FA00F000E011464F
:100550004A68D208D2004A4514D0C20F01EB820289
:1005600002F1100340001A68002AF0D1306983427A
:100570001AD3C3F800B0CBF81810CBF80CB0CBF8F6
:1005800008B013E032698868914228BF90420BD3CB
:10059000C0F80CB0C1F808B0CBF80800CBF80C10CC
:1005A0000020CBF8180001E001F086F808F10800FF
:1005B000BDE8E68F2DE9FA4D0546DFF8800384B0EB
:1005C000006808B9FFF70DFEDFF870030499806832
:1005D00041182F31401E21EA00000499814280F029
:1005E000A88105F5D876B16839B1326880188242A1
:1005F00080F09F818142C0F09C8101F061F8002869
:100600001EBF0446D0F8008014F1010F00F0918164
:100610003068716840443060814238BF0146716083
:10062000A86980BB286908B1844200D22C610020EF
:10063000F0613461C6F8148005F12801BF480068F4
:1006400068624FF0FF302862002001F10802C960A3
:100650001160801C10312028D2609260F5D3B84818
:10066000854203D1A8F12802214629E055F8040C5F
:10067000C00805EBC000A0F1080108EB0400401A17
:10068000A0F128021CE005F5E071084600E0806852
:10069000D0B1026843689A189442F8D1027B1207DD
:1006A00012D4AA6903689A420ED347683B449A421F
:1006B0000AD208EB07014160E868A96908EB00026B
:1006C0002846FFF7A7FD1EE128698442084638BF87
:1006D0002C6108EB040100E0806880B102688A4266
:1006E000FAD1017B09070AD40460416841444160A2
:1006F0002146049B284606B0BDE8F04DA4E5AF694D
:1007000039462846FFF760FD0168406840180290AE
:100710002F3800F1080111F0070105D000F10801A0
:10072000C1F1080101F00701081807F11001884222
:1007300034BF0097009000980830019004F1080140
:10074000009800F1180A11F007014FF0000BA8F112
:10075000280005D004F10801C1F1080101F00701EA
:100760000A19401AAA61E86040F00101516080183E
:100770002821416071480069E861019810F0070084
:1007800018BF00F099FF00991B20486005F5E07143
:10079000B1E80C500198A0E80C503461C6F8148000
:1007A000C6F81CB00198B061029800E08A460722A2
:1007B000CAF804200AF104010A1D82420BF1010B60
:1007C000F4D3BBF1020FB8BF00F076FF0098B84237
:1007D00000F09980C01BC119C4084A685208520031
:1007E0004A6040F001017960C051202C20D205EB15
:1007F000C40101F12806B046102838BF00F05CFFA4
:10080000286820FA04F1C90704D40121A140084353
:10081000286006E0B068296988422CBF804600F055
:100820004BFFB760C8F80C70C7F80880FE606AE03C
:10083000010A08BF002223D0B1F5803F28BF1F2244
:100840001ED2A1F58072120C02F008029140A1F5AF
:1008500080531B0C03F004039940A1F58044240C41
:10086000C2F10E0204F00204D21A121BA14002EBE4
:10087000D131CA1D20FA02F303F0010202EB41025A
:10088000FA6100237B613B6105EB82016B6823FA0F
:1008900002F4E40701F5987105D401209040184353
:1008A00068600F601CE009681F2A0EBF0022520812
:1008B000C2F1190200FA02F200E019464B68DB08A7
:1008C000DB00834210D0D30F01EB830303F110044C
:1008D00052002368002BF0D12869844211D327608D
:1008E000B961FF60BF600EE02A698868914228BF45
:1008F000904206D3C7608F60B860F9600020B8618D
:1009000001E000F0D9FEE8680499814211D2401A52
:10091000E860A969049A5218AA6140F00100506089
:10092000049840F00300486006B001F10800BDE8FB
:10093000F08D002006B0BDE8F08D000060F90020C9
:1009400024F400206859883C2DE9F04D0446002627
:1009500088465FEA1820C8F1000B08BF002123D0A9
:10096000B0F5803F28BF1F211ED2A0F58071090C71
:1009700001F008018840A0F58052120C02F0040238
:100980009040A0F580431B0CC1F10E0103F002035F
:10099000891AC91A984001EBD030C11D28FA01F21A
:1009A00002F0010101EB400104EB8100D0F83001BD
:1009B00018B31F290EBF00224A08C2F1190208FA13
:1009C00002F2002300E052004568ED08ED00A5EBBF
:1009D00008055D4503D25FEA050B06460BD0456965
:1009E000D70F00EB8700002D00691CBF85422B4606
:1009F0000028E8D11846B8BBC6BB0120884040009B
:100A0000414208436168084000F063814142084068
:100A1000401E010B01F01001C840420902F008021B
:100A2000D040830803F00403D840450805F00205D0
:100A30005118E8405918C0F3400729443944F84098
:100A4000401804EB8000D0F830010DE00846416802
:100A5000C908C900A1EB080159453CBF8B460646B1
:100A600001690029F2D140690028F0D1002E00F080
:100A70003081A068A0EB0800834580F02A812069BE
:100A80008642C0F024817068C008C00008EB0B01EA
:100A900008EB0605884218BF00F00EFEAE4280F05B
:100AA0001681F768D6F818A0B7420CD0B068216953
:100AB000884223D3C168B14204BFB968B1421DD195
:100AC000C760B8601CE006F11400076837B906F18A
:100AD00010000768A7B101E00846076807F1140194
:100AE0000A68002A02BF07F110010A68002AF3D140
:100AF0002169884202D30021016001E000F0DCFDA1
:100B0000BAF1000F38D0F06904EB800000F598705E
:100B100001688E4209D10760380014D1F26960681B
:100B2000012191408843606026E02069824508D316
:100B3000DAF81000B04214BFCAF81470CAF8107086
:100B400001E000F0B9FDBFB12069874212D3C7F8B8
:100B500018A0306930B12169884226BF38618761A9
:100B600000F0AAFD706938B12169884202D378612A
:100B7000876101E000F0A0FDBBF1100F0CD208EB83
:100B80000B0040F00300706008EB0B008019416817
:100B900041F00101416096E048F0030070604BF0C5
:100BA000010068604FEADB004BF805B020281DD239
:100BB00004EBC00101F12807216821FA00F2D207F5
:100BC000BB4605D4012202FA00F00843206006E08B
:100BD000B868216988422CBF834600F06DFDBD6076
:100BE000CBF80C50C5F808B0EF606CE05FEA1B2151
:100BF00008BF002023D0B1F5803F28BF1F201ED2A0
:100C0000A1F58070000C00F008008140A1F5805231
:100C1000120C02F004029140A1F580431B0CC0F1BC
:100C20000E0003F00203801AC01A994000EBD13085
:100C3000C11D2BFA01F202F0010101EB4000E86155
:100C400000226A612A6104EB8001626822FA00F3E3
:100C5000DB0701F5987106D4012303FA00F0104375
:100C600060600D601CE009681F280EBF002040086E
:100C7000C0F119000BFA00F000E011464A68D208F2
:100C8000D2005A4510D0C20F01EB820202F11003CC
:100C900040001A68002AF0D12069834211D31D60F8
:100CA000A961ED60AD600EE022698868914228BFBD
:100CB000904206D3C5608D60A860E9600020A861FD
:100CC00001E000F0F9FC06F10800BDE8F08D00F04D
:100CD000F3FC0020BDE8F08D2DE9F84F044688466E
:100CE000606841420840401E010B01F01001C840FD
:100CF000420902F00802D040830803F00403D84000
:100D0000450805F002055118E8405918C0F340069F
:100D100029447118F040401804EB8000D0F83001ED
:100D20004168C908C9000646A1EB080A09E008465F
:100D30004168C908C900A1EB080151453CBF8A467A
:100D4000064601690029F2D140690028F0D12069E6
:100D50008642C0F0C4807068C00808EB0A09C00071
:100D600008EB060B484518BF00F0A6FC5E4580F076
:100D7000B680F768B569B7420CD0B068216988427F
:100D800023D3C168B14204BFB968B1421DD1C76065
:100D9000B8601CE006F11400076837B906F11000CE
:100DA0000768A7B101E00846076807F114010A685F
:100DB000002A02BF07F110010A68002AF3D1216955
:100DC000884202D30021016001E000F075FC002D93
:100DD00034D0F06904EB800000F5987001688E4211
:100DE00009D10760380011D1F26960680121914092
:100DF0008843606022E02069854205D32869B042BB
:100E000014BF6F612F6101E000F056FCB7B120699B
:100E1000874211D3BD61306930B12169884226BF54
:100E20003861876100F048FC706938B121698842F7
:100E300002D37861876101E000F03EFCBAF1100F47
:100E400009D249F00300706009EB0600416841F0E7
:100E5000010141603FE048F0030070604AF001008A
:100E6000CBF804004AF80BA0D4F808804FEAD80564
:100E7000202D28BF00F020FCB8F1000F27D0D4F8B7
:100E80001490009504EBC50000F128052F46B8F139
:100E9000100F38BF00F010FC2068009920FA01F212
:100EA000D10705D4009A012191400843206006E053
:100EB000A868216988422CBF074600F0FDFBC5F8F1
:100EC0000890C7F80C90C9F80870C9F80C50C4F81D
:100ED00008A0C4F814B006F10800BDE8F28F00F0D5
:100EE000EBFB0020BDE8F28F2DE9F04F83B0054603
:100EF000C046C046F52DDFF8B84780F002810B2DC3
:100F000031BF102705F10B00C708FF002068FE085D
:100F1000F04010F0030F42D0C04300F001008619EA
:100F200004EBC60000F12808F700D8F808506868FC
:100F3000C008C000B84218BF00F0BEFBD5F808904A
:100F4000454508BF00F0B8FB4D4508BF00F0B4FBB5
:100F50006868C008C000B84218BF00F0ADFBC845C3
:100F600005D120680121B140884320600DE020694F
:100F7000814508D3D9F80C00A84204D1C8F80890DC
:100F8000C9F80C8001E000F097FB47F003006860AF
:100F900078190835416841F001014160F9E0A16824
:100FA000B94280F0C080002800F0A280012505FA37
:100FB00006F149004A42B04011430840414208400E
:100FC000401E010B01F01001C840420902F0080266
:100FD000D040830803F00403D840460806F0020618
:100FE0005118F0405918C0F340087118414420FAD4
:100FF00008F000EB010804EBC80000F128094FEAF3
:10100000C80AD9F808607068C008C000504518BF09
:1010100000F052FBD6F808B04E4508BF00F04CFB7C
:101020005E4508BF00F048FB7068C008C00050452E
:1010300018BF00F041FBD94505D1206805FA08F139
:10104000884320600DE02069834508D3DBF80C005D
:10105000B04204D1C9F808B0CBF80C9001E000F020
:101060002BFB47F003007060AAEB0708B81901904A
:1010700048F0010001994860019848F80080A7688D
:101080004FEAD70ABAF1200F28BF00F015FB47B38B
:10109000CDF800A004EBCA00D4F8149000F1280A9F
:1010A000D346102F38BF00F007FB2068009920FAC4
:1010B00001F2D10705D4009905FA01F10843206037
:1010C00007E0DAF80800216988422CBF834600F067
:1010D000F3FACAF80890CBF80C90C9F808B0C9F830
:1010E0000CA0C4F8088006F108050198606150E082
:1010F0006068C0B339462046FFF7EEFD050012D008
:1011000047E015F1400F28BF4FF0FF370BD205F134
:101110000B00C7086068FF0028B139462046FFF77A
:1011200013FC050035D1A068B8421CD3C11B62690D
:1011300010290AD3B8186061A16041F0010343602F
:10114000095047F0030050600AE00021A16061618E
:1011500040F0030151608018416841F00101416095
:1011600002F1080515E0E06887420DD2C01BA169B5
:10117000E0607A18A26140F00100506001F10805BA
:1011800047F00300486004E039462046FFF712FAB2
:101190000546C046C046284603B0BDE8F08F00B9FA
:1011A00070472DE9F047A0F10804C046C046DFF8BB
:1011B000005528698442C0F07482616801F003021E
:1011C000012A00F06E82CA084FEAC208CA0708EB7B
:1011D000040936D4226811F0030F00F06482A41AC7
:1011E00084429044C0F05D8269698C4200F0D880EE
:1011F000D608202E70D2D4F80CA0A768544508BF9A
:1012000000F05AFABC4208BF00F056FA6068C00805
:10121000C000B0EBC60F18BF00F04EFA05EBC600D9
:1012200000F128018F4205D029698F4251D3F96816
:10123000A1424ED1BA453DD128680121B140884331
:1012400028604C4580F02D82D9F80400C10740F198
:101250002882810700F17A81A969894540F0B5802B
:10126000E868AC614044E86040F001016160696990
:101270008C4202D100216961A960E969814280F054
:101280001282DFF83004006808B9FEF7AAFFA969E6
:10129000002900F00882E868292824BF2846FEF7C4
:1012A00093FFE869E968884280F0FD814FF0FF30E4
:1012B000E861F8E12830824506D02869824508D3E4
:1012C000DAF80800A04204D1C7F80CA0CAF80870E8
:1012D000B7E700F0F1F9B4E7E768A669A7420BD0D9
:1012E000A168814222D3C868A04204BFB868A04266
:1012F0001CD1CF60B9601BE004F114010F6837B94D
:1013000004F110010F689FB101E011460F6807F169
:1013100014021368002B02BF07F110021368002BA0
:10132000F3D1814202D30020086001E000F0C4F94B
:10133000002E86D0E06905EB800000F5987001680A
:101340008C4209D10760380011D1E2696868012137
:1013500091408843686074E72869864205D3306904
:10136000A04214BF7761376101E000F0A5F9002FBA
:101370003FF467AF28698742ABD3BE61216929B1C9
:10138000814226BF39618F6100F096F960690028BB
:101390003FF457AF296988429BD37861876150E752
:1013A00099F8040000F0030003287FF44AAFC5F861
:1013B0000880D9F8040040084000C9F8040048F04B
:1013C0000100606048F804806DE16969894508D1D1
:1013D000A8686C614044A86040F001016160005160
:1013E00061E1C008C0004FEAD00ABAF1200F804482
:1013F00036D2D9F80C70D9F80860B94508BF00F0AA
:101400005BF9B14508BF00F057F9D9F80400C008EE
:10141000C000B0EBCA0F18BF00F04EF905EBCA00D0
:1014200000F128018E4206D029698E42C0F08180E9
:10143000F16849457DD1B74206D12868012101FAFA
:101440000AF18843286076E02830874205D0286971
:1014500087426ED3B86848456BD1F760BE606AE0DA
:10146000D9F80C70D9F818604F450DD0D9F808009C
:101470002969884223D3C168494504BFB9684945F1
:101480001DD1C760B8601CE009F11400076837B9C6
:1014900009F110000768A7B101E00846076807F1E5
:1014A00014010A68002A02BF07F110010A68002A25
:1014B000F3D12969884202D30021016001E000F0E4
:1014C000FBF8002E37D0D9F81C0005EB800000F5A2
:1014D0009870016889450AD10760380012D1D9F89F
:1014E0001C206868012191408843686023E02869D6
:1014F000864205D33069484514BF7761376101E002
:1015000000F0DAF8BFB12869874212D3BE61D9F87A
:10151000101029B1814226BF39618F6100F0CCF8EB
:10152000D9F8140038B12969884202D378618761FB
:1015300001E000F0C1F848F00100606048F8048064
:10154000686984420BD1C5F80880ACE040084000CF
:10155000C9F8040048F00100606048F804804FEAD0
:10156000D807202F22D205EBC70000F128094E46EC
:10157000B8F1100F38BF00F09FF8286820FA07F183
:10158000C90704D40121B9400843286007E0D9F80D
:101590000800296988422CBF064600F08DF8C9F87A
:1015A0000840F460A660C4F80C907CE05FEA182064
:1015B00008BF002123D0B0F5803F28BF1F211ED2D5
:1015C000A0F58071090C01F008018840A0F5805257
:1015D000120C02F004029040A0F580431B0CC1F1F4
:1015E0000E0103F00203891AC91A984001EBD030AA
:1015F000C11D28FA01F202F0010101EB40010022B5
:1016000062612261E16105EB81006A6822FA01F3FF
:10161000DB0700F5987006D4012303FA01F11143AA
:10162000696004601CE000681F290EBF00214908A2
:10163000C1F1190108FA01F100E010464268D20830
:10164000D200424510D0CA0F00EB820202F1100313
:1016500049001A68002AF0D129698B4211D31C6015
:10166000A061E460A4600EE02A698168904228BF0E
:10167000914206D3CC608460E060A1600020A0614C
:1016800001E000F019F8286A401E28620BD1D5F855
:10169000C80100E080680028FCD14FF0FF302862CC
:1016A00001E000F009F8C046C046BDE8F087000040
:1016B00024F4002060F90020012000F017B8000099
:1016C0000749086808B1002070470648C008C000F4
:1016D00008600549C908C900091A0160704700BFC0
:1016E0009CF90020671100206019002080B5C046D9
:1016F000C046024A11001820ABBEFBE726000200DC
:10170000F8B50400256800260027206800F0DFFEF9
:10171000012840F09280206800F0D2FE002800F0FE
:101720008C80206800F0CCFE800203D55FF40010AE
:1017300021684861206800F0C3FEC00203D55FF451
:10174000801021684861206800F0BAFE400103D58E
:101750005FF0806021684861206800F0B1FE80077A
:1017600002D5022021684861206800F0A9FE8000AF
:1017700012D515F58860006830F02E0015F58861E7
:101780000860200001F026F80121206800F0A6FE84
:101790005FF0005021684861206800F091FEC001B0
:1017A00002D5200000F0D6FD206800F089FE000779
:1017B00005D5200001F000F8082021684861206864
:1017C00000F07EFE800124D5206800F0D2FE0700E4
:1017D00000200600A068864217D23800F040C007FB
:1017E00011D515EB461010F5A0600068000405D572
:1017F0003100C9B2200000F04BF804E03100C9B25A
:10180000200000F0BDFA761CE4E75FF0007021686C
:101810004861206800F054FEC0060ED5206880693B
:1018200030F0100021688861200000F015FD20686C
:10183000806950F0100021688861F1BD10B5040086
:1018400094F88C02012801D102200DE0012084F8D7
:101850008C02206800F0EEFD0121206800F064FE9B
:10186000002084F88C02002010BD10B5040094F80C
:101870008C02012801D1022009E0012084F88C02A9
:10188000206800F03EFF002084F88C02002010BD8C
:1018900070B504000D002668EDB216EB451010F58A
:1018A000A0608068400715D5EDB216EB451010F525
:1018B000A06004218160EDB216EB451010F5A06028
:1018C000EDB216EB451111F5A061C96851F00201A6
:1018D000C16071E0EDB216EB451010F5A0608068B4
:1018E000800607D5EDB216EB451010F5A06020215B
:1018F000816061E0EDB216EB451010F5A0608068E4
:10190000000728D5EDB216EB451010F5A060EDB23A
:1019100016EB451111F5A061C96851F00201C160D3
:101920000520EDB2282101FB054181F85900EDB2F7
:1019300016EB451010F5A06010218160EDB216EB9A
:10194000451010F5A060082181602900C9B2206807
:1019500000F014FE30E0EDB216EB451010F5A0607B
:101960008068400528D5EDB216EB451010F5A06053
:10197000EDB216EB451111F5A061C96851F00201F5
:10198000C1602900C9B2206800F0F8FDEDB216EB85
:10199000451010F5A060102181600820EDB22821CB
:1019A00001FB054181F85900EDB216EB451010F529
:1019B000A0604FF480618160EDB216EB451010F528
:1019C000A060806880051BD5EDB216EB451010F5C0
:1019D000A060EDB216EB451111F5A061C96851F098
:1019E0000201C1602900C9B2206800F0C7FDEDB254
:1019F00016EB451010F5A0604FF400718160BEE158
:101A0000EDB216EB451010F5A0608068C00740F1FC
:101A10008C802069002812D0EDB2282000FB054000
:101A2000406CEDB216EB451111F5A061096949034F
:101A3000490B401AEDB2282101FB054188640120C1
:101A4000EDB2282101FB054181F859000020EDB2DB
:101A5000282101FB05414865EDB216EB451010F554
:101A6000A06001218160EDB2282000FB054090F8C4
:101A70003B00002807D0EDB2282000FB054090F87D
:101A80003B0002281AD1EDB216EB451010F5A0600C
:101A9000EDB216EB451111F5A061C96851F00201D4
:101AA000C1602900C9B2206800F068FDEDB216EBF4
:101AB000451010F5A0601021816027E0EDB22820CC
:101AC00000FB054090F83B0003281FD1EDB216EB58
:101AD000451010F5A060006850F00050EDB216EB14
:101AE000451111F5A06108600120EDB2282101FB2C
:101AF000054181F85800EDB2282000FB054090F820
:101B000058202900C9B2200000F06BFEEDB2282059
:101B100000FB054090F84C0090F00100EDB2282148
:101B200001FB054181F84C0029E1EDB216EB4510AF
:101B300010F5A0608068800740F18F80EDB216EB51
:101B4000451010F5A060EDB216EB451111F5A0613E
:101B5000C96831F00201C160EDB2282000FB0540E8
:101B600090F85900012807D10120EDB2282101FB8E
:101B7000054181F858005DE0EDB2282000FB0540EA
:101B800090F85900052807D10520EDB2282101FB66
:101B9000054181F858004DE0EDB2282000FB0540DA
:101BA00090F85900062807D0EDB2282000FB054028
:101BB00090F8590008283DD1EDB2282000FB0540DF
:101BC000406D411CEDB2282202FB054251650428FC
:101BD0000DD30020EDB2282101FB0541486504200A
:101BE000EDB2282101FB054181F8580006E00220F2
:101BF000EDB2282101FB054181F85800EDB216EB4A
:101C0000451010F5A060006830F08040EDB216EB92
:101C1000451111F5A0610860EDB216EB451010F505
:101C2000A060006850F00040EDB216EB451111F5D0
:101C3000A0610860EDB216EB451010F5A06002211E
:101C40008160EDB2282000FB054090F85820290063
:101C5000C9B2200000F0C5FD91E0EDB216EB4510D1
:101C600010F5A060806800062CD5EDB216EB45108B
:101C700010F5A060EDB216EB451111F5A061C96831
:101C800051F00201C160EDB2282000FB0540406D1B
:101C9000401CEDB2282101FB054148650620EDB24C
:101CA000282101FB054181F859002900C9B22068AB
:101CB00000F064FCEDB216EB451010F5A060802139
:101CC00081605CE0EDB216EB451010F5A060806815
:101CD000C00654D5EDB2282000FB054090F83B002B
:101CE000032812D1EDB216EB451010F5A060EDB24D
:101CF00016EB451111F5A061C96851F00201C160F0
:101D00002900C9B2206800F039FC0320EDB2282177
:101D100001FB054181F85900EDB216EB451010F5B5
:101D2000A06010218160EDB2282000FB054090F8F2
:101D30003B00002807D0EDB2282000FB054090F8BA
:101D40003B0002281BD1EDB216EB451010F5A06048
:101D5000006830F08040EDB216EB451111F5A0613E
:101D60000860EDB216EB451010F5A060006850F069
:101D70000040EDB216EB451111F5A061086070BD91
:101D800070B504000D002668EDB216EB451010F595
:101D9000A0608068400715D5EDB216EB451010F530
:101DA000A06004218160EDB216EB451010F5A06033
:101DB000EDB216EB451111F5A061C96851F00201B1
:101DC000C16048E2EDB216EB451010F5A0608068E6
:101DD000800631D5EDB216EB451010F5A06020213C
:101DE0008160EDB2282000FB054090F83900012801
:101DF00040F031820420EDB2282101FB054181F839
:101E00005900EDB216EB451010F5A060EDB216EBDF
:101E1000451111F5A061C96851F00201C1602900A6
:101E2000C9B2206800F0AAFB0220EDB2282101FB14
:101E3000054181F858000EE2EDB216EB451010F5A1
:101E4000A0608068400627D50420EDB2282101FB60
:101E5000054181F859000020EDB2282101FB054120
:101E60004865EDB216EB451010F5A060EDB216EB2B
:101E7000451111F5A061C96851F00201C160290046
:101E8000C9B2206800F07AFBEDB216EB451010F5F0
:101E9000A06040218160DEE1EDB216EB451010F547
:101EA000A060806880051BD5EDB216EB451010F5DB
:101EB000A060EDB216EB451111F5A061C96851F0B3
:101EC0000201C1602900C9B2206800F057FBEDB2E1
:101ED00016EB451010F5A0604FF400718160BAE177
:101EE000EDB216EB451010F5A0608068C00727D54D
:101EF0000020EDB2282101FB05414865EDB216EB4B
:101F0000451010F5A060EDB216EB451111F5A0617A
:101F1000C96851F00201C1602900C9B2206800F00F
:101F20002DFBEDB216EB451010F5A060012181608C
:101F30000120EDB2282101FB054181F859008AE119
:101F4000EDB216EB451010F5A0608068000721D5B2
:101F5000EDB216EB451010F5A06008218160EDB2DE
:101F600016EB451010F5A060EDB216EB451111F51A
:101F7000A061C96851F00201C1602900C9B220689E
:101F800000F0FCFA0520EDB2282101FB054181F8A3
:101F9000590060E1EDB216EB451010F5A0608068C5
:101FA000C00627D50020EDB2282101FB0541486578
:101FB000EDB216EB451010F5A060EDB216EB451131
:101FC00011F5A061C96851F00201C1602900C9B2D0
:101FD000206800F0D3FA0320EDB2282101FB05416F
:101FE00081F85900EDB216EB451010F5A0601021F4
:101FF000816030E1EDB216EB451010F5A06080680D
:10200000000621D5EDB216EB451010F5A060EDB23B
:1020100016EB451111F5A061C96851F00201C160CC
:102020002900C9B2206800F0A9FA0620EDB22821E3
:1020300001FB054181F85900EDB216EB451010F592
:10204000A0608021816006E1EDB216EB451010F52D
:10205000A0608068400529D5EDB216EB451010F55B
:10206000A060EDB216EB451111F5A061C96851F001
:102070000201C1602900C9B2206800F07FFAEDB208
:1020800016EB451010F5A06010218160EDB216EB43
:10209000451010F5A0604FF4806181600820EDB21A
:1020A000282101FB054181F85900D4E0EDB216EB7F
:1020B000451010F5A0608068800740F1CC80EDB23B
:1020C00016EB451010F5A060EDB216EB451111F5B9
:1020D000A061C96831F00201C160EDB2282000FBA7
:1020E000054090F8590001281ED10120EDB22821A9
:1020F00001FB054181F85800EDB2282000FB0540A6
:1021000090F83B00022840F09480EDB2282000FBBC
:10211000054090F84D0090F00100EDB2282101FB40
:10212000054181F84D0084E0EDB2282000FB054018
:1021300090F85900032807D10220EDB2282101FBB5
:10214000054181F8580074E0EDB2282000FB0540FD
:1021500090F8590004280ED10220EDB2282101FB8D
:10216000054181F858000020EDB2282101FB05410E
:1021700081F839005DE0EDB2282000FB054090F8C1
:102180005900052807D10520EDB2282101FB0541A2
:1021900081F858004DE0EDB2282000FB054090F892
:1021A0005900062807D0EDB2282000FB054090F822
:1021B000590008283DD1EDB2282000FB0540406DB4
:1021C000411CEDB2282202FB0542516504280DD3C3
:1021D0000020EDB2282101FB054148650420EDB245
:1021E000282101FB054181F8580006E00220EDB2EC
:1021F000282101FB054181F85800EDB216EB45108E
:1022000010F5A060006830F08040EDB216EB45118B
:1022100011F5A0610860EDB216EB451010F5A06055
:10222000006850F00040EDB216EB451111F5A061C9
:102230000860EDB216EB451010F5A0600221816038
:10224000EDB2282000FB054090F858202900C9B2C3
:10225000200000F0C6FA70BD2DE9F843040025689F
:1022600000265FF000092068006A814619F00F001F
:102270000600C9F343400700C9F30A10804638003E
:10228000022802D0052860D060E0B8F1000F5BD0D2
:10229000F6B2282000FB0640006C002854D04246CD
:1022A00092B2F6B2282000FB0640016C206800F0D4
:1022B000F1F8F6B2282000FB0640006C18EB000095
:1022C000F6B2282101FB06410864F6B2282000FB83
:1022D0000640806C18EB0000F6B2282101FB064195
:1022E0008864F6B215EB461010F5A0600069184935
:1022F000084229D0F6B215EB461010F5A060006830
:1023000030F08040F6B215EB461111F5A06108607F
:10231000F6B215EB461010F5A060006850F00040D2
:10232000F6B215EB461111F5A0610860F6B228204F
:1023300000FB064090F84C0090F00100F6B2282116
:1023400001FB064181F84C0000E0FFE7BDE8F183A6
:102350000000F81F30B583B00400256815F58860CB
:102360000068019015F5886000680090009830F0D2
:102370002E000090019880070FD50198C00708D55E
:102380002068806930F0005021688861200000F0EA
:102390001AFA009850F002000090019800073CD50E
:1023A000009850F0080000900198400727D5A069D8
:1023B00002280FD1019810F4C020B0F5802F04D16D
:1023C0000221206800F08AF80CE00121206800F06A
:1023D00085F807E0E068032804D14EF6602015F583
:1023E00080614860200000F0EEF9E068002814D118
:1023F0002068806950F00050216888610DE015F573
:102400008860006830F02E0015F58861086020684B
:10241000806950F00050216888610198800603D5DA
:10242000009850F020000090009815F58861086031
:1024300037BD00000100886850F00100886000206E
:10244000704701008868400840008860002070479D
:1024500002000023880150F0200010615B1CDFF8AF
:102460007800834201D3032003E010698006F5D48D
:10247000002070470100002210200861521CDFF884
:102480005800824201D3032003E00869C006F5D456
:102490000020704730B403000800002192B2D41C21
:1024A000042594FBF5F400252900A14206D213F57A
:1024B00080552D680560491C001DF6E730BC70474B
:1024C000010000204A6910008A6910407047406985
:1024D00010F0010070470000410D0300020012F5EA
:1024E000806000688008800012F58063186012F533
:1024F00080600068C9B211F00303184312F58063CD
:102500001860C9B2012905D14BF6803012F58063FD
:10251000586007E0C9B2022904D141F2707012F587
:10252000806358600020704781B0020012F5886017
:1025300000680090009830F02E0000900098C004D1
:1025400008D4C9B2012905D1009850F4805012F581
:10255000886318600098C00408D5C9B2002905D165
:10256000009830F4805012F588631860002001B0A4
:10257000704710F58060406980B2704710B4020067
:102580000023C9B212EB411010F5A0600068C9B277
:1025900012EB411010F5A0600068000356D5C9B2D7
:1025A00012EB411010F5A060006850F08040C9B2F5
:1025B00012EB411414F5A0642060D06A000436D1F7
:1025C000C9B212EB411010F5A0600068400040084D
:1025D000C9B212EB411414F5A0642060C9B212EB29
:1025E000411010F5A060006850F00040C9B212EB35
:1025F000411414F5A0642060C9B212EB411010F52B
:10260000A060006830F40040C9B212EB411414F528
:10261000A06420605B1CB3F57A7F6FD8C9B212EB5F
:10262000411010F5A06000680028F3D466E0C9B23C
:1026300012EB411010F5A060006850F00040C9B2E4
:1026400012EB411414F5A064206057E0C9B212EBFC
:10265000411010F5A060006850F08040C9B212EB44
:10266000411414F5A064206012F580600069000434
:1026700036D1C9B212EB411010F5A06000684000DD
:102680004008C9B212EB411414F5A0642060C9B22D
:1026900012EB411010F5A060006850F00040C9B284
:1026A00012EB411414F5A0642060C9B212EB411082
:1026B00010F5A060006830F40040C9B212EB41147C
:1026C00014F5A06420605B1CB3F57A7F16D8C9B2FC
:1026D00012EB411010F5A06000680028F3D40DE063
:1026E000C9B212EB411010F5A060006850F0004034
:1026F000C9B212EB411414F5A0642060002010BC94
:102700007047F8B5040000262000FFF79AFE10215C
:102710002000FFF79DFE2000FFF7ACFE0020050023
:10272000EDB2102D14DAEDB214EB451010F5A060E7
:102730000068070057F080477F007F0837F40047A4
:10274000EDB214EB451010F5A06007606D1CE7E7D3
:1027500000200500EDB2102D20DAEDB214EB45108B
:1027600010F5A0600068070057F0804757F0004759
:1027700037F40047EDB214EB451010F5A060076088
:10278000761CB6F57A7F07D8EDB214EB451010F53C
:10279000A06000680028F3D46D1CDBE75FF0FF3019
:1027A00014F5806148615FF0FF3060612000FFF741
:1027B00041FE0020F2BD000010B50400D4F89002E4
:1027C00000F020F810BD10B50400D4F8900200F01D
:1027D00033F810BD10B50400D4F8900200F045F8AD
:1027E00010BD704710B50400D4F8B002FFF726F80A
:1027F000002010BD10B50400D4F8B002FFF735F882
:10280000002010BD10B50400D4F8A802401CC4F884
:10281000A802200000F001F810BD10B504002078D7
:102820000A2808D1D4F86402002804D02000D4F883
:1028300064128969884710BD10B50400207800280B
:102840000CD1012084F81E02D4F8B40200280AD06A
:1028500004212000D4F8B422904704E02078012815
:1028600001D102202070002010BD10B5040020000E
:10287000FFF7C0FF2179200000F022F861792000E5
:1028800000F01EF8002084F81E02D4F8B4020028DC
:1028900004D005212000D4F8B4229047074800F066
:1028A00021F805A000F01EF82000FFF79BFF032091
:1028B0002070002010BD00000A000000A861000880
:1028C0000200C9B20B290BDAC9B212EB8100D0F8B1
:1028D0006C024004400CC9B212EB8103C3F86C02D5
:1028E000002070470EB400B582B003A900910246E3
:1028F0006B460121034878440A3000F005F806BC15
:102900005DF810FBBD3800002DE9F04F80460FF256
:10291000A47095B015461E46D0E90023CDE91323D7
:1029200003AF00200391B8610DF1340900E065198F
:102930000020ADF8020013AB4FF0FF3229460DF135
:10294000020000F0C3FB0446012C04DA2878441E80
:10295000A441E443E40FBDF8020025280CBFA4F114
:10296000010BA346BBF1010F0EDBAA461AF8011BAF
:102970000398C0470028039000F0DA80B869401C33
:10298000BBF1010BB861F1D1BDF80200252804D1DB
:102990000020F8603861786105E00028C7D1B86987
:1029A00006E340F0010015F8011F2029F9D0232982
:1029B0000DD02B2904D02D2906D030290AD00CE0C7
:1029C00040F0020080B2EEE740F00400FAE740F089
:1029D0000800F7E740F01000F4E72A290ED131682B
:1029E000316051F8042B3160002A3A6204D551421B
:1029F00040F00400396280B26D1C13E0002139629E
:102A00000BE0396A6FF00043994205D001EB810376
:102A100002EB4301303939626D1C2A78A2F1300192
:102A20000A29EED329782E2903D04FF0FF31F9611E
:102A30001FE015F8011F2A2907D1316831606D1C8C
:102A400051F8042B3160FA6113E00021F9610BE0C9
:102A5000F9696FF00043994205D001EB810302EB65
:102A600043013039F9616D1C2A78A2F130010A293D
:102A7000EED3B8840FF24460297800F037FB08B138
:102A800015F8010B8DF832009DF83200682804BF5C
:102A90002878682803D162208DF832006D1C0DA8BB
:102AA000B86015F8014B252C13D0582C4BD0632C53
:102AB00000F0A380642C18BF692C7CD06F2C42D00E
:102AC000702C36D0732C0AD0752C18BF782C3AD0C5
:102AD000B6E00120F86025208DF83400BAE09DF8BA
:102AE00032006C283068306018D050F8044B3060E9
:102AF0007C60D7F81CA0BAF1000F04D5204600F086
:102B000001FB824607E052460021204600F016FBFA
:102B100008B1A0EB040AC7F810A09BE050F8042B02
:102B2000306002A9404600F02DF9002840F1928063
:102B30003CE23068306050F8041B306002910DA810
:102B40007860782155E09DF832006C280DD071280E
:102B500018BF6A2809D13068C01D20F00702326012
:102B6000D2E900010832326004E03168316051F886
:102B7000040B316002909DF83200682802D102A84F
:102B8000008803E0622802D102A80078029097F83A
:102B90002400000728D5029830B344F0200078289C
:102BA00022D1F868302100F80910401C411CF9605E
:102BB00000F8094018E09DF83200314600F0BCF8FA
:102BC0000028029002D5F8682D2109E0B88C810711
:102BD00002D5F8682B2103E0C00705D5F86820214D
:102BE00000F80910401CF8600DA8F9680818786012
:102BF000214602A800F0DFF92CE09DF832006C2895
:102C000009D00120F8603068306050F8041B306053
:102C10008DF834101EE03068306001AA50F8041BB3
:102C20003060ADF804100020ADF8060002A94FF0A6
:102C3000FF30F861404600F0A5F800280AD577E794
:102C40000120F86025208DF834001CB10220F860C6
:102C500089F80140386AF968401A7969401A396977
:102C6000441A97F82400400711D42020012C8DF835
:102C700000000CDBA24601236A4602A9404600F090
:102C800001FA00287FF454AFBAF1010AF3D1D7F862
:102C90000CB0BBF1000F0DF1340A0DD01AF8011B76
:102CA0000398C047002803903FF442AFB869401C26
:102CB000BBF1010BB861F1D1D7F814A03020BAF103
:102CC000010F8DF800000BDB01236A4602A9404684
:102CD00000F0D8F900287FF42BAFBAF1010AF3D144
:102CE000D7F810B0D7F804A0BBF1000F0DD01AF838
:102CF000011B0398C047002803903FF419AFB8693F
:102D0000401CBBF1010BB861F1D197F824004007DA
:102D10007FF50EAE2020012C8DF80000FFF608AEE6
:102D200001236A4602A9404600F0ACF900287FF46E
:102D3000FFAE641EF4D1FBE5622815D068280CD0E4
:102D40006C2818BF742816D07A2814D10A680A6033
:102D500052F8040B0A60002170470A680A6052F8B2
:102D6000040B0A6000B20BE00A680A6052F8040B18
:102D70000A6040B204E00A680A6052F8040B0A6074
:102D8000C11770472DE9F44F0D4694B02F6A002FFC
:102D9000804648BF6FF0004700F0FCF9696A4018B0
:102DA00001900FF22030D0E90023CDE9022395F8FD
:102DB0002800400702D40198412805D240200DF197
:102DC00010090190002606E0FEF78EF85FEA000980
:102DD000F8D1EBE03F1B012FC0F2948014980188DA
:102DE00002AA0DF1010000F0DAF90028044600F112
:102DF0009C801498008810B9641E00F19680A74248
:102E0000C0F28080286901992218914268D26E62CE
:102E10004042A969401A6969461A95F82800400796
:102E200010D42020012E8DF800000BDBB2460123C8
:102E30006A462946404600F025F9002875D1BAF1C6
:102E4000010AF4D1D5F810B0BBF1000FCA460CD07E
:102E50001AF8011B6868C0470028686065D0E869F7
:102E6000401CBBF1010BE861F2D130208DF800006D
:102E7000D5F818A0BAF1010F0ADB01236A462946EA
:102E8000404600F0FFF800284FD1BAF1010AF4D112
:102E9000D5F814B0D5F808A0BBF1000F0CD01AF883
:102EA000011B6868C047002868603ED0E869401C84
:102EB000BBF1010BE861F2D195F8280040070DD570
:102EC0002020012E8DF8000008DB01236A462946E8
:102ED000404600F0D7F840BB761EF6D100262E61A2
:102EE000224628690DF10101484400F065F928697E
:102EF000201828611498801C1490801E00880028D7
:102F00007FF468AF686A2969401AA969401A69693B
:102F1000471A95F8280040070FD4012F0DDB3C46D7
:102F200068682021C047686010B94FF0FF3635E06F
:102F3000E869401C641EE861F2D12B694A462946C3
:102F4000404600F09FF80028EFD1AC69012C0ADB65
:102F500068683021C04700286860E6D0E869401CF6
:102F6000641EE861F4D16B69AA682946404600F006
:102F700089F80028D9D195F8280040070CD5012FF1
:102F80000ADB68682021C04700286860CDD0E86966
:102F9000401C7F1EE861F4D12E616E6204A8814559
:102FA0001CBF4846FEF7FBF8304601E04FF0FF300B
:102FB00015B0BDE8F08FF0B4C2686F2908BF0824CF
:102FC00005D041F02003782B14BF0A2410241823C5
:102FD0000668642918BF6929374602D1002E48BF08
:102FE0007F425FB9056A4DB9082C27D190F82810A7
:102FF000090723D530211723D1751FE0B7FBF4F65D
:1030000004FB16773037FFB25D1E3A2FA4BFA1F143
:10301000510C6744AF542B46370003D085689E1887
:10302000B542EBD3082C09D190F82810090705D533
:10303000995C302902D05B1E302199549A18826025
:10304000C3F11801026A4161914208DA511A8161A3
:103050004FF6EF72018D11400185F0BC7047002AD8
:103060000ED590F8282002F01402102A08D1426AE6
:103070000369D21A8369D21A531A012BA8BF83613C
:10308000F0BC7047F8B504460D4616461F460020B2
:1030900077B116F8011B6868A047686030B1E8692D
:1030A000401CE86100207F1EF3D1F2BD4FF0FF30DD
:1030B000F2BD00000000000000000000686C747A9F
:1030C0004C0000000000000000000000F8B50446BD
:1030D0000D4616461F4600F0ABF83B4632462946E1
:1030E000204601B0BDE8F04000F0B9B80278C9B29E
:1030F0008A421AB11CBF10F8012FF9E718BF00204F
:103100007047000000F10103810704D010F8011B93
:1031100089B18107FAD10268B2F10131914311F00E
:10312000803F04BF50F8042FF6E710F8011B11B1DF
:1031300010F8011BFBE7C01A70470000C9B28307F3
:1031400006D0521E22D310F8013B9942F7D11FE05E
:10315000083A13D302F1040241EA012141EA014194
:1031600050F8043B121F21BF4B40A3F1013C2CEA55
:10317000030C1CF0803FF3D0C9B2001F083210F8D6
:10318000013B521E28BF91EA030FF8D818BF012057
:10319000401E704780B500F04BF8012002BD70B5AD
:1031A00004460D46164600F043F8324629462046AE
:1031B000BDE8704000F046B862B38B0708D0521EDD
:1031C00011F8013B00F8013B00F024808B07F6D199
:1031D000830740F0208000BF103A07D330B4B1E835
:1031E0003810103AA0E83810F9D230BC530724BF89
:1031F000B1E80810A0E8081044BF51F8043B40F8BB
:10320000043BD20724BF31F8022B20F8022B44BF25
:103210000B7803707047083A07D3B1E80810083AF2
:1032200040F8043B40F804CBF7D25307E4E7000032
:1032300080B5DFF80C0000F035F8806902BD0000B1
:10324000F400002030B430B90FF24800D0E9004556
:10325000C2E900451BE00170012030BC704730B46A
:1032600031B90FF23800D0E90045C3E900450EE05E
:103270001AB930BC6FF00100704708B10A780280BB
:103280000978481E804130BCC043C00F7047002001
:1032900030BC70470000000000000000000000008B
:1032A000000000007047000070B582B004000025E7
:1032B0002078C00740F1AF80DFF82C08006810F0DC
:1032C0000C0004280BD0DFF82008006810F00C0078
:1032D000082810D1DFF81408006840020BD5DFF889
:1032E00004080068800340F196806068002840F080
:1032F0009280012063E2DFF8EC07006830F4803050
:10330000DFF8E0170860DFF8DC07006830F48020A1
:10331000DFF8D0170860DFF8CC07006830F48030A1
:10332000DFF8C017086000F021FC0500DFF8B407E3
:103330000068800308D500F019FC401B41F2893178
:103340008842F3D303203AE2DFF89807006830F4AC
:103350008030DFF8901708606068B0F5803F10D1CA
:10336000DFF88007006830F48020DFF87817086005
:10337000DFF87007006850F48030DFF868170860E5
:1033800024E06068B0F5A02F10D1DFF8580700687E
:1033900050F48020DFF84C170860DFF84807006819
:1033A00050F48030DFF83C1708600FE0DFF8340796
:1033B000006830F48020DFF82C170860DFF824075D
:1033C000006830F48030DFF81C170860606800285F
:1033D00010D000F0CBFB0500DFF808070068800381
:1033E00019D400F0C3FB401B41F289318842F3D36A
:1033F0000320E4E100F0BAFB0500DFF8E80600680E
:10340000800308D500F0B2FB401B41F289318842AD
:10341000F3D30320D3E1207880076ED5DFF8C80608
:10342000006810F00C0F0BD0DFF8BC06006810F03D
:103430000C0008281FD1DFF8B406006840021AD437
:10344000DFF8A0060068800704D5E068012801D0F5
:103450000120B4E1DFF88C0600685FF0F851B1FAA2
:1034600081F130F0F800226912FA01F10843DFF827
:103470007416086041E0E068002827D0DFF8640691
:10348000006850F00100DFF85C16086000F06EFB89
:103490000500DFF850060068800706D400F066FBE0
:1034A000401B6528F5D3032089E1DFF83806006862
:1034B0005FF0F851B1FA81F130F0F800226912FAA8
:1034C00001F10843DFF81C16086016E0DFF8140667
:1034D000006840084000DFF80C16086000F046FB6A
:1034E0000500DFF800060068800706D500F03EFB07
:1034F000401B6528F5D3032061E12078000730D513
:103500006069002816D0DFF8E805006850F0010077
:10351000DFF8DC15086000F029FB0500DFF8D005B6
:10352000006880071DD400F021FB401B6528F5D3FF
:10353000032044E1DFF8B805006840084000DFF8E8
:10354000B015086000F012FB0500DFF8A405006864
:10355000800706D500F00AFB401B6528F5D3032041
:103560002DE12078400740F1B480DFF8880500683D
:1035700050F08050DFF87C150860DFF878050068AF
:1035800010F0805000900098DFF86C05006850F44F
:103590008070DFF86415086000F0E8FA0500DFF8D5
:1035A00058050068C00506D400F0E0FA401B652805
:1035B000F5D3032003E1DFF844050068400840002C
:1035C000DFF838150860DFF83405006830F00400D3
:1035D000DFF828150860DFF824050068400840007F
:1035E000DFF81815086000F0C1FA0500DFF80C05D7
:1035F0000068800708D500F0B9FA401B41F2893114
:103600008842F3D30320DAE0DFF8F00400684008D2
:103610004000DFF8E8140860A068012810D1DFF846
:10362000DC04006830F00400DFF8D0140860DFF834
:10363000CC04006850F00100DFF8C014086023E0FB
:10364000A068052810D1DFF8B404006850F0040029
:10365000DFF8A8140860DFF8A404006850F0010047
:10366000DFF8981408600FE0DFF89004006830F08D
:103670000400DFF888140860DFF880040068400860
:103680004000DFF878140860A068002810D000F02F
:103690006DFA0500DFF864040068800719D400F0B3
:1036A00065FA401B41F289318842F3D3032086E05A
:1036B00000F05CFA0500DFF844040068800708D5D4
:1036C00000F054FA401B41F289318842F3D30320C1
:1036D00075E0A069002871D0DFF80C04006810F0D4
:1036E0000C00082868D0A06902284ED1DFF8F40346
:1036F000006830F08070DFF8EC13086000F036FAF4
:103700000500DFF8E0030068800106D500F02EFA1E
:10371000401B6528F5D3032051E0DFF8E403B0FA3D
:1037200080F14FF44040B0FA80F2F020B0FA80F01F
:10373000236A666A16FA01F11943A36A5B085B1EE5
:1037400013FA02F21143E2691143E26A12FA00F03D
:10375000084350F00050DFF894130860DFF884034A
:10376000006850F08070DFF87C13086000F0FEF90C
:103770000500DFF87003006880011FD400F0F6F93F
:10378000401B6528F5D3032019E0DFF858030068D3
:1037900030F08070DFF84C13086000F0E7F90500A6
:1037A000DFF840030068800108D500F0DFF9401B16
:1037B0006528F5D3032002E0012000E0002076BD5B
:1037C00070B504000D000026DFF83803006810F023
:1037D0000F00A84280F08380DFF82803006800090A
:1037E00000012843DFF81C130860DFF818030068A5
:1037F00010F00F00A84201D001200BE120788007D3
:1038000009D5DFF8E402006830F0F000A168084351
:10381000DFF8D41208602078C00740F1DF806068CC
:10382000012806D1DFF8BC020068800312D4012011
:10383000F0E06068022806D1DFF8A8020068800185
:1038400008D40120E6E0DFF89C020068800701D47C
:103850000120DFE0DFF890020068800880006168E6
:103860000843DFF88412086000F080F90600606801
:10387000012810D1DFF87002006810F00C00042855
:1038800000F0AC8000F072F9801B41F2893188426F
:10389000F0D30320BEE06068022810D1DFF84802B0
:1038A000006810F00C00082800F0988000F05EF925
:1038B000801B41F289318842F0D30320AAE0DFF86F
:1038C0002802006810F00C0F00F0888000F04EF91C
:1038D000801B41F289318842F1D303209AE020789D
:1038E000800709D5DFF80002006830F0F000A16819
:1038F0000843DFF8F41108602078C0075CD56068E1
:10390000012806D1DFF8DC010068800312D4012011
:1039100080E06068022806D1DFF8C80100688001F5
:1039200008D4012076E0DFF8BC010068800701D4EC
:1039300001206FE0DFF8B001006880088000616856
:103940000843DFF8A411086000F010F90600606871
:1039500001280FD1DFF89001006810F00C00042856
:103960002AD000F003F9801B41F289318842F1D35B
:1039700003204FE0606802280FD1DFF86C01006877
:1039800010F00C00082817D000F0F0F8801B41F26E
:1039900089318842F1D303203CE0DFF84C01006814
:1039A00010F00C0F08D000F0E1F8801B41F28931D3
:1039B0008842F2D303202DE0DFF8480100680009B7
:1039C00000012843DFF83C110860DFF83801006887
:1039D00010F00F00A84201D001201BE02078400722
:1039E00008D5DFF80401006830F4E050E1680843CE
:1039F0003D4908602078000708D53B48006830F44E
:103A00006040216950EAC100374908600F2000F08A
:103A100095F8002070BD70B4002100220023002022
:103A2000314C246814F00C04002C04D0042C05D074
:103A3000082C06D03DE0344C20003CE0334C200004
:103A400039E02A4C246814F03F042100274C2468F4
:103A500064020FD5254C24682C4DB5FBF1F547F6D3
:103A6000C0763440264EB6FA86F6F44004FB05F4E0
:103A700022000EE01D4C2468234DB5FBF1F547F6FE
:103A8000C07634401E4EB6FA86F6F44004FB05F4C8
:103A90002200164C246814F440344FF44045B5FA23
:103AA00085F5EC40641C64002300B2FBF3F42000B5
:103AB00001E0154C200070BC704780B5FFF7ABFFEC
:103AC000094909685FF07062B2FA82F2104B11F096
:103AD000F001D140C95CC8400E4908600D4800683B
:103AE00002BD00000038024008380240043802409D
:103AF0007438024040380240007000407038024084
:103B00000000FE03003C02400024F40040787D01E8
:103B1000E46100080400002080B51648006850F4F5
:103B2000007014490860032000F09AF80F2000F09C
:103B300005F800F002F8002002BD704710B504003F
:103B4000FFF7BBFF4FF47A71B0FBF1F000F0AFF874
:103B5000002221005FF0FF3000F088F8002010BD47
:103B600005480068401C0449086070470248006826
:103B700070470000003C024094F9002010F007025A
:103B8000564B1B6819004FF6FF031940544B53EA7C
:103B900002231943514B1960704750480068C0F325
:103BA00002207047012110F01F0291404D4A40B29F
:103BB000430942F823107047012110F01F02914081
:103BC000494A40B2430942F82310704710B440B24A
:103BD000002808D50A01454B40B210F00F04E31845
:103BE00003F8042C03E00A01414B40B2C25410BC5C
:103BF000704770B4030013F00704D4F10706052ED4
:103C000001D3042001E0D4F10700261D072E01D2C4
:103C1000002500E0E51E012616FA00F0401E0840CF
:103C2000A8400121A940491E1140084370BC7047BB
:103C300010B50400601EB0F1807F01D301200EE0BA
:103C4000601E2C4908600F215FF0FF30FFF7BEFFB8
:103C5000002029490860072028490860002010BD7D
:103C600010B504002000FFF789FF10BDF8B504006F
:103C70000D0016000027FFF790FF07003200290013
:103C80003800FFF7B6FF0100200040B2FFF79EFFAB
:103C9000F1BD10B50400200040B2FFF783FF10BD56
:103CA00010B50400200040B2FFF786FF10BD10B52C
:103CB00004002000FFF7BCFF10BD042806D10F4907
:103CC000096851F004010D4A116005E00B490968CB
:103CD00031F00401094A1160704700000CED00E06A
:103CE0000000FA0500E100E080E100E018ED00E0EE
:103CF00000E400E014E000E018E000E010E000E084
:103D00002DE9F84304000025002600275FF0000895
:103D10005FF000092078C00714D5DFF88C06006832
:103D200030F40000DFF880160860DFF87C060068D9
:103D3000616B0843DFF870160860606B002801D1E2
:103D4000012080462068000314D5DFF86006006873
:103D500030F44010E16B0843DFF850160860E06B68
:103D6000B0F5801F01D101208046E06B002801D111
:103D7000012081462068C00214D5DFF830060068B3
:103D800030F44000216C0843DFF820160860206CF6
:103D9000B0F5800F01D101208046206C002801D1B0
:103DA000012081462068C00101D50120804620788D
:103DB000800640F18280DFF8F805006810F440705A
:103DC000216B11F44071884277D0DFF8E805006874
:103DD00050F08050DFF8DC150860DFF8D805006887
:103DE00010F0805000900098DFF8CC05006850F487
:103DF0008070DFF8C4150860FFF7B8FE0500DFF833
:103E0000B8050068C00506D4FFF7B0FE401B652862
:103E1000F5D30320C6E2DFF89805006830F440705F
:103E20000600DFF88C05006850F48030DFF880155C
:103E30000860DFF87C05006830F48030DFF870152A
:103E40000860DFF86C050660B00710D5FFF78EFE3E
:103E50000500DFF85C050068800708D4FFF786FEE0
:103E6000401B41F289318842F3D303209AE2206B50
:103E700010F44070B0F5407F0DD1DFF82C050068DC
:103E800030F4F810216BDFF8342511400843DFF8D7
:103E90001815086007E0DFF81005006830F4F81026
:103EA000DFF804150860DFF808050068216B0905D4
:103EB000090D0843DFF8F81408602078C0060FD514
:103EC000DFF8E804006830F08070DFF8E014086084
:103ED000DFF8D8040068A16B0843DFF8D01408604D
:103EE0002068400409D5DFF8D804006830F4403079
:103EF000616E0843DFF8C81408602068000409D523
:103F0000DFF8BC04006830F44020A16E0843DFF8FD
:103F1000B01408602068C00309D5DFF8A404006865
:103F200030F44010E16E0843DFF894140860206814
:103F3000800309D5DFF88804006830F44000216F61
:103F40000843DFF87C1408602078400609D5DFF8C4
:103F50007004006880088000616C0843DFF860141A
:103F600008602078000609D5DFF85404006830F0B6
:103F70000C00A16C0843DFF8481408602068C005F5
:103F800009D5DFF83C04006830F03000E16C0843EC
:103F9000DFF82C1408602068800509D5DFF82004BC
:103FA000006830F0C000216D0843DFF81414086089
:103FB0002068400509D5DFF80804006830F4407037
:103FC000616D0843DFF8F81308602068000509D523
:103FD000DFF8EC03006830F44060A16D0843DFF8BF
:103FE000E01308602068C00409D5DFF8D403006836
:103FF00030F44050E16D0843DFF8C41308602068D6
:10400000800409D5DFF8B803006830F44040216E21
:104010000843DFF8AC1308602068400209D5DFF8D8
:10402000A003006830F08060A16F0843DFF89013B0
:104030000860206880020FD5DFF88403006830F044
:104040000060E16F0843DFF878130860E06FB0F1BB
:10405000006F01D1012081462078000701D50120A1
:1040600081462068400309D5DFF85403006830F02A
:104070004070616F0843DFF8481308602068000251
:104080000AD5DFF83C03006830F08050D4F8801087
:104090000843DFF82C130860B8F1010F04D0206842
:1040A000B0F1007F40F0C380DFF81803006830F003
:1040B0008060DFF810130860FFF758FD0500DFF897
:1040C00004030068000106D5FFF750FD401B65287A
:1040D000F5D3032066E12078C00723D5606B002864
:1040E00020D1DFF8E402006810F440304FF4404182
:1040F000B1FA81F1C8400600DFF8CC02006810F088
:104100007060F021B1FA81F1C840070060683104A5
:1041100051EA801050EA0760A16850EA0170DFF8A8
:10412000A81208602068000303D5E06BB0F5801F7B
:1041300006D02068C0022FD5206CB0F5800F2BD19F
:10414000DFF88402006810F440304FF44041B1FAC7
:1041500081F1C8400600DFF87002006810F0E0400E
:104160000E21B1FA81F1C84007006068310451EABC
:104170008010E16850EA016050EA0770DFF84812E9
:104180000860DFF82802006840094001616A491EA2
:104190000843DFF8181208602068C0011FD5DFF857
:1041A0002802006810F07060F021B1FA81F1C84077
:1041B0000600DFF81402006810F0E0400E21B1FAAA
:1041C00081F1C840070060682169090451EA801044
:1041D00050EA066050EA0770DFF8EC1108602068CA
:1041E00080010DD560682169090451EA8010E168F9
:1041F00050EA0160A16850EA0170DFF8CC11086054
:10420000DFF8C001006850F08060DFF8B811086086
:10421000FFF7ACFC0500DFF8AC010068000106D434
:10422000FFF7A4FC401B6528F5D30320BAE0B9F1E1
:10423000010F40F0B680DFF88C01006830F080504C
:10424000DFF880110860FFF791FC0500DFF87401CA
:104250000068800006D5FFF789FC401B6528F5D370
:1042600003209FE02068000302D5E06B002805D002
:104270002068C0022FD5206C00282CD1DFF84C011B
:10428000006810F440304FF44041B1FA81F1C84069
:104290000600DFF83801006810F0E0400E21B1FAA6
:1042A00081F1C84007006069310451EA8010A169BA
:1042B00050EA016050EA0770DFF810110860DFF87B
:1042C000EC00006830F4F850A16A491E50EA012061
:1042D000DFF8D81008602068800223D5E06FB0F1C5
:1042E000006F1FD1DFF8E400006810F07060F0216B
:1042F000B1FA81F1C8400600DFF8D000006810F084
:10430000E0400E21B1FA81F1C84007006069216ADE
:10431000090451EA801050EA066050EA0770DFF89D
:10432000AC1008602078000727D5DFF8A0000068EF
:1043300010F07060F021B1FA81F1C8400600DFF89A
:104340008C00006810F440304FF44041B1FA81F124
:10435000C84007006069390451EA801050EA0660DD
:10436000E16950EA0170194908601048006830F4AA
:104370004030E16A08430D4908601248006850F077
:10438000805010490860FFF7F1FB05000D480068F8
:10439000800006D4FFF7EAFB401B6528F6D3032014
:1043A00000E00020BDE8F283083802408C3802406B
:1043B000703802404038024000700040FFFCFF0FA0
:1043C0009038024000380240843802408838024069
:1043D000BFF34F8FBFF36F8F0020DFF82415086005
:1043E000DFF82005006850F40030DFF81815086089
:1043F000BFF34F8FBFF36F8F704710B40023DFF808
:1044000008452360BFF34F8FDFF800351B681800A5
:10441000C0F34E331900C0F3C9031A0043F6E0732A
:1044200013EA411353EA8273DFF8E4442360130074
:104430005A1E002BF2D10B00591E002BEBD1BFF3FB
:104440004F8FDFF8C0341B6853F48033DFF8B44477
:104450002360BFF34F8FBFF36F8F10BC704710B551
:1044600082B00020040000F0CCF8FFF755FB00F00C
:1044700052F8002000F08AFADFF89804006850F043
:104480000200DFF890140860DFF88804006810F07C
:104490000200009000981020DFF87C140860DFF81C
:1044A0007C04DFF8741448600020DFF86C14886026
:1044B0000320DFF86414C860DFF85C14DFF86004E0
:1044C00000F0B0FA00220F210A20FFF7CFFB0A20EC
:1044D000FFF7DFFBDFF84C0400780128FAD1002059
:1044E000DFF840140870641CE4B2322CF2D10020D2
:1044F00000F080FA00200400ECE7DFF82C040068EC
:10450000411CDFF824241160C92803D30020DFF800
:1045100018140860704700B5B3B0DFF810040068E5
:104520008009800150F01000DFF800140860DFF807
:10453000FC03006830F48000DFF8F0130860DFF857
:10454000F003006850F08050DFF8E4130860DFF8F3
:10455000E003006810F0805000900098DFF8D4036A
:10456000006830F4404050F48040DFF8C813086021
:10457000DFF8C003006810F440400090009802206B
:1045800006900120099010200A9000200C90002035
:104590000D9010200E9006A8FEF786FE0F200190C9
:1045A000002002900020039000200490002005903D
:1045B000002101A8FFF704F94CF201201290C0205D
:1045C00013900020169002201490022015900120D4
:1045D0001B9000201F900020269000202B90002090
:1045E0002C9012A8FFF78CFBFFF767FA4FF47A7153
:1045F000B0FBF1F0FFF75BFB0420FFF75EFB33B08D
:1046000000BD80B5FFF7E4FEFFF7F7FE01BD10B572
:1046100086B004002068DFF8281388421BD1DFF839
:104620001C03006850F40050C4490860C348006887
:1046300010F4005000900098742001900220029025
:1046400000200390032004900520059001A9BD4897
:1046500000F0E8F952E02068BB4988422FD1B74802
:10466000006850F48010B5490860B448006810F440
:10467000801000900098A748006850F02000A549DD
:104680000860A448006810F02000009000984FF4E3
:104690007070019002200290022003900320049089
:1046A0000520059001A9A44800F0BCF902220221CE
:1046B0005520FFF7DBFA5520FFF7EBFA1EE02068E4
:1046C000A24988421AD19D48006850F400109B49C5
:1046D00008609A48006810F40010009000984FF4A9
:1046E000C04001900220029000200390032004901B
:1046F0000520059001A9964800F094F906B010BD78
:1047000080B59148934908600020924948604FF471
:104710008060904988604FF470608E49C8600020C6
:104720008C49086100208B4948614FF40070894929
:10473000886100208749086200208649486200207D
:104740008449886207208349C86200208149086340
:104750000020804948637F4800F08EFA7D48006859
:10476000406850F060007B490968486079480068FB
:10477000006850F0400077490968086001BD10B535
:10478000744800688068400600F19A8071480068AB
:104790008068C00740F194806E4800684068400619
:1047A00040F18E80684800F08CF804006A48007878
:1047B00090F00100684908706748007800286BD1C4
:1047C0006648007890F001006449087063480078FA
:1047D000012830D1624800686249098810FA81F0E6
:1047E00041F6FE71884264D25E480088411C5D4AF1
:1047F00011805D495A4A126812FA80F0220092B282
:104800005A4B1B881B0353EA121221F810205548FB
:104810000088411C534A11805349514A126812FAC8
:1048200080F0220092B2514B1B881B0353EA1212F4
:1048300021F810203DE04E4800684E49098810FAE2
:1048400081F041F6FE71884233D24A480088411C0B
:10485000484A11804849464A126812FA80F02200FC
:1048600092B2424B1B881B0353EA121221F810200C
:1048700040480088411C3F4A11803F493C4A126829
:1048800012FA80F0220092B2384B1B881B0353EAC5
:10489000121221F810200CE03448048037483449C3
:1048A0000968344A128811FA82F1304A128820F8D5
:1048B000112033480078002802D1012030490870C7
:1048C00010BDC06880B2704780B52E480068C00631
:1048D00014D52D4800880A2808D1FFF711FF0020C1
:1048E000294908800A20FFF7DBF904E02648008800
:1048F000401C2549088010202249086001BD0000A5
:1049000050EF00E014ED00E084ED00E080ED00E009
:1049100060EF00E03038024078F90020000011100C
:1049200000040240A8F9002090F900200438024059
:1049300040380240007000400014024044380240F9
:10494000003401400010024000500140005401407A
:1049500000180240ECF60020ABF90020AAF9002074
:1049600078A90020A0F9002070610020A6F900209D
:1049700088F10020A2F9002080A900206019002001
:10498000A9F90020143C0140A4F9002030B587B0FB
:104990000400E4B2002C2BD1DFF87C000500DFF826
:1049A0007C00006850F48070DFF870100860DFF859
:1049B0006C00006810F4807000900098DFF86000D0
:1049C000E4B250F8240001900120029001200390ED
:1049D0000320049001A9280000F024F80022DFF849
:1049E0004000E4B250F8241089B2280000F015F914
:1049F00007B030BD38B50400E4B2002C0BD1DFF8AD
:104A000018000500DFF81800E4B250F8241089B24D
:104A1000280000F00CF931BD00200240303802407F
:104A200010620008F8B400220023002400250026AC
:104A30003200102A80F0EF800126964033000E6885
:104A40001E4034009C4240F0E4804E68022E02D0AA
:104A50004E68122E16D1D60810EB8606366A35003F
:104A60000F2612F00707FFB2BF00BE40B5430E6924
:104A700012F00707FFB2BF00BE403543D60810EB67
:104A8000860635620668350003261700FFB27F00F0
:104A9000BE40B5430E7916F003061700FFB27F0043
:104AA000BE40354305604E68012E08D04E68022E88
:104AB00005D04E68112E02D04E68122E19D186688C
:104AC000350003261700FFB27F00BE40B543CE6815
:104AD0001700FFB27F00BE40354385604668350051
:104AE00001269640B5434E68C6F3001696403543FE
:104AF0004560C668350003261700FFB27F00BE4040
:104B0000B5438E681700FFB27F00BE403543C560D5
:104B10004E68F6007DD5484E366856F48046464FBE
:104B20003E60454E366816F480460096009E434E21
:104B3000970856F8276035000F2612F00307FFB2DA
:104B4000BF00BE40B5433E4EB04201D100262DE02D
:104B50003C4EB04201D1012628E03B4EB04201D18B
:104B6000022623E0394EB04201D103261EE0384E22
:104B7000B04201D1042619E0364EB04201D10526DB
:104B800014E0354EB04201D106260FE0334EB0425C
:104B900001D107260AE0324EB04201D1082605E0D5
:104BA000304EB04201D1092600E00A26F6B212F0DA
:104BB0000307FFB2BF00BE403543204E970846F8BA
:104BC0002750294E36683500A5434E68F60300D5B8
:104BD0002543254E3560254E36683500A5434E6881
:104BE000B60300D52543214E3560214E3668350089
:104BF000A5434E68F60200D525431D4E35601D4E77
:104C000036683500A5434E68B60200D52543194ED7
:104C10003560521C0DE7F1BC7047D2B2002A02D0B9
:104C200089B2816102E089B20B04836170474269F5
:104C300089B24A4042617047443802400838014016
:104C4000000002400004024000080240000C024044
:104C5000001002400014024000180240001C0240F4
:104C60000020024000240240003C0140043C01407E
:104C7000083C01400C3C014038B50400002C01D137
:104C8000012064E094F85D00002805D1002084F83C
:104C90005C002000FFF7BBFC022084F85D00206868
:104CA000006830F0400021680860E068B0F5E06F0F
:104CB00002D90020050002E04FF480500500E068B2
:104CC000B0F5706F05D0E068B0F5E06F01D000205E
:104CD000A062206B002808D1E068B0F5E06F02D92F
:104CE0000220206301E0012020636068A16808437E
:104CF0002169084361690843A16911F400710843FF
:104D0000E1690843216A0843A16A084321680860F1
:104D1000206B022805D12068006850F400602168EB
:104D20000860A069000C10F00400616A0843616B20
:104D30000843E1680843284321684860E06A216825
:104D4000086100202066012084F85D00002032BD4B
:104D500010B5040020688069800713D4206880693A
:104D600000060FD42068806940060BD42068806953
:104D7000800607D420688069C00603D42068806953
:104D800000070CD52068006810F07A007A2806D158
:104D900094F83500322802D1200000F0CAF92068CA
:104DA000806980070FD42068806900060BD42068D2
:104DB0008069400607D420688069800603D4206893
:104DC0008069C00610D52068006810F07200722853
:104DD0000AD194F83500122803D094F835005228EF
:104DE00002D1200000F052F820688069400713D4F7
:104DF0002068806900060FD42068806940060BD4C3
:104E000020688069800607D420688069C00603D4C2
:104E10002068806900070CD52068006810F07C00CD
:104E20007C2806D194F83500422802D1200000F0F9
:104E3000E1F92068806940070FD420688069000686
:104E40000BD420688069400607D4206880698006FA
:104E500003D420688069C00610D52068006810F06F
:104E6000740074280AD194F83500222803D094F8ED
:104E70003500622802D1200000F0B2F810BD704762
:104E800070477047704770477047704738B50400E7
:104E900094F83400012801D102209FE0012084F819
:104EA00034002068806980070CD5606A411C61620B
:104EB000007821688862208D401E2085608D401E0C
:104EC000608587E020688069000633D5208D002842
:104ED00025D1608D002822D0206840688005800D93
:104EE0000500608DFF280CDD002000905FF08073CE
:104EF000FF22290089B2200000F0D6F9FF2020858A
:104F000068E0002000905FF00073628DD2B229004B
:104F100089B2200000F0C8F9608D20855AE0002099
:104F200084F83400A06B50F04000A0632000FFF72D
:104F3000ACFF4FE020688069400614D5608D0028E2
:104F400006D12068406850F480402168486041E004
:104F5000002084F83400A06B50F04000A0632000D3
:104F6000FFF793FF36E020688069800621D520682E
:104F7000006830F0F2002168086020202168C861D4
:104F800020684068DFF81C13084021684860012051
:104F900084F83500002084F8340094F83500522855
:104FA00003D12000FFF76FFF14E02000FFF767FF39
:104FB00010E020688069C0060CD510202168C86107
:104FC000002084F83400A06B50F00400A06320009F
:104FD000FFF75BFF002084F83400002032BD0000A2
:104FE00038B5040094F83400012801D102209FE074
:104FF000012084F834002068806940070CD5606A7D
:10500000411C61622168496A0170208D401E208523
:10501000608D401E608587E020688069000633D57A
:10502000208D002825D1608D002822D0206840687E
:105030008005800D0500608DFF280CDD00200090AC
:105040005FF08073FF22290089B2200000F02CF964
:10505000FF20208568E0002000905FF00073628DE3
:10506000D2B2290089B2200000F01EF9608D20859F
:105070005AE0002084F83400A06B50F04000A06398
:105080002000FFF702FF4FE020688069400614D53A
:10509000608D002806D12068406850F48040216867
:1050A000486041E0002084F83400A06B50F04000DC
:1050B000A0632000FFF7E9FE36E0206880698006E3
:1050C00021D52068006830F0F400216808602020B5
:1050D0002168C86120684068DFF8C811084021686D
:1050E0004860012084F83500002084F8340094F8EA
:1050F0003500622803D12000FFF7C6FE14E020002F
:10510000FFF7BEFE10E020688069C0060CD51020B5
:105110002168C861002084F83400A06B50F00400BE
:10512000A0632000FFF7B1FE002084F834000020C7
:1051300032BD10B5040094F83400012801D10220DA
:1051400057E0012084F8340020688069C00617D534
:10515000608D002806D110202168C861002084F8E5
:10516000340042E010202168C861A06B50F00400B8
:10517000A063002084F834002000FFF786FE34E0AE
:1051800020688069000703D508202168C8612CE0E9
:1051900020688069800618D52068006830F0FE001D
:1051A000216808602068406850F400402168486029
:1051B00020202168C861012084F83500002084F88F
:1051C00034002000FFF75DFE0FE020688069800753
:1051D0000BD5608D002808D0606A411C61620078A0
:1051E00021688862608D401E6085002084F834004C
:1051F000002010BD10B5040094F83400012801D13E
:1052000002204DE0012084F8340020688069C00647
:105210000DD510202168C861002084F83400A06BEF
:1052200050F00400A0632000FFF72FFE34E0206858
:105230008069000703D508202168C8612CE0206838
:10524000806940070CD5606A411C61622168496A27
:105250000170208D401E2085608D401E60851BE002
:1052600020688069800617D52068006830F0FC004F
:10527000216808602068406850F400402168486058
:1052800020202168C861012084F83500002084F8BE
:1052900034002000FFF7F6FD002084F834000020E1
:1052A00010BD000000E800FE70B4039C00250668F5
:1052B00076683500074E354089B28E05B60DD2B2FC
:1052C00056EA02461E43264335430668756070BCA5
:1052D00070470000009800FC10B504002068C06909
:1052E000C0070ED520680068C0050AD57FF0010010
:1052F00021680862E06E50F00100E066012084F849
:1053000069002068C06980070ED520688068C007E2
:105310000AD57FF0020021680862E06E50F00400B8
:10532000E066012084F869002068C06940070ED556
:1053300020688068C0070AD57FF0040021680862F1
:10534000E06E50F00200E066012084F869002068F9
:10535000C06900070ED520688068C0070AD57FF0B5
:10536000080021680862E06E50F00800E066012045
:1053700084F86900E06E002802D0200000F099F85F
:105380002068C06980060CD520680068800608D5B2
:10539000200000F003F92068806950F008002168BF
:1053A00088612068C069000606D52068006800068C
:1053B00002D5200000F07EF82068C069400606D5BE
:1053C00020680068400602D5200000F0C9F810BD32
:1053D0002DE9F04104000D0016001F00FEF7C6FB8A
:1053E0008046F6B2002E2FD12068C0692840A8421E
:1053F0005AD017F1010FF7D0002F05D0FEF7B6FBFA
:10540000B0EB0800B842EFD32068006830F08000AD
:10541000216808602068006830F02000216808607A
:105420002068006830F48070216808602068806817
:105430004008400021688860012084F8690000204D
:1054400084F86800032030E02068C0692840A84242
:105450002AD117F1010FF7D0002F05D0FEF786FBF8
:10546000B0EB0800B842EFD32068006830F080004D
:10547000216808602068006830F02000216808601A
:105480002068006830F480702168086020688068B7
:105490004008400021688860012084F869000020ED
:1054A00084F86800032000E00020BDE8F081704728
:1054B0007047704738B5040094F86900122803D08B
:1054C00094F86900322849D1B4F85200002826D156
:1054D0002068006830F080002168086094F8690056
:1054E000322803D1222084F8690008E0206880680F
:1054F0004008400021688860012084F869007FF03E
:105500007E43002240212000FFF762FF002801D0E7
:10551000032024E02000FFF7CAFF00201FE0A0685E
:10552000B0F5805F0DD1206900280AD1E06C05003C
:105530002888C005C00D21688862E06C801CE0648A
:1055400005E0E06C411CE164007821688862B4F8F1
:105550005200401EA4F85200002000E0022032BD9C
:1055600010B504002068006830F040002168086031
:1055700094F86900322803D1222084F8690008E0F9
:10558000206880684008400021688860012084F815
:1055900069002000FFF78BFF002010BD70B50400EC
:1055A000B4F85C6094F86900222803D094F869008C
:1055B000322844D1A068B0F5805F0CD12069002862
:1055C00009D1606D05002068406A30402880606D18
:1055D000801C606506E0606D411C61652168496A58
:1055E00031400170B4F85A00401EA4F85A00B4F8D3
:1055F0005A00002821D12068006830F0200021687E
:10560000086094F86900322803D1122084F86900F8
:105610000EE02068006830F480702168086020681F
:1056200080684008400021688860012084F8690093
:105630002000FFF73DFF002002E0002000E00220F4
:1056400070BD000038B5DFF83C020468DFF82402C2
:105650000568DFF824020068DFF82012884205D3CD
:10566000DFF81C02006810F000601EE0DFF808029E
:105670000068DFF81412884205D3DFF810020068D2
:1056800010F0006011E0DFF8F0010068DFF80012B0
:10569000884205D3DFF8FC01006810F0006004E0E8
:1056A000DFF8F401006810F00060002800F0C58009
:1056B000DFF8C0010068002800F08380DFF8B8013F
:1056C0000068DFF8B811884205D35FF00060DFF8AA
:1056D000CC1108601EE0DFF8A0010068DFF8A81117
:1056E000884205D35FF00060DFF8B411086011E074
:1056F000DFF884010068DFF89811884205D35FF075
:105700000060DFF8A011086004E05FF00060DFF8DF
:1057100098110860DFF86C010068DFF85C11096817
:10572000C860DFF850010068B0F5803F03D2DFF8B1
:105730004401006801E04FF6FF70DFF83C11096892
:105740004860DFF8340100F0B5F8DFF82C0100689C
:10575000006850F00100DFF8201109680860DFF8E8
:1057600014010068B0F5803F03D2DFF8080100683B
:1057700001E04FF6FF70DFF80C11096811EB4000F3
:10578000DFF800110860DFF8EC000068B0F5803F3A
:1057900003D2DFF8E000006801E04FF6FF70DFF8A9
:1057A000D4100968081ADFF8CC100860DFF8C800C8
:1057B0000068006850F00100DFF8BC10096808605C
:1057C0003BE0DFF8B4000068006840084000DFF804
:1057D000A81009680860DFF8A0000068DFF89C10D6
:1057E000884205D35FF00060DFF8B01008601EE06B
:1057F000DFF884000068DFF89010884205D35FF07E
:105800000060DFF89C10086011E0DFF86C000068B1
:10581000DFF87C10884205D35FF00060DFF8841069
:10582000086004E05FF00060DFF87C100860002191
:10583000DFF85000006800F07FF831BD80B5FFF759
:1058400001FF01BD80B5FFF7FDFE01BD80B5DFF8AA
:105850005C0000688068000607D500F06EF8010063
:1058600089B2DFF84C0000F001F801BD89B2C160D7
:105870007047000000000020B4F700205964024087
:10588000046402408CF90020B960024000640240C8
:105890005960024004600240006002400C64024013
:1058A000086402400C60024008600240A4F8002036
:1058B000003C004001000022002901D1012036E017
:1058C000486A0028022081F8350008680068020054
:1058D0001848024048688B681843CB6818430B6926
:1058E00018434B6918438B691843CB6918430B6AFB
:1058F00018430243486A042803D1C86A0B6B184353
:10590000024308680260086840690200D208D200B9
:10591000486A0243486A042801D1886A0243086839
:1059200042610020C864012081F8350000207047E2
:10593000000000003F8010F070470020704700001A
:1059400010B4364A0021134653F8084B844205D15F
:10595000002342F8313002EBC10113E053F8084B49
:10596000491C84421EBF491C53F8084B84421EBF89
:10597000491C53F8084B8442EAD0491C1029E3D350
:1059800010BC70474B6010BC704770B4234C0023B0
:10599000254655F8086B8E4209D1014604EBC30336
:1059A000012A04BF5A685118596070BC704755F8F5
:1059B000086B5B1C8E421EBF5B1C55F8086B8E4249
:1059C0001EBF5B1C55F8086B8E42E6D05B1C102B8B
:1059D000DFD370BC704710B4104A0021134653F84F
:1059E000084B844204D102EBC10010BC40687047F0
:1059F00053F8084B491C84421EBF491C53F8084BFE
:105A000084421EBF491C53F8084B8442EBD0491C0A
:105A10001029E4D310BC002070470000FCF50020E2
:105A20002DE9F04104460D46207803210842164630
:105A30001F4658D0204600F09AF8002853D115B1DF
:105A4000D5E900018619012F3DD12088C00416D563
:105A5000A16904F13D02204600F0A6F8626A804682
:105A600002B92269E168204600F09EF8A6EB080121
:105A70000E1AA26AE168204600F096F8361A46BB74
:105A800020884FF4405108420ED06068E0602061E9
:105A9000A06260616068E06204F13D00A06104F111
:105AA0002400E061002060622DB1D5E9020104F11B
:105AB0003002C2E9000120884CF6FF6108402080D6
:105AC0000020BDE8F081022F03D04FB916F1010F7D
:105AD00009D094F903003A46314600F06AF80646C8
