:020000040800F2
:10000000380102208966000825640008276400087A
:10001000296400082B6400082D640008000000001B
:100020000000000000000000000000002F64000835
:1000300031640008000000003364000835640008E3
:10004000A5660008A9660008AD660008B16600084C
:10005000B5660008B9660008BD660008C1660008FC
:10006000C5660008C9660008DB320008DF430008E7
:10007000CD660008D1660008D5660008D96600087C
:10008000DD660008E1660008E5660008E96600082C
:10009000ED660008F1660008F5660008F9660008DC
:1000A000FD66000801670008056700080967000889
:1000B0000D67000811670008156700085B640008F9
:1000C000196700081D6700082167000825670008F8
:1000D000296700082D6700083167000835670008A8
:1000E000396700083D670008416700084567000858
:1000F000496700084D67000851670008D5430008AC
:1001000055670008596700085D670008E14300086B
:100110006167000865670008696700086D67000887
:100120007167000875670008796700087D67000837
:100130008167000885670008896700088D670008E7
:1001400091670008956700089967000861640008D6
:100150009D670008A1670008A567000855640008AE
:10016000A9670008AD670008B1670008B567000817
:10017000B9670008BD670008C167000800000000FB
:10018000C5670008C9670008CD670008D167000887
:10019000D567000805320008D9670008DD67000848
:1001A000E1670008E5670008E9670008ED670008F7
:1001B000F1670008F5670008F9670008FD670008A7
:1001C000016800080568000800F5E07002689142C7
:1001D00003D343689A18914202D380680028F5D16E
:1001E0007047DFF85807016891B94FF4803181609A
:1001F0004FF4805141604FF0FF31C1600161042133
:10020000DFF83C274161C2F8BC11DFF83817016004
:100210000120704701F1080313F0070305D001F135
:100220000803C3F1080303F007035918D21A8161C8
:10023000C26042F001034B60511828234B60DFF885
:10024000FC160969C16170472DE9F84F064601F1B6
:10025000080010F0070008BF884607D001F1080029
:10026000C0F1080000F0070000EB010802F10800EF
:1002700010F0070006D002F10800C0F1080000F0FD
:10028000070082181546A5EB0800A0EB030903EB55
:10029000080B43F00300C8F80400AB4528BF01F089
:1002A0000BFA2879C00758BF01F006FAB9F1100F10
:1002B00038BF01F001FAB069854209D1F0684844BD
:1002C000F060C6F818B040F00100CBF804006DE112
:1002D000706985420BD1B0684844B060C6F814B06C
:1002E00040F00101CBF8041040F80B005EE16868B3
:1002F00000F00301012940F0AD80C008C00001906A
:10030000C00820283AD2D5F808A0EF680090BD4276
:1003100008BF01F0D1F9554508BF01F0CDF9686873
:100320000099C008C000B0EBC10F18BF01F0C4F9BC
:10033000009806EBC00000F128018A4507D031691A
:100340008A45C0F08280DAF80C10A9427DD1574569
:1003500006D1009A3068012191408843306076E0F0
:100360002830874205D0306987426ED3B868A842EA
:100370006BD1CAF80C70C7F808A068E0EF68D5F830
:1003800018A0AF420CD0A8683169884223D3C16855
:10039000A94204BFB968A9421DD1C760B8601CE07A
:1003A00005F11400076837B905F110000768A7B117
:1003B00001E00846076807F114010A68002A02BF35
:1003C00007F110010A68002AF3D13169884202D38B
:1003D0000021016001E001F06FF9BAF1000F36D0A1
:1003E000E86906EB800000F5987001688D4208D13D
:1003F0000760A7B9EA69706801219140884370607D
:1004000025E03069824508D3DAF81000A84214BF0D
:10041000CAF81470CAF8107001E001F04DF9B7B1D4
:100420003069874211D3C7F818A0296929B18142E0
:1004300026BF39618F6101F03FF9686938B13169D0
:10044000884202D37861876101E001F035F90198B3
:100450004519814468684008400068604FEAD90542
:1004600049F00100CBF8040049F80B90202D23D26D
:1004700006EBC50000F12807BA46B9F1100F38BFE6
:1004800001F01AF9306820FA05F1C90704D40121F6
:10049000A9400843306006E0B868316988422CBF43
:1004A000824601F009F9C7F808B0CAF80CB0CBF8D9
:1004B00008A0CBF80C7079E05FEA192108BF002092
:1004C00023D0B1F5803F28BF1F201ED2A1F5807038
:1004D000000C00F008008140A1F58052120C02F0DF
:1004E00004029140A1F580431B0CC0F10E0003F003
:1004F0000203801AC01A994000EBD130C11D29FABD
:1005000001F202F0010101EB4000CBF81C000022D7
:10051000CBF81420CBF8102006EB8001726822FA89
:1005200000F3DB0701F5987107D4012303FA00F00B
:1005300010437060C1F800B01DE009681F280EBFAD
:1005400000204008C0F1190009FA00F000E011464F
:100550004A68D208D2004A4514D0C20F01EB820289
:1005600002F1100340001A68002AF0D1306983427A
:100570001AD3C3F800B0CBF81810CBF80CB0CBF8F6
:1005800008B013E032698868914228BF90420BD3CB
:10059000C0F80CB0C1F808B0CBF80800CBF80C10CC
:1005A0000020CBF8180001E001F086F808F10800FF
:1005B000BDE8E68F2DE9FA4D0546DFF8800384B0EB
:1005C000006808B9FFF70DFEDFF870030499806832
:1005D00041182F31401E21EA00000499814280F029
:1005E000A88105F5D876B16839B1326880188242A1
:1005F00080F09F818142C0F09C8101F061F8002869
:100600001EBF0446D0F8008014F1010F00F0918164
:100610003068716840443060814238BF0146716083
:10062000A86980BB286908B1844200D22C610020EF
:10063000F0613461C6F8148005F12801BF480068F4
:1006400068624FF0FF302862002001F10802C960A3
:100650001160801C10312028D2609260F5D3B84818
:10066000854203D1A8F12802214629E055F8040C5F
:10067000C00805EBC000A0F1080108EB0400401A17
:10068000A0F128021CE005F5E071084600E0806852
:10069000D0B1026843689A189442F8D1027B1207DD
:1006A00012D4AA6903689A420ED347683B449A421F
:1006B0000AD208EB07014160E868A96908EB00026B
:1006C0002846FFF7A7FD1EE128698442084638BF87
:1006D0002C6108EB040100E0806880B102688A4266
:1006E000FAD1017B09070AD40460416841444160A2
:1006F0002146049B284606B0BDE8F04DA4E5AF694D
:1007000039462846FFF760FD0168406840180290AE
:100710002F3800F1080111F0070105D000F10801A0
:10072000C1F1080101F00701081807F11001884222
:1007300034BF0097009000980830019004F1080140
:10074000009800F1180A11F007014FF0000BA8F112
:10075000280005D004F10801C1F1080101F00701EA
:100760000A19401AAA61E86040F00101516080183E
:100770002821416071480069E861019810F0070084
:1007800018BF00F099FF00991B20486005F5E07143
:10079000B1E80C500198A0E80C503461C6F8148000
:1007A000C6F81CB00198B061029800E08A460722A2
:1007B000CAF804200AF104010A1D82420BF1010B60
:1007C000F4D3BBF1020FB8BF00F076FF0098B84237
:1007D00000F09980C01BC119C4084A685208520031
:1007E0004A6040F001017960C051202C20D205EB15
:1007F000C40101F12806B046102838BF00F05CFFA4
:10080000286820FA04F1C90704D40121A140084353
:10081000286006E0B068296988422CBF804600F055
:100820004BFFB760C8F80C70C7F80880FE606AE03C
:10083000010A08BF002223D0B1F5803F28BF1F2244
:100840001ED2A1F58072120C02F008029140A1F5AF
:1008500080531B0C03F004039940A1F58044240C41
:10086000C2F10E0204F00204D21A121BA14002EBE4
:10087000D131CA1D20FA02F303F0010202EB41025A
:10088000FA6100237B613B6105EB82016B6823FA0F
:1008900002F4E40701F5987105D401209040184353
:1008A00068600F601CE009681F2A0EBF0022520812
:1008B000C2F1190200FA02F200E019464B68DB08A7
:1008C000DB00834210D0D30F01EB830303F110044C
:1008D00052002368002BF0D12869844211D327608D
:1008E000B961FF60BF600EE02A698868914228BF45
:1008F000904206D3C7608F60B860F9600020B8618D
:1009000001E000F0D9FEE8680499814211D2401A52
:10091000E860A969049A5218AA6140F00100506089
:10092000049840F00300486006B001F10800BDE8FB
:10093000F08D002006B0BDE8F08D000008E1012038
:10094000D4DC01206859883C2DE9F04D044600268E
:1009500088465FEA1820C8F1000B08BF002123D0A9
:10096000B0F5803F28BF1F211ED2A0F58071090C71
:1009700001F008018840A0F58052120C02F0040238
:100980009040A0F580431B0CC1F10E0103F002035F
:10099000891AC91A984001EBD030C11D28FA01F21A
:1009A00002F0010101EB400104EB8100D0F83001BD
:1009B00018B31F290EBF00224A08C2F1190208FA13
:1009C00002F2002300E052004568ED08ED00A5EBBF
:1009D00008055D4503D25FEA050B06460BD0456965
:1009E000D70F00EB8700002D00691CBF85422B4606
:1009F0000028E8D11846B8BBC6BB0120884040009B
:100A0000414208436168084000F063814142084068
:100A1000401E010B01F01001C840420902F008021B
:100A2000D040830803F00403D840450805F00205D0
:100A30005118E8405918C0F3400729443944F84098
:100A4000401804EB8000D0F830010DE00846416802
:100A5000C908C900A1EB080159453CBF8B460646B1
:100A600001690029F2D140690028F0D1002E00F080
:100A70003081A068A0EB0800834580F02A812069BE
:100A80008642C0F024817068C008C00008EB0B01EA
:100A900008EB0605884218BF00F00EFEAE4280F05B
:100AA0001681F768D6F818A0B7420CD0B068216953
:100AB000884223D3C168B14204BFB968B1421DD195
:100AC000C760B8601CE006F11400076837B906F18A
:100AD00010000768A7B101E00846076807F1140194
:100AE0000A68002A02BF07F110010A68002AF3D140
:100AF0002169884202D30021016001E000F0DCFDA1
:100B0000BAF1000F38D0F06904EB800000F598705E
:100B100001688E4209D10760380014D1F26960681B
:100B2000012191408843606026E02069824508D316
:100B3000DAF81000B04214BFCAF81470CAF8107086
:100B400001E000F0B9FDBFB12069874212D3C7F8B8
:100B500018A0306930B12169884226BF38618761A9
:100B600000F0AAFD706938B12169884202D378612A
:100B7000876101E000F0A0FDBBF1100F0CD208EB83
:100B80000B0040F00300706008EB0B008019416817
:100B900041F00101416096E048F0030070604BF0C5
:100BA000010068604FEADB004BF805B020281DD239
:100BB00004EBC00101F12807216821FA00F2D207F5
:100BC000BB4605D4012202FA00F00843206006E08B
:100BD000B868216988422CBF834600F06DFDBD6076
:100BE000CBF80C50C5F808B0EF606CE05FEA1B2151
:100BF00008BF002023D0B1F5803F28BF1F201ED2A0
:100C0000A1F58070000C00F008008140A1F5805231
:100C1000120C02F004029140A1F580431B0CC0F1BC
:100C20000E0003F00203801AC01A994000EBD13085
:100C3000C11D2BFA01F202F0010101EB4000E86155
:100C400000226A612A6104EB8001626822FA00F3E3
:100C5000DB0701F5987106D4012303FA00F0104375
:100C600060600D601CE009681F280EBF002040086E
:100C7000C0F119000BFA00F000E011464A68D208F2
:100C8000D2005A4510D0C20F01EB820202F11003CC
:100C900040001A68002AF0D12069834211D31D60F8
:100CA000A961ED60AD600EE022698868914228BFBD
:100CB000904206D3C5608D60A860E9600020A861FD
:100CC00001E000F0F9FC06F10800BDE8F08D00F04D
:100CD000F3FC0020BDE8F08D2DE9F84F044688466E
:100CE000606841420840401E010B01F01001C840FD
:100CF000420902F00802D040830803F00403D84000
:100D0000450805F002055118E8405918C0F340069F
:100D100029447118F040401804EB8000D0F83001ED
:100D20004168C908C9000646A1EB080A09E008465F
:100D30004168C908C900A1EB080151453CBF8A467A
:100D4000064601690029F2D140690028F0D12069E6
:100D50008642C0F0C4807068C00808EB0A09C00071
:100D600008EB060B484518BF00F0A6FC5E4580F076
:100D7000B680F768B569B7420CD0B068216988427F
:100D800023D3C168B14204BFB968B1421DD1C76065
:100D9000B8601CE006F11400076837B906F11000CE
:100DA0000768A7B101E00846076807F114010A685F
:100DB000002A02BF07F110010A68002AF3D1216955
:100DC000884202D30021016001E000F075FC002D93
:100DD00034D0F06904EB800000F5987001688E4211
:100DE00009D10760380011D1F26960680121914092
:100DF0008843606022E02069854205D32869B042BB
:100E000014BF6F612F6101E000F056FCB7B120699B
:100E1000874211D3BD61306930B12169884226BF54
:100E20003861876100F048FC706938B121698842F7
:100E300002D37861876101E000F03EFCBAF1100F47
:100E400009D249F00300706009EB0600416841F0E7
:100E5000010141603FE048F0030070604AF001008A
:100E6000CBF804004AF80BA0D4F808804FEAD80564
:100E7000202D28BF00F020FCB8F1000F27D0D4F8B7
:100E80001490009504EBC50000F128052F46B8F139
:100E9000100F38BF00F010FC2068009920FA01F212
:100EA000D10705D4009A012191400843206006E053
:100EB000A868216988422CBF074600F0FDFBC5F8F1
:100EC0000890C7F80C90C9F80870C9F80C50C4F81D
:100ED00008A0C4F814B006F10800BDE8F28F00F0D5
:100EE000EBFB0020BDE8F28F2DE9F04F83B0054603
:100EF000C046C046F52DDFF8B84780F002810B2DC3
:100F000031BF102705F10B00C708FF002068FE085D
:100F1000F04010F0030F42D0C04300F001008619EA
:100F200004EBC60000F12808F700D8F808506868FC
:100F3000C008C000B84218BF00F0BEFBD5F808904A
:100F4000454508BF00F0B8FB4D4508BF00F0B4FBB5
:100F50006868C008C000B84218BF00F0ADFBC845C3
:100F600005D120680121B140884320600DE020694F
:100F7000814508D3D9F80C00A84204D1C8F80890DC
:100F8000C9F80C8001E000F097FB47F003006860AF
:100F900078190835416841F001014160F9E0A16824
:100FA000B94280F0C080002800F0A280012505FA37
:100FB00006F149004A42B04011430840414208400E
:100FC000401E010B01F01001C840420902F0080266
:100FD000D040830803F00403D840460806F0020618
:100FE0005118F0405918C0F340087118414420FAD4
:100FF00008F000EB010804EBC80000F128094FEAF3
:10100000C80AD9F808607068C008C000504518BF09
:1010100000F052FBD6F808B04E4508BF00F04CFB7C
:101020005E4508BF00F048FB7068C008C00050452E
:1010300018BF00F041FBD94505D1206805FA08F139
:10104000884320600DE02069834508D3DBF80C005D
:10105000B04204D1C9F808B0CBF80C9001E000F020
:101060002BFB47F003007060AAEB0708B81901904A
:1010700048F0010001994860019848F80080A7688D
:101080004FEAD70ABAF1200F28BF00F015FB47B38B
:10109000CDF800A004EBCA00D4F8149000F1280A9F
:1010A000D346102F38BF00F007FB2068009920FAC4
:1010B00001F2D10705D4009905FA01F10843206037
:1010C00007E0DAF80800216988422CBF834600F067
:1010D000F3FACAF80890CBF80C90C9F808B0C9F830
:1010E0000CA0C4F8088006F108050198606150E082
:1010F0006068C0B339462046FFF7EEFD050012D008
:1011000047E015F1400F28BF4FF0FF370BD205F134
:101110000B00C7086068FF0028B139462046FFF77A
:1011200013FC050035D1A068B8421CD3C11B62690D
:1011300010290AD3B8186061A16041F0010343602F
:10114000095047F0030050600AE00021A16061618E
:1011500040F0030151608018416841F00101416095
:1011600002F1080515E0E06887420DD2C01BA169B5
:10117000E0607A18A26140F00100506001F10805BA
:1011800047F00300486004E039462046FFF712FAB2
:101190000546C046C046284603B0BDE8F08F00B9FA
:1011A00070472DE9F047A0F10804C046C046DFF8BB
:1011B000005528698442C0F07482616801F003021E
:1011C000012A00F06E82CA084FEAC208CA0708EB7B
:1011D000040936D4226811F0030F00F06482A41AC7
:1011E00084429044C0F05D8269698C4200F0D880EE
:1011F000D608202E70D2D4F80CA0A768544508BF9A
:1012000000F05AFABC4208BF00F056FA6068C00805
:10121000C000B0EBC60F18BF00F04EFA05EBC600D9
:1012200000F128018F4205D029698F4251D3F96816
:10123000A1424ED1BA453DD128680121B140884331
:1012400028604C4580F02D82D9F80400C10740F198
:101250002882810700F17A81A969894540F0B5802B
:10126000E868AC614044E86040F001016160696990
:101270008C4202D100216961A960E969814280F054
:101280001282DFF83004006808B9FEF7AAFFA969E6
:10129000002900F00882E868292824BF2846FEF7C4
:1012A00093FFE869E968884280F0FD814FF0FF30E4
:1012B000E861F8E12830824506D02869824508D3E4
:1012C000DAF80800A04204D1C7F80CA0CAF80870E8
:1012D000B7E700F0F1F9B4E7E768A669A7420BD0D9
:1012E000A168814222D3C868A04204BFB868A04266
:1012F0001CD1CF60B9601BE004F114010F6837B94D
:1013000004F110010F689FB101E011460F6807F169
:1013100014021368002B02BF07F110021368002BA0
:10132000F3D1814202D30020086001E000F0C4F94B
:10133000002E86D0E06905EB800000F5987001680A
:101340008C4209D10760380011D1E2696868012137
:1013500091408843686074E72869864205D3306904
:10136000A04214BF7761376101E000F0A5F9002FBA
:101370003FF467AF28698742ABD3BE61216929B1C9
:10138000814226BF39618F6100F096F960690028BB
:101390003FF457AF296988429BD37861876150E752
:1013A00099F8040000F0030003287FF44AAFC5F861
:1013B0000880D9F8040040084000C9F8040048F04B
:1013C0000100606048F804806DE16969894508D1D1
:1013D000A8686C614044A86040F001016160005160
:1013E00061E1C008C0004FEAD00ABAF1200F804482
:1013F00036D2D9F80C70D9F80860B94508BF00F0AA
:101400005BF9B14508BF00F057F9D9F80400C008EE
:10141000C000B0EBCA0F18BF00F04EF905EBCA00D0
:1014200000F128018E4206D029698E42C0F08180E9
:10143000F16849457DD1B74206D12868012101FAFA
:101440000AF18843286076E02830874205D0286971
:1014500087426ED3B86848456BD1F760BE606AE0DA
:10146000D9F80C70D9F818604F450DD0D9F808009C
:101470002969884223D3C168494504BFB9684945F1
:101480001DD1C760B8601CE009F11400076837B9C6
:1014900009F110000768A7B101E00846076807F1E5
:1014A00014010A68002A02BF07F110010A68002A25
:1014B000F3D12969884202D30021016001E000F0E4
:1014C000FBF8002E37D0D9F81C0005EB800000F5A2
:1014D0009870016889450AD10760380012D1D9F89F
:1014E0001C206868012191408843686023E02869D6
:1014F000864205D33069484514BF7761376101E002
:1015000000F0DAF8BFB12869874212D3BE61D9F87A
:10151000101029B1814226BF39618F6100F0CCF8EB
:10152000D9F8140038B12969884202D378618761FB
:1015300001E000F0C1F848F00100606048F8048064
:10154000686984420BD1C5F80880ACE040084000CF
:10155000C9F8040048F00100606048F804804FEAD0
:10156000D807202F22D205EBC70000F128094E46EC
:10157000B8F1100F38BF00F09FF8286820FA07F183
:10158000C90704D40121B9400843286007E0D9F80D
:101590000800296988422CBF064600F08DF8C9F87A
:1015A0000840F460A660C4F80C907CE05FEA182064
:1015B00008BF002123D0B0F5803F28BF1F211ED2D5
:1015C000A0F58071090C01F008018840A0F5805257
:1015D000120C02F004029040A0F580431B0CC1F1F4
:1015E0000E0103F00203891AC91A984001EBD030AA
:1015F000C11D28FA01F202F0010101EB40010022B5
:1016000062612261E16105EB81006A6822FA01F3FF
:10161000DB0700F5987006D4012303FA01F11143AA
:10162000696004601CE000681F290EBF00214908A2
:10163000C1F1190108FA01F100E010464268D20830
:10164000D200424510D0CA0F00EB820202F1100313
:1016500049001A68002AF0D129698B4211D31C6015
:10166000A061E460A4600EE02A698168904228BF0E
:10167000914206D3CC608460E060A1600020A0614C
:1016800001E000F019F8286A401E28620BD1D5F855
:10169000C80100E080680028FCD14FF0FF302862CC
:1016A00001E000F009F8C046C046BDE8F087000040
:1016B000D4DC012008E10120012000F017B800006F
:1016C0000749086808B1002070470648C008C000F4
:1016D00008600549C908C900091A0160704700BFC0
:1016E0002CE101203F0102203821022080B500F0CA
:1016F00007F8024A11001820ABBEFBE726000200E3
:1017000080B500F033F802000023DB4310689842F4
:1017100004D011000220ABBE002010605068984237
:1017200004D0111D0220ABBE0020506001BD00009E
:1017300010B584B0040000F019F8A1004218106838
:101740000021C94388420DD107A00090002C01D18F
:10175000002000E00420019003200290694601204F
:10176000ABBE106004B010BD3A74740000487047FE
:10177000F401012010B508B9012010BD0221DFF8E5
:10178000643480F8351001680A681A4043681A43C7
:1017900083681A43C3681A4303691A4343691A43A7
:1017A00083691A43C3691A43036A1A43436A042BC1
:1017B00003D1C36A046B23431A430A6001684A6970
:1017C000436AD208042B43EAC20204BF836A1A4365
:1017D0004A610021C164012180F83510002010BD4C
:1017E00000282DE9F04F1DBF00F13401497802298E
:1017F000012000F0F4810168DFF8EC83DFF8EC33BE
:101800004FF0807E4FF48027DFF8E4430A684FF4FE
:101810008079DFF8E053DFF8E0A3520852000A6055
:1018200002680021DFF8D463116002685160026829
:1018300091600268D16002681161026821215161E2
:10184000D0F800C0DFF8B813DFF8B823C4450DD3D3
:10185000B44508BFD64606D0AC4508BFCE4602D038
:10186000A44508BFBE46C2F804E040E09C4513D33F
:10187000DFF894B3DC4508BFD6460AD0DFF88CA366
:10188000D44508BFCE4604D0DFF88493CC4508BFCA
:10189000BE46C2F800E02AE0DFF878B3DC4513D397
:1018A000DFF874B3DC4508BFD6460AD0DFF86CA376
:1018B000D44508BFCE4604D0DFF86493CC4508BFBA
:1018C000BE46C1F804E012E0DFF858B3DC4508BFBB
:1018D000D6460AD0DFF850A3D44508BFCE4604D080
:1018E000DFF84893CC4508BFBE46C1F800E0076862
:1018F0004FF0006C4FF4001E4FF4006947450ED3C3
:10190000B74208BF4FF0200C06D0AF4208BFCC460C
:1019100002D0A74208BFF446C2F804C043E09F4289
:1019200014D3DFF8E4A2574508BF4FF0200C0AD0CB
:10193000DFF8D8A2574508BFCC4604D0DFF8D092D4
:101940004F4508BFF446C2F800C02CE0DFF8C4A23F
:10195000574514D3DFF8C0A2574508BF4FF0200CFD
:101960000AD0DFF8B8A2574508BFCC4604D0DFF84C
:10197000B0924F4508BFF446C1F804C013E0DFF849
:10198000A4A2574508BF4FF0200C0AD0DFF898A258
:10199000574508BFCC4604D0DFF890924F4508BFAA
:1019A000F446C1F800C007684FF0007C4FF4002EE9
:1019B0004FF4007947450ED3B74208BF4FF0080CEB
:1019C00006D0AF4208BFCC4602D0A74208BFF446BB
:1019D000C2F804C043E09F4214D3DFF82CA257455D
:1019E00008BF4FF0080C0AD0DFF820A2574508BF07
:1019F000CC4604D0DFF818924F4508BFF446C2F831
:101A000000C02CE0DFF80CA2574514D3DFF808A281
:101A1000574508BF4FF0080C0AD0DFF800A2574521
:101A200008BFCC4604D0DFF8F8914F4508BFF44614
:101A3000C1F804C013E0DFF8ECA1574508BF4FF030
:101A4000080C0AD0DFF8E0A1574508BFCC4604D007
:101A5000DFF8D8914F4508BFF446C1F800C00768C9
:101A60004FF4800C4FF4803EDFF8C49147450ED30D
:101A7000B74208BFCC4607D0AF4208BF4FF0400C7A
:101A800002D0A74208BFF446C2F804C043E09F4218
:101A900014D3DFF874A1574508BFCC460BD0DFF84C
:101AA0006C914F4508BF4FF0400C04D0DFF86091B7
:101AB0004F4508BFF446C2F800C02CE0DFF854A13F
:101AC000574514D3DFF850A1574508BFCC460BD07B
:101AD000DFF848914F4508BF4FF0400C04D0DFF8C5
:101AE00040914F4508BFF446C1F804C013E0DFF849
:101AF00034A1574508BFCC460BD0DFF82C914F4599
:101B000008BF4FF0400C04D0DFF820914F4508BFCC
:101B1000F446C1F800C007684FF0806C4FF4801E97
:101B20004FF4806947450ED3B74208BF4FF0100C01
:101B300006D0AF4208BFCC4602D0A74208BFF44649
:101B4000C2F804C043E09F4214D3DFF8BC108F42B8
:101B500008BF4FF0100C0AD0DFF8B0108F4208BF5A
:101B6000CC4604D0DFF8A8108F4208BFF446C2F874
:101B700000C02CE0DFF89C20974214D3DFF89820B7
:101B8000974208BF4FF0100C0AD0DFF89020974220
:101B900008BFCC4604D0DFF88820974208BFF4463F
:101BA000C1F804C013E0DFF87C20974208BF4FF073
:101BB000100C0AD0DFF87020974208BFCC4604D042
:101BC000DFF86820974208BFF446C1F800C0002142
:101BD00000F134029161517080F834100020BDE8AA
:101BE000F08F00003F8010F059640240B96002405D
:101BF000A0640240886402400400800070640240D7
:101C000008600240086402401064024028640240F8
:101C100040640240596002407060024088600240A7
:101C2000A060024010600240286002404060024014
:101C3000010080002DE9F84F0446DFF8C099DFF875
:101C4000C059DFF8C06923684FF000704FF40021DD
:101C50004FF400724B45DFF8B0A9DFF8B08911D31B
:101C60004345D6F804E008BF4FF0080C53D0534565
:101C700008BF94464FD0DFF89879BB4214BF844622
:101C80008C4648E0DFF88C79BB4215D3DFF86479E5
:101C9000D6F800E0BB4208BF4FF0080C3BD0DFF89D
:101CA0007879BB4208BF944635D0DFF84C79BB4207
:101CB00014BF84468C462EE0DFF86079BB4215D312
:101CC000DFF82C79D5F804E0BB4208BF4FF0080CD0
:101CD00021D0DFF84C79BB4208BF94461BD0DFF817
:101CE0004479BB4214BF84468C4614E0DFF838794F
:101CF000D5F800E0BB4208BF4FF0080C0BD0DFF86E
:101D00002C79BB4208BF944605D0DFF82479BB424A
:101D10000CBF8C4684461CEA0E0C04F1340769D0D3
:101D2000D3F800C05FEA4C7C64D5D3F800C02CF037
:101D3000040CC3F800C023684B450ED3434508BFCD
:101D4000082008D0534508BF104604D0DFF8C0284B
:101D5000934208BF0846F0603FE0DFF8B8C863452B
:101D600012D3DFF890C8634508BF08200AD0DFF817
:101D7000A8C8634508BF104604D0DFF87C2893420A
:101D800008BF0846B06028E0DFF890C8634512D36A
:101D9000DFF85CC8634508BF08200AD0DFF880C8B8
:101DA000634508BF104604D0DFF87828934208BF87
:101DB0000846E86011E0DFF870C8634508BF0820F6
:101DC0000AD0DFF868C8634508BF104604D0DFF8C2
:101DD0006028934208BF0846A860B86940F0010037
:101DE000B8610420787000203870796908001CBF41
:101DF0002046884723684FF480004FF48031DFF895
:101E000034284B4511D34345D6F804E008BF944627
:101E100054D0534508BF4FF0400C4FD0DFF8F0B717
:101E20005B4514BF84468C4648E0DFF8E8E773451D
:101E300015D3DFF8C0B7D6F800E05B4508BF94467D
:101E40003CD0DFF8D4B75B4508BF4FF0400C35D02D
:101E5000DFF8A4B75B4514BF84468C462EE0DFF85C
:101E6000BCE7734515D3DFF888B7D5F804E05B45C8
:101E700008BF944622D0DFF8A8B75B4508BF4FF0F3
:101E8000400C1BD0DFF89CB75B4514BF84468C46E2
:101E900014E0DFF894B7D5F800E05B4508BF94463E
:101EA0000CD0DFF888B75B4508BF4FF0400C05D079
:101EB000DFF87CB75B450CBF8C4684461CEA0E0CF1
:101EC00069D0D3F814C05FEA0C6C64D5D3F814C0A1
:101ED0002CF0800CC3F814C023684B450ED3434547
:101EE00008BF104608D0534508BF402004D0DFF893
:101EF0002027934208BF0846F0603FE0DFF814C790
:101F0000634512D3DFF8ECC6634508BF10460AD01C
:101F1000DFF80427934208BF402004D0DFF8D8261A
:101F2000934208BF0846B06028E0DFF8F0C663457A
:101F300012D3DFF8BCC6634508BF10460AD0DFF8ED
:101F4000E026934208BF402004D0DFF8D826934211
:101F500008BF0846E86011E0DFF8CCC6634508BF5B
:101F600010460AD0DFF8C426934208BF402004D0B0
:101F7000DFF8BC26934208BF0846A860B86940F065
:101F80000200B86104207870002038707969080078
:101F90001CBF2046884720684FF4802100904FF4F2
:101FA00080728446CC454FF08070DFF88C3610D3B9
:101FB000C445D6F804E008BF9C4650D0D44508BFBD
:101FC00094464CD0DFF848B6DC4514BF84468C46B6
:101FD00045E0DFF840E6F44514D3DFF818B6D6F84C
:101FE00000E0DC4508BF9C4639D0DFF82CB6DC4564
:101FF00008BF944633D0DFF800B6DC4514BF8446F2
:102000008C462CE0DFF814E6F44514D3DFF8E0B595
:10201000D5F804E0DC4508BF9C4620D0DFF800B6C8
:10202000DC4508BF94461AD0DFF8F8B5DC4514BF8C
:1020300084468C4613E0DFF8F0B5D5F800E0DC45C7
:1020400008BF9C460BD0DFF8E4B5DC4508BF9446DA
:1020500005D0DFF8DCB5DC450CBF8C4684461CEAB5
:102060000E0C70D0DDF800C0DCF800C05FEA8C7C9C
:1020700069D5DDF800C0DCF800C0DDF800E02CF028
:10208000020CCEF800C0D4F800C0CC450ED3C44535
:1020900008BF184608D0D44508BF104604D0DFF862
:1020A0007025944508BF0846F0603FE0DFF864E51E
:1020B000F44512D3DFF83CE5F44508BF18460AD0D2
:1020C000DFF854359C4508BF104604D0DFF82825BA
:1020D000944508BF0846B06028E0DFF840E5F445C5
:1020E00012D3DFF80CE5F44508BF18460AD0DFF834
:1020F00030359C4508BF104604D0DFF828259445AC
:1021000008BF0846E86011E0DFF81CE5F44508BFA9
:1021100018460AD0DFF814359C4508BF104604D095
:10212000DFF80C25944508BF0846A860B86940F060
:102130000400B861042078700020387079690800C4
:102140001CBF2046884723684FF080604FF4801101
:102150004FF480629C46CC4511D3C445D6F804E0C8
:1021600008BF4FF0100B53D0D44508BF93464FD053
:10217000DFF89CB4DC4514BF83468B4648E0DFF8AB
:1021800094E4F44515D3DFF86CB4D6F800E0DC45F0
:1021900008BF4FF0100B3BD0DFF87CB4DC4508BF24
:1021A000934635D0DFF850B4DC4514BF83468B46E8
:1021B0002EE0DFF868E4F44515D3DFF834B4D5F841
:1021C00004E0DC4508BF4FF0100B21D0DFF850B41D
:1021D000DC4508BF93461BD0DFF848B4DC4514BF8C
:1021E00083468B4614E0DFF840B4D5F800E0DC45C8
:1021F00008BF4FF0100B0BD0DFF830B4DC4508BF40
:10220000934605D0DFF828B4DC450CBF8B468346E7
:102210001BEA0E0E00F0C580D3F800E05FEA0E7EE8
:1022200040F1BF80D3F800E05FEA4E3E59D5CC457F
:102230000ED3C44508BF102008D0D44508BF1046AF
:1022400004D0DFF8CC23944508BF0846F0603FE097
:10225000DFF8C0339C4512D3DFF898339C4508BFA4
:1022600010200AD0DFF8B0339C4508BF104604D0D8
:10227000DFF88423944508BF0846B06028E0DFF803
:102280009C339C4512D3DFF868339C4508BF10206F
:102290000AD0DFF88C339C4508BF104604D0DFF825
:1022A0008423944508BF0846E86011E0DFF87833DE
:1022B0009C4508BF10200AD0DFF870339C4508BF4A
:1022C000104604D0DFF86823944508BF0846A8608C
:1022D0002068016809035DD5006800035CD54120D2
:1022E00059E0D3F800C05FEACC5C05D4D3F800C055
:1022F0002CF0080CC3F800C023684B450DD34345B0
:1023000008BF102007D0534508BF104603D0C04A6D
:10231000934208BF0846F0603CE0DFF8F8C263452E
:1023200011D3DFF8D0C2634508BF102009D0DFF811
:10233000E8C2634508BF104603D0AF4A934208BFC6
:102340000846B06026E0DFF8D4C2634511D3DFF859
:10235000A0C2634508BF102009D0DFF8C4C263459E
:1023600008BF104603D0AF4A934208BF0846E86052
:1023700010E0DFF8B4C2634508BF102009D0DFF8D1
:10238000ACC2634508BF104603D0A94A934208BFB8
:102390000846A86031207870F96808001CBF204604
:1023A000884723684FF000604FF400114FF400623B
:1023B0009C46CC4511D3C445D6F804E008BF4FF085
:1023C000200B53D0D44508BF93464FD0DFF840B21E
:1023D000DC4514BF83468B4648E0DFF838E2F4451D
:1023E00015D3DFF810B2D6F800E0DC4508BF4FF097
:1023F000200B3BD0DFF820B2DC4508BF934635D038
:10240000DFF8F4B1DC4514BF83468B462EE0DFF8DD
:102410000CE2F44515D3DFF8D8B1D5F804E0DC457B
:1024200008BF4FF0200B21D0DFF8F4B1DC4508BF26
:1024300093461BD0DFF8ECB1DC4514BF83468B46D6
:1024400014E0DFF8E4B1D5F800E0DC4508BF4FF058
:10245000200B0BD0DFF8D4B1DC4508BF934605D084
:10246000DFF8CCB1DC450CBF8B4683461BEA0E0E71
:1024700054D0D3F800E05FEACE6E56D5D3F800E032
:102480005FEA4E3E53D5CC450DD3C44508BF20204E
:1024900007D0D44508BF104603D05D4A944508BF15
:1024A0000846F06034E05B4B9C450FD3514B9C4594
:1024B00008BF202008D0584B9C4508BF104603D0C9
:1024C0004D4A944508BF0846B06021E0534B9C45F7
:1024D0000FD3474B9C4508BF202008D0504B9C454C
:1024E00008BF104603D04F4A944508BF0846E8602D
:1024F0000EE04D4B9C4508BF202008D04B4B9C451F
:1025000008BF104603D04A4A944508BF0846A86051
:1025100020680168090306D43969080066D020469E
:10252000BDE8F44F0847006800035FD557E0D3F8D3
:1025300000C05FEACC5C05D4D3F800C02CF0100CCE
:10254000C3F800C023684B450DD3434508BF202086
:1025500007D0534508BF104603D02D4A934208BF09
:102560000846F06035E0DFF8ACA053450FD3214DAD
:10257000AB4208BF202008D0274DAB4208BF104611
:1025800003D01D4A934208BF0846B06021E0234EA5
:10259000B3420FD3164EB34208BF202008D0204EBE
:1025A000B34208BF104603D01E4A934208BF0846F4
:1025B000E8600EE01C4EB34208BF202008D01B4E3E
:1025C000B34208BF104603D0194A934208BF0846D9
:1025D000A860B869B8611120787000203870B968B7
:1025E000080003D02046BDE8F44F0847BDE8F18F4E
:1025F000706002401064024040640240596402402E
:10260000006002400064024088640240706402403E
:10261000A0640240B9600240286402405960024050
:1026200088600240A06002401060024028600240C2
:1026300040600240010080000400800038B50500C1
:1026400001D1012032BD05F13404607818B9207041
:10265000284600F005FD02206070286801684908DE
:10266000490001606868296820F070600861286886
:10267000816821F400418160A86840B1E9680129BE
:102680000CBF40F4004040F4044029688860E868CA
:10269000022803D129684FF4006048602868416827
:1026A00041F0007100F007F9286969690843A969D8
:1026B00040EA01202968C860E869296A0843296856
:1026C00008602868016841F0010101600020606035
:1026D00001206070002032BD2DE9F04D00F0CFF8F0
:1026E00082B000F0C2F84BD1BBF1000F18BF002E32
:1026F00047D000F0CFF843D42078012840D000F034
:10270000C2F8FF2E4FF40050009006DD00F0A7F84D
:1027100000F09CFBDDF828A005E000F09AF8F7E750
:1027200000F0D8F83746514600F0D1F8F0B91BF860
:10273000010B29687F1EA6F10106B6B288620FD18F
:1027400086B153460022802100F0B0F898B9FF2EE0
:102750000090E5DD00F0B3F800F0BFF8FF27E2E7F6
:10276000002EE0D1514600F087F830B160680428AF
:1027700008BF012005D0032003E000F004F800E0CA
:102780000220BDE8F68D29682020DFF83C21C861D1
:10279000286841681140416001206070002020706D
:1027A00070472DE9F04D00F06AF882B000F05DF856
:1027B0004CD1BBF1000F18BF002E48D000F06AF8D2
:1027C00044D42078012841D000F068F8FF2E4FF45F
:1027D0001050009006DD00F042F800F037FBDDF805
:1027E00028A005E000F035F8F7E700F073F8374669
:1027F00053460022042100F059F810BB28687F1EC0
:10280000A6F10106B6B2406A0BF8010B0FD186B1F2
:1028100053460022802100F049F890B9FF2E009025
:10282000E3DD00F04CF800F058F8FF27E0E7002E59
:10283000DED100F020F830B16068042808BF012024
:1028400005D0032003E0FFF79EFF00E00220BDE873
:10285000F68D4FF00073F2B22846374670474FF0BE
:102860008073FF222846FF2770478846607893468A
:102870001E46012870471921284600F07ABA0546FD
:1028800005F1340470470120207012206070002090
:1028900060607047286880690004704701202070DC
:1028A000222060700020606070470821284600F0F8
:1028B0000FBA2068416841F40041416070474FF011
:1028C0008073FF227047000000E800FE4146284662
:1028D00000F034BA4FF00073F2B24146284600F0DF
:1028E000B5BA10B504462068816989070ED481699C
:1028F00009060BD48169490608D48169890605D483
:102900008169C90602D4816909070AD5006800F007
:102910007A007A2801BF94F835003228204600F06A
:102920004FF92068816989070BD48169090608D4A9
:102930008169490605D48169890602D48169C9067D
:102940000ED5006800F07200722809D194F83500A5
:10295000122819BF94F835005228204600F049F893
:102960002068816949070ED4816909060BD4816901
:10297000490608D48169890605D48169C90602D44B
:10298000816909070AD5006800F07C007C2801BF36
:1029900094F835004228204600F04EF920688169FD
:1029A00049070BD48169090608D48169490605D411
:1029B0008169890602D48169C90610D5006800F0D2
:1029C000740074280BD194F8350022281CBF94F8A9
:1029D0003500622803D12046BDE8104059E010BD03
:1029E0007047704770477047704770477047806BFB
:1029F000704738B500F0ACF801D1022032BD01209B
:102A0000287020688169890707D5616A4A1C62625B
:102A10000978816200F095F83AE08169090610D5DD
:102A2000218D69B9618D59B100F085F803DD00F0A1
:102A3000A3F8FF2002E000F0A7F8608D208527E0D2
:102A400007E08169490607D5618D11B900F0A5F845
:102A50001EE000F08BF817E0816989060FD5016848
:102A6000DFF8082421F0F20100F09CF852282046FB
:102A700002D1FFF7B9FF0BE0FFF7B2FF08E0816971
:102A8000C90605D500F06AF868602046FFF7AEFF7A
:102A90004EE038B500F05CF801D1022032BD0120D3
:102AA000287020688169490707D5616A4A1C6262FB
:102AB000406A087000F045F83AE08169090610D5CF
:102AC000218D69B9618D59B100F035F803DD00F051
:102AD00053F8FF2002E000F057F8608D208527E0D2
:102AE00007E08169490607D5618D11B900F055F8F5
:102AF0001EE000F03BF817E0816989060FD50168F8
:102B0000DFF8682321F0F40100F04CF86228204639
:102B100002D1FFF76AFF0BE0FFF763FF08E081696E
:102B2000C90605D500F01AF868602046FFF75EFF79
:102B30000020287032BD40688105608D890DFF2816
:102B40007047208D401E2085608D401E6085704737
:102B5000044604F134052878012870471021C1612A
:102B600000202870686840F004007047002028703A
:102B7000686840F04000704700204FF0807300907C
:102B8000FF22204600F062B900204FF00073009051
:102B9000628D2046D2B200F059B9416841F48041BB
:102BA00041607047016021682020C8612068416849
:102BB00011404160012068700020287068787047DB
:102BC00010B500F134042178012901D1022010BD93
:102BD00000F06AF811D5428D22B91020C86100209A
:102BE000207028E01022CA61616841F00401616030
:102BF00000212170FFF7FAFE1DE08A69120702D555
:102C00000820C86117E08A69920607D50A6822F091
:102C1000FE0200F04FF8FFF7E5FE0CE08A6992072C
:102C200009D5428D3AB1426A531C436212788A62D6
:102C3000418D491E418534E010B500F134042178FE
:102C4000012901D1022010BD00F02EF80AD5102272
:102C5000CA6100212170616841F004016160FFF7E1
:102C6000C5FE1EE08A69120702D50820C86118E077
:102C70008A6952070BD5426A531C4362496A117034
:102C8000018D491E0185418D491E418509E08A69F2
:102C9000920606D50A6822F0FC0200F00BF8FFF756
:102CA000A2FE0020207010BD0121217001688A69F8
:102CB000D20670470A6001684A6842F400424A60DE
:102CC00002682021D16101216170002121707047CB
:102CD0002DE9F04104460D4690461E4600F06EFB7D
:102CE000B8F1000F07460CD100F01FF81AD016F10A
:102CF000010FF9D08EB100F061FBC01B8642F3D208
:102D00000BE000F012F80DD116F1010FF9D026B149
:102D100000F054FBC01B8642F3D204F1340000F0F3
:102D20004DF800E00020BDE8F0812068E9038069EB
:102D30002840C003C00BB0EBD13F704770B500F026
:102D400030F8064620688069800710D4294620465E
:102D500000F03AF808B1012070BD15F1010FF1D073
:102D600025B100F02BFB801B8542EBD21DE000203B
:102D700070BD70B500F015F80646206880698006C1
:102D80000DD42946204600F01FF808B1012070BD7F
:102D900025B100F013FB801B8542EED205E0002038
:102DA00070BD04460D4600F009BB04F134004168D3
:102DB00041F02001416000F001F870BD0121417037
:102DC0000021017003207047F8B5FFF7EAFF0646BF
:102DD00020688169C9062ED504F134077978122953
:102DE0001FBF797852297978622904D14168890115
:102DF00001D4FFF7D2FE2068816989060CD415F151
:102E0000010FF8D025B100F0D9FA801B8542F2D22B
:102E100000F017F80320F2BD1021144AC16100F040
:102E20000CF820684168114041600420786000F08F
:102E300008F80120F2BD0020F2BD21682020C86101
:102E400070470120787000203870704730B50068F6
:102E5000074D890544682C4054EA915141EA0241EA
:102E6000039A19431143416030BD000000E800FEA1
:102E7000009800FC70B582B0002400F06AF8DFF81A
:102E80008C04DFF88C1404600A6842F400320A6093
:102E900000F05FF80C67BFF34F8FCA6EC2F34E337A
:102EA000C2F3C90543F6E07606EA431646EA85769C
:102EB00006612E46751E002EF4D11D466B1E002D98
:102EC000EED1BFF34F8F086840F48030086000F007
:102ED00040F800F04BFA00F04AF80020DFF83454D4
:102EE00000F074FA012000F071FA4BF6803000F027
:102EF000CFFADFF82404016841F0020101600068A4
:102F0000291D00F00200009000981020EC6068601D
:102F1000DFF80804A86003202861DFF8040400F04B
:102F2000C5FA00220F210A2000F0E0FB0A2000F081
:102F3000FAFB28780128FCD1641C0020E4B2642C40
:102F40002870F6D100F085FA0120002400F081FA03
:102F5000EFE7BFF34F8FBFF36F8F7047DFF8C40306
:102F600001684A1CC92928BF00220260704700B5C9
:102F7000DFF8B403B3B0016841F08051016000682C
:102F800000F0805000900098DFF8A003016821F461
:102F9000404141F480410160006800F440400090ED
:102FA0000098022006900120099010200A9002202B
:102FB0000C9000200D9010200E90C8200F90022041
:102FC0001090119006A800F0E9FB00F07BFE0F20A6
:102FD00001210190022002908020039000200490A3
:102FE000059001A800F065FD4CF201201290C02070
:102FF00013900020169002201490159001201B9031
:1030000000201F9026902B902C9012A800F094FE88
:1030100000F030FE4FF47A71B0FBF1F000F092FB5B
:10302000042000F0A3FB33B000BD10B5DFF800436F
:10303000DFF800032060C04860603320A0600120FA
:10304000E060002020616061A061E06120622046B4
:10305000FFF7F4FA20460021BDE8104001F09EB8C9
:1030600010B586B00068B349AB4C884221D12068C6
:1030700001A940F002002060206800F002000090EA
:103080000098C02000F02AF8A54800F00FFA206947
:103090000022032140F400102061206900F4001098
:1030A000009000981F2000F021FB1F2000F03BFB48
:1030B00012E0A24988420FD1032001A900F00EF8C6
:1030C0009F4800F0F3F9206940F4800020612069F6
:1030D00000F480000090009806B010BD019012200E
:1030E0000290012003900320049004200590704773
:1030F00000B5944A87B00168874891420ED1416972
:1031000041F400514161406901A900F40050009070
:103110000098742000F044F88B483DE08B4A9142BF
:1031200028D1416941F480114161416901F4801164
:1031300000910099016841F020010160006801A937
:1031400000F02000009000984FF470700190022071
:10315000029003900320049005200590784800F029
:10316000A5F902220221552000F0C0FA552000F0F6
:10317000DAFA13E0764A914210D1416941F4001124
:103180004161406901A900F40010009000984FF4DB
:10319000C04000F005F86F4800F088F907B000BDA6
:1031A000019002200290002003900320049005204B
:1031B0000590704710B5684C64482060002060603E
:1031C0004FF48060A0604FF47060E06000202061E8
:1031D00060614FF40070A061002020626062A06214
:1031E0000720E062002020636063204601F00EF8B3
:1031F0002068416841F060014160016841F0400190
:10320000016010BD544800688168490600D57047C8
:1032100070B58168C9075FD5406840065CD54F49E5
:103220004F48026801F51040183092B2837A93F04B
:103230000103837241D1437A41F6FE7483F00103A6
:10324000012B43721BD144F608035D58868915FA99
:1032500086F6A6423CD28489661C15FA84F48681DF
:10326000068A360346EA221221F814208489651C56
:1032700085815B5813FA84F321F8132028E0036852
:10328000C58913FA85F5A54222D2C489651CC5817A
:10329000058A13FA84F301EB43032D0345EA221256
:1032A00044F61005EA52C3895C1CC481046814FA10
:1032B00083F301EB43016A520AE002820268C38988
:1032C00012FA83F2038A01EB420149F22C025352B3
:1032D000017A09B90121017270BD38B5214C20680D
:1032E000C00610D5204D28880A2807D1FFF762FFB5
:1032F000002028800A2000F01CFA02E02888401CE8
:1033000028801020206031BD0000000050EF00E058
:1033100014ED00E0F0E00120303802400000111010
:103320000004024020E101204038024000700040CB
:103330005000012000540040FFEFC0000058004042
:1033400000140240003401400010024000500140CF
:1033500000540140001802409CDF012004020120BB
:103360000C500140143C014030E10120154880B56B
:10337000016841F400710160032000F0AAF90F20F8
:1033800000F005F800F002F8002002BD704710B50B
:10339000044600F06FFC4FF47A71B0FBF1F000F0DE
:1033A000D1F9002221464FF0FF3000F09FF90020B4
:1033B00010BD05480168491C01607047024800685B
:1033C00070470000003C024024E1012030B587B086
:1033D000DFF8AC40DFF8AC10C0B9086840F480708A
:1033E0000860086801A900F48070009000984FF40C
:1033F00080600190012002900390032004902046F9
:1034000000F054F800224FF4806119E001281AD12D
:103410000A6842F480720A60096801F480710091C0
:1034200000990FF2640151F820500290039003209C
:10343000049001A90195204600F038F80122A9B2B4
:10344000204600F016F907B030BD0400DFF8305018
:10345000704738B5FFF7F9FF04D14FF48061284673
:1034600000F00BF9012C09D10FF21C0050F82410C8
:103470002846BDE8344089B200F0FFB831BD0000F5
:103480000020024030380240000400000008000024
:103490000246054880B50178042000F013FF0020A3
:1034A00002BD704700207047010201202DE9F84756
:1034B0000022744BDFF8D081DFF8D0914FF00F0A73
:1034C000012707FA02FC0F680CEA0707674540F07E
:1034D000CA804C68022C18BF122C10D1D40800EB03
:1034E000840E02F00704A4000AFA04F6DEF8205065
:1034F000B5430E6906FA04F42C43CEF820404FEA97
:10350000420E0324056804FA0EF40E79E4432540C4
:1035100006F0030606FA0EF6354305604D68012DE8
:1035200018BF022D03D0112D18BF122D0FD18568A1
:10353000CE68254006FA0EF635438560456825EAD3
:103540000C064D68C5F30015954035434560D0F82D
:103550000CC004EA0C0C8C6804FA0EFE4EEA0C0C4B
:10356000C0F80CC0D1F804C05FEACC0C7BD5D9F808
:1035700000404FEA920C02F003054FEA850E44F436
:1035800080440AFA0EF5C9F80040D9F8004004F466
:1035900080440094009C58F82C40AC433C4DA84219
:1035A00008BF00252CD03B4DA84208BF012527D0DD
:1035B000394DA84208BF022522D0384DA84208BF85
:1035C00003251DD0364DA84208BF042518D0354D1F
:1035D000A84208BF052513D0334DA84208BF0625D1
:1035E0000ED0324DA84208BF072509D0304DA84261
:1035F00008BF082504D02F4DA8420CBF09250A2575
:1036000005FA0EFE4EEA040448F82C401C686FEAE6
:10361000070C0CEA040E4C68E40348BF47EA0E0EA0
:10362000C3F800E05C680CEA040E4C68A40348BFD1
:1036300047EA0E0EC3F804E09C680CEA040E4C68DE
:10364000E40248BF47EA0E0EC3F808E0D3F80CE0E6
:103650000CEA0E0CD1F804E05FEA8E2E48BF47EA70
:103660000C0CC3F80CC0521C102AFFF429AFBDE8A3
:10367000F18702B909048161704742695140416193
:1036800070470000003C01400838014044380240C7
:10369000000002400004024000080240000C02400A
:1036A000001002400014024000180240001C0240BA
:1036B00000200240002402400901002806D5304ABB
:1036C00000F00F00801800F8041C70472D4A815448
:1036D00070472D494FF6FF0300F007000A681A40B3
:1036E00042EA0020294A10430860704738B5264B4B
:1036F0001B68C3F30223C3F10704052C28BF04246D
:103700001D1D072D34BF0023DB1E012505FA04F41F
:10371000641E2140994005FA03F35B1E1A401143D1
:10372000BDE83440C8E7012100F01F029140184A6B
:1037300004E0012100F01F029140164A400942F8BE
:1037400020107047401EB0F1807F10B501D30120DA
:1037500010BD114C0F2160604FF0FF30FFF7ACFF40
:103760000020A06007202060002010BD0A49042826
:1037700008680CBF40F0040020F0040008607047A7
:1037800018ED00E000E400E00CED00E00000FA05B8
:1037900000E100E080E100E010E000E02DE9F04110
:1037A000044682B041F28938DFF8E8542078C00737
:1037B0005CD5A86800F00C00042805D000F074F96E
:1037C0000AD16868400207D5286880034ED5606832
:1037D00000284BD101205BE100F061F9286820F45A
:1037E0008020286000F05BF9FFF7E8FD07462868B5
:1037F000800305D5FFF7E2FDC01B4045F7D344E148
:1038000000F04DF96068B0F5803F03D1286820F4DE
:10381000802005E0B0F5A02F286806D140F4802074
:103820002860286840F4803005E020F4802028607B
:10383000286820F480302860606858B1FFF7BEFD2A
:1038400007462868800311D4FFF7B8FDC01B404528
:10385000F7D31AE1FFF7B2FD07462868800305D5C4
:10386000FFF7ACFDC01B4045F7D30EE12078800781
:1038700016D5A86810F00C0F05D000F015F925D169
:103880006868400222D42868800702D5E0680128D1
:10389000A0D12868216920F0F80040EAC100286022
:1038A0002078000743D560690028686F30D040F069
:1038B00001006867FFF782FD0746686F800736D40E
:1038C000FFF77CFDC01B6528F7D3DEE0E068002829
:1038D00028680ED040F001002860FFF76FFD074612
:1038E00028688007D5D4FFF769FDC01B6528F7D38A
:1038F000CBE0400840002860FFF760FD07462868DD
:103900008007CDD5FFF75AFDC01B6528F7D3BCE073
:10391000400840006867FFF751FD0746686F800761
:1039200005D5FFF74BFDC01B6528F7D3ADE0207828
:10393000400762D5286CDFF8606340F0805028644F
:10394000286C00F0805000900098306840F480703F
:103950003060FFF733FD07463068C00505D4FFF738
:103960002DFDC01B6528F7D38FE000F093F8286F7A
:1039700020F00400286700F08DF8FFF71FFD0746D0
:10398000286F800705D5FFF719FDC01B4045F7D309
:103990007BE000F07FF8A068012803D1286F20F0B9
:1039A000040004E00528286F06D140F004002867D1
:1039B000286F40F0010005E020F004002867286F20
:1039C000400840002867A06858B1FFF7F7FC074699
:1039D000286F800711D4FFF7F1FCC01B4045F7D3D7
:1039E00053E0FFF7EBFC0746286F800705D5FFF78C
:1039F000E5FCC01B4045F7D347E0A069002846D04E
:103A0000A96801F00C0108293FF4E4AE02282868F7
:103A100020F0807028602DD1FFF7D0FC0746286881
:103A2000800105D5FFF7CAFCC01B6528F7D32CE041
:103A3000206A616A40EA8110A16A891EC903090CE3
:103A400040EA0140E1690843E16A40EA016040F070
:103A500000506860286840F080702860FFF7AEFC76
:103A600007462868800112D4FFF7A8FCC01B652810
:103A7000F7D30AE0FFF7A2FC07462868800106D5C5
:103A8000FFF79CFCC01B6528F7D3032000E0002053
:103A9000BDE8F681286F4008400028677047286815
:103AA00020F4803028607047A86800F00C000828D7
:103AB00070472DE9F843DFF8E4510446894641F2A6
:103AC00089382868DFF8CC6100F00F0048453AD209
:103AD00000F097F873D100F09EF872D56068012865
:103AE00002D13168890303E00228316802D18901DB
:103AF00002D464E0890762D500F07CF8074660686C
:103B000001280AD1B06800F00C00042859D0FFF752
:103B100055FCC01B4045F5D34CE0022809D1B068E4
:103B2000FFF7C3FF4DD0FFF749FCC01B4045F6D35C
:103B300040E0B06810F00C0F43D0FFF73FFCC01B13
:103B40004045F6D336E000F066F835D560680128C8
:103B500002D13168890303E00228316802D189016A
:103B600002D42CE089072AD500F044F807466068A3
:103B700001280AD1B06800F00C0004281CD0FFF71F
:103B80001DFCC01B4045F5D314E0022809D1B068E4
:103B9000FFF78BFF10D0FFF711FCC01B4045F6D399
:103BA00008E0B06810F00C0F06D0FFF707FCC01B50
:103BB0004045F6D303201BE000F023F801D001209C
:103BC00016E02078400705D5B068E16820F4E050A1
:103BD0000843B0602078000706D5B068216920F45A
:103BE000604040EAC100B0600F20FFF7D0FB00202A
:103BF000BDE8F283B168890840EA8100B060FFF750
:103C0000DDBB2868000949EA00102860286800F038
:103C10000F00484570472078800705D5B068A16837
:103C200020F0F0000843B0602078C00770471D48BE
:103C3000416801F00C01042902D0082902D017E0E4
:103C40001948704701680268520201F03F014CBFF9
:103C5000154A164AB2FBF1F102680068C2F38812F5
:103C6000C0F301405143401C4000B1FBF0F07047ED
:103C70000E48704780B5FFF7DAFF094B0FF23402A8
:103C80000B491B68C3F303139A5CD04008600868B3
:103C900002BD00000038024000700040003C0240BD
:103CA000083802400438024040787D010024F400C6
:103CB000F0010120000000000102030401020304DE
:103CC0000607080970B51B4882B000F023F840F4DD
:103CD000803000F01CF806466068C00305D4FFF78A
:103CE0006DFB801BA842F7D30DE0206840F4003044
:103CF00000F00DF806466068800306D4FFF75EFB0F
:103D0000801BA842F7D3032076BD002076BD20603B
:103D1000FFF754BB064C40F2E935016841F0805191
:103D20000160006800F080500090009820687047A3
:103D300000700040403802402DE9F047044682B050
:103D40000027B8462078DFF84464C0070AD5B06879
:103D500020F40000B060B068616B0843B060606B35
:103D600000B901272068DFF8285400030ED5A868A1
:103D7000E16B20F440100843A860E06BB0F5801FB1
:103D800008BF012702D008B94FF001082068C0021F
:103D90000ED5A868216C20F440000843A860206C70
:103DA000B0F5800F08BF012702D008B94FF0010815
:103DB0002068C10148BF012780065BD5306F216BA9
:103DC00000F4407001F44071884253D0306CDFF849
:103DD000C49340F080503064306C00F0805000900C
:103DE0000098D9F8000040F48070C9F80000FFF78F
:103DF000E5FA8246D9F80000C00506D4FFF7DEFADE
:103E0000A0EB0A006528F5D3A7E1306F316F41F4CC
:103E100080313167316F20F4407021F48031316797
:103E2000306780070ED5FFF7C9FA8246306F8007EA
:103E300008D4FFF7C3FAA0EB0A0041F289318842A7
:103E4000F4D38AE1206B00F44071B1F5407F07D1D3
:103E5000B168DFF84423104021F4F811084302E070
:103E6000B06820F4F810B060306F216B090550EA9B
:103E7000115030672078C00607D5A86820F0807000
:103E8000A860A868A16B0843A8602068400405D515
:103E9000E868616E20F440300843E8602068000460
:103EA00005D5E868A16E20F440200843E86020684A
:103EB000C00305D5E868E16E20F440100843E860CF
:103EC0002068800305D5E868216F20F4400008438E
:103ED000E8602078400605D5E868616C800841EA12
:103EE0008000E8602078000605D5E868A16C20F025
:103EF0000C000843E8602068C00505D5E868E16C5F
:103F000020F030000843E8602068800505D5E868A7
:103F1000216D20F0C0000843E8602068400505D509
:103F2000E868616D20F440700843E860206800058F
:103F300005D5E868A16D20F440600843E86020687A
:103F4000C00405D5E868E16D20F440500843E860FE
:103F50002068800405D5E868216E20F440400843BD
:103F6000E8602068400205D5E868A16F20F0806015
:103F70000843E860206880020BD5E868E16F20F014
:103F800000600843E860E06FB0F1006F08BF4FF0D9
:103F900001082068010748BF4FF00108400305D51C
:103FA000E868616F20F040700843E8602068000214
:103FB00006D5E868D4F8801020F080500843E86007
:103FC0001FB92068B0F1007F67D1306820F08060B1
:103FD00000F0D9F807463068000105D5FFF7EEF983
:103FE000C01B6528F7D3B8E02078C0070FD5606BF9
:103FF00068B928682968626800F4403001F070618F
:1040000040EA82100843A16840EA017028602068F5
:10401000010303D5E16BB1F5801F05D0C00214D5B3
:10402000206CB0F5800F10D128682968626800F014
:1040300099F8E26840EA026008432860A868616A6B
:104040004009491E41EA4010A8602068C00106D519
:10405000286829682369626800F08BF82860206866
:1040600080010BD521696068090441EA8010E1688C
:1040700040EA0160A16840EA01702860306840F0C1
:10408000806000F080F807463068000105D4FFF733
:1040900095F9C01B6528F7D35FE0B8F1000F5ED03B
:1040A000306820F0805000F06EF8074630688000DD
:1040B00005D5FFF783F9C01B6528F7D34DE02068CD
:1040C000010301D5E16B19B1C00213D5206C88B989
:1040D00068686968626900F045F8A26940EA0260B0
:1040E00008436860A868A16A20F4F850491E40EAB5
:1040F0000120A860206880020AD5E06FB0F1006F4F
:1041000006D168686968236A626900F032F86860FD
:104110002078000713D568686968626901F4403146
:1041200000F0706041EA82110843E16940EA0170E1
:104130006860A868E16A20F440300843A8603068ED
:1041400040F0805000F01FF804463068800006D42C
:10415000FFF734F9001B6528F7D3032000E00020A7
:10416000BDE8F68700F4403001F0E04140EA8210FB
:10417000704700F0706001F0E0411B0443EA8212D6
:104180001043084370473060FFF718B90038024009
:104190008438024000700040FFFCFF0F00F1340241
:1041A00010B55378022B1CBF5378122B0BD05378C9
:1041B000222B1CBF5378322B05D05378422B1CBFC7
:1041C0001378012B01D1022010BD00F012F824F465
:1041D00080541C6003681C682143FFE71960006875
:1041E000016841F001010160012050700020107051
:1041F00010BD012313700223537003681C68640808
:1042000064001C6003681C687047000070B50400FF
:1042100001D1012070BD04F15C05687818B92870DF
:104220002046FEF765FF022040F20173687000F03F
:1042300043F8E2689A4204D30021B2F5706F05D1C9
:1042400006E0B2F5E06F4FF4805101D00026A6627F
:10425000266B26B99A422CBF022201222263626891
:10426000A3681A4323691A4363691A43A36903F4D1
:1042700000731A43E3691A43236A1A43A36A1A4371
:104280000260226B022A03D1026842F400620260DB
:10429000A269636A120C02F004021A43636B1A43A8
:1042A000E3681A4311434160E16A016100206860DC
:1042B00001206870002070BD2068016821F0400175
:1042C00001607047DFF8301580B509786529AFBF08
:1042D0006421C1EB0121642391FBF3F1C9B200F029
:1042E00084F810B10120FFF7B4F8002002BDF8B542
:1042F000DFF82445DFF824C5DFF82465DFF824253E
:104300002068DFF82435DFF82415604528BF75687C
:1043100007D2884228BF356803D298422CBF55681F
:10432000156815F0006554D0DFF8D0544FF0006EDA
:10433000AF6CA7B3604528BFC6F80CE00AD288422C
:1043400028BFC6F808E005D298422CBFC2F80CE09E
:10435000C2F808E0E96C4FF6FF76C160A96CB1F5D0
:10436000803F28BF314641602046FDF703FA2068B0
:10437000016841F001010160A96CB1F5803F34BFD3
:104380000A463246EB6C03EB4202EA6438BF0E4643
:10439000891BA964016841F001010160F1BD046855
:1043A000640864006045046028BFC6F80CE00AD2C7
:1043B000884228BFC6F808E005D298422CBFC2F850
:1043C0000CE0C2F808E0E86C0021BDE8F440FFF71B
:1043D00068B8F1BDDFF82404406BFDF72BBC86E71D
:1043E000DFF818044068806870472DE9F04FDFF867
:1043F00040748DB08B461446386807A9DFF8FC631B
:1044000040F008003860386800F00800009000981C
:10441000102007900120089003200A9000200990A6
:10442000DFF8F003FFF742F800F083F8FEF7FDFD38
:1044300000F068F80546AF21042000F08DF80690E2
:10444000AF2030708121052000F086F8059004210E
:10445000062000F081F80490584600F056F89E219E
:1044600000F051F8039000210A2000F075F8029046
:1044700004210E2000F070F801900021272000F0A8
:104480006BF883460F211F2000F066F880460A2152
:104490001A2000F061F881460A211B2000F05CF828
:1044A0008246386940F400403861386900F40040C1
:1044B00000900098DFF858037060C16921F48061B2
:1044C000C1610020F0603061F061022030624FF481
:1044D0000070B0607061301DB46100F0B3F90698EF
:1044E00005994019081804990818039908180299A1
:1044F000081801990DB008185844404448445044E5
:10450000BDE8F08F0121022026E038B5DFF8E8424F
:10451000207800F11901C9B2202000F01DF80546ED
:10452000207800F11901C9B2212000F015F84019D6
:1045300032BD10B5DFF8DC42002210212046FFF723
:1045400098F844F6FF7000F054F82046012210213C
:10455000BDE81040FFF78DB87CB506460C468DF8D7
:104560000660A64D8DF807404FF496100223009088
:104570000DF1060200F038F830B100F031F80428EF
:10458000F2D0FEF78FFF76BD8DF805608DF8040040
:104590004FF49610012300900DF1050200F024F86D
:1045A00020B100F01DF80428F2D00EE04FF4961070
:1045B0000123009001AA942105F15000FEF7F1F8C3
:1045C00030B100F00DF80428F0D0FEF76BFF01E0E9
:1045D0009DF80400C0B2A0420CBF0020012076BDAF
:1045E00005F15000FEF703BA942105F15000FEF7E3
:1045F00073B801B402E00098401E009000980028B3
:10460000F9D101B070472DE9F04304468BB08949D8
:10461000874D20687B4E884216D1686901A940F415
:1046200080506861686900F4805000900098B02064
:1046300000F0CCF83046FEF739FF0122012123209B
:10464000FFF754F823209DE07B49DFF8BC918842B6
:10465000DFF8AC814FF400472AD1286901A940F462
:1046600080402861286900F4804000900098286804
:1046700040F480702860286800F4807000F087F8AB
:10468000019700F0ADF8102001A9019000F0A8F802
:10469000022001A9019000F09BF86848FEF706FF90
:1046A000402001A900F092F84846FEF7FFFE6BE0BB
:1046B0005749884268D1286906A940F4004028611A
:1046C000286900F4004000900098286840F001003C
:1046D0002860286800F0010000F059F80C2000F074
:1046E0006BF84046FEF7E2FE069702200790062090
:1046F0000A9006A93046FEF7D9FE802006A900F0F0
:104700005BF84846FEF7D2FE286840F400102860A7
:104710002868414D00F40010009000982846FDF7ED
:104720005FF83A4846492860002068604020A86049
:104730000020E8604FF4806028614FF400606861F9
:104740004FF40050A8610020E8614FF40030286267
:1047500000206862A862E8622863286881600021FE
:10476000C1604FF6FE71416028462563AC63FDF7DA
:1047700037F82846FCF7FEFF012202212F20FEF722
:10478000B5FF2F20FEF7CFFF0BB0BDE8F083009000
:104790000098286840F002002860286800F00200B5
:1047A00000900098286840F004002860286800F015
:1047B00004000090009870470690022007900320A4
:1047C00009900020089006200A907047019002206E
:1047D000029000200390032004900520059070476C
:1047E00002200290002003900320049005200590F1
:1047F0004046FEF75BBE00000002012000000120E1
:10480000000402400000024000080240B86002407C
:10481000003C0040000C024000E0012059640240CE
:10482000006402400060024059600240B9600240EA
:104830003038024000300140003800400020024083
:104840000C3C0040F8B5044601260CB90120F2BD2D
:1048500004F13805687818B928702046FFF7D3FEB0
:104860000220364A68702068C1691140C161216820
:10487000022008622068C1696269022A02D100220E
:1048800002233DE0E36803B10226E3692C4F012BCC
:104890001ED04FF0000C02D0022B02D017E0BC4615
:1048A00015E0284B1F687F0254BF274F274F1B6816
:1048B00003F03F03B7FBF3F3254FD7F800C03F6881
:1048C000C7F388177B43CCF30277B3FBF7FC67464B
:1048D000D4F810C00A23BCF5007F0EBF3E0A760153
:1048E000B7FBF6F67343B3FBF2F2521D92B20A2302
:1048F000B2FBF3F202F00106921BD3031B0C32024F
:104900009E1EFE2E24BF022300221A4323691A434F
:1049100092B2026260680843A1680843E1680843F4
:10492000A169084340F40060216880B2C86100209A
:104930006860012068700020F2BD000040F0FFFFB9
:104940000080BB00043802400024F40040787D0160
:10495000843802402DE9F04F80460FF2A47095B0E4
:1049600015461E46D0E90023CDE9132303AF0020EE
:104970000391B8610DF1340900E065190020ADF82C
:10498000020013AB4FF0FF3229460DF1020000F098
:10499000C3FB0446012C04DA2878441EA441E443F6
:1049A000E40FBDF8020025280CBFA4F1010BA346BB
:1049B000BBF1010F0EDBAA461AF8011B0398C04792
:1049C0000028039000F0DA80B869401CBBF1010BAD
:1049D000B861F1D1BDF80200252804D10020F860AB
:1049E0003861786105E00028C7D1B86906E340F076
:1049F000010015F8011F2029F9D023290DD02B29FA
:104A000004D02D2906D030290AD00CE040F0020055
:104A100080B2EEE740F00400FAE740F00800F7E764
:104A200040F01000F4E72A290ED13168316051F8C6
:104A3000042B3160002A3A6204D5514240F0040050
:104A4000396280B26D1C13E0002139620BE0396AD3
:104A50006FF00043994205D001EB810302EB430163
:104A6000303939626D1C2A78A2F130010A29EED35F
:104A700029782E2903D04FF0FF31F9611FE015F896
:104A8000011F2A2907D1316831606D1C51F8042BB0
:104A90003160FA6113E00021F9610BE0F9696FF010
:104AA0000043994205D001EB810302EB4301303909
:104AB000F9616D1C2A78A2F130010A29EED3B8847D
:104AC0000FF24460297800F037FB08B115F8010BAC
:104AD0008DF832009DF83200682804BF28786828D5
:104AE00003D162208DF832006D1C0DA8B86015F856
:104AF000014B252C13D0582C4BD0632C00F0A380F5
:104B0000642C18BF692C7CD06F2C42D0702C36D00E
:104B1000732C0AD0752C18BF782C3AD0B6E001203F
:104B2000F86025208DF83400BAE09DF832006C283A
:104B30003068306018D050F8044B30607C60D7F893
:104B40001CA0BAF1000F04D5204600F001FB8246FC
:104B500007E052460021204600F016FB08B1A0EB0A
:104B6000040AC7F810A09BE050F8042B306002A99B
:104B7000404600F02DF9002840F192803CE2306878
:104B8000306050F8041B306002910DA878607821E5
:104B900055E09DF832006C280DD0712818BF6A28A6
:104BA00009D13068C01D20F007023260D2E900014F
:104BB0000832326004E03168316051F8040B316032
:104BC00002909DF83200682802D102A8008803E014
:104BD000622802D102A80078029097F8240000070A
:104BE00028D5029830B344F02000782822D1F86804
:104BF000302100F80910401C411CF96000F8094000
:104C000018E09DF83200314600F0BCF80028029010
:104C100002D5F8682D2109E0B88C810702D5F86823
:104C20002B2103E0C00705D5F868202100F8091002
:104C3000401CF8600DA8F96808187860214602A8A1
:104C400000F0DFF92CE09DF832006C2809D001203B
:104C5000F8603068306050F8041B30608DF8341014
:104C60001EE03068306001AA50F8041B3060ADF8D7
:104C700004100020ADF8060002A94FF0FF30F861E3
:104C8000404600F0A5F800280AD577E70120F86033
:104C900025208DF834001CB10220F86089F801400D
:104CA000386AF968401A7969401A3969441A97F8DC
:104CB0002400400711D42020012C8DF800000CDBCB
:104CC000A24601236A4602A9404600F001FA0028E4
:104CD0007FF454AFBAF1010AF3D1D7F80CB0BBF1AD
:104CE000000F0DF1340A0DD01AF8011B0398C047CC
:104CF000002803903FF442AFB869401CBBF1010BA0
:104D0000B861F1D1D7F814A03020BAF1010F8DF8B5
:104D100000000BDB01236A4602A9404600F0D8F9E7
:104D200000287FF42BAFBAF1010AF3D1D7F810B005
:104D3000D7F804A0BBF1000F0DD01AF8011B03989F
:104D4000C047002803903FF419AFB869401CBBF17D
:104D5000010BB861F1D197F8240040077FF50EAE42
:104D60002020012C8DF80000FFF608AE01236A46D2
:104D700002A9404600F0ACF900287FF4FFAE641EA3
:104D8000F4D1FBE5622815D068280CD06C2818BF38
:104D9000742816D07A2814D10A680A6052F8040BD5
:104DA0000A60002170470A680A6052F8040B0A6022
:104DB00000B20BE00A680A6052F8040B0A6040B2C5
:104DC00004E00A680A6052F8040B0A60C1177047D1
:104DD0002DE9F44F0D4694B02F6A002F804648BF4E
:104DE0006FF0004700F0FCF9696A401801900FF27B
:104DF0002030D0E90023CDE9022395F828004007B0
:104E000002D40198412805D240200DF110090190EB
:104E1000002606E0FCF768F85FEA0009F8D1EBE04D
:104E20003F1B012FC0F294801498018802AA0DF153
:104E3000010000F0DAF90028044600F19C80149883
:104E4000008810B9641E00F19680A742C0F28080ED
:104E5000286901992218914268D26E624042A9697C
:104E6000401A6969461A95F82800400710D4202096
:104E7000012E8DF800000BDBB24601236A4629465D
:104E8000404600F025F9002875D1BAF1010AF4D1A5
:104E9000D5F810B0BBF1000FCA460CD01AF8011BB0
:104EA0006868C0470028686065D0E869401CBBF1AD
:104EB000010BE861F2D130208DF80000D5F818A080
:104EC000BAF1010F0ADB01236A462946404600F089
:104ED000FFF800284FD1BAF1010AF4D1D5F814B087
:104EE000D5F808A0BBF1000F0CD01AF8011B6868B8
:104EF000C047002868603ED0E869401CBBF1010B48
:104F0000E861F2D195F8280040070DD52020012E48
:104F10008DF8000008DB01236A462946404600F070
:104F2000D7F840BB761EF6D100262E6122462869AE
:104F30000DF10101484400F065F928692018286145
:104F40001498801C1490801E008800287FF468AF9D
:104F5000686A2969401AA969401A6969471A95F867
:104F6000280040070FD4012F0DDB3C466868202144
:104F7000C047686010B94FF0FF3635E0E869401C63
:104F8000641EE861F2D12B694A462946404600F08A
:104F90009FF80028EFD1AC69012C0ADB686830214A
:104FA000C04700286860E6D0E869401C641EE861DC
:104FB000F4D16B69AA682946404600F089F80028B8
:104FC000D9D195F8280040070CD5012F0ADB686875
:104FD0002021C04700286860CDD0E869401C7F1EB2
:104FE000E861F4D12E616E6204A881451CBF484679
:104FF000FCF7D5F8304601E04FF0FF3015B0BDE8C2
:10500000F08FF0B4C2686F2908BF082405D041F0C2
:105010002003782B14BF0A2410241823066864295F
:1050200018BF6929374602D1002E48BF7F425FB9B9
:10503000056A4DB9082C27D190F82810090723D507
:1050400030211723D1751FE0B7FBF4F604FB167768
:105050003037FFB25D1E3A2FA4BFA1F1510C674457
:10506000AF542B46370003D085689E18B542EBD36A
:10507000082C09D190F82810090705D5995C30292A
:1050800002D05B1E302199549A188260C3F1180136
:10509000026A4161914208DA511A81614FF6EF725A
:1050A000018D11400185F0BC7047002A0ED590F8A3
:1050B000282002F01402102A08D1426A0369D21A89
:1050C0008369D21A531A012BA8BF8361F0BC7047C1
:1050D000F8B504460D4616461F46002077B116F86F
:1050E000011B6868A047686030B1E869401CE8614E
:1050F00000207F1EF3D1F2BD4FF0FF30F2BD000063
:105100000000000000000000686C747A4C00000091
:105110000000000000000000F8B504460D461646E9
:105120001F4600F0ABF83B4632462946204601B008
:10513000BDE8F04000F0B9B80278C9B28A421AB1AD
:105140001CBF10F8012FF9E718BF002070470000BE
:1051500000F10103810704D010F8011B89B1810718
:10516000FAD10268B2F10131914311F0803F04BFDE
:1051700050F8042FF6E710F8011B11B110F8011BCD
:10518000FBE7C01A70470000C9B2830706D0521E61
:1051900022D310F8013B9942F7D11FE0083A13D30C
:1051A00002F1040241EA012141EA014150F8043BC5
:1051B000121F21BF4B40A3F1013C2CEA030C1CF051
:1051C000803FF3D0C9B2001F083210F8013B521ED5
:1051D00028BF91EA030FF8D818BF0120401E70477E
:1051E00080B500F04BF8012002BD70B504460D46B5
:1051F000164600F043F8324629462046BDE8704086
:1052000000F046B862B38B0708D0521E11F8013B7C
:1052100000F8013B00F024808B07F6D1830740F0B3
:10522000208000BF103A07D330B4B1E83810103AEC
:10523000A0E83810F9D230BC530724BFB1E80810F9
:10524000A0E8081044BF51F8043B40F8043BD207E3
:1052500024BF31F8022B20F8022B44BF0B780370D7
:105260007047083A07D3B1E80810083A40F8043B01
:1052700040F804CBF7D25307E4E7000080B5DFF82D
:105280000C0000F035F8806902BD00009400012098
:1052900030B430B90FF24800D0E90045C2E900450A
:1052A0001BE00170012030BC704730B431B90FF2FF
:1052B0003800D0E90045C3E900450EE01AB930BC1A
:1052C0006FF00100704708B10A7802800978481E23
:1052D000804130BCC043C00F7047002030BC7047D5
:1052E00000000000000000000000000000000000BE
:1052F00070470000F8B5044600252668304600F0E7
:10530000F3FA01287CD100F07CF8002878D000F076
:1053100078F8800203D521684FF40010486100F04E
:1053200070F8C00203D521684FF48010486100F086
:1053300068F8400103D521684FF08060486100F0B3
:1053400060F8800702D521680220486100F059F812
:10535000800010D506F58860016821F02E010160FB
:10536000204600F071FB2068012100F0C1FA21689D
:105370004FF00050486100F044F8C00144BF20469F
:1053800000F01CFA00F03DF8000705D5204600F0BB
:1053900053FB21680820486100F033F880011ED5D6
:1053A000206800F0DBFA074602E000F022F96D1CED
:1053B000A06885420FD227FA05F0C007F7D506EBA3
:1053C0004510E9B200F5A060006800042046ECD565
:1053D00000F040F8EBE721684FF00070486100F002
:1053E00010F8C0060CD52068816921F01001816198
:1053F000204600F0ADF92068816941F0100181611B
:10540000F1BD206800F06CBA10B500F011F801D1C0
:10541000022010BD012084F88C02206800F028FAD8
:105420002068012100F07BFA002084F88C0210BD76
:10543000044694F88C020128704710B5FFF7F8FF76
:1054400001D1022010BD012084F88C02206800F0F8
:10545000B7FAE9E72DE9F04104460D46206800EB74
:10546000451000F5A066282010FB0548B06808F13B
:105470004407400706D50420B060F06840F0020001
:10548000F06021E0B068800648BF20201BD4B068DF
:1054900000070CD5F06840F00200F0600520787538
:1054A0001020B0600820B06000F0A0F80CE0B068F8
:1054B000400509D5F06800F096F81020B06008208B
:1054C00078754FF48060B060B068800504D500F056
:1054D00088F84FF4007062E0B068C0072AD52069F0
:1054E00028B1386831694903B0EB51307860012048
:1054F0007875002038610120B06098F83B000028E2
:1055000018BF022804D100F06CF81020B0600CE045
:1055100003280AD130680122294640F0005030604B
:1055200001203875204600F093FA387A80F00100A7
:1055300038724BE0B068800721D5F06820F0020097
:10554000F060787D012814BF052838750FD0062833
:1055500018BF08280BD13869411C0428396123BFC2
:105560000020386104200220387500F031F8022054
:105570002946B0603A7D204600F06AFA26E0B0681D
:1055800000060ED5F068294640F00200F060386948
:10559000401C38610620787500F028F88020B06043
:1055A00014E0B068C00611D598F83B00032801D17B
:1055B00000F017F8032078751020B06098F83B00D1
:1055C000002818BF022801D100F002F8BDE8F081E0
:1055D000306820F080403060306840F0004030603B
:1055E0007047F068294640F00200F060206800F043
:1055F000BAB938B5026802EB411202F5A064A2689C
:10560000520706D50420A060E06840F00200E06088
:1056100031BD2822A36812FB010202F15405393280
:105620009B060BD52023A3601278012A05D1042202
:105630006A7100F086F80220287131BDA3685B060C
:1056400005D504226A7100F07AF8402029E0A368A9
:105650009B0504D500F075F84FF4007021E0A368B5
:10566000DB0704D500F06BF80120A06026E0A368FA
:105670001B0705D50822A26000F063F805201DE095
:10568000A368DB0605D500F05AF8032068711020E6
:1056900007E0A3681B0606D500F053F806206871E2
:1056A0008020A06031BDA3685B0509D500F049F8F2
:1056B0001020A0604FF48060A0600820687131BDA8
:1056C000A3689B073AD5E36823F00203E3606B7994
:1056D000012B08D12B719378022B2AD1137D83F0F3
:1056E0000103137525E0032B08BF022209D0042B08
:1056F00004D102232B71002313701AE0052B02D171
:1057000005222A7115E0062B18BF082B11D12A6833
:10571000531C042A2B6023BF00222A600422022289
:105720002A71226822F080422260226842F0004200
:1057300022600222A2602A7900F08AF931BD00229B
:105740002A60E26842F00202E260006800F00BB9F1
:105750000146F8B50868026A02F00F050446C2F374
:105760000A16C2F34342022A24D11EB3282212FB96
:10577000051101F140073968E1B1324600F09EF8A9
:1057800038680D4A30183860B8683018B86004EBD3
:10579000451000F5A060016911420BD0016821F0AD
:1057A00080410160016841F000410160387B80F078
:1057B00001003873F1BD00000000F81F7CB50546FC
:1057C0002868064606F588642168019121680091E1
:1057D000009921F02E010091019989070DD50199B9
:1057E000C90706D5816921F000518161284600F082
:1057F00027F9009840F002000090019800072CD58E
:10580000009840F008000090019840071CD5A86956
:1058100002280BD12868019901F4C021B1F5802F2D
:105820000CBF0221012100F063F807E0E8680328BB
:1058300004D14EF6602006F580614860284600F0ED
:10584000FFF8E86848B903E0206820F02E002060E7
:105850002868816941F0005181610198800603D573
:10586000009840F0200000900098206073BD000078
:10587000816841F0010102E08168490849008160C6
:1058800000207047890141F020010161DFF82C11EF
:10589000491E01D10320704702699206F8D4002006
:1058A000704710210161DFF81411491E01D1032056
:1058B00070470269D206F8D40020704710B5D21C98
:1058C0005410002302EB947205E000F580545B1C39
:1058D000246841F8044BB3EBA20FF6D3084610BD81
:1058E0004169806908407047406900F001007047D5
:1058F00000F5806001F003030268920892000260E4
:1059000002681A430129026008BF4BF6803103D0B8
:10591000022902D141F2707141600020704700F508
:10592000886081B002680092009A22F02E020092F4
:10593000009AD20407D4012905D1009941F480517D
:105940000160009807E0009AD20404D519B90099C3
:1059500021F480510160002001B0704700F58060A3
:10596000406980B2704700EB411101F5A0610A68FF
:105970000B6840F2E9321B030B6843F080430B6075
:105980004EBFC06A00F5806000690004086810D14D
:10599000400040080860086840F00040086008685F
:1059A00020F400400860521E06D008680028FAD48F
:1059B00002E040F00040086000207047410D030005
:1059C00070B504460025FFF757FF10212046FFF76A
:1059D00059FF20466FF08026FFF763FF002104EB9C
:1059E0004112491C02F5A0621368334043F0804322
:1059F00010291360F3DB002104EB411202F5A062D1
:105A0000136823F4004343F0404313606D1CB5F565
:105A10007A7F02D81368002BF8D4491C1029EBDBDD
:105A20004FF0FF3104F58060416120466161FFF76E
:105A30001FFF002070BD0000D0F8900200F018B8E1
:105A4000D0F8900200F022B8D0F8900200F032B8FE
:105A5000704780B5D0F8B002FFF7D6FC002002BD39
:105A600080B5D0F8B002FFF7E8FC002002BD0000CE
:105A700000F519714A6C521C4A6402780A2A04D152
:105A8000096800291CBF89690847704780B50178FB
:105A900049B9012180F81E12D0F8B422110007D0B4
:105AA0000421904704E00178012904BF022101701C
:105AB000002002BD10B50446FFF7D2FF00F01EF82B
:105AC000617900F01CF8002084F81E02D4F8B4229A
:105AD000100002D00521204690470FF2280000F068
