:020000040800F2
:10000000901F022089B1020865AE020867AE02089F
:1000100069AE02086BAE02086DAE02080000000077
:100020000000000000000000000000006FAE0208A9
:1000300071AE02080000000073AE020875AE02083F
:10004000ADB10208B1B10208B5B10208B9B10208F8
:10005000BDB10208C1B10208C5B10208C9B10208A8
:10006000CDB10208D1B10208912202084706020868
:10007000D5B10208D9B10208DDB10208E1B1020828
:10008000E5B10208E9B10208EDB10208F1B10208D8
:10009000F5B10208F9B10208FDB10208DF22020839
:1000A00001B2020805B2020809B202080DB2020844
:1000B00011B2020815B2020819B20208A7AE02086E
:1000C0001DB20208B1AE020821B202084DC40108F7
:1000D0007FC6010825B2020829B202089DAE0208B7
:1000E000DD2202082DB2020831B2020835B2020840
:1000F00039B202083DB2020841B2020835FD0108DA
:1001000045B2020849B202084DB202084906020887
:1001100051B2020855B2020859B202085DB2020893
:1001200061B2020865B2020869B202086DB2020843
:10013000DDAE020871B2020875B2020879B2020897
:100140007DB2020881B2020885B20208BBAE020885
:10015000C3D60108CFD60108DFAE02089BAE020865
:1001600089B202088DB2020891B2020895B2020863
:1001700099B202089DB20208A1B202080000000074
:10018000A5B20208A9B20208ADB20208B1B20208D3
:10019000C1C8010803CB0108EFCB0108B5B20208C2
:1001A000B9B20208BDB20208C1B20208C5B2020863
:1001B000C9B20208CDB20208D1B20208D5B2020813
:1001C000D9B20208DDB202080004000200060001F4
:1001D0000005000300078000800480028006800183
:1001E0008005800380074000400440024006400133
:1001F000400540034007C000C004C002C006C00163
:10020000C005C003C00720002004200220062001F2
:10021000200520032007A000A004A002A006A00142
:10022000A005A003A00760006004600260066001F2
:10023000600560036007E000E004E002E006E00122
:10024000E005E003E00710001004100210061001A2
:100250001005100310079000900490029006900182
:100260009005900390075000500450025006500132
:10027000500550035007D000D004D002D006D00162
:10028000D005D003D00730003004300230063001F2
:10029000300530033007B000B004B002B006B00142
:1002A000B005B003B00770007004700270067001F2
:1002B000700570037007F000F004F002F006F00122
:1002C000F005F003F007080008040802080608011A
:1002D0000805080308078800880488028806880142
:1002E00088058803880748004804480248064801F2
:1002F000480548034807C800C804C802C806C80122
:10030000C805C803C80728002804280228062801B1
:10031000280528032807A800A804A802A806A80101
:10032000A805A803A80768006804680268066801B1
:10033000680568036807E800E804E802E806E801E1
:10034000E805E803E8071800180418021806180161
:100350001805180318079800980498029806980141
:1003600098059803980758005804580258065801F1
:10037000580558035807D800D804D802D806D80121
:10038000D805D803D80738003804380238063801B1
:10039000380538033807B800B804B802B806B80101
:1003A000B805B803B80778007804780278067801B1
:1003B000780578037807F800F804F802F806F801E1
:1003C000F805F803F8070400040404020406040115
:1003D0000405040304078400840484028406840161
:1003E0008405840384074400440444024406440111
:1003F000440544034407C400C404C402C406C40141
:10040000C405C403C40724002404240224062401D0
:10041000240524032407A400A404A402A406A40120
:10042000A405A403A40764006404640264066401D0
:10043000640564036407E400E404E402E406E40100
:10044000E405E403E4071400140414021406140180
:100450001405140314079400940494029406940160
:100460009405940394075400540454025406540110
:10047000540554035407D400D404D402D406D40140
:10048000D405D403D40734003404340234063401D0
:10049000340534033407B400B404B402B406B40120
:1004A000B405B403B40774007404740274067401D0
:1004B000740574037407F400F404F402F406F40100
:1004C000F405F403F4070C000C040C020C060C01F8
:1004D0000C050C030C078C008C048C028C068C0120
:1004E0008C058C038C074C004C044C024C064C01D0
:1004F0004C054C034C07CC00CC04CC02CC06CC0100
:10050000CC05CC03CC072C002C042C022C062C018F
:100510002C052C032C07AC00AC04AC02AC06AC01DF
:10052000AC05AC03AC076C006C046C026C066C018F
:100530006C056C036C07EC00EC04EC02EC06EC01BF
:10054000EC05EC03EC071C001C041C021C061C013F
:100550001C051C031C079C009C049C029C069C011F
:100560009C059C039C075C005C045C025C065C01CF
:100570005C055C035C07DC00DC04DC02DC06DC01FF
:10058000DC05DC03DC073C003C043C023C063C018F
:100590003C053C033C07BC00BC04BC02BC06BC01DF
:1005A000BC05BC03BC077C007C047C027C067C018F
:1005B0007C057C037C07FC00FC04FC02FC06FC01BF
:1005C000FC05FC03FC070200020402020206020111
:1005D000020502030207820082048202820682016F
:1005E000820582038207420042044202420642011F
:1005F000420542034207C200C204C202C206C2014F
:10060000C205C203C20722002204220222062201DE
:10061000220522032207A200A204A202A206A2012E
:10062000A205A203A20762006204620262066201DE
:10063000620562036207E200E204E202E206E2010E
:10064000E205E203E207120012041202120612018E
:10065000120512031207920092049202920692016E
:10066000920592039207520052045202520652011E
:10067000520552035207D200D204D202D206D2014E
:10068000D205D203D20732003204320232063201DE
:10069000320532033207B200B204B202B206B2012E
:1006A000B205B203B20772007204720272067201DE
:1006B000720572037207F200F204F202F206F2010E
:1006C000F205F203F2070A000A040A020A060A0106
:1006D0000A050A030A078A008A048A028A068A012E
:1006E0008A058A038A074A004A044A024A064A01DE
:1006F0004A054A034A07CA00CA04CA02CA06CA010E
:10070000CA05CA03CA072A002A042A022A062A019D
:100710002A052A032A07AA00AA04AA02AA06AA01ED
:10072000AA05AA03AA076A006A046A026A066A019D
:100730006A056A036A07EA00EA04EA02EA06EA01CD
:10074000EA05EA03EA071A001A041A021A061A014D
:100750001A051A031A079A009A049A029A069A012D
:100760009A059A039A075A005A045A025A065A01DD
:100770005A055A035A07DA00DA04DA02DA06DA010D
:10078000DA05DA03DA073A003A043A023A063A019D
:100790003A053A033A07BA00BA04BA02BA06BA01ED
:1007A000BA05BA03BA077A007A047A027A067A019D
:1007B0007A057A037A07FA00FA04FA02FA06FA01CD
:1007C000FA05FA03FA070600060406020606060101
:1007D000060506030607860086048602860686014D
:1007E00086058603860746004604460246064601FD
:1007F000460546034607C600C604C602C606C6012D
:10080000C605C603C60726002604260226062601BC
:10081000260526032607A600A604A602A606A6010C
:10082000A605A603A60766006604660266066601BC
:10083000660566036607E600E604E602E606E601EC
:10084000E605E603E607160016041602160616016C
:10085000160516031607960096049602960696014C
:1008600096059603960756005604560256065601FC
:10087000560556035607D600D604D602D606D6012C
:10088000D605D603D60736003604360236063601BC
:10089000360536033607B600B604B602B606B6010C
:1008A000B605B603B60776007604760276067601BC
:1008B000760576037607F600F604F602F606F601EC
:1008C000F605F603F6070E000E040E020E060E01E4
:1008D0000E050E030E078E008E048E028E068E010C
:1008E0008E058E038E074E004E044E024E064E01BC
:1008F0004E054E034E07CE00CE04CE02CE06CE01EC
:10090000CE05CE03CE072E002E042E022E062E017B
:100910002E052E032E07AE00AE04AE02AE06AE01CB
:10092000AE05AE03AE076E006E046E026E066E017B
:100930006E056E036E07EE00EE04EE02EE06EE01AB
:10094000EE05EE03EE071E001E041E021E061E012B
:100950001E051E031E079E009E049E029E069E010B
:100960009E059E039E075E005E045E025E065E01BB
:100970005E055E035E07DE00DE04DE02DE06DE01EB
:10098000DE05DE03DE073E003E043E023E063E017B
:100990003E053E033E07BE00BE04BE02BE06BE01CB
:1009A000BE05BE03BE077E007E047E027E067E017B
:1009B0007E057E037E07FE00FE04FE02FE06FE01AB
:1009C000FE05FE03FE0701000000803F000000005E
:1009D000ECFF7F3FD40FC93AB1FF7F3FC70F493BC0
:1009E0004EFF7F3FC1CB963BC4FE7F3F890FC93B83
:1009F00013FE7F3F3053FB3B39FD7F3F59CB163C05
:100A000039FC7F3F02ED2F3C11FB7F3F900E493CAC
:100A1000C1F97F3F0030623C4AF87F3F4B517B3C3D
:100A2000ACF67F3F38398A3CE6F47F3FB6C9963C46
:100A3000F8F27F3F1C5AA33CE3F07F3F69EAAF3CEA
:100A4000A7EE7F3F9B7ABC3C43EC7F3FB00AC93C9A
:100A5000B8E97F3FA69AD53C05E77F3F7B2AE23C79
:100A60002BE47F3F2DBAEE3C29E17F3FB949FB3CA7
:100A700000DE7F3F90EC033DAFDA7F3F2F340A3D2D
:100A800037D77F3FB87B103D98D37F3F2CC3163DAF
:100A9000D1CF7F3F880A1D3DE2CB7F3FCC51233D24
:100AA000CCC77F3FF698293D8FC37F3F07E02F3D9E
:100AB0002ABF7F3FFC26363D9EBA7F3FD56D3C3D29
:100AC000EAB57F3F91B4423D0FB17F3F2FFB483DD8
:100AD0000DAC7F3FAF414F3DE3A67F3F0E88553DB4
:100AE00091A17F3F4CCE5B3D189C7F3F6814623DD7
:100AF00078967F3F625A683DB1907F3F38A06E3D47
:100B0000C28A7F3FE9E5743DAB847F3F742B7B3D18
:100B10006D7E7F3F6CB8803D08787F3F0ADB833D68
:100B20007B717F3F94FD863DC76A7F3F0A208A3DE7
:100B3000EC637F3F6A428D3DE95C7F3FB464903D4A
:100B4000BF557F3FE786933D6D4E7F3F05A9963D9C
:100B5000F4467F3F0ACB993D543F7F3FF9EC9C3DE3
:100B60008D377F3FCF0EA03D9D2F7F3F8C30A33D23
:100B700087277F3F3052A63D491F7F3FBA73A93D6B
:100B8000E4167F3F2B95AC3D580E7F3F80B6AF3DBE
:100B9000A4057F3FBBD7B23DC9FC7E3FDAF8B53D27
:100BA000C7F37E3FDD19B93D9DEA7E3FC33ABC3DA8
:100BB0004CE17E3F8D5BBF3DD4D77E3F397CC23D4B
:100BC00034CE7E3FC69CC53D6DC47E3F36BDC83D1C
:100BD0007FBA7E3F86DDCB3D69B07E3FB7FDCE3D1F
:100BE0002DA67E3FC81DD23DC99B7E3FB93DD53D58
:100BF0003D917E3F895DD83D8B867E3F377DDB3DD5
:100C0000B17B7E3FC49CDE3DB0707E3F2EBCE13D9B
:100C100088657E3F76DBE43D385A7E3F9AFAE73DB1
:100C2000C14E7E3F9A19EB3D23437E3F7638EE3D21
:100C30005E377E3F2E57F13D722B7E3FC075F43DEF
:100C40005E1F7E3F2C94F73D24137E3F73B2FA3D26
:100C5000C2067E3F92D0FD3D38FA7D3F4577003E8B
:100C600088ED7D3F2E06023EB1E07D3F0295033EBA
:100C7000B2D37D3FC223053E8CC67D3F6EB2063E99
:100C800040B97D3F0541083ECCAB7D3F86CF093E54
:100C9000309E7D3FF35D0B3E6E907D3F4AEC0C3EF7
:100CA00085827D3F8B7A0E3E74747D3FB708103E7F
:100CB0003D667D3FCC96113EDE577D3FCA24133EF4
:100CC00059497D3FB2B2143EAC3A7D3F8340163E57
:100CD000D82B7D3F3DCE173EDD1C7D3FE05B193EAE
:100CE000BC0D7D3F6BE91A3E73FE7C3FDE761C3EF9
:100CF00003EF7C3F38041E3E6CDF7C3F7B911F3E40
:100D0000AECF7C3FA51E213EC9BF7C3FB6AB223E85
:100D1000BDAF7C3FAD38243E8A9F7C3F8CC5253ECD
:100D2000318F7C3F5152273EB07E7C3FFCDE283E17
:100D3000086E7C3F8D6B2A3E3A5D7C3F04F82B3E6B
:100D4000444C7C3F61842D3E283B7C3FA2102F3ECB
:100D5000E5297C3FC99C303E7A187C3FD428323E3E
:100D6000E9067C3FC4B4333E31F57B3F9840353EC5
:100D700053E37B3F50CC363E4DD17B3FEC57383E62
:100D800020BF7B3F6CE3393ECDAC7B3FCF6E3B3E1B
:100D9000539A7B3F15FA3C3EB2877B3F3E853E3EF1
:100DA000EA747B3F4910403EFC617B3F379B413EEC
:100DB000E74E7B3F0726433EAB3B7B3FB9B0443E0B
:100DC00048287B3F4D3B463EBE147B3FC2C5473E55
:100DD0000E017B3F1850493E37ED7A3F4FDA4A3ECD
:100DE0003AD97A3F67644C3E16C57A3F60EE4D3E75
:100DF000CBB07A3F38784F3E599C7A3FF101513E53
:100E0000C1877A3F898B523E02737A3F0115543E67
:100E10001C5E7A3F589E553E10497A3F8F27573EB9
:100E2000DD337A3FA4B0583E841E7A3F97395A3E4C
:100E300004097A3F6AC25B3E5EF3793F1A4B5D3E1E
:100E400091DD793FA8D35E3E9DC7793F135C603E3C
:100E500083B1793F5CE4613E439B793F836C633EA1
:100E6000DC84793F86F4643E4E6E793F667C663E54
:100E70009A57793F2204683EC040793FBA8B693E59
:100E8000BF29793F2F136B3E9812793F7F9A6C3EB2
:100E90004AFB783FAB216E3ED6E3783FB2A86F3E67
:100EA0003BCC783F942F713E7BB4783F51B6723E75
:100EB000939C783FE83C743E8684783F5AC3753EE5
:100EC000526C783FA649773EF853783FCCCF783EB6
:100ED000773B783FCB557A3ED122783FA4DB7B3EEF
:100EE000040A783F56617D3E10F1773FE1E67E3E91
:100EF000F7D7773F2236803EB7BE773FC0F8803EB7
:100F000051A5773F4ABB813EC58B773FC07D823E6E
:100F10001372773F2240833E3A58773F7002843EF7
:100F20003C3E773FAAC4843E1724773FCE86853E59
:100F3000CC09773FDF48863E5BEF763FDA0A873E93
:100F4000C4D4763FC1CC873E07BA763F938E883EA5
:100F5000249F763F5050893E1B84763FF8118A3E8D
:100F6000EC68763F8AD38A3E974D763F07958B3E55
:100F70001B32763F6E568C3E7A16763FC0178D3EFA
:100F8000B3FA753FFCD88D3EC6DE753F229A8E3E81
:100F9000B3C2753F325B8F3E7BA6753F2C1C903EE3
:100FA0001C8A753F10DD903E976D753FDD9D913E2B
:100FB000ED50753F945E923E1D34753F351F933E54
:100FC0002717753FBFDF933E0BFA743F31A0943E65
:100FD000C9DC743F8D60953E62BF743FD220963E5F
:100FE000D5A1743F00E1963E2284743F17A1973E3D
:100FF0004966743F1661983E4B48743FFE20993E07
:10100000272A743FCEE0993EDD0B743F86A09A3EBE
:101010006EED733F27609B3ED9CE733FAF1F9C3E62
:101020001FB0733F20DF9C3E3F91733F789E9D3EF3
:101030003972733FB85D9E3E0E53733FDF1C9F3E77
:10104000BE33733FEEDB9F3E4714733FE59AA03EED
:10105000ACF4723FC259A13EEBD4723F8718A23E56
:1010600004B5723F33D7A23EF894723FC595A33EB4
:10107000C774723F3F54A43E7054723F9F12A53E06
:10108000F433723FE5D0A53E5213723F128FA63E55
:101090008CF2713F254DA73E9FD1713F1F0BA83E9B
:1010A0008EB0713FFEC8A83E578F713FC486A93EDF
:1010B000FB6D713F6F44AA3E7A4C713F0102AB3E1B
:1010C000D42A713F77BFAB3E0809713FD47CAC3E58
:1010D00017E7703F153AAD3E02C5703F3CF7AD3E95
:1010E000C6A2703F49B4AE3E6680703F3A71AF3ED3
:1010F000E15D703F102EB03E373B703FCBEAB03E13
:101100006718703F6BA7B13E73F56F3FEF63B23E58
:101110005AD26F3F5820B33E1BAF6F3FA5DCB33EA2
:10112000B88B6F3FD698B43E30686F3FEC54B53EF5
:1011300083446F3FE610B63EB0206F3FC3CCB63E4F
:10114000BAFC6E3F8488B73E9ED86E3F2A44B83EB4
:101150005DB46E3FB2FFB83EF88F6E3F1EBBB93E26
:101160006D6B6E3F6E76BA3EBE466E3FA031BB3EA3
:10117000EB216E3FB6ECBB3EF2FC6D3FAFA7BC3E31
:10118000D5D76D3F8B62BD3E93B26D3F4A1DBE3ECB
:101190002D8D6D3FEBD7BE3EA1676D3F6F92BF3E79
:1011A000F2416D3FD54CC03E1D1C6D3F1E07C13E38
:1011B00024F66C3F48C1C13E07D06C3F557BC23E10
:1011C000C5A96C3F4435C33E5E836C3F15EFC33EFB
:1011D000D45C6C3FC8A8C43E24366C3F5C62C53EFC
:1011E000500F6C3FD21BC63E58E86B3F29D5C63E18
:1011F0003BC16B3F628EC73EFB996B3F7C47C83E4D
:1012000095726B3F7700C93E0C4B6B3F53B9C93E9B
:101210005E236B3F1072CA3E8CFB6A3FAE2ACB3E08
:1012200095D36A3F2CE3CB3E7BAB6A3F8B9BCC3E96
:101230003C836A3FCA53CD3ED95A6A3FEA0BCE3E41
:1012400052326A3FEAC3CE3EA7096A3FCA7BCF3E0D
:10125000D7E0693F8A33D03EE4B7693F2AEBD03EFE
:10126000CC8E693FAAA2D13E9165693F095AD23E10
:10127000323C693F4811D33EAE12693F67C8D33E46
:1012800007E9683F647FD43E3CBF683F4136D53EA6
:101290004C95683FFDECD53E396B683F99A3D63E2F
:1012A0000341683F135AD73EA816683F6B10D83EDB
:1012B0002AEC673FA3C6D83E87C1673FB97CD93EB9
:1012C000C196673FAD32DA3ED86B673F80E8DA3EC1
:1012D000CA40673F319EDB3E9915673FC153DC3EF4
:1012E00045EA663F2E09DD3ECCBE663F79BEDD3E57
:1012F0003093663FA273DE3E7167663FA928DF3EEA
:101300008E3B663F8DDDDF3E880F663F4F92E03EAD
:101310005EE3653FEE46E13E10B7653F6AFBE13EA6
:10132000A08A653FC4AFE23E0B5E653FFA63E33ED1
:101330005431653F0E18E43E7904653FFECBE43E30
:101340007BD7643FCB7FE53E59AA643F7533E63EC9
:10135000147D643FFBE6E63EAC4F643F5D9AE73E9A
:101360002122643F9C4DE83E73F4633FB700E93EA1
:10137000A1C6633FAEB3E93EAC98633F8166EA3EE7
:10138000956A633F3019EB3E5A3C633FBBCBEB3E63
:10139000FC0D633F217EEC3E7BDF623F6330ED3E20
:1013A000D7B0623F80E2ED3E1082623F7994EE3E1C
:1013B0002653623F4C46EF3E1A24623FFBF7EF3E56
:1013C000EAF4613F85A9F03E98C5613FEA5AF13ED3
:1013D0002296613F290CF23E8A66613F43BDF23E90
:1013E000D036613F386EF33EF206613F071FF43E90
:1013F000F2D6603FB1CFF43ECFA6603F3580F53ED8
:101400008976603F9330F63E2146603FCBE0F63E62
:101410009615603FDC90F73EE9E45F3FC840F83E38
:1014200019B45F3F8EF0F83E27835F3F2DA0F93E51
:1014300012525F3FA54FFA3EDB205F3FF7FEFA3EB8
:1014400081EF5E3F22AEFB3E05BE5E3F275DFC3E68
:10145000678C5E3F040CFD3EA65A5E3FBBBAFD3E64
:10146000C3285E3F4A69FE3EBEF65D3FB217FF3EAF
:1014700097C45D3FF3C5FF3E4D925D3F063A003F86
:10148000E15F5D3FFF90003F532D5D3FE4E7003F8C
:10149000A3FA5C3FB53E013FD1C75C3F7395013F66
:1014A000DD945C3F1CEC013FC7615C3FB142023FF1
:1014B0008E2E5C3F3299023F34FB5B3F9FEF023F31
:1014C000B8C75B3FF845033F1A945B3F3D9C033F21
:1014D0005A605B3F6DF2033F792C5B3F8948043FC4
:1014E00075F85A3F919E043F50C45A3F84F4043F1C
:1014F00009905A3F624A053FA05B5A3F2CA0053F26
:1015000016275A3FE2F5053F6AF2593F824B063FE4
:101510009CBD593F0EA1063FAD88593F86F6063F58
:101520009C53593FE84B073F6A1E593F36A1073F7E
:1015300017E9583F6FF6073FA1B3583F924B083F5A
:101540000B7E583FA1A0083F5348583F9BF5083FEA
:101550007912583F7F4A093F7FDC573F4E9F093F32
:1015600063A6573F09F4093F2670573FAD480A3F2D
:10157000C739573F3D9D0A3F4803573FB7F10A3FE0
:10158000A7CC563F1C460B3FE595563F6B9A0B3F49
:10159000025F563FA5EE0B3FFE27563FC9420C3F68
:1015A000D9F0553FD7960C3F93B9553FD0EA0C3F41
:1015B0002C82553FB33E0D3FA44A553F81920D3FCB
:1015C000FB12553F38E60D3F31DB543FDA390E3F11
:1015D00047A3543F658D0E3F3B6B543FDBE00E3F0E
:1015E0000F33543F3B340F3FC3FA533F84870F3FC1
:1015F00055C2533FB8DA0F3FC789533FD52D103F2F
:101600001851533FDC80103F4918533FCDD3103F52
:1016100059DF523FA726113F49A6523F6B79113F30
:10162000186D523F19CC113FC633523FB01E123FC6
:1016300054FA513F3071123FC2C0513F9AC3123F1A
:101640001087513FEE15133F3D4D513F2A68133F20
:101650004A13513F50BA133F37D9503F5F0C143FE4
:10166000039F503F585E143FAF64503F39B0143F62
:101670003B2A503F0402153FA8EF4F3FB753153F99
:10168000F4B44F3F54A5153F1F7A4F3FD9F6153F8D
:101690002B3F4F3F4748163F17044F3F9F99163F38
:1016A000E4C84E3FDFEA163F908D4E3F073C173FA0
:1016B0001C524E3F188D173F89164E3F12DE173FC2
:1016C000D5DA4D3FF52E183F029F4D3FC07F183FA2
:1016D00010634D3F73D0183FFD264D3F0F21193F3A
:1016E000CBEA4C3F9471193F79AE4C3F00C2193F91
:1016F00008724C3F55121A3F78354C3F93621A3F9F
:10170000C7F84B3FB8B21A3FF8BB4B3FC6021B3F6E
:10171000097F4B3FBB521B3FFA414B3F99A21B3FF6
:10172000CC044B3F5FF21B3F7FC74A3F0C421C3F3C
:10173000138A4A3FA2911C3F874C4A3F1FE11C3F3E
:10174000DC0E4A3F84301D3F12D1493FD17F1D3FFF
:101750002993493F06CF1D3F2155493F221E1E3F79
:10176000FA16493F266D1E3FB3D8483F12BC1E3FB4
:101770004E9A483FE50A1F3FCA5B483F9F591F3FAB
:10178000271D483F41A81F3F65DE473FCBF61F3F5F
:10179000849F473F3B45203F8560473F9393203FD1
:1017A0006721473FD2E1203F2AE2463FF92F213F00
:1017B000CEA2463F067E213F5463463FFBCB213FEE
:1017C000BB23463FD719223F03E4453F9967223F99
:1017D0002DA4453F43B5223F3964453FD302233F03
:1017E0002624453F4B50233FF5E3443FA99D233F2B
:1017F000A5A3443FEEEA233F3763443F1A38243F12
:10180000AB22443F2C85243F00E2433F25D2243FB6
:1018100038A1433F041F253F5160433FCB6B253F19
:101820004C1F433F77B8253F29DE423F0A05263F3C
:10183000E89C423F8451263F895B423FE39D263F1F
:101840000B1A423F2AEA263F70D8413F5636273FBF
:10185000B796413F6882273FE154413F61CE273F21
:10186000EC12413F401A283FDAD0403F0566283F3E
:10187000A98E403FB0B1283F5C4C403F41FD283F1E
:10188000F009403FB848293F67C73F3F1594293FBB
:10189000C0843F3F57DF293FFC413F3F802A2A3F1A
:1018A0001BFF3E3F8E752A3F1BBC3E3F82C02A3F36
:1018B000FF783E3F5B0B2B3FC5353E3F1B562B3F12
:1018C0006EF23D3FBFA02B3FF9AE3D3F4AEB2B3FB1
:1018D000676B3D3FB9352C3FB8273D3F0F802C3F0C
:1018E000ECE33C3F49CA2C3F03A03C3F69142D3F29
:1018F000FC5B3C3F6F5E2D3FD9173C3F59A82D3F05
:1019000098D33B3F29F22D3F3B8F3B3FDE3B2E3FA1
:10191000C14A3B3F78852E3F29063B3FF7CE2E3FFD
:1019200075C13A3F5B182F3FA47C3A3FA5612F3F1A
:10193000B7373A3FD3AA2F3FACF2393FE6F32F3FF8
:1019400085AD393FDE3C303F4268393FBB85303F93
:10195000E122393F7CCE303F65DD383F2217313FF1
:10196000CB97383FAD5F313F1652383F1DA8313F0E
:10197000430C383F71F0313F55C6373FAA38323FEC
:101980004A80373FC780323F233A373FC9C8323F8A
:10199000DFF3363FAF10333F7FAD363F7A58333FEA
:1019A0000467363F29A0333F6C20363FBCE7333F06
:1019B000B8D9353F342F343FE792353F8F76343FE7
:1019C000FB4B353FCFBD343FF304353FF304353F88
:1019D000CFBD343FFB4B353F8F76343FE792353FE9
:1019E000342F343FB8D9353FBCE7333F6C20363F06
:1019F00029A0333F0467363F7A58333F7FAD363FE7
:101A0000AF10333FDFF3363FC9C8323F233A373F89
:101A1000C780323F4A80373FAA38323F55C6373FEA
:101A200071F0313F430C383F1DA8313F1652383F0B
:101A3000AD5F313FCB97383F2217313F65DD383FEF
:101A40007CCE303FE122393FBB85303F4268393F91
:101A5000DE3C303F85AD393FE6F32F3FACF2393FF6
:101A6000D3AA2F3FB7373A3FA5612F3FA47C3A3F17
:101A70005B182F3F75C13A3FF7CE2E3F29063B3FFB
:101A800078852E3FC14A3B3FDE3B2E3F3B8F3B3F9D
:101A900029F22D3F98D33B3F59A82D3FD9173C3F02
:101AA0006F5E2D3FFC5B3C3F69142D3F03A03C3F24
:101AB00049CA2C3FECE33C3F0F802C3FB8273D3F09
:101AC000B9352C3F676B3D3F4AEB2B3FF9AE3D3FAD
:101AD000BFA02B3F6EF23D3F1B562B3FC5353E3F0F
:101AE0005B0B2B3FFF783E3F82C02A3F1BBC3E3F33
:101AF0008E752A3F1BFF3E3F802A2A3FFC413F3F15
:101B000057DF293FC0843F3F1594293F67C73F3FB8
:101B1000B848293FF009403F41FD283F5C4C403F19
:101B2000B0B1283FA98E403F0566283FDAD0403F3C
:101B3000401A283FEC12413F61CE273FE154413F1C
:101B40006882273FB796413F5636273F70D8413FBE
:101B50002AEA263F0B1A423FE39D263F895B423F1C
:101B60008451263FE89C423F0A05263F29DE423F3A
:101B700077B8253F4C1F433FCB6B253F5160433F18
:101B8000041F253F38A1433F25D2243F00E2433FB5
:101B90002C85243FAB22443F1A38243F3763443F0F
:101BA000EEEA233FA5A3443FA99D233FF5E3443F2D
:101BB0004B50233F2624453FD302233F3964453F02
:101BC00043B5223F2DA4453F9967223F03E4453F9B
:101BD000D719223FBB23463FFBCB213F5463463FEF
:101BE000067E213FCEA2463FF92F213F2AE2463F03
:101BF000D2E1203F6721473F9393203F8560473FD5
:101C00003B45203F849F473FCBF61F3F65DE473F64
:101C100041A81F3F271D483F9F591F3FCA5B483FB0
:101C2000E50A1F3F4E9A483F12BC1E3FB3D8483FBB
:101C3000266D1E3FFA16493F221E1E3F2155493F81
:101C400006CF1D3F2993493FD17F1D3F12D1493F08
:101C500084301D3FDC0E4A3F1FE11C3F874C4A3F4A
:101C6000A2911C3F138A4A3F0C421C3F7FC74A3F48
:101C70005FF21B3FCC044B3F99A21B3FFA414B3F05
:101C8000BB521B3F097F4B3FC6021B3FF8BB4B3F7C
:101C9000B8B21A3FC7F84B3F93621A3F78354C3FB2
:101CA00055121A3F08724C3F00C2193F79AE4C3FA3
:101CB0009471193FCBEA4C3F0F21193FFD264D3F50
:101CC00073D0183F10634D3FC07F183F029F4D3FB8
:101CD000F52E183FD5DA4D3F12DE173F89164E3FDD
:101CE000188D173F1C524E3F073C173F908D4E3FBB
:101CF000DFEA163FE4C84E3F9F99163F17044F3F57
:101D00004748163F2B3F4F3FD9F6153F1F7A4F3FAD
:101D100054A5153FF4B44F3FB753153FA8EF4F3FBD
:101D20000402153F3B2A503F39B0143FAF64503F87
:101D3000585E143F039F503F5F0C143F37D9503F0C
:101D400050BA133F4A13513F2A68133F3D4D513F4C
:101D5000EE15133F1087513F9AC3123FC2C0513F47
:101D60003071123F54FA513FB01E123FC633523FFA
:101D700019CC113F186D523F6B79113F49A6523F64
:101D8000A726113F59DF523FCDD3103F4918533F8B
:101D9000DC80103F1851533FD52D103FC789533F6A
:101DA000B8DA0F3F55C2533F84870F3FC3FA533F02
:101DB0003B340F3F0F33543FDBE00E3F3B6B543F50
:101DC000658D0E3F47A3543FDA390E3F31DB543F58
:101DD00038E60D3FFB12553F81920D3FA44A553F17
:101DE000B33E0D3F2C82553FD0EA0C3F93B9553F8F
:101DF000D7960C3FD9F0553FC9420C3FFE27563FBE
:101E0000A5EE0B3F025F563F6B9A0B3FE595563FA1
:101E10001C460B3FA7CC563FB7F10A3F4803573F3C
:101E20003D9D0A3FC739573FAD480A3F2670573F8F
:101E300009F4093F63A6573F4E9F093F7FDC573F98
:101E40007F4A093F7912583F9BF5083F5348583F56
:101E5000A1A0083F0B7E583F924B083FA1B3583FCB
:101E60006FF6073F17E9583F36A1073F6A1E593FF3
:101E7000E84B073F9C53593F86F6063FAD88593FD4
:101E80000EA1063F9CBD593F824B063F6AF2593F67
:101E9000E2F5053F16275A3F2CA0053FA05B5A3FAD
:101EA000624A053F09905A3F84F4043F50C45A3FA8
:101EB000919E043F75F85A3F8948043F792C5B3F57
:101EC0006DF2033F5A605B3F3D9C033F1A945B3FBA
:101ED000F845033FB8C75B3F9FEF023F34FB5B3FD2
:101EE0003299023F8E2E5C3FB142023FC7615C3F98
:101EF0001CEC013FDD945C3F7395013FD1C75C3F13
:101F0000B53E013FA3FA5C3FE4E7003F532D5D3F40
:101F1000FF90003FE15F5D3F063A003F4D925D3F1D
:101F2000F3C5FF3E97C45D3FB217FF3EBEF65D3F6F
:101F30004A69FE3EC3285E3FBBBAFD3EA65A5E3FDD
:101F4000040CFD3E678C5E3F275DFC3E05BE5E3F98
:101F500022AEFB3E81EF5E3FF7FEFA3EDB205F3FA5
:101F6000A54FFA3E12525F3F2DA0F93E27835F3FF7
:101F70008EF0F83E19B45F3FC840F83EE9E45F3F99
:101F8000DC90F73E9615603FCBE0F63E2146603F81
:101F90009330F63E8976603F3580F53ECFA6603FB0
:101FA000B1CFF43EF2D6603F071FF43EF206613F28
:101FB000386EF33ED036613F43BDF23E8A66613FE4
:101FC000290CF23E2296613FEA5AF13E98C5613FE4
:101FD00085A9F03EEAF4613FFBF7EF3E1A24623F29
:101FE0004C46EF3E2653623F7994EE3E1082623FAC
:101FF00080E2ED3ED7B0623F6330ED3E7BDF623F73
:10200000217EEC3EFC0D633FBBCBEB3E5A3C633F75
:102010003019EB3E956A633F8166EA3EAC98633FB8
:10202000AEB3E93EA1C6633FB700E93E73F4633F38
:102030009C4DE83E2122643F5D9AE73EAC4F643FF1
:10204000FBE6E63E147D643F7533E63E59AA643FE5
:10205000CB7FE53E7BD7643FFECBE43E7904653F12
:102060000E18E43E5431653FFA63E33E0B5E653F74
:10207000C4AFE23EA08A653F6AFBE13E10B7653F10
:10208000EE46E13E5EE3653F4F92E03E880F663FDD
:102090008DDDDF3E8E3B663FA928DF3E7167663FE0
:1020A000A273DE3E3093663F79BEDD3ECCBE663F16
:1020B0002E09DD3E45EA663FC153DC3E9915673F78
:1020C000319EDB3ECA40673F80E8DA3ED86B673F0F
:1020D000AD32DA3EC196673FB97CD93E87C1673FD2
:1020E000A3C6D83E2AEC673F6B10D83EA816683FBF
:1020F000135AD73E0341683F99A3D63E396B683FD8
:10210000FDECD53E4C95683F4136D53E3CBF683F1F
:10211000647FD43E07E9683F67C8D33EAE12693F8B
:102120004811D33E323C693F095AD23E9165693F1E
:10213000AAA2D13ECC8E693F2AEBD03EE4B7693FDC
:102140008A33D03ED7E0693FCA7BCF3EA7096A3FBA
:10215000EAC3CE3E52326A3FEA0BCE3ED95A6A3FBC
:10216000CA53CD3E3C836A3F8B9BCC3E7BAB6A3FE0
:102170002CE3CB3E95D36A3FAE2ACB3E8CFB6A3F25
:102180001072CA3E5E236B3F53B9C93E0C4B6B3F86
:102190007700C93E95726B3F7C47C83EFB996B3F09
:1021A000628EC73E3BC16B3F29D5C63E58E86B3FA8
:1021B000D21BC63E500F6C3F5C62C53E24366C3F5E
:1021C000C8A8C43ED45C6C3F15EFC33E5E836C3F31
:1021D0004435C33EC5A96C3F557BC23E07D06C3F1A
:1021E00048C1C13E24F66C3F1E07C13E1D1C6D3F19
:1021F000D54CC03EF2416D3F6F92BF3EA1676D3F2F
:10220000EBD7BE3E2D8D6D3F4A1DBE3E93B26D3F56
:102210008B62BD3ED5D76D3FAFA7BC3EF2FC6D3F94
:10222000B6ECBB3EEB216E3FA031BB3EBE466E3FDF
:102230006E76BA3E6D6B6E3F1EBBB93EF88F6E3F39
:10224000B2FFB83E5DB46E3F2A44B83E9ED86E3FA2
:102250008488B73EBAFC6E3FC3CCB63EB0206F3F19
:10226000E610B63E83446F3FEC54B53E30686F3F96
:10227000D698B43EB88B6F3FA5DCB33E1BAF6F3F23
:102280005820B33E5AD26F3FEF63B23E73F56F3FB3
:102290006BA7B13E6718703FCBEAB03E373B703F4B
:1022A000102EB03EE15D703F3A71AF3E6680703FE8
:1022B00049B4AE3EC6A2703F3CF7AD3E02C5703F8A
:1022C000153AAD3E17E7703FD47CAC3E0809713F2C
:1022D00077BFAB3ED42A713F0102AB3E7A4C713FCF
:1022E0006F44AA3EFB6D713FC486A93E578F713F74
:1022F000FEC8A83E8EB0713F1F0BA83E9FD1713F14
:10230000254DA73E8CF2713F128FA63E5213723FAD
:10231000E5D0A53EF433723F9F12A53E7054723F44
:102320003F54A43EC774723FC595A33EF894723FD4
:1023300033D7A23E04B5723F8718A23EEBD4723F5A
:10234000C259A13EACF4723FE59AA03E4714733FD8
:10235000EEDB9F3EBE33733FDF1C9F3E0E53733F49
:10236000B85D9E3E3972733F789E9D3E3F91733FAC
:1023700020DF9C3E1FB0733FAF1F9C3ED9CE733F02
:1023800027609B3E6EED733F86A09A3EDD0B743F47
:10239000CEE0993E272A743FFE20993E4B48743F79
:1023A0001661983E4966743F17A1973E2284743F98
:1023B00000E1963ED5A1743FD220963E62BF743FA5
:1023C0008D60953EC9DC743F31A0943E0BFA743F9A
:1023D000BFDF933E2717753F351F933E1D34753F72
:1023E000945E923EED50753FDD9D913E976D753F39
:1023F00010DD903E1C8A753F2C1C903E7BA6753FDD
:10240000325B8F3EB3C2753F229A8E3EC6DE753F69
:10241000FCD88D3EB3FA753FC0178D3E7A16763FD5
:102420006E568C3E1B32763F07958B3E974D763F1E
:102430008AD38A3EEC68763FF8118A3E1B84763F49
:102440005050893E249F763F938E883E07BA763F50
:10245000C1CC873EC4D4763FDA0A873E5BEF763F35
:10246000DF48863ECC09773FCE86853E1724773FEE
:10247000AAC4843E3C3E773F7002843E3A58773F80
:102480002240833E1372773FC07D823EC58B773FEB
:102490004ABB813E51A5773FC0F8803EB7BE773F2B
:1024A0002236803EF7D7773FE1E67E3E10F1773F58
:1024B00056617D3E040A783FA4DB7B3ED122783F03
:1024C000CB557A3E773B783FCCCF783EF853783F78
:1024D000A649773E526C783F5AC3753E8684783F52
:1024E000E83C743E939C783F51B6723E7BB4783F93
:1024F000942F713E3BCC783FB2A86F3ED6E3783F35
:10250000AB216E3E4AFB783F7F9A6C3E9812793F32
:102510002F136B3EBF29793FBA8B693EC040793F8C
:102520002204683E9A57793F667C663E4E6E793F3C
:1025300086F4643EDC84793F836C633E439B793F41
:102540005CE4613E83B1793F135C603E9DC7793F97
:10255000A8D35E3E91DD793F1A4B5D3E5EF3793F35
:102560006AC25B3E04097A3F97395A3E841E7A3F1D
:10257000A4B0583EDD337A3F8F27573E10497A3F4B
:10258000589E553E1C5E7A3F0115543E02737A3FB9
:10259000898B523EC1877A3FF101513E599C7A3F67
:1025A00038784F3ECBB07A3F60EE4D3E16C57A3F4D
:1025B00067644C3E3AD97A3F4FDA4A3E37ED7A3F6C
:1025C0001850493E0E017B3FC2C5473EBE147B3FBB
:1025D0004D3B463E48287B3FB9B0443EAB3B7B3F3A
:1025E0000726433EE74E7B3F379B413EFC617B3FE6
:1025F0004910403EEA747B3F3E853E3EB2877B3FBA
:1026000015FA3C3E539A7B3FCF6E3B3ECDAC7B3FB1
:102610006CE3393E20BF7B3FEC57383E4DD17B3FCA
:1026200050CC363E53E37B3F9840353E31F57B3FFF
:10263000C4B4333EE9067C3FD428323E7A187C3F4E
:10264000C99C303EE5297C3FA2102F3E283B7C3FB1
:1026500061842D3E444C7C3F04F82B3E3A5D7C3F28
:102660008D6B2A3E086E7C3FFCDE283EB07E7C3FB0
:102670005152273E318F7C3F8CC5253E8A9F7C3F3F
:10268000AD38243EBDAF7C3FB6AB223EC9BF7C3FD8
:10269000A51E213EAECF7C3F7B911F3E6CDF7C3F71
:1026A00038041E3E03EF7C3FDE761C3E73FE7C3F0B
:1026B0006BE91A3EBC0D7D3FE05B193EDD1C7D3FA2
:1026C0003DCE173ED82B7D3F8340163EAC3A7D3F32
:1026D000B2B2143E59497D3FCA24133EDE577D3FB6
:1026E000CC96113E3D667D3FB708103E74747D3F29
:1026F0008B7A0E3E85827D3F4AEC0C3E6E907D3F8C
:10270000F35D0B3E309E7D3F86CF093ECCAB7D3FD7
:102710000541083E40B97D3F6EB2063E8CC67D3F06
:10272000C223053EB2D37D3F0295033EB1E07D3F1B
:102730002E06023E88ED7D3F4577003E38FA7D3F0C
:1027400092D0FD3DC2067E3F73B2FA3D24137E3F18
:102750002C94F73D5E1F7E3FC075F43D722B7E3F8B
:102760002E57F13D5E377E3F7638EE3D23437E3F68
:102770009A19EB3DC14E7E3F9AFAE73D385A7E3FAB
:1027800076DBE43D88657E3F2EBCE13DB0707E3F48
:10279000C49CDE3DB17B7E3F377DDB3D8B867E3F3B
:1027A000895DD83D3D917E3FB93DD53DC99B7E3F7A
:1027B000C81DD23D2DA67E3FB7FDCE3D69B07E3F00
:1027C00086DDCB3D7FBA7E3F36BDC83D6DC47E3FC2
:1027D000C69CC53D34CE7E3F397CC23DD4D77E3FBA
:1027E0008D5BBF3D4CE17E3FC33ABC3D9DEA7E3FE1
:1027F000DD19B93DC7F37E3FDAF8B53DC9FC7E3F30
:10280000BBD7B23DA4057F3F80B6AF3D580E7F3F9A
:102810002B95AC3DE4167F3FBA73A93D491F7F3F1E
:102820003052A63D87277F3F8C30A33D9D2F7F3FB1
:10283000CF0EA03D8D377F3FF9EC9C3D543F7F3F4D
:102840000ACB993DF4467F3F05A9963D6D4E7F3FEB
:10285000E786933DBF557F3FB464903DE95C7F3F81
:102860006A428D3DEC637F3F0A208A3DC76A7F3F05
:1028700094FD863D7B717F3F0ADB833D08787F3F77
:102880006CB8803D6D7E7F3F742B7B3DAB847F3F7A
:10289000E9E5743DC28A7F3F38A06E3DB1907F3F2D
:1028A000625A683D78967F3F6814623D189C7F3F6E
:1028B0004CCE5B3D91A17F3F0E88553DE3A67F3F07
:1028C000AF414F3D0DAC7F3F2FFB483D0FB17F3FE8
:1028D00091B4423DEAB57F3FD56D3C3D9EBA7F3F06
:1028E000FC26363D2ABF7F3F07E02F3D8FC37F3F49
:1028F000F698293DCCC77F3FCC51233DE2CB7F3FAB
:10290000880A1D3DD1CF7F3F2CC3163D98D37F3F12
:10291000B87B103D37D77F3F2F340A3DAFDA7F3F7A
:1029200090EC033D00DE7F3FB949FB3C29E17F3F4E
:102930002DBAEE3C2BE47F3F7B2AE23C05E77F3F4C
:10294000A69AD53CB8E97F3FB00AC93C43EC7F3F2B
:102950009B7ABC3CA7EE7F3F69EAAF3CE3F07F3F48
:102960001C5AA33CF8F27F3FB6C9963CE6F47F3F81
:1029700038398A3CACF67F3F4B517B3C4AF87F3F6D
:102980000030623CC1F97F3F900E493C11FB7F3F14
:1029900002ED2F3C39FC7F3F59CB163C39FD7F3F80
:1029A0003053FB3B13FE7F3F890FC93BC4FE7F3F83
:1029B000C1CB963B4EFF7F3FC70F493BB1FF7F3FE7
:1029C000D40FC93AECFF7F3F000000000000803FB9
:1029D000D40FC9BAECFF7F3FC70F49BBB1FF7F3FA0
:1029E000C1CB96BB4EFF7F3F890FC9BBC4FE7F3F63
:1029F0003053FBBB13FE7F3F59CB16BC39FD7F3FE5
:102A000002ED2FBC39FC7F3F900E49BC11FB7F3F8C
:102A1000003062BCC1F97F3F4B517BBC4AF87F3F1D
:102A200038398ABCACF67F3FB6C996BCE6F47F3F26
:102A30001C5AA3BCF8F27F3F69EAAFBCE3F07F3FCA
:102A40009B7ABCBCA7EE7F3FB00AC9BC43EC7F3F7A
:102A5000A69AD5BCB8E97F3F7B2AE2BC05E77F3F59
:102A60002DBAEEBC2BE47F3FB949FBBC29E17F3F87
:102A700090EC03BD00DE7F3F2F340ABDAFDA7F3F0D
:102A8000B87B10BD37D77F3F2CC316BD98D37F3F8F
:102A9000880A1DBDD1CF7F3FCC5123BDE2CB7F3F04
:102AA000F69829BDCCC77F3F07E02FBD8FC37F3F7E
:102AB000FC2636BD2ABF7F3FD56D3CBD9EBA7F3F09
:102AC00091B442BDEAB57F3F2FFB48BD0FB17F3FB8
:102AD000AF414FBD0DAC7F3F0E8855BDE3A67F3F94
:102AE0004CCE5BBD91A17F3F681462BD189C7F3FB7
:102AF000625A68BD78967F3F38A06EBDB1907F3F27
:102B0000E9E574BDC28A7F3F742B7BBDAB847F3FF8
:102B10006CB880BD6D7E7F3F0ADB83BD08787F3F48
:102B200094FD86BD7B717F3F0A208ABDC76A7F3FC7
:102B30006A428DBDEC637F3FB46490BDE95C7F3F2A
:102B4000E78693BDBF557F3F05A996BD6D4E7F3F7C
:102B50000ACB99BDF4467F3FF9EC9CBD543F7F3FC3
:102B6000CF0EA0BD8D377F3F8C30A3BD9D2F7F3F03
:102B70003052A6BD87277F3FBA73A9BD491F7F3F4B
:102B80002B95ACBDE4167F3F80B6AFBD580E7F3F9E
:102B9000BBD7B2BDA4057F3FDAF8B5BDC9FC7E3F07
:102BA000DD19B9BDC7F37E3FC33ABCBD9DEA7E3F88
:102BB0008D5BBFBD4CE17E3F397CC2BDD4D77E3F2B
:102BC000C69CC5BD34CE7E3F36BDC8BD6DC47E3FFC
:102BD00086DDCBBD7FBA7E3FB7FDCEBD69B07E3FFF
:102BE000C81DD2BD2DA67E3FB93DD5BDC99B7E3F38
:102BF000895DD8BD3D917E3F377DDBBD8B867E3FB5
:102C0000C49CDEBDB17B7E3F2EBCE1BDB0707E3F7B
:102C100076DBE4BD88657E3F9AFAE7BD385A7E3F91
:102C20009A19EBBDC14E7E3F7638EEBD23437E3F01
:102C30002E57F1BD5E377E3FC075F4BD722B7E3FCF
:102C40002C94F7BD5E1F7E3F73B2FABD24137E3F06
:102C500092D0FDBDC2067E3F457700BE38FA7D3F6B
:102C60002E0602BE88ED7D3F029503BEB1E07D3F9A
:102C7000C22305BEB2D37D3F6EB206BE8CC67D3F79
:102C8000054108BE40B97D3F86CF09BECCAB7D3F34
:102C9000F35D0BBE309E7D3F4AEC0CBE6E907D3FD7
:102CA0008B7A0EBE85827D3FB70810BE74747D3F5F
:102CB000CC9611BE3D667D3FCA2413BEDE577D3FD4
:102CC000B2B214BE59497D3F834016BEAC3A7D3F37
:102CD0003DCE17BED82B7D3FE05B19BEDD1C7D3F8E
:102CE0006BE91ABEBC0D7D3FDE761CBE73FE7C3FD9
:102CF00038041EBE03EF7C3F7B911FBE6CDF7C3F20
:102D0000A51E21BEAECF7C3FB6AB22BEC9BF7C3F65
:102D1000AD3824BEBDAF7C3F8CC525BE8A9F7C3FAD
:102D2000515227BE318F7C3FFCDE28BEB07E7C3FF7
:102D30008D6B2ABE086E7C3F04F82BBE3A5D7C3F4B
:102D400061842DBE444C7C3FA2102FBE283B7C3FAB
:102D5000C99C30BEE5297C3FD42832BE7A187C3F1E
:102D6000C4B433BEE9067C3F984035BE31F57B3FA5
:102D700050CC36BE53E37B3FEC5738BE4DD17B3F42
:102D80006CE339BE20BF7B3FCF6E3BBECDAC7B3FFB
:102D900015FA3CBE539A7B3F3E853EBEB2877B3FD1
:102DA000491040BEEA747B3F379B41BEFC617B3FCC
:102DB000072643BEE74E7B3FB9B044BEAB3B7B3FEB
:102DC0004D3B46BE48287B3FC2C547BEBE147B3F35
:102DD000185049BE0E017B3F4FDA4ABE37ED7A3FAD
:102DE00067644CBE3AD97A3F60EE4DBE16C57A3F55
:102DF00038784FBECBB07A3FF10151BE599C7A3F33
:102E0000898B52BEC1877A3F011554BE02737A3F47
:102E1000589E55BE1C5E7A3F8F2757BE10497A3F99
:102E2000A4B058BEDD337A3F97395ABE841E7A3F2C
:102E30006AC25BBE04097A3F1A4B5DBE5EF3793FFE
:102E4000A8D35EBE91DD793F135C60BE9DC7793F1C
:102E50005CE461BE83B1793F836C63BE439B793F81
:102E600086F464BEDC84793F667C66BE4E6E793F34
:102E7000220468BE9A57793FBA8B69BEC040793F39
:102E80002F136BBEBF29793F7F9A6CBE9812793F92
:102E9000AB216EBE4AFB783FB2A86FBED6E3783F47
:102EA000942F71BE3BCC783F51B672BE7BB4783F55
:102EB000E83C74BE939C783F5AC375BE8684783FC5
:102EC000A64977BE526C783FCCCF78BEF853783F96
:102ED000CB557ABE773B783FA4DB7BBED122783FCF
:102EE00056617DBE040A783FE1E67EBE10F1773F71
:102EF000223680BEF7D7773FC0F880BEB7BE773F97
:102F00004ABB81BE51A5773FC07D82BEC58B773F4E
:102F1000224083BE1372773F700284BE3A58773FD7
:102F2000AAC484BE3C3E773FCE8685BE1724773F39
:102F3000DF4886BECC09773FDA0A87BE5BEF763F73
:102F4000C1CC87BEC4D4763F938E88BE07BA763F85
:102F5000505089BE249F763FF8118ABE1B84763F6D
:102F60008AD38ABEEC68763F07958BBE974D763F35
:102F70006E568CBE1B32763FC0178DBE7A16763FDA
:102F8000FCD88DBEB3FA753F229A8EBEC6DE753F61
:102F9000325B8FBEB3C2753F2C1C90BE7BA6753FC3
:102FA00010DD90BE1C8A753FDD9D91BE976D753F0B
:102FB000945E92BEED50753F351F93BE1D34753F34
:102FC000BFDF93BE2717753F31A094BE0BFA743F45
:102FD0008D6095BEC9DC743FD22096BE62BF743F3F
:102FE00000E196BED5A1743F17A197BE2284743F1D
:102FF000166198BE4966743FFE2099BE4B48743FE7
:10300000CEE099BE272A743F86A09ABEDD0B743F9E
:1030100027609BBE6EED733FAF1F9CBED9CE733F42
:1030200020DF9CBE1FB0733F789E9DBE3F91733FD3
:10303000B85D9EBE3972733FDF1C9FBE0E53733F57
:10304000EEDB9FBEBE33733FE59AA0BE4714733FCD
:10305000C259A1BEACF4723F8718A2BEEBD4723F36
:1030600033D7A2BE04B5723FC595A3BEF894723F94
:103070003F54A4BEC774723F9F12A5BE7054723FE6
:10308000E5D0A5BEF433723F128FA6BE5213723F35
:10309000254DA7BE8CF2713F1F0BA8BE9FD1713F7B
:1030A000FEC8A8BE8EB0713FC486A9BE578F713FBF
:1030B0006F44AABEFB6D713F0102ABBE7A4C713FFB
:1030C00077BFABBED42A713FD47CACBE0809713F38
:1030D000153AADBE17E7703F3CF7ADBE02C5703F75
:1030E00049B4AEBEC6A2703F3A71AFBE6680703FB3
:1030F000102EB0BEE15D703FCBEAB0BE373B703FF3
:103100006BA7B1BE6718703FEF63B2BE73F56F3F38
:103110005820B3BE5AD26F3FA5DCB3BE1BAF6F3F82
:10312000D698B4BEB88B6F3FEC54B5BE30686F3FD5
:10313000E610B6BE83446F3FC3CCB6BEB0206F3F2F
:103140008488B7BEBAFC6E3F2A44B8BE9ED86E3F94
:10315000B2FFB8BE5DB46E3F1EBBB9BEF88F6E3F06
:103160006E76BABE6D6B6E3FA031BBBEBE466E3F83
:10317000B6ECBBBEEB216E3FAFA7BCBEF2FC6D3F11
:103180008B62BDBED5D76D3F4A1DBEBE93B26D3FAB
:10319000EBD7BEBE2D8D6D3F6F92BFBEA1676D3F59
:1031A000D54CC0BEF2416D3F1E07C1BE1D1C6D3F18
:1031B00048C1C1BE24F66C3F557BC2BE07D06C3FF0
:1031C0004435C3BEC5A96C3F15EFC3BE5E836C3FDB
:1031D000C8A8C4BED45C6C3F5C62C5BE24366C3FDC
:1031E000D21BC6BE500F6C3F29D5C6BE58E86B3FF8
:1031F000628EC7BE3BC16B3F7C47C8BEFB996B3F2D
:103200007700C9BE95726B3F53B9C9BE0C4B6B3F7B
:103210001072CABE5E236B3FAE2ACBBE8CFB6A3FE8
:103220002CE3CBBE95D36A3F8B9BCCBE7BAB6A3F76
:10323000CA53CDBE3C836A3FEA0BCEBED95A6A3F21
:10324000EAC3CEBE52326A3FCA7BCFBEA7096A3FED
:103250008A33D0BED7E0693F2AEBD0BEE4B7693FDE
:10326000AAA2D1BECC8E693F095AD2BE9165693FF0
:103270004811D3BE323C693F67C8D3BEAE12693F26
:10328000647FD4BE07E9683F4136D5BE3CBF683F86
:10329000FDECD5BE4C95683F99A3D6BE396B683F0F
:1032A000135AD7BE0341683F6B10D8BEA816683FBB
:1032B000A3C6D8BE2AEC673FB97CD9BE87C1673F99
:1032C000AD32DABEC196673F80E8DABED86B673FA1
:1032D000319EDBBECA40673FC153DCBE9915673FD4
:1032E0002E09DDBE45EA663F79BEDDBECCBE663F37
:1032F000A273DEBE3093663FA928DFBE7167663FCA
:103300008DDDDFBE8E3B663F4F92E0BE880F663F8D
:10331000EE46E1BE5EE3653F6AFBE1BE10B7653F86
:10332000C4AFE2BEA08A653FFA63E3BE0B5E653FB1
:103330000E18E4BE5431653FFECBE4BE7904653F10
:10334000CB7FE5BE7BD7643F7533E6BE59AA643FA9
:10335000FBE6E6BE147D643F5D9AE7BEAC4F643F7A
:103360009C4DE8BE2122643FB700E9BE73F4633F81
:10337000AEB3E9BEA1C6633F8166EABEAC98633FC7
:103380003019EBBE956A633FBBCBEBBE5A3C633F43
:10339000217EECBEFC0D633F6330EDBE7BDF623F00
:1033A00080E2EDBED7B0623F7994EEBE1082623FFC
:1033B0004C46EFBE2653623FFBF7EFBE1A24623F36
:1033C00085A9F0BEEAF4613FEA5AF1BE98C5613FB3
:1033D000290CF2BE2296613F43BDF2BE8A66613F70
:1033E000386EF3BED036613F071FF4BEF206613F70
:1033F000B1CFF4BEF2D6603F3580F5BECFA6603FB8
:103400009330F6BE8976603FCBE0F6BE2146603F42
:10341000DC90F7BE9615603FC840F8BEE9E45F3F18
:103420008EF0F8BE19B45F3F2DA0F9BE27835F3F31
:10343000A54FFABE12525F3FF7FEFABEDB205F3F98
:1034400022AEFBBE81EF5E3F275DFCBE05BE5E3F48
:10345000040CFDBE678C5E3FBBBAFDBEA65A5E3F44
:103460004A69FEBEC3285E3FB217FFBEBEF65D3F8F
:10347000F3C5FFBE97C45D3F063A00BF4D925D3F66
:10348000FF9000BFE15F5D3FE4E700BF532D5D3F6C
:10349000B53E01BFA3FA5C3F739501BFD1C75C3F46
:1034A0001CEC01BFDD945C3FB14202BFC7615C3FD1
:1034B000329902BF8E2E5C3F9FEF02BF34FB5B3F11
:1034C000F84503BFB8C75B3F3D9C03BF1A945B3F01
:1034D0006DF203BF5A605B3F894804BF792C5B3FA4
:1034E000919E04BF75F85A3F84F404BF50C45A3FFC
:1034F000624A05BF09905A3F2CA005BFA05B5A3F06
:10350000E2F505BF16275A3F824B06BF6AF2593FC4
:103510000EA106BF9CBD593F86F606BFAD88593F38
:10352000E84B07BF9C53593F36A107BF6A1E593F5E
:103530006FF607BF17E9583F924B08BFA1B3583F3A
:10354000A1A008BF0B7E583F9BF508BF5348583FCA
:103550007F4A09BF7912583F4E9F09BF7FDC573F12
:1035600009F409BF63A6573FAD480ABF2670573F0D
:103570003D9D0ABFC739573FB7F10ABF4803573FC0
:103580001C460BBFA7CC563F6B9A0BBFE595563F29
:10359000A5EE0BBF025F563FC9420CBFFE27563F48
:1035A000D7960CBFD9F0553FD0EA0CBF93B9553F21
:1035B000B33E0DBF2C82553F81920DBFA44A553FAB
:1035C00038E60DBFFB12553FDA390EBF31DB543FF1
:1035D000658D0EBF47A3543FDBE00EBF3B6B543FEE
:1035E0003B340FBF0F33543F84870FBFC3FA533FA1
:1035F000B8DA0FBF55C2533FD52D10BFC789533F0F
:10360000DC8010BF1851533FCDD310BF4918533F32
:10361000A72611BF59DF523F6B7911BF49A6523F10
:1036200019CC11BF186D523FB01E12BFC633523FA6
:10363000307112BF54FA513F9AC312BFC2C0513FFA
:10364000EE1513BF1087513F2A6813BF3D4D513F00
:1036500050BA13BF4A13513F5F0C14BF37D9503FC4
:10366000585E14BF039F503F39B014BFAF64503F42
:10367000040215BF3B2A503FB75315BFA8EF4F3F79
:1036800054A515BFF4B44F3FD9F615BF1F7A4F3F6D
:10369000474816BF2B3F4F3F9F9916BF17044F3F18
:1036A000DFEA16BFE4C84E3F073C17BF908D4E3F80
:1036B000188D17BF1C524E3F12DE17BF89164E3FA2
:1036C000F52E18BFD5DA4D3FC07F18BF029F4D3F82
:1036D00073D018BF10634D3F0F2119BFFD264D3F1A
:1036E000947119BFCBEA4C3F00C219BF79AE4C3F71
:1036F00055121ABF08724C3F93621ABF78354C3F7F
:10370000B8B21ABFC7F84B3FC6021BBFF8BB4B3F4E
:10371000BB521BBF097F4B3F99A21BBFFA414B3FD6
:103720005FF21BBFCC044B3F0C421CBF7FC74A3F1C
:10373000A2911CBF138A4A3F1FE11CBF874C4A3F1E
:1037400084301DBFDC0E4A3FD17F1DBF12D1493FDF
:1037500006CF1DBF2993493F221E1EBF2155493F59
:10376000266D1EBFFA16493F12BC1EBFB3D8483F94
:10377000E50A1FBF4E9A483F9F591FBFCA5B483F8B
:1037800041A81FBF271D483FCBF61FBF65DE473F3F
:103790003B4520BF849F473F939320BF8560473FB1
:1037A000D2E120BF6721473FF92F21BF2AE2463FE0
:1037B000067E21BFCEA2463FFBCB21BF5463463FCE
:1037C000D71922BFBB23463F996722BF03E4453F79
:1037D00043B522BF2DA4453FD30223BF3964453FE3
:1037E0004B5023BF2624453FA99D23BFF5E3443F0B
:1037F000EEEA23BFA5A3443F1A3824BF3763443FF2
:103800002C8524BFAB22443F25D224BF00E2433F96
:10381000041F25BF38A1433FCB6B25BF5160433FF9
:1038200077B825BF4C1F433F0A0526BF29DE423F1C
:10383000845126BFE89C423FE39D26BF895B423FFF
:103840002AEA26BF0B1A423F563627BF70D8413F9F
:10385000688227BFB796413F61CE27BFE154413F01
:10386000401A28BFEC12413F056628BFDAD0403F1E
:10387000B0B128BFA98E403F41FD28BF5C4C403FFE
:10388000B84829BFF009403F159429BF67C73F3F9B
:1038900057DF29BFC0843F3F802A2ABFFC413F3FFA
:1038A0008E752ABF1BFF3E3F82C02ABF1BBC3E3F16
:1038B0005B0B2BBFFF783E3F1B562BBFC5353E3FF2
:1038C000BFA02BBF6EF23D3F4AEB2BBFF9AE3D3F91
:1038D000B9352CBF676B3D3F0F802CBFB8273D3FEC
:1038E00049CA2CBFECE33C3F69142DBF03A03C3F09
:1038F0006F5E2DBFFC5B3C3F59A82DBFD9173C3FE5
:1039000029F22DBF98D33B3FDE3B2EBF3B8F3B3F81
:1039100078852EBFC14A3B3FF7CE2EBF29063B3FDD
:103920005B182FBF75C13A3FA5612FBFA47C3A3FFA
:10393000D3AA2FBFB7373A3FE6F32FBFACF2393FD8
:10394000DE3C30BF85AD393FBB8530BF4268393F73
:103950007CCE30BFE122393F221731BF65DD383FD1
:10396000AD5F31BFCB97383F1DA831BF1652383FEE
:1039700071F031BF430C383FAA3832BF55C6373FCC
:10398000C78032BF4A80373FC9C832BF233A373F6A
:10399000AF1033BFDFF3363F7A5833BF7FAD363FCA
:1039A00029A033BF0467363FBCE733BF6C20363FE6
:1039B000342F34BFB8D9353F8F7634BFE792353FC7
:1039C000CFBD34BFFB4B353FF30435BFF304353F68
:1039D000FB4B35BFCFBD343FE79235BF8F76343FC9
:1039E000B8D935BF342F343F6C2036BFBCE7333FE6
:1039F000046736BF29A0333F7FAD36BF7A58333FC7
:103A0000DFF336BFAF10333F233A37BFC9C8323F69
:103A10004A8037BFC780323F55C637BFAA38323FCA
:103A2000430C38BF71F0313F165238BF1DA8313FEB
:103A3000CB9738BFAD5F313F65DD38BF2217313FCF
:103A4000E12239BF7CCE303F426839BFBB85303F71
:103A500085AD39BFDE3C303FACF239BFE6F32F3FD6
:103A6000B7373ABFD3AA2F3FA47C3ABFA5612F3FF7
:103A700075C13ABF5B182F3F29063BBFF7CE2E3FDB
:103A8000C14A3BBF78852E3F3B8F3BBFDE3B2E3F7D
:103A900098D33BBF29F22D3FD9173CBF59A82D3FE2
:103AA000FC5B3CBF6F5E2D3F03A03CBF69142D3F04
:103AB000ECE33CBF49CA2C3FB8273DBF0F802C3FE9
:103AC000676B3DBFB9352C3FF9AE3DBF4AEB2B3F8D
:103AD0006EF23DBFBFA02B3FC5353EBF1B562B3FEF
:103AE000FF783EBF5B0B2B3F1BBC3EBF82C02A3F13
:103AF0001BFF3EBF8E752A3FFC413FBF802A2A3FF5
:103B0000C0843FBF57DF293F67C73FBF1594293F98
:103B1000F00940BFB848293F5C4C40BF41FD283FF9
:103B2000A98E40BFB0B1283FDAD040BF0566283F1C
:103B3000EC1241BF401A283FE15441BF61CE273FFC
:103B4000B79641BF6882273F70D841BF5636273F9E
:103B50000B1A42BF2AEA263F895B42BFE39D263FFC
:103B6000E89C42BF8451263F29DE42BF0A05263F1A
:103B70004C1F43BF77B8253F516043BFCB6B253FF8
:103B800038A143BF041F253F00E243BF25D2243F95
:103B9000AB2244BF2C85243F376344BF1A38243FEF
:103BA000A5A344BFEEEA233FF5E344BFA99D233F0D
:103BB000262445BF4B50233F396445BFD302233FE2
:103BC0002DA445BF43B5223F03E445BF9967223F7B
:103BD000BB2346BFD719223F546346BFFBCB213FCF
:103BE000CEA246BF067E213F2AE246BFF92F213FE3
:103BF000672147BFD2E1203F856047BF9393203FB5
:103C0000849F47BF3B45203F65DE47BFCBF61F3F44
:103C1000271D48BF41A81F3FCA5B48BF9F591F3F90
:103C20004E9A48BFE50A1F3FB3D848BF12BC1E3F9B
:103C3000FA1649BF266D1E3F215549BF221E1E3F61
:103C4000299349BF06CF1D3F12D149BFD17F1D3FE8
:103C5000DC0E4ABF84301D3F874C4ABF1FE11C3F2A
:103C6000138A4ABFA2911C3F7FC74ABF0C421C3F28
:103C7000CC044BBF5FF21B3FFA414BBF99A21B3FE5
:103C8000097F4BBFBB521B3FF8BB4BBFC6021B3F5C
:103C9000C7F84BBFB8B21A3F78354CBF93621A3F92
:103CA00008724CBF55121A3F79AE4CBF00C2193F83
:103CB000CBEA4CBF9471193FFD264DBF0F21193F30
:103CC00010634DBF73D0183F029F4DBFC07F183F98
:103CD000D5DA4DBFF52E183F89164EBF12DE173FBD
:103CE0001C524EBF188D173F908D4EBF073C173F9B
:103CF000E4C84EBFDFEA163F17044FBF9F99163F37
:103D00002B3F4FBF4748163F1F7A4FBFD9F6153F8D
:103D1000F4B44FBF54A5153FA8EF4FBFB753153F9D
:103D20003B2A50BF0402153FAF6450BF39B0143F67
:103D3000039F50BF585E143F37D950BF5F0C143FEC
:103D40004A1351BF50BA133F3D4D51BF2A68133F2C
:103D5000108751BFEE15133FC2C051BF9AC3123F27
:103D600054FA51BF3071123FC63352BFB01E123FDA
:103D7000186D52BF19CC113F49A652BF6B79113F44
:103D800059DF52BFA726113F491853BFCDD3103F6B
:103D9000185153BFDC80103FC78953BFD52D103F4A
:103DA00055C253BFB8DA0F3FC3FA53BF84870F3FE2
:103DB0000F3354BF3B340F3F3B6B54BFDBE00E3F30
:103DC00047A354BF658D0E3F31DB54BFDA390E3F38
:103DD000FB1255BF38E60D3FA44A55BF81920D3FF7
:103DE0002C8255BFB33E0D3F93B955BFD0EA0C3F6F
:103DF000D9F055BFD7960C3FFE2756BFC9420C3F9E
:103E0000025F56BFA5EE0B3FE59556BF6B9A0B3F81
:103E1000A7CC56BF1C460B3F480357BFB7F10A3F1C
:103E2000C73957BF3D9D0A3F267057BFAD480A3F6F
:103E300063A657BF09F4093F7FDC57BF4E9F093F78
:103E4000791258BF7F4A093F534858BF9BF5083F36
:103E50000B7E58BFA1A0083FA1B358BF924B083FAB
:103E600017E958BF6FF6073F6A1E59BF36A1073FD3
:103E70009C5359BFE84B073FAD8859BF86F6063FB4
:103E80009CBD59BF0EA1063F6AF259BF824B063F47
:103E900016275ABFE2F5053FA05B5ABF2CA0053F8D
:103EA00009905ABF624A053F50C45ABF84F4043F88
:103EB00075F85ABF919E043F792C5BBF8948043F37
:103EC0005A605BBF6DF2033F1A945BBF3D9C033F9A
:103ED000B8C75BBFF845033F34FB5BBF9FEF023FB2
:103EE0008E2E5CBF3299023FC7615CBFB142023F78
:103EF000DD945CBF1CEC013FD1C75CBF7395013FF3
:103F0000A3FA5CBFB53E013F532D5DBFE4E7003F20
:103F1000E15F5DBFFF90003F4D925DBF063A003FFD
:103F200097C45DBFF3C5FF3EBEF65DBFB217FF3E4F
:103F3000C3285EBF4A69FE3EA65A5EBFBBBAFD3EBD
:103F4000678C5EBF040CFD3E05BE5EBF275DFC3E78
:103F500081EF5EBF22AEFB3EDB205FBFF7FEFA3E85
:103F600012525FBFA54FFA3E27835FBF2DA0F93ED7
:103F700019B45FBF8EF0F83EE9E45FBFC840F83E79
:103F8000961560BFDC90F73E214660BFCBE0F63E61
:103F9000897660BF9330F63ECFA660BF3580F53E90
:103FA000F2D660BFB1CFF43EF20661BF071FF43E08
:103FB000D03661BF386EF33E8A6661BF43BDF23EC4
:103FC000229661BF290CF23E98C561BFEA5AF13EC4
:103FD000EAF461BF85A9F03E1A2462BFFBF7EF3E09
:103FE000265362BF4C46EF3E108262BF7994EE3E8C
:103FF000D7B062BF80E2ED3E7BDF62BF6330ED3E53
:10400000FC0D63BF217EEC3E5A3C63BFBBCBEB3E55
:10401000956A63BF3019EB3EAC9863BF8166EA3E98
:10402000A1C663BFAEB3E93E73F463BFB700E93E18
:10403000212264BF9C4DE83EAC4F64BF5D9AE73ED1
:10404000147D64BFFBE6E63E59AA64BF7533E63EC5
:104050007BD764BFCB7FE53E790465BFFECBE43EF2
:10406000543165BF0E18E43E0B5E65BFFA63E33E54
:10407000A08A65BFC4AFE23E10B765BF6AFBE13EF0
:104080005EE365BFEE46E13E880F66BF4F92E03EBD
:104090008E3B66BF8DDDDF3E716766BFA928DF3EC0
:1040A000309366BFA273DE3ECCBE66BF79BEDD3EF6
:1040B00045EA66BF2E09DD3E991567BFC153DC3E58
:1040C000CA4067BF319EDB3ED86B67BF80E8DA3EEF
:1040D000C19667BFAD32DA3E87C167BFB97CD93EB2
:1040E0002AEC67BFA3C6D83EA81668BF6B10D83E9F
:1040F000034168BF135AD73E396B68BF99A3D63EB8
:104100004C9568BFFDECD53E3CBF68BF4136D53EFF
:1041100007E968BF647FD43EAE1269BF67C8D33E6B
:10412000323C69BF4811D33E916569BF095AD23EFE
:10413000CC8E69BFAAA2D13EE4B769BF2AEBD03EBC
:10414000D7E069BF8A33D03EA7096ABFCA7BCF3E9A
:1041500052326ABFEAC3CE3ED95A6ABFEA0BCE3E9C
:104160003C836ABFCA53CD3E7BAB6ABF8B9BCC3EC0
:1041700095D36ABF2CE3CB3E8CFB6ABFAE2ACB3E05
:104180005E236BBF1072CA3E0C4B6BBF53B9C93E66
:1041900095726BBF7700C93EFB996BBF7C47C83EE9
:1041A0003BC16BBF628EC73E58E86BBF29D5C63E88
:1041B000500F6CBFD21BC63E24366CBF5C62C53E3E
:1041C000D45C6CBFC8A8C43E5E836CBF15EFC33E11
:1041D000C5A96CBF4435C33E07D06CBF557BC23EFA
:1041E00024F66CBF48C1C13E1D1C6DBF1E07C13EF9
:1041F000F2416DBFD54CC03EA1676DBF6F92BF3E0F
:104200002D8D6DBFEBD7BE3E93B26DBF4A1DBE3E36
:10421000D5D76DBF8B62BD3EF2FC6DBFAFA7BC3E74
:10422000EB216EBFB6ECBB3EBE466EBFA031BB3EBF
:104230006D6B6EBF6E76BA3EF88F6EBF1EBBB93E19
:104240005DB46EBFB2FFB83E9ED86EBF2A44B83E82
:10425000BAFC6EBF8488B73EB0206FBFC3CCB63EF9
:1042600083446FBFE610B63E30686FBFEC54B53E76
:10427000B88B6FBFD698B43E1BAF6FBFA5DCB33E03
:104280005AD26FBF5820B33E73F56FBFEF63B23E93
:10429000671870BF6BA7B13E373B70BFCBEAB03E2B
:1042A000E15D70BF102EB03E668070BF3A71AF3EC8
:1042B000C6A270BF49B4AE3E02C570BF3CF7AD3E6A
:1042C00017E770BF153AAD3E080971BFD47CAC3E0C
:1042D000D42A71BF77BFAB3E7A4C71BF0102AB3EAF
:1042E000FB6D71BF6F44AA3E578F71BFC486A93E54
:1042F0008EB071BFFEC8A83E9FD171BF1F0BA83EF4
:104300008CF271BF254DA73E521372BF128FA63E8D
:10431000F43372BFE5D0A53E705472BF9F12A53E24
:10432000C77472BF3F54A43EF89472BFC595A33EB4
:1043300004B572BF33D7A23EEBD472BF8718A23E3A
:10434000ACF472BFC259A13E471473BFE59AA03EB8
:10435000BE3373BFEEDB9F3E0E5373BFDF1C9F3E29
:10436000397273BFB85D9E3E3F9173BF789E9D3E8C
:104370001FB073BF20DF9C3ED9CE73BFAF1F9C3EE2
:104380006EED73BF27609B3EDD0B74BF86A09A3E27
:10439000272A74BFCEE0993E4B4874BFFE20993E59
:1043A000496674BF1661983E228474BF17A1973E78
:1043B000D5A174BF00E1963E62BF74BFD220963E85
:1043C000C9DC74BF8D60953E0BFA74BF31A0943E7A
:1043D000271775BFBFDF933E1D3475BF351F933E52
:1043E000ED5075BF945E923E976D75BFDD9D913E19
:1043F0001C8A75BF10DD903E7BA675BF2C1C903EBD
:10440000B3C275BF325B8F3EC6DE75BF229A8E3E49
:10441000B3FA75BFFCD88D3E7A1676BFC0178D3EB5
:104420001B3276BF6E568C3E974D76BF07958B3EFE
:10443000EC6876BF8AD38A3E1B8476BFF8118A3E29
:10444000249F76BF5050893E07BA76BF938E883E30
:10445000C4D476BFC1CC873E5BEF76BFDA0A873E15
:10446000CC0977BFDF48863E172477BFCE86853ECE
:104470003C3E77BFAAC4843E3A5877BF7002843E60
:10448000137277BF2240833EC58B77BFC07D823ECB
:1044900051A577BF4ABB813EB7BE77BFC0F8803E0B
:1044A000F7D777BF2236803E10F177BFE1E67E3E38
:1044B000040A78BF56617D3ED12278BFA4DB7B3EE3
:1044C000773B78BFCB557A3EF85378BFCCCF783E58
:1044D000526C78BFA649773E868478BF5AC3753E32
:1044E000939C78BFE83C743E7BB478BF51B6723E73
:1044F0003BCC78BF942F713ED6E378BFB2A86F3E15
:104500004AFB78BFAB216E3E981279BF7F9A6C3E12
:10451000BF2979BF2F136B3EC04079BFBA8B693E6C
:104520009A5779BF2204683E4E6E79BF667C663E1C
:10453000DC8479BF86F4643E439B79BF836C633E21
:1045400083B179BF5CE4613E9DC779BF135C603E77
:1045500091DD79BFA8D35E3E5EF379BF1A4B5D3E15
:1045600004097ABF6AC25B3E841E7ABF97395A3EFD
:10457000DD337ABFA4B0583E10497ABF8F27573E2B
:104580001C5E7ABF589E553E02737ABF0115543E99
:10459000C1877ABF898B523E599C7ABFF101513E47
:1045A000CBB07ABF38784F3E16C57ABF60EE4D3E2D
:1045B0003AD97ABF67644C3E37ED7ABF4FDA4A3E4C
:1045C0000E017BBF1850493EBE147BBFC2C5473E9B
:1045D00048287BBF4D3B463EAB3B7BBFB9B0443E1A
:1045E000E74E7BBF0726433EFC617BBF379B413EC6
:1045F000EA747BBF4910403EB2877BBF3E853E3E9A
:10460000539A7BBF15FA3C3ECDAC7BBFCF6E3B3E91
:1046100020BF7BBF6CE3393E4DD17BBFEC57383EAA
:1046200053E37BBF50CC363E31F57BBF9840353EDF
:10463000E9067CBFC4B4333E7A187CBFD428323E2E
:10464000E5297CBFC99C303E283B7CBFA2102F3E91
:10465000444C7CBF61842D3E3A5D7CBF04F82B3E08
:10466000086E7CBF8D6B2A3EB07E7CBFFCDE283E90
:10467000318F7CBF5152273E8A9F7CBF8CC5253E1F
:10468000BDAF7CBFAD38243EC9BF7CBFB6AB223EB8
:10469000AECF7CBFA51E213E6CDF7CBF7B911F3E51
:1046A00003EF7CBF38041E3E73FE7CBFDE761C3EEB
:1046B000BC0D7DBF6BE91A3EDD1C7DBFE05B193E82
:1046C000D82B7DBF3DCE173EAC3A7DBF8340163E12
:1046D00059497DBFB2B2143EDE577DBFCA24133E96
:1046E0003D667DBFCC96113E74747DBFB708103E09
:1046F00085827DBF8B7A0E3E6E907DBF4AEC0C3E6C
:10470000309E7DBFF35D0B3ECCAB7DBF86CF093EB7
:1047100040B97DBF0541083E8CC67DBF6EB2063EE6
:10472000B2D37DBFC223053EB1E07DBF0295033EFB
:1047300088ED7DBF2E06023E38FA7DBF4577003EEC
:10474000C2067EBF92D0FD3D24137EBF73B2FA3DF8
:104750005E1F7EBF2C94F73D722B7EBFC075F43D6B
:104760005E377EBF2E57F13D23437EBF7638EE3D48
:10477000C14E7EBF9A19EB3D385A7EBF9AFAE73D8B
:1047800088657EBF76DBE43DB0707EBF2EBCE13D28
:10479000B17B7EBFC49CDE3D8B867EBF377DDB3D1B
:1047A0003D917EBF895DD83DC99B7EBFB93DD53D5A
:1047B0002DA67EBFC81DD23D69B07EBFB7FDCE3DE0
:1047C0007FBA7EBF86DDCB3D6DC47EBF36BDC83DA2
:1047D00034CE7EBFC69CC53DD4D77EBF397CC23D9A
:1047E0004CE17EBF8D5BBF3D9DEA7EBFC33ABC3DC1
:1047F000C7F37EBFDD19B93DC9FC7EBFDAF8B53D10
:10480000A4057FBFBBD7B23D580E7FBF80B6AF3D7A
:10481000E4167FBF2B95AC3D491F7FBFBA73A93DFE
:1048200087277FBF3052A63D9D2F7FBF8C30A33D91
:104830008D377FBFCF0EA03D543F7FBFF9EC9C3D2D
:10484000F4467FBF0ACB993D6D4E7FBF05A9963DCB
:10485000BF557FBFE786933DE95C7FBFB464903D61
:10486000EC637FBF6A428D3DC76A7FBF0A208A3DE5
:104870007B717FBF94FD863D08787FBF0ADB833D57
:104880006D7E7FBF6CB8803DAB847FBF742B7B3D5A
:10489000C28A7FBFE9E5743DB1907FBF38A06E3D0D
:1048A00078967FBF625A683D189C7FBF6814623D4E
:1048B00091A17FBF4CCE5B3DE3A67FBF0E88553DE7
:1048C0000DAC7FBFAF414F3D0FB17FBF2FFB483DC8
:1048D000EAB57FBF91B4423D9EBA7FBFD56D3C3DE6
:1048E0002ABF7FBFFC26363D8FC37FBF07E02F3D29
:1048F000CCC77FBFF698293DE2CB7FBFCC51233D8B
:10490000D1CF7FBF880A1D3D98D37FBF2CC3163DF2
:1049100037D77FBFB87B103DAFDA7FBF2F340A3D5A
:1049200000DE7FBF90EC033D29E17FBFB949FB3C2E
:104930002BE47FBF2DBAEE3C05E77FBF7B2AE23C2C
:10494000B8E97FBFA69AD53C43EC7FBFB00AC93C0B
:10495000A7EE7FBF9B7ABC3CE3F07FBF69EAAF3C28
:10496000F8F27FBF1C5AA33CE6F47FBFB6C9963C61
:10497000ACF67FBF38398A3C4AF87FBF4B517B3C4D
:10498000C1F97FBF0030623C11FB7FBF900E493CF4
:1049900039FC7FBF02ED2F3C39FD7FBF59CB163C60
:1049A00013FE7FBF3053FB3BC4FE7FBF890FC93B63
:1049B0004EFF7FBFC1CB963BB1FF7FBFC70F493BC7
:1049C000ECFF7FBFD40FC93A000080BF0000000099
:1049D000ECFF7FBFD40FC9BAB1FF7FBFC70F49BB80
:1049E0004EFF7FBFC1CB96BBC4FE7FBF890FC9BB43
:1049F00013FE7FBF3053FBBB39FD7FBF59CB16BCC5
:104A000039FC7FBF02ED2FBC11FB7FBF900E49BC6C
:104A1000C1F97FBF003062BC4AF87FBF4B517BBCFD
:104A2000ACF67FBF38398ABCE6F47FBFB6C996BC06
:104A3000F8F27FBF1C5AA3BCE3F07FBF69EAAFBCAA
:104A4000A7EE7FBF9B7ABCBC43EC7FBFB00AC9BC5A
:104A5000B8E97FBFA69AD5BC05E77FBF7B2AE2BC39
:104A60002BE47FBF2DBAEEBC29E17FBFB949FBBC67
:104A700000DE7FBF90EC03BDAFDA7FBF2F340ABDED
:104A800037D77FBFB87B10BD98D37FBF2CC316BD6F
:104A9000D1CF7FBF880A1DBDE2CB7FBFCC5123BDE4
:104AA000CCC77FBFF69829BD8FC37FBF07E02FBD5E
:104AB0002ABF7FBFFC2636BD9EBA7FBFD56D3CBDE9
:104AC000EAB57FBF91B442BD0FB17FBF2FFB48BD98
:104AD0000DAC7FBFAF414FBDE3A67FBF0E8855BD74
:104AE00091A17FBF4CCE5BBD189C7FBF681462BD97
:104AF00078967FBF625A68BDB1907FBF38A06EBD07
:104B0000C28A7FBFE9E574BDAB847FBF742B7BBDD8
:104B10006D7E7FBF6CB880BD08787FBF0ADB83BD28
:104B20007B717FBF94FD86BDC76A7FBF0A208ABDA7
:104B3000EC637FBF6A428DBDE95C7FBFB46490BD0A
:104B4000BF557FBFE78693BD6D4E7FBF05A996BD5C
:104B5000F4467FBF0ACB99BD543F7FBFF9EC9CBDA3
:104B60008D377FBFCF0EA0BD9D2F7FBF8C30A3BDE3
:104B700087277FBF3052A6BD491F7FBFBA73A9BD2B
:104B8000E4167FBF2B95ACBD580E7FBF80B6AFBD7E
:104B9000A4057FBFBBD7B2BDC9FC7EBFDAF8B5BDE7
:104BA000C7F37EBFDD19B9BD9DEA7EBFC33ABCBD68
:104BB0004CE17EBF8D5BBFBDD4D77EBF397CC2BD0B
:104BC00034CE7EBFC69CC5BD6DC47EBF36BDC8BDDC
:104BD0007FBA7EBF86DDCBBD69B07EBFB7FDCEBDDF
:104BE0002DA67EBFC81DD2BDC99B7EBFB93DD5BD18
:104BF0003D917EBF895DD8BD8B867EBF377DDBBD95
:104C0000B17B7EBFC49CDEBDB0707EBF2EBCE1BD5B
:104C100088657EBF76DBE4BD385A7EBF9AFAE7BD71
:104C2000C14E7EBF9A19EBBD23437EBF7638EEBDE1
:104C30005E377EBF2E57F1BD722B7EBFC075F4BDAF
:104C40005E1F7EBF2C94F7BD24137EBF73B2FABDE6
:104C5000C2067EBF92D0FDBD38FA7DBF457700BE4B
:104C600088ED7DBF2E0602BEB1E07DBF029503BE7A
:104C7000B2D37DBFC22305BE8CC67DBF6EB206BE59
:104C800040B97DBF054108BECCAB7DBF86CF09BE14
:104C9000309E7DBFF35D0BBE6E907DBF4AEC0CBEB7
:104CA00085827DBF8B7A0EBE74747DBFB70810BE3F
:104CB0003D667DBFCC9611BEDE577DBFCA2413BEB4
:104CC00059497DBFB2B214BEAC3A7DBF834016BE17
:104CD000D82B7DBF3DCE17BEDD1C7DBFE05B19BE6E
:104CE000BC0D7DBF6BE91ABE73FE7CBFDE761CBEB9
:104CF00003EF7CBF38041EBE6CDF7CBF7B911FBE00
:104D0000AECF7CBFA51E21BEC9BF7CBFB6AB22BE45
:104D1000BDAF7CBFAD3824BE8A9F7CBF8CC525BE8D
:104D2000318F7CBF515227BEB07E7CBFFCDE28BED7
:104D3000086E7CBF8D6B2ABE3A5D7CBF04F82BBE2B
:104D4000444C7CBF61842DBE283B7CBFA2102FBE8B
:104D5000E5297CBFC99C30BE7A187CBFD42832BEFE
:104D6000E9067CBFC4B433BE31F57BBF984035BE85
:104D700053E37BBF50CC36BE4DD17BBFEC5738BE22
:104D800020BF7BBF6CE339BECDAC7BBFCF6E3BBEDB
:104D9000539A7BBF15FA3CBEB2877BBF3E853EBEB1
:104DA000EA747BBF491040BEFC617BBF379B41BEAC
:104DB000E74E7BBF072643BEAB3B7BBFB9B044BECB
:104DC00048287BBF4D3B46BEBE147BBFC2C547BE15
:104DD0000E017BBF185049BE37ED7ABF4FDA4ABE8D
:104DE0003AD97ABF67644CBE16C57ABF60EE4DBE35
:104DF000CBB07ABF38784FBE599C7ABFF10151BE13
:104E0000C1877ABF898B52BE02737ABF011554BE27
:104E10001C5E7ABF589E55BE10497ABF8F2757BE79
:104E2000DD337ABFA4B058BE841E7ABF97395ABE0C
:104E300004097ABF6AC25BBE5EF379BF1A4B5DBEDE
:104E400091DD79BFA8D35EBE9DC779BF135C60BEFC
:104E500083B179BF5CE461BE439B79BF836C63BE61
:104E6000DC8479BF86F464BE4E6E79BF667C66BE14
:104E70009A5779BF220468BEC04079BFBA8B69BE19
:104E8000BF2979BF2F136BBE981279BF7F9A6CBE72
:104E90004AFB78BFAB216EBED6E378BFB2A86FBE27
:104EA0003BCC78BF942F71BE7BB478BF51B672BE35
:104EB000939C78BFE83C74BE868478BF5AC375BEA5
:104EC000526C78BFA64977BEF85378BFCCCF78BE76
:104ED000773B78BFCB557ABED12278BFA4DB7BBEAF
:104EE000040A78BF56617DBE10F177BFE1E67EBE51
:104EF000F7D777BF223680BEB7BE77BFC0F880BE77
:104F000051A577BF4ABB81BEC58B77BFC07D82BE2E
:104F1000137277BF224083BE3A5877BF700284BEB7
:104F20003C3E77BFAAC484BE172477BFCE8685BE19
:104F3000CC0977BFDF4886BE5BEF76BFDA0A87BE53
:104F4000C4D476BFC1CC87BE07BA76BF938E88BE65
:104F5000249F76BF505089BE1B8476BFF8118ABE4D
:104F6000EC6876BF8AD38ABE974D76BF07958BBE15
:104F70001B3276BF6E568CBE7A1676BFC0178DBEBA
:104F8000B3FA75BFFCD88DBEC6DE75BF229A8EBE41
:104F9000B3C275BF325B8FBE7BA675BF2C1C90BEA3
:104FA0001C8A75BF10DD90BE976D75BFDD9D91BEEB
:104FB000ED5075BF945E92BE1D3475BF351F93BE14
:104FC000271775BFBFDF93BE0BFA74BF31A094BE25
:104FD000C9DC74BF8D6095BE62BF74BFD22096BE1F
:104FE000D5A174BF00E196BE228474BF17A197BEFD
:104FF000496674BF166198BE4B4874BFFE2099BEC7
:10500000272A74BFCEE099BEDD0B74BF86A09ABE7E
:105010006EED73BF27609BBED9CE73BFAF1F9CBE22
:105020001FB073BF20DF9CBE3F9173BF789E9DBEB3
:10503000397273BFB85D9EBE0E5373BFDF1C9FBE37
:10504000BE3373BFEEDB9FBE471473BFE59AA0BEAD
:10505000ACF472BFC259A1BEEBD472BF8718A2BE16
:1050600004B572BF33D7A2BEF89472BFC595A3BE74
:10507000C77472BF3F54A4BE705472BF9F12A5BEC6
:10508000F43372BFE5D0A5BE521372BF128FA6BE15
:105090008CF271BF254DA7BE9FD171BF1F0BA8BE5B
:1050A0008EB071BFFEC8A8BE578F71BFC486A9BE9F
:1050B000FB6D71BF6F44AABE7A4C71BF0102ABBEDB
:1050C000D42A71BF77BFABBE080971BFD47CACBE18
:1050D00017E770BF153AADBE02C570BF3CF7ADBE55
:1050E000C6A270BF49B4AEBE668070BF3A71AFBE93
:1050F000E15D70BF102EB0BE373B70BFCBEAB0BED3
:10510000671870BF6BA7B1BE73F56FBFEF63B2BE18
:105110005AD26FBF5820B3BE1BAF6FBFA5DCB3BE62
:10512000B88B6FBFD698B4BE30686FBFEC54B5BEB5
:1051300083446FBFE610B6BEB0206FBFC3CCB6BE0F
:10514000BAFC6EBF8488B7BE9ED86EBF2A44B8BE74
:105150005DB46EBFB2FFB8BEF88F6EBF1EBBB9BEE6
:105160006D6B6EBF6E76BABEBE466EBFA031BBBE63
:10517000EB216EBFB6ECBBBEF2FC6DBFAFA7BCBEF1
:10518000D5D76DBF8B62BDBE93B26DBF4A1DBEBE8B
:105190002D8D6DBFEBD7BEBEA1676DBF6F92BFBE39
:1051A000F2416DBFD54CC0BE1D1C6DBF1E07C1BEF8
:1051B00024F66CBF48C1C1BE07D06CBF557BC2BED0
:1051C000C5A96CBF4435C3BE5E836CBF15EFC3BEBB
:1051D000D45C6CBFC8A8C4BE24366CBF5C62C5BEBC
:1051E000500F6CBFD21BC6BE58E86BBF29D5C6BED8
:1051F0003BC16BBF628EC7BEFB996BBF7C47C8BE0D
:1052000095726BBF7700C9BE0C4B6BBF53B9C9BE5B
:105210005E236BBF1072CABE8CFB6ABFAE2ACBBEC8
:1052200095D36ABF2CE3CBBE7BAB6ABF8B9BCCBE56
:105230003C836ABFCA53CDBED95A6ABFEA0BCEBE01
:1052400052326ABFEAC3CEBEA7096ABFCA7BCFBECD
:10525000D7E069BF8A33D0BEE4B769BF2AEBD0BEBE
:10526000CC8E69BFAAA2D1BE916569BF095AD2BED0
:10527000323C69BF4811D3BEAE1269BF67C8D3BE06
:1052800007E968BF647FD4BE3CBF68BF4136D5BE66
:105290004C9568BFFDECD5BE396B68BF99A3D6BEEF
:1052A000034168BF135AD7BEA81668BF6B10D8BE9B
:1052B0002AEC67BFA3C6D8BE87C167BFB97CD9BE79
:1052C000C19667BFAD32DABED86B67BF80E8DABE81
:1052D000CA4067BF319EDBBE991567BFC153DCBEB4
:1052E00045EA66BF2E09DDBECCBE66BF79BEDDBE17
:1052F000309366BFA273DEBE716766BFA928DFBEAA
:105300008E3B66BF8DDDDFBE880F66BF4F92E0BE6D
:105310005EE365BFEE46E1BE10B765BF6AFBE1BE66
:10532000A08A65BFC4AFE2BE0B5E65BFFA63E3BE91
:10533000543165BF0E18E4BE790465BFFECBE4BEF0
:105340007BD764BFCB7FE5BE59AA64BF7533E6BE89
:10535000147D64BFFBE6E6BEAC4F64BF5D9AE7BE5A
:10536000212264BF9C4DE8BE73F463BFB700E9BE61
:10537000A1C663BFAEB3E9BEAC9863BF8166EABEA7
:10538000956A63BF3019EBBE5A3C63BFBBCBEBBE23
:10539000FC0D63BF217EECBE7BDF62BF6330EDBEE0
:1053A000D7B062BF80E2EDBE108262BF7994EEBEDC
:1053B000265362BF4C46EFBE1A2462BFFBF7EFBE16
:1053C000EAF461BF85A9F0BE98C561BFEA5AF1BE93
:1053D000229661BF290CF2BE8A6661BF43BDF2BE50
:1053E000D03661BF386EF3BEF20661BF071FF4BE50
:1053F000F2D660BFB1CFF4BECFA660BF3580F5BE98
:10540000897660BF9330F6BE214660BFCBE0F6BE22
:10541000961560BFDC90F7BEE9E45FBFC840F8BEF8
:1054200019B45FBF8EF0F8BE27835FBF2DA0F9BE11
:1054300012525FBFA54FFABEDB205FBFF7FEFABE78
:1054400081EF5EBF22AEFBBE05BE5EBF275DFCBE28
:10545000678C5EBF040CFDBEA65A5EBFBBBAFDBE24
:10546000C3285EBF4A69FEBEBEF65DBFB217FFBE6F
:1054700097C45DBFF3C5FFBE4D925DBF063A00BF46
:10548000E15F5DBFFF9000BF532D5DBFE4E700BF4C
:10549000A3FA5CBFB53E01BFD1C75CBF739501BF26
:1054A000DD945CBF1CEC01BFC7615CBFB14202BFB1
:1054B0008E2E5CBF329902BF34FB5BBF9FEF02BFF1
:1054C000B8C75BBFF84503BF1A945BBF3D9C03BFE1
:1054D0005A605BBF6DF203BF792C5BBF894804BF84
:1054E00075F85ABF919E04BF50C45ABF84F404BFDC
:1054F00009905ABF624A05BFA05B5ABF2CA005BFE6
:1055000016275ABFE2F505BF6AF259BF824B06BFA4
:105510009CBD59BF0EA106BFAD8859BF86F606BF18
:105520009C5359BFE84B07BF6A1E59BF36A107BF3E
:1055300017E958BF6FF607BFA1B358BF924B08BF1A
:105540000B7E58BFA1A008BF534858BF9BF508BFAA
:10555000791258BF7F4A09BF7FDC57BF4E9F09BFF2
:1055600063A657BF09F409BF267057BFAD480ABFED
:10557000C73957BF3D9D0ABF480357BFB7F10ABFA0
:10558000A7CC56BF1C460BBFE59556BF6B9A0BBF09
:10559000025F56BFA5EE0BBFFE2756BFC9420CBF28
:1055A000D9F055BFD7960CBF93B955BFD0EA0CBF01
:1055B0002C8255BFB33E0DBFA44A55BF81920DBF8B
:1055C000FB1255BF38E60DBF31DB54BFDA390EBFD1
:1055D00047A354BF658D0EBF3B6B54BFDBE00EBFCE
:1055E0000F3354BF3B340FBFC3FA53BF84870FBF81
:1055F00055C253BFB8DA0FBFC78953BFD52D10BFEF
:10560000185153BFDC8010BF491853BFCDD310BF12
:1056100059DF52BFA72611BF49A652BF6B7911BFF0
:10562000186D52BF19CC11BFC63352BFB01E12BF86
:1056300054FA51BF307112BFC2C051BF9AC312BFDA
:10564000108751BFEE1513BF3D4D51BF2A6813BFE0
:105650004A1351BF50BA13BF37D950BF5F0C14BFA4
:10566000039F50BF585E14BFAF6450BF39B014BF22
:105670003B2A50BF040215BFA8EF4FBFB75315BF59
:10568000F4B44FBF54A515BF1F7A4FBFD9F615BF4D
:105690002B3F4FBF474816BF17044FBF9F9916BFF8
:1056A000E4C84EBFDFEA16BF908D4EBF073C17BF60
:1056B0001C524EBF188D17BF89164EBF12DE17BF82
:1056C000D5DA4DBFF52E18BF029F4DBFC07F18BF62
:1056D00010634DBF73D018BFFD264DBF0F2119BFFA
:1056E000CBEA4CBF947119BF79AE4CBF00C219BF51
:1056F00008724CBF55121ABF78354CBF93621ABF5F
:10570000C7F84BBFB8B21ABFF8BB4BBFC6021BBF2E
:10571000097F4BBFBB521BBFFA414BBF99A21BBFB6
:10572000CC044BBF5FF21BBF7FC74ABF0C421CBFFC
:10573000138A4ABFA2911CBF874C4ABF1FE11CBFFE
:10574000DC0E4ABF84301DBF12D149BFD17F1DBFBF
:10575000299349BF06CF1DBF215549BF221E1EBF39
:10576000FA1649BF266D1EBFB3D848BF12BC1EBF74
:105770004E9A48BFE50A1FBFCA5B48BF9F591FBF6B
:10578000271D48BF41A81FBF65DE47BFCBF61FBF1F
:10579000849F47BF3B4520BF856047BF939320BF91
:1057A000672147BFD2E120BF2AE246BFF92F21BFC0
:1057B000CEA246BF067E21BF546346BFFBCB21BFAE
:1057C000BB2346BFD71922BF03E445BF996722BF59
:1057D0002DA445BF43B522BF396445BFD30223BFC3
:1057E000262445BF4B5023BFF5E344BFA99D23BFEB
:1057F000A5A344BFEEEA23BF376344BF1A3824BFD2
:10580000AB2244BF2C8524BF00E243BF25D224BF76
:1058100038A143BF041F25BF516043BFCB6B25BFD9
:105820004C1F43BF77B825BF29DE42BF0A0526BFFC
:10583000E89C42BF845126BF895B42BFE39D26BFDF
:105840000B1A42BF2AEA26BF70D841BF563627BF7F
:10585000B79641BF688227BFE15441BF61CE27BFE1
:10586000EC1241BF401A28BFDAD040BF056628BFFE
:10587000A98E40BFB0B128BF5C4C40BF41FD28BFDE
:10588000F00940BFB84829BF67C73FBF159429BF7B
:10589000C0843FBF57DF29BFFC413FBF802A2ABFDA
:1058A0001BFF3EBF8E752ABF1BBC3EBF82C02ABFF6
:1058B000FF783EBF5B0B2BBFC5353EBF1B562BBFD2
:1058C0006EF23DBFBFA02BBFF9AE3DBF4AEB2BBF71
:1058D000676B3DBFB9352CBFB8273DBF0F802CBFCC
:1058E000ECE33CBF49CA2CBF03A03CBF69142DBFE9
:1058F000FC5B3CBF6F5E2DBFD9173CBF59A82DBFC5
:1059000098D33BBF29F22DBF3B8F3BBFDE3B2EBF61
:10591000C14A3BBF78852EBF29063BBFF7CE2EBFBD
:1059200075C13ABF5B182FBFA47C3ABFA5612FBFDA
:10593000B7373ABFD3AA2FBFACF239BFE6F32FBFB8
:1059400085AD39BFDE3C30BF426839BFBB8530BF53
:10595000E12239BF7CCE30BF65DD38BF221731BFB1
:10596000CB9738BFAD5F31BF165238BF1DA831BFCE
:10597000430C38BF71F031BF55C637BFAA3832BFAC
:105980004A8037BFC78032BF233A37BFC9C832BF4A
:10599000DFF336BFAF1033BF7FAD36BF7A5833BFAA
:1059A000046736BF29A033BF6C2036BFBCE733BFC6
:1059B000B8D935BF342F34BFE79235BF8F7634BFA7
:1059C000FB4B35BFCFBD34BFF30435BFF30435BF48
:1059D000CFBD34BFFB4B35BF8F7634BFE79235BFA9
:1059E000342F34BFB8D935BFBCE733BF6C2036BFC6
:1059F00029A033BF046736BF7A5833BF7FAD36BFA7
:105A0000AF1033BFDFF336BFC9C832BF233A37BF49
:105A1000C78032BF4A8037BFAA3832BF55C637BFAA
:105A200071F031BF430C38BF1DA831BF165238BFCB
:105A3000AD5F31BFCB9738BF221731BF65DD38BFAF
:105A40007CCE30BFE12239BFBB8530BF426839BF51
:105A5000DE3C30BF85AD39BFE6F32FBFACF239BFB6
:105A6000D3AA2FBFB7373ABFA5612FBFA47C3ABFD7
:105A70005B182FBF75C13ABFF7CE2EBF29063BBFBB
:105A800078852EBFC14A3BBFDE3B2EBF3B8F3BBF5D
:105A900029F22DBF98D33BBF59A82DBFD9173CBFC2
:105AA0006F5E2DBFFC5B3CBF69142DBF03A03CBFE4
:105AB00049CA2CBFECE33CBF0F802CBFB8273DBFC9
:105AC000B9352CBF676B3DBF4AEB2BBFF9AE3DBF6D
:105AD000BFA02BBF6EF23DBF1B562BBFC5353EBFCF
