:020000040800F2
:1000000038A10220A11A0208FD180208FF180208F0
:10001000011902080319020805190208000000006E
:1000200000000000000000000000000007190208A6
:1000300009190208000000000B1902080D19020836
:10004000BD1A0208C11A0208C51A0208C91A020814
:10005000CD1A0208D11A0208D51A0208D91A0208C4
:10006000DD1A0208E11A02084BB201087B9B010865
:10007000E51A0208E91A0208ED1A0208F11A020844
:10008000F51A0208F91A0208FD1A0208011B0208F3
:10009000051B0208091B02080D1B020877B20108A4
:1000A000111B0208151B0208191B02081D1B020860
:1000B000211B0208251B0208291B0208311902080E
:1000C0002D1B020837190208311B0208815B010849
:1000D000695C0108351B0208391B02082B1902084C
:1000E00075B201083D1B0208411B0208451B0208AE
:1000F000491B02084D1B0208511B02089F99010869
:10010000551B0208591B02085D1B02087D9B010854
:10011000611B0208651B0208691B02086D1B0208AF
:10012000711B0208751B0208791B02087D1B02085F
:100130005D190208811B0208851B0208891B020841
:100140008D1B0208911B0208951B02083D1902082D
:10015000BD650108C56501085F1902082919020873
:10016000991B02089D1B0208A11B0208A51B02087F
:10017000A91B0208AD1B0208B11B02080000000009
:10018000B51B0208B91B0208BD1B0208C11B0208EF
:10019000675D0108715E0108E75E0108C51B020882
:1001A000C91B0208CD1B0208D11B0208D51B02087F
:1001B000D91B0208DD1B0208E11B0208E51B02082F
:1001C000E91B0208ED1B02080000803F0000000050
:1001D0005E836C3F15EFC33EF304353FF304353FB8
:1001E00015EFC33E5E836C3F000000000000803FBF
:1001F00015EFC3BE5E836C3FF30435BFF304353F98
:100200005E836CBF15EFC33E000080BF000000009E
:100210005E836CBF15EFC3BEF30435BFF30435BF77
:1002200015EFC3BE5E836CBF00000080000080BF7E
:1002300015EFC33E5E836CBFF304353FF30435BF57
:100240005E836C3F15EFC3BE0000803F00000000DE
:10025000BE147B3FC2C5473E5E836C3F15EFC33E75
:1002600031DB543FDA390E3FF304353FF304353FB9
:10027000DA390E3F31DB543F15EFC33E5E836C3FEE
:10028000C2C5473EBE147B3F000000000000803F17
:10029000C2C547BEBE147B3F15EFC3BE5E836C3F35
:1002A000DA390EBF31DB543FF30435BFF304353F79
:1002B00031DB54BFDA390E3F5E836CBF15EFC33EAE
:1002C000BE147BBFC2C5473E000080BF00000000D7
:1002D000BE147BBFC2C547BE5E836CBF15EFC3BEF5
:1002E00031DB54BFDA390EBFF30435BFF30435BF39
:1002F000DA390EBF31DB54BF15EFC3BE5E836CBF6E
:10030000C2C547BEBE147BBF00000080000080BF96
:10031000C2C5473EBE147BBF15EFC33E5E836CBFB4
:10032000DA390E3F31DB54BFF304353FF30435BFF8
:1003300031DB543FDA390EBF5E836C3F15EFC3BE2D
:10034000BE147B3FC2C547BE0000803F00000000D6
:100350006DC47E3F36BDC83DBE147B3FC2C5473E1F
:100360000BFA743F31A0943E5E836C3F15EFC33EA1
:1003700098C5613FEA5AF13E31DB543FDA390E3F0E
:1003800003E4453F9967223FF304353FF304353FCB
:100390009967223F03E4453FDA390E3F31DB543F92
:1003A000EA5AF13E98C5613F15EFC33E5E836C3F4C
:1003B00031A0943E0BFA743FC2C5473EBE147B3F4A
:1003C00036BDC83D6DC47E3F000000000000803F88
:1003D00036BDC8BD6DC47E3FC2C547BEBE147B3F9F
:1003E00031A094BE0BFA743F15EFC3BE5E836C3F21
:1003F000EA5AF1BE98C5613FDA390EBF31DB543F8E
:10040000996722BF03E4453FF30435BFF304353F4A
:1004100003E445BF9967223F31DB54BFDA390E3F11
:1004200098C561BFEA5AF13E5E836CBF15EFC33ECB
:100430000BFA74BF31A0943EBE147BBFC2C5473EC9
:100440006DC47EBF36BDC83D000080BF0000000007
:100450006DC47EBF36BDC8BDBE147BBFC2C547BE1E
:100460000BFA74BF31A094BE5E836CBF15EFC3BEA0
:1004700098C561BFEA5AF1BE31DB54BFDA390EBF0D
:1004800003E445BF996722BFF30435BFF30435BFCA
:10049000996722BF03E445BFDA390EBF31DB54BF91
:1004A000EA5AF1BE98C561BF15EFC3BE5E836CBF4B
:1004B00031A094BE0BFA74BFC2C547BEBE147BBF49
:1004C00036BDC8BD6DC47EBF00000080000080BF87
:1004D00036BDC83D6DC47EBFC2C5473EBE147BBF9E
:1004E00031A0943E0BFA74BF15EFC33E5E836CBF20
:1004F000EA5AF13E98C561BFDA390E3F31DB54BF8D
:100500009967223F03E445BFF304353FF30435BF49
:1005100003E4453F996722BF31DB543FDA390EBF10
:1005200098C5613FEA5AF1BE5E836C3F15EFC3BECA
:100530000BFA743F31A094BEBE147B3FC2C547BEC8
:100540006DC47E3F36BDC8BD0000803F0000000086
:100550000FB17F3F2FFB483D6DC47E3F36BDC83D88
:10056000AC3A7D3F8340163EBE147B3FC2C5473E3A
:10057000F853783FCCCF783E0BFA743F31A0943ECD
:100580000809713FD47CAC3E5E836C3F15EFC33EDF
:10059000D86B673F80E8DA3E98C5613FEA5AF13E82
:1005A0001A945B3F3D9C033F31DB543FDA390E3FE9
:1005B000029F4D3FC07F183F03E4453F9967223FAC
:1005C000F9AE3D3F4AEB2B3FF304353FF304353F93
:1005D0004AEB2B3FF9AE3D3F9967223F03E4453F8D
:1005E000C07F183F029F4D3FDA390E3F31DB543F49
:1005F0003D9C033F1A945B3FEA5AF13E98C5613F28
:1006000080E8DA3ED86B673F15EFC33E5E836C3FF0
:10061000D47CAC3E0809713F31A0943E0BFA743F84
:10062000CCCF783EF853783FC2C5473EBE147B3FDF
:100630008340163EAC3A7D3F36BDC83D6DC47E3F1B
:100640002FFB483D0FB17F3F000000000000803FBE
:100650002FFB48BD0FB17F3F36BDC8BD6DC47E3F87
:10066000834016BEAC3A7D3FC2C547BEBE147B3F39
:10067000CCCF78BEF853783F31A094BE0BFA743FCC
:10068000D47CACBE0809713F15EFC3BE5E836C3FDE
:1006900080E8DABED86B673FEA5AF1BE98C5613F81
:1006A0003D9C03BF1A945B3FDA390EBF31DB543FE8
:1006B000C07F18BF029F4D3F996722BF03E4453FAB
:1006C0004AEB2BBFF9AE3D3FF30435BFF304353F92
:1006D000F9AE3DBF4AEB2B3F03E445BF9967223F8C
:1006E000029F4DBFC07F183F31DB54BFDA390E3F48
:1006F0001A945BBF3D9C033F98C561BFEA5AF13E27
:10070000D86B67BF80E8DA3E5E836CBF15EFC33EEF
:10071000080971BFD47CAC3E0BFA74BF31A0943E83
:10072000F85378BFCCCF783EBE147BBFC2C5473EDE
:10073000AC3A7DBF8340163E6DC47EBF36BDC83D1A
:100740000FB17FBF2FFB483D000080BF00000000BD
:100750000FB17FBF2FFB48BD6DC47EBF36BDC8BD86
:10076000AC3A7DBF834016BEBE147BBFC2C547BE38
:10077000F85378BFCCCF78BE0BFA74BF31A094BECB
:10078000080971BFD47CACBE5E836CBF15EFC3BEDD
:10079000D86B67BF80E8DABE98C561BFEA5AF1BE80
:1007A0001A945BBF3D9C03BF31DB54BFDA390EBFE7
:1007B000029F4DBFC07F18BF03E445BF996722BFAA
:1007C000F9AE3DBF4AEB2BBFF30435BFF30435BF91
:1007D0004AEB2BBFF9AE3DBF996722BF03E445BF8B
:1007E000C07F18BF029F4DBFDA390EBF31DB54BF47
:1007F0003D9C03BF1A945BBFEA5AF1BE98C561BF26
:1008000080E8DABED86B67BF15EFC3BE5E836CBFEE
:10081000D47CACBE080971BF31A094BE0BFA74BF82
:10082000CCCF78BEF85378BFC2C547BEBE147BBFDD
:10083000834016BEAC3A7DBF36BDC8BD6DC47EBF19
:100840002FFB48BD0FB17FBF00000080000080BFBC
:100850002FFB483D0FB17FBF36BDC83D6DC47EBF85
:100860008340163EAC3A7DBFC2C5473EBE147BBF37
:10087000CCCF783EF85378BF31A0943E0BFA74BFCA
:10088000D47CAC3E080971BF15EFC33E5E836CBFDC
:1008900080E8DA3ED86B67BFEA5AF13E98C561BF7F
:1008A0003D9C033F1A945BBFDA390E3F31DB54BFE6
:1008B000C07F183F029F4DBF9967223F03E445BFA9
:1008C0004AEB2B3FF9AE3DBFF304353FF30435BF90
:1008D000F9AE3D3F4AEB2BBF03E4453F996722BF8A
:1008E000029F4D3FC07F18BF31DB543FDA390EBF46
:1008F0001A945B3F3D9C03BF98C5613FEA5AF1BE25
:10090000D86B673F80E8DABE5E836C3F15EFC3BEED
:100910000809713FD47CACBE0BFA743F31A094BE81
:10092000F853783FCCCF78BEBE147B3FC2C547BEDC
:10093000AC3A7D3F834016BE6DC47E3F36BDC8BD18
:100940000FB17F3F2FFB48BD0000803F000000003B
:1009500043EC7F3FB00AC93C0FB17F3F2FFB483DBE
:100960006D4E7F3F05A9963D6DC47E3F36BDC83DA7
:1009700024137E3F73B2FA3DAC3A7D3F8340163E6E
:10098000283B7C3FA2102F3EBE147B3FC2C5473E92
:100990009DC7793F135C603EF853783FCCCF783EDB
:1009A00007BA763F938E883E0BFA743F31A0943E8F
:1009B0004714733FE59AA03E0809713FD47CAC3ED2
:1009C0009ED86E3F2A44B83E5E836C3F15EFC33E0F
:1009D000A7096A3FCA7BCF3ED86B673F80E8DA3E03
:1009E00059AA643F7533E63E98C5613FEA5AF13E25
:1009F00005BE5E3F275DFC3E1A945B3F3D9C033F76
:100A00005348583F9BF5083F31DB543FDA390E3FDE
:100A10003D4D513F2A68133F029F4D3FC07F183F15
:100A200012D1493FD17F1D3F03E4453F9967223FE3
:100A300070D8413F5636273FF9AE3D3F4AEB2B3F3A
:100A40004268393FBB85303FF304353FF304353FFF
:100A5000BB85303F4268393F4AEB2B3FF9AE3D3F03
:100A60005636273F70D8413F9967223F03E4453F00
:100A7000D17F1D3F12D1493FC07F183F029F4D3F9C
:100A80002A68133F3D4D513FDA390E3F31DB543F69
:100A90009BF5083F5348583F3D9C033F1A945B3FEA
:100AA000275DFC3E05BE5E3FEA5AF13E98C5613FB8
:100AB0007533E63E59AA643F80E8DA3ED86B673F5B
:100AC000CA7BCF3EA7096A3F15EFC33E5E836C3FEA
:100AD0002A44B83E9ED86E3FD47CAC3E0809713F94
:100AE000E59AA03E4714733F31A0943E0BFA743F41
:100AF000938E883E07BA763FCCCF783EF853783F46
:100B0000135C603E9DC7793FC2C5473EBE147B3F24
:100B1000A2102F3E283B7C3F8340163EAC3A7D3FDF
:100B200073B2FA3D24137E3F36BDC83D6DC47E3F8F
:100B300005A9963D6D4E7F3F2FFB483D0FB17F3F8E
:100B4000B00AC93C43EC7F3F000000000000803F3A
:100B5000B00AC9BC43EC7F3F2FFB48BD0FB17F3FBC
:100B600005A996BD6D4E7F3F36BDC8BD6DC47E3FA5
:100B700073B2FABD24137E3F834016BEAC3A7D3F6C
:100B8000A2102FBE283B7C3FC2C547BEBE147B3F90
:100B9000135C60BE9DC7793FCCCF78BEF853783FD9
:100BA000938E88BE07BA763F31A094BE0BFA743F8D
:100BB000E59AA0BE4714733FD47CACBE0809713FD0
:100BC0002A44B8BE9ED86E3F15EFC3BE5E836C3F0D
:100BD000CA7BCFBEA7096A3F80E8DABED86B673F01
:100BE0007533E6BE59AA643FEA5AF1BE98C5613F23
:100BF000275DFCBE05BE5E3F3D9C03BF1A945B3F74
:100C00009BF508BF5348583FDA390EBF31DB543FDC
:100C10002A6813BF3D4D513FC07F18BF029F4D3F13
:100C2000D17F1DBF12D1493F996722BF03E4453FE1
:100C3000563627BF70D8413F4AEB2BBFF9AE3D3F38
:100C4000BB8530BF4268393FF30435BFF304353FFD
:100C5000426839BFBB85303FF9AE3DBF4AEB2B3F01
:100C600070D841BF5636273F03E445BF9967223FFE
:100C700012D149BFD17F1D3F029F4DBFC07F183F9A
:100C80003D4D51BF2A68133F31DB54BFDA390E3F67
:100C9000534858BF9BF5083F1A945BBF3D9C033FE8
:100CA00005BE5EBF275DFC3E98C561BFEA5AF13EB6
:100CB00059AA64BF7533E63ED86B67BF80E8DA3E59
:100CC000A7096ABFCA7BCF3E5E836CBF15EFC33EE8
:100CD0009ED86EBF2A44B83E080971BFD47CAC3E92
:100CE000471473BFE59AA03E0BFA74BF31A0943E3F
:100CF00007BA76BF938E883EF85378BFCCCF783E44
:100D00009DC779BF135C603EBE147BBFC2C5473E22
:100D1000283B7CBFA2102F3EAC3A7DBF8340163EDD
:100D200024137EBF73B2FA3D6DC47EBF36BDC83D8D
:100D30006D4E7FBF05A9963D0FB17FBF2FFB483D8C
:100D400043EC7FBFB00AC93C000080BF0000000038
:100D500043EC7FBFB00AC9BC0FB17FBF2FFB48BDBA
:100D60006D4E7FBF05A996BD6DC47EBF36BDC8BDA3
:100D700024137EBF73B2FABDAC3A7DBF834016BE6A
:100D8000283B7CBFA2102FBEBE147BBFC2C547BE8E
:100D90009DC779BF135C60BEF85378BFCCCF78BED7
:100DA00007BA76BF938E88BE0BFA74BF31A094BE8B
:100DB000471473BFE59AA0BE080971BFD47CACBECE
:100DC0009ED86EBF2A44B8BE5E836CBF15EFC3BE0B
:100DD000A7096ABFCA7BCFBED86B67BF80E8DABEFF
:100DE00059AA64BF7533E6BE98C561BFEA5AF1BE21
:100DF00005BE5EBF275DFCBE1A945BBF3D9C03BF72
:100E0000534858BF9BF508BF31DB54BFDA390EBFDA
:100E10003D4D51BF2A6813BF029F4DBFC07F18BF11
:100E200012D149BFD17F1DBF03E445BF996722BFDF
:100E300070D841BF563627BFF9AE3DBF4AEB2BBF36
:100E4000426839BFBB8530BFF30435BFF30435BFFB
:100E5000BB8530BF426839BF4AEB2BBFF9AE3DBFFF
:100E6000563627BF70D841BF996722BF03E445BFFC
:100E7000D17F1DBF12D149BFC07F18BF029F4DBF98
:100E80002A6813BF3D4D51BFDA390EBF31DB54BF65
:100E90009BF508BF534858BF3D9C03BF1A945BBFE6
:100EA000275DFCBE05BE5EBFEA5AF1BE98C561BFB4
:100EB0007533E6BE59AA64BF80E8DABED86B67BF57
:100EC000CA7BCFBEA7096ABF15EFC3BE5E836CBFE6
:100ED0002A44B8BE9ED86EBFD47CACBE080971BF90
:100EE000E59AA0BE471473BF31A094BE0BFA74BF3D
:100EF000938E88BE07BA76BFCCCF78BEF85378BF42
:100F0000135C60BE9DC779BFC2C547BEBE147BBF20
:100F1000A2102FBE283B7CBF834016BEAC3A7DBFDB
:100F200073B2FABD24137EBF36BDC8BD6DC47EBF8B
:100F300005A996BD6D4E7FBF2FFB48BD0FB17FBF8A
:100F4000B00AC9BC43EC7FBF00000080000080BF36
:100F5000B00AC93C43EC7FBF2FFB483D0FB17FBFB8
:100F600005A9963D6D4E7FBF36BDC83D6DC47EBFA1
:100F700073B2FA3D24137EBF8340163EAC3A7DBF68
:100F8000A2102F3E283B7CBFC2C5473EBE147BBF8C
:100F9000135C603E9DC779BFCCCF783EF85378BFD5
:100FA000938E883E07BA76BF31A0943E0BFA74BF89
:100FB000E59AA03E471473BFD47CAC3E080971BFCC
:100FC0002A44B83E9ED86EBF15EFC33E5E836CBF09
:100FD000CA7BCF3EA7096ABF80E8DA3ED86B67BFFD
:100FE0007533E63E59AA64BFEA5AF13E98C561BF1F
:100FF000275DFC3E05BE5EBF3D9C033F1A945BBF70
:101000009BF5083F534858BFDA390E3F31DB54BFD8
:101010002A68133F3D4D51BFC07F183F029F4DBF0F
:10102000D17F1D3F12D149BF9967223F03E445BFDD
:101030005636273F70D841BF4AEB2B3FF9AE3DBF34
:10104000BB85303F426839BFF304353FF30435BFF9
:101050004268393FBB8530BFF9AE3D3F4AEB2BBFFD
:1010600070D8413F563627BF03E4453F996722BFFA
:1010700012D1493FD17F1DBF029F4D3FC07F18BF96
:101080003D4D513F2A6813BF31DB543FDA390EBF63
:101090005348583F9BF508BF1A945B3F3D9C03BFE4
:1010A00005BE5E3F275DFCBE98C5613FEA5AF1BEB2
:1010B00059AA643F7533E6BED86B673F80E8DABE55
:1010C000A7096A3FCA7BCFBE5E836C3F15EFC3BEE4
:1010D0009ED86E3F2A44B8BE0809713FD47CACBE8E
:1010E0004714733FE59AA0BE0BFA743F31A094BE3B
:1010F00007BA763F938E88BEF853783FCCCF78BE40
:101100009DC7793F135C60BEBE147B3FC2C547BE1E
:10111000283B7C3FA2102FBEAC3A7D3F834016BED9
:1011200024137E3F73B2FABD6DC47E3F36BDC8BD89
:101130006D4E7F3F05A996BD0FB17F3F2FFB48BD88
:1011400043EC7F3FB00AC9BC0000803F00000000B4
:1011500011FB7F3F900E493C43EC7F3FB00AC93CF6
:1011600098D37F3F2CC3163D0FB17F3F2FFB483DE7
:10117000AB847F3F742B7B3D6D4E7F3F05A9963D31
:10118000580E7F3F80B6AF3D6DC47E3F36BDC83D33
:10119000B0707E3F2EBCE13D24137E3F73B2FA3D1A
:1011A000CCAB7D3F86CF093EAC3A7D3F8340163EB7
:1011B000C9BF7C3FB6AB223E283B7C3FA2102F3EEE
:1011C000CDAC7B3FCF6E3B3EBE147B3FC2C5473E9E
:1011D00002737A3F0115543E9DC7793F135C603E10
:1011E0009812793F7F9A6C3EF853783FCCCF783E87
:1011F000C58B773FC07D823E07BA763F938E883E8F
:10120000C6DE753F229A8E3E0BFA743F31A0943EA3
:10121000DD0B743F86A09A3E4714733FE59AA03ECB
:101220005213723F128FA63E0809713FD47CAC3E28
:1012300073F56F3FEF63B23E9ED86E3F2A44B83ECF
:1012400093B26D3F4A1DBE3E5E836C3F15EFC33EB9
:101250000C4B6B3F53B9C93EA7096A3FCA7BCF3ECF
:101260003CBF683F4136D53ED86B673F80E8DA3EE9
:10127000880F663F4F92E03E59AA643F7533E63EC1
:101280005A3C633FBBCBEB3E98C5613FEA5AF13E07
:101290002146603FCBE0F63E05BE5E3F275DFC3E4B
:1012A000532D5D3FE4E7003F1A945B3F3D9C033FB5
:1012B0006AF2593F824B063F5348583F9BF5083F1F
:1012C000E595563F6B9A0B3F31DB543FDA390E3FC1
:1012D0004918533FCDD3103F3D4D513F2A68133F2E
:1012E0001F7A4F3FD9F6153F029F4D3FC07F183FF1
:1012F000F8BB4B3FC6021B3F12D1493FD17F1D3F78
:1013000065DE473FCBF61F3F03E4453F9967223F29
:1013100000E2433F25D2243F70D8413F5636273F55
:1013200067C73F3F1594293FF9AE3D3F4AEB2B3F3E
:101330003B8F3B3FDE3B2E3F4268393FBB85303F12
:10134000233A373FC9C8323FF304353FF304353FF2
:10135000C9C8323F233A373FBB85303F4268393FE7
:10136000DE3B2E3F3B8F3B3F4AEB2B3FF9AE3D3FF1
:101370001594293F67C73F3F5636273F70D8413FF6
:1013800025D2243F00E2433F9967223F03E4453FD3
:10139000CBF61F3F65DE473FD17F1D3F12D1493F4E
:1013A000C6021B3FF8BB4B3FC07F183F029F4D3F1B
:1013B000D9F6153F1F7A4F3F2A68133F3D4D513FE5
:1013C000CDD3103F4918533FDA390E3F31DB543F3C
:1013D0006B9A0B3FE595563F9BF5083F5348583FA6
:1013E000824B063F6AF2593F3D9C033F1A945B3F94
:1013F000E4E7003F532D5D3F275DFC3E05BE5E3FA9
:10140000CBE0F63E2146603FEA5AF13E98C5613F87
:10141000BBCBEB3E5A3C633F7533E63E59AA643F73
:101420004F92E03E880F663F80E8DA3ED86B673F18
:101430004136D53E3CBF683FCA7BCF3EA7096A3FD5
:1014400053B9C93E0C4B6B3F15EFC33E5E836C3FF7
:101450004A1DBE3E93B26D3F2A44B83E9ED86E3FB1
:10146000EF63B23E73F56F3FD47CAC3E0809713F29
:10147000128FA63E5213723FE59AA03E4714733F67
:1014800086A09A3EDD0B743F31A0943E0BFA743F68
:10149000229A8E3EC6DE753F938E883E07BA763F0F
:1014A000C07D823EC58B773FCCCF783EF853783FE6
:1014B0007F9A6C3E9812793F135C603E9DC7793FDE
:1014C0000115543E02737A3FC2C5473EBE147B3FAE
:1014D000CF6E3B3ECDAC7B3FA2102F3E283B7C3FE6
:1014E000B6AB223EC9BF7C3F8340163EAC3A7D3F3F
:1014F00086CF093ECCAB7D3F73B2FA3D24137E3FCD
:101500002EBCE13DB0707E3F36BDC83D6DC47E3F10
:1015100080B6AF3D580E7F3F05A9963D6D4E7F3F8B
:10152000742B7B3DAB847F3F2FFB483D0FB17F3F4A
:101530002CC3163D98D37F3FB00AC93C43EC7F3F94
:10154000900E493C11FB7F3F000000000000803FEF
:10155000900E49BC11FB7F3FB00AC9BC43EC7F3FF2
:101560002CC316BD98D37F3F2FFB48BD0FB17F3FE3
:10157000742B7BBDAB847F3F05A996BD6D4E7F3F2D
:1015800080B6AFBD580E7F3F36BDC8BD6DC47E3F2F
:101590002EBCE1BDB0707E3F73B2FABD24137E3F16
:1015A00086CF09BECCAB7D3F834016BEAC3A7D3FB3
:1015B000B6AB22BEC9BF7C3FA2102FBE283B7C3FEA
:1015C000CF6E3BBECDAC7B3FC2C547BEBE147B3F9A
:1015D000011554BE02737A3F135C60BE9DC7793F0C
:1015E0007F9A6CBE9812793FCCCF78BEF853783F83
:1015F000C07D82BEC58B773F938E88BE07BA763F8B
:10160000229A8EBEC6DE753F31A094BE0BFA743F9F
:1016100086A09ABEDD0B743FE59AA0BE4714733FC7
:10162000128FA6BE5213723FD47CACBE0809713F24
:10163000EF63B2BE73F56F3F2A44B8BE9ED86E3FCB
:101640004A1DBEBE93B26D3F15EFC3BE5E836C3FB5
:1016500053B9C9BE0C4B6B3FCA7BCFBEA7096A3FCB
:101660004136D5BE3CBF683F80E8DABED86B673FE5
:101670004F92E0BE880F663F7533E6BE59AA643FBD
:10168000BBCBEBBE5A3C633FEA5AF1BE98C5613F03
:10169000CBE0F6BE2146603F275DFCBE05BE5E3F47
:1016A000E4E700BF532D5D3F3D9C03BF1A945B3FB1
:1016B000824B06BF6AF2593F9BF508BF5348583F1B
:1016C0006B9A0BBFE595563FDA390EBF31DB543FBD
:1016D000CDD310BF4918533F2A6813BF3D4D513F2A
:1016E000D9F615BF1F7A4F3FC07F18BF029F4D3FED
:1016F000C6021BBFF8BB4B3FD17F1DBF12D1493F74
:10170000CBF61FBF65DE473F996722BF03E4453F25
:1017100025D224BF00E2433F563627BF70D8413F51
:10172000159429BF67C73F3F4AEB2BBFF9AE3D3F3A
:10173000DE3B2EBF3B8F3B3FBB8530BF4268393F0E
:10174000C9C832BF233A373FF30435BFF304353FEE
:10175000233A37BFC9C8323F426839BFBB85303FE3
:101760003B8F3BBFDE3B2E3FF9AE3DBF4AEB2B3FED
:1017700067C73FBF1594293F70D841BF5636273FF2
:1017800000E243BF25D2243F03E445BF9967223FCF
:1017900065DE47BFCBF61F3F12D149BFD17F1D3F4A
:1017A000F8BB4BBFC6021B3F029F4DBFC07F183F17
:1017B0001F7A4FBFD9F6153F3D4D51BF2A68133FE1
:1017C000491853BFCDD3103F31DB54BFDA390E3F38
:1017D000E59556BF6B9A0B3F534858BF9BF5083FA2
:1017E0006AF259BF824B063F1A945BBF3D9C033F90
:1017F000532D5DBFE4E7003F05BE5EBF275DFC3EA5
:10180000214660BFCBE0F63E98C561BFEA5AF13E83
:101810005A3C63BFBBCBEB3E59AA64BF7533E63E6F
:10182000880F66BF4F92E03ED86B67BF80E8DA3E14
:101830003CBF68BF4136D53EA7096ABFCA7BCF3ED1
:101840000C4B6BBF53B9C93E5E836CBF15EFC33EF3
:1018500093B26DBF4A1DBE3E9ED86EBF2A44B83EAD
:1018600073F56FBFEF63B23E080971BFD47CAC3E25
:10187000521372BF128FA63E471473BFE59AA03E63
:10188000DD0B74BF86A09A3E0BFA74BF31A0943E64
:10189000C6DE75BF229A8E3E07BA76BF938E883E0B
:1018A000C58B77BFC07D823EF85378BFCCCF783EE2
:1018B000981279BF7F9A6C3E9DC779BF135C603EDA
:1018C00002737ABF0115543EBE147BBFC2C5473EAA
:1018D000CDAC7BBFCF6E3B3E283B7CBFA2102F3EE2
:1018E000C9BF7CBFB6AB223EAC3A7DBF8340163E3B
:1018F000CCAB7DBF86CF093E24137EBF73B2FA3DC9
:10190000B0707EBF2EBCE13D6DC47EBF36BDC83D0C
:10191000580E7FBF80B6AF3D6D4E7FBF05A9963D87
:10192000AB847FBF742B7B3D0FB17FBF2FFB483D46
:1019300098D37FBF2CC3163D43EC7FBFB00AC93C90
:1019400011FB7FBF900E493C000080BF00000000EB
:1019500011FB7FBF900E49BC43EC7FBFB00AC9BCEE
:1019600098D37FBF2CC316BD0FB17FBF2FFB48BDDF
:10197000AB847FBF742B7BBD6D4E7FBF05A996BD29
:10198000580E7FBF80B6AFBD6DC47EBF36BDC8BD2B
:10199000B0707EBF2EBCE1BD24137EBF73B2FABD12
:1019A000CCAB7DBF86CF09BEAC3A7DBF834016BEAF
:1019B000C9BF7CBFB6AB22BE283B7CBFA2102FBEE6
:1019C000CDAC7BBFCF6E3BBEBE147BBFC2C547BE96
:1019D00002737ABF011554BE9DC779BF135C60BE08
:1019E000981279BF7F9A6CBEF85378BFCCCF78BE7F
:1019F000C58B77BFC07D82BE07BA76BF938E88BE87
:101A0000C6DE75BF229A8EBE0BFA74BF31A094BE9B
:101A1000DD0B74BF86A09ABE471473BFE59AA0BEC3
:101A2000521372BF128FA6BE080971BFD47CACBE20
:101A300073F56FBFEF63B2BE9ED86EBF2A44B8BEC7
:101A400093B26DBF4A1DBEBE5E836CBF15EFC3BEB1
:101A50000C4B6BBF53B9C9BEA7096ABFCA7BCFBEC7
:101A60003CBF68BF4136D5BED86B67BF80E8DABEE1
:101A7000880F66BF4F92E0BE59AA64BF7533E6BEB9
:101A80005A3C63BFBBCBEBBE98C561BFEA5AF1BEFF
:101A9000214660BFCBE0F6BE05BE5EBF275DFCBE43
:101AA000532D5DBFE4E700BF1A945BBF3D9C03BFAD
:101AB0006AF259BF824B06BF534858BF9BF508BF17
:101AC000E59556BF6B9A0BBF31DB54BFDA390EBFB9
:101AD000491853BFCDD310BF3D4D51BF2A6813BF26
:101AE0001F7A4FBFD9F615BF029F4DBFC07F18BFE9
:101AF000F8BB4BBFC6021BBF12D149BFD17F1DBF70
:101B000065DE47BFCBF61FBF03E445BF996722BF21
:101B100000E243BF25D224BF70D841BF563627BF4D
:101B200067C73FBF159429BFF9AE3DBF4AEB2BBF36
:101B30003B8F3BBFDE3B2EBF426839BFBB8530BF0A
:101B4000233A37BFC9C832BFF30435BFF30435BFEA
:101B5000C9C832BF233A37BFBB8530BF426839BFDF
:101B6000DE3B2EBF3B8F3BBF4AEB2BBFF9AE3DBFE9
:101B7000159429BF67C73FBF563627BF70D841BFEE
:101B800025D224BF00E243BF996722BF03E445BFCB
:101B9000CBF61FBF65DE47BFD17F1DBF12D149BF46
:101BA000C6021BBFF8BB4BBFC07F18BF029F4DBF13
:101BB000D9F615BF1F7A4FBF2A6813BF3D4D51BFDD
:101BC000CDD310BF491853BFDA390EBF31DB54BF34
:101BD0006B9A0BBFE59556BF9BF508BF534858BF9E
:101BE000824B06BF6AF259BF3D9C03BF1A945BBF8C
:101BF000E4E700BF532D5DBF275DFCBE05BE5EBFA1
:101C0000CBE0F6BE214660BFEA5AF1BE98C561BF7F
:101C1000BBCBEBBE5A3C63BF7533E6BE59AA64BF6B
:101C20004F92E0BE880F66BF80E8DABED86B67BF10
:101C30004136D5BE3CBF68BFCA7BCFBEA7096ABFCD
:101C400053B9C9BE0C4B6BBF15EFC3BE5E836CBFEF
:101C50004A1DBEBE93B26DBF2A44B8BE9ED86EBFA9
:101C6000EF63B2BE73F56FBFD47CACBE080971BF21
:101C7000128FA6BE521372BFE59AA0BE471473BF5F
:101C800086A09ABEDD0B74BF31A094BE0BFA74BF60
:101C9000229A8EBEC6DE75BF938E88BE07BA76BF07
:101CA000C07D82BEC58B77BFCCCF78BEF85378BFDE
:101CB0007F9A6CBE981279BF135C60BE9DC779BFD6
:101CC000011554BE02737ABFC2C547BEBE147BBFA6
:101CD000CF6E3BBECDAC7BBFA2102FBE283B7CBFDE
:101CE000B6AB22BEC9BF7CBF834016BEAC3A7DBF37
:101CF00086CF09BECCAB7DBF73B2FABD24137EBFC5
:101D00002EBCE1BDB0707EBF36BDC8BD6DC47EBF08
:101D100080B6AFBD580E7FBF05A996BD6D4E7FBF83
:101D2000742B7BBDAB847FBF2FFB48BD0FB17FBF42
:101D30002CC316BD98D37FBFB00AC9BC43EC7FBF8C
:101D4000900E49BC11FB7FBF00000080000080BFE7
:101D5000900E493C11FB7FBFB00AC93C43EC7FBFEA
:101D60002CC3163D98D37FBF2FFB483D0FB17FBFDB
:101D7000742B7B3DAB847FBF05A9963D6D4E7FBF25
:101D800080B6AF3D580E7FBF36BDC83D6DC47EBF27
:101D90002EBCE13DB0707EBF73B2FA3D24137EBF0E
:101DA00086CF093ECCAB7DBF8340163EAC3A7DBFAB
:101DB000B6AB223EC9BF7CBFA2102F3E283B7CBFE2
:101DC000CF6E3B3ECDAC7BBFC2C5473EBE147BBF92
:101DD0000115543E02737ABF135C603E9DC779BF04
:101DE0007F9A6C3E981279BFCCCF783EF85378BF7B
:101DF000C07D823EC58B77BF938E883E07BA76BF83
:101E0000229A8E3EC6DE75BF31A0943E0BFA74BF97
:101E100086A09A3EDD0B74BFE59AA03E471473BFBF
:101E2000128FA63E521372BFD47CAC3E080971BF1C
:101E3000EF63B23E73F56FBF2A44B83E9ED86EBFC3
:101E40004A1DBE3E93B26DBF15EFC33E5E836CBFAD
:101E500053B9C93E0C4B6BBFCA7BCF3EA7096ABFC3
:101E60004136D53E3CBF68BF80E8DA3ED86B67BFDD
:101E70004F92E03E880F66BF7533E63E59AA64BFB5
:101E8000BBCBEB3E5A3C63BFEA5AF13E98C561BFFB
:101E9000CBE0F63E214660BF275DFC3E05BE5EBF3F
:101EA000E4E7003F532D5DBF3D9C033F1A945BBFA9
:101EB000824B063F6AF259BF9BF5083F534858BF13
:101EC0006B9A0B3FE59556BFDA390E3F31DB54BFB5
:101ED000CDD3103F491853BF2A68133F3D4D51BF22
:101EE000D9F6153F1F7A4FBFC07F183F029F4DBFE5
:101EF000C6021B3FF8BB4BBFD17F1D3F12D149BF6C
:101F0000CBF61F3F65DE47BF9967223F03E445BF1D
:101F100025D2243F00E243BF5636273F70D841BF49
:101F20001594293F67C73FBF4AEB2B3FF9AE3DBF32
:101F3000DE3B2E3F3B8F3BBFBB85303F426839BF06
:101F4000C9C8323F233A37BFF304353FF30435BFE6
:101F5000233A373FC9C832BF4268393FBB8530BFDB
:101F60003B8F3B3FDE3B2EBFF9AE3D3F4AEB2BBFE5
:101F700067C73F3F159429BF70D8413F563627BFEA
:101F800000E2433F25D224BF03E4453F996722BFC7
:101F900065DE473FCBF61FBF12D1493FD17F1DBF42
:101FA000F8BB4B3FC6021BBF029F4D3FC07F18BF0F
:101FB0001F7A4F3FD9F615BF3D4D513F2A6813BFD9
:101FC0004918533FCDD310BF31DB543FDA390EBF30
:101FD000E595563F6B9A0BBF5348583F9BF508BF9A
:101FE0006AF2593F824B06BF1A945B3F3D9C03BF88
:101FF000532D5D3FE4E700BF05BE5E3F275DFCBE9D
:102000002146603FCBE0F6BE98C5613FEA5AF1BE7B
:102010005A3C633FBBCBEBBE59AA643F7533E6BE67
:10202000880F663F4F92E0BED86B673F80E8DABE0C
:102030003CBF683F4136D5BEA7096A3FCA7BCFBEC9
:102040000C4B6B3F53B9C9BE5E836C3F15EFC3BEEB
:1020500093B26D3F4A1DBEBE9ED86E3F2A44B8BEA5
:1020600073F56F3FEF63B2BE0809713FD47CACBE1D
:102070005213723F128FA6BE4714733FE59AA0BE5B
:10208000DD0B743F86A09ABE0BFA743F31A094BE5C
:10209000C6DE753F229A8EBE07BA763F938E88BE03
:1020A000C58B773FC07D82BEF853783FCCCF78BEDA
:1020B0009812793F7F9A6CBE9DC7793F135C60BED2
:1020C00002737A3F011554BEBE147B3FC2C547BEA2
:1020D000CDAC7B3FCF6E3BBE283B7C3FA2102FBEDA
:1020E000C9BF7C3FB6AB22BEAC3A7D3F834016BE33
:1020F000CCAB7D3F86CF09BE24137E3F73B2FABDC1
:10210000B0707E3F2EBCE1BD6DC47E3F36BDC8BD04
:10211000580E7F3F80B6AFBD6D4E7F3F05A996BD7F
:10212000AB847F3F742B7BBD0FB17F3F2FFB48BD3E
:1021300098D37F3F2CC316BD43EC7F3FB00AC9BC88
:1021400011FB7F3F900E49BC0000803F0000000063
:10215000C4FE7F3F890FC93B11FB7F3F900E493C76
:10216000E6F47F3FB6C9963C43EC7F3FB00AC93CDA
:1021700029E17F3FB949FB3C98D37F3F2CC3163DF3
:102180008FC37F3F07E02F3D0FB17F3F2FFB483DBF
:10219000189C7F3F6814623DAB847F3F742B7B3D6E
:1021A000C76A7F3F0A208A3D6D4E7F3F05A9963D55
:1021B0009D2F7F3F8C30A33D580E7F3F80B6AF3DB3
:1021C0009DEA7E3FC33ABC3D6DC47E3F36BDC83DEF
:1021D000C99B7E3FB93DD53DB0707E3F2EBCE13DF1
:1021E00023437E3F7638EE3D24137E3F73B2FA3DA3
:1021F000B1E07D3F0295033ECCAB7D3F86CF093EEB
:1022000074747D3FB708103EAC3A7D3F8340163E64
:1022100073FE7C3FDE761C3EC9BF7C3FB6AB223EE0
:10222000B07E7C3FFCDE283E283B7C3FA2102F3E48
:1022300031F57B3F9840353ECDAC7B3FCF6E3B3E8A
:10224000FC617B3F379B413EBE147B3FC2C5473E8E
:1022500016C57A3F60EE4D3E02737A3F0115543E3B
:10226000841E7A3F97395A3E9DC7793F135C603E82
:102270004E6E793F667C663E9812793F7F9A6C3E3F
:102280007BB4783F51B6723EF853783FCCCF783E5E
:1022900010F1773FE1E67E3EC58B773FC07D823E01
:1022A0001724773FCE86853E07BA763F938E883EC9
:1022B000974D763F07958B3EC6DE753F229A8E3E40
:1022C000976D753FDD9D913E0BFA743F31A0943EB2
:1022D0002284743F17A1973EDD0B743F86A09A3E7F
:1022E0003F91733F789E9D3E4714733FE59AA03E11
:1022F000F894723FC595A33E5213723F128FA63ECB
:10230000578F713FC486A93E0809713FD47CAC3E0B
:102310006680703F3A71AF3E73F56F3FEF63B23E38
:1023200030686F3FEC54B53E9ED86E3F2A44B83EAD
:10233000BE466E3FA031BB3E93B26D3F4A1DBE3ECE
:102340001D1C6D3F1E07C13E5E836C3F15EFC33EF3
:1023500058E86B3F29D5C63E0C4B6B3F53B9C93E7D
:102360007BAB6A3F8B9BCC3EA7096A3FCA7BCF3EC3
:102370009165693F095AD23E3CBF683F4136D53E20
:10238000A816683F6B10D83ED86B673F80E8DA3EEE
:10239000CCBE663F79BEDD3E880F663F4F92E03E81
:1023A0000B5E653FFA63E33E59AA643F7533E63E30
:1023B00073F4633FB700E93E5A3C633FBBCBEB3E4F
:1023C0001082623F7994EE3E98C5613FEA5AF13E31
:1023D000F206613F071FF43E2146603FCBE0F63E28
:1023E00027835F3F2DA0F93E05BE5E3F275DFC3E83
:1023F000BEF65D3FB217FF3E532D5D3FE4E7003F61
:10240000C7615C3FB142023F1A945B3F3D9C033F72
:1024100050C45A3F84F4043F6AF2593F824B063F4E
:102420006A1E593F36A1073F5348583F9BF5083F66
:102430002670573FAD480A3FE595563F6B9A0B3FD4
:1024400093B9553FD0EA0C3F31DB543FDA390E3FA8
:10245000C3FA533F84870F3F4918533FCDD3103FF2
:10246000C633523FB01E123F3D4D513F2A68133FC5
:10247000AF64503F39B0143F1F7A4F3FD9F6153F34
:10248000908D4E3F073C173F029F4D3FC07F183F46
:1024900079AE4C3F00C2193FF8BB4B3FC6021B3F11
:1024A0007FC74A3F0C421C3F12D1493FD17F1D3F9D
:1024B000B3D8483F12BC1E3F65DE473FCBF61F3FF7
:1024C0002AE2463FF92F213F03E4453F9967223F27
:1024D000F5E3443FA99D233F00E2433F25D2243F3B
:1024E00029DE423F0A05263F70D8413F5636273F36
:1024F000DAD0403F0566283F67C73F3F1594293F24
:102500001BBC3E3F82C02A3FF9AE3D3F4AEB2B3F0A
:1025100003A03C3F69142D3F3B8F3B3FDE3B2E3FEA
:10252000A47C3A3FA5612F3F4268393FBB85303FCD
:102530001652383F1DA8313F233A373FC9C8323FB2
:102540006C20363FBCE7333FF304353FF304353F9F
:10255000BCE7333F6C20363FC9C8323F233A373F90
:102560001DA8313F1652383FBB85303F4268393F86
:10257000A5612F3FA47C3A3FDE3B2E3F3B8F3B3F84
:1025800069142D3F03A03C3F4AEB2B3FF9AE3D3F82
:1025900082C02A3F1BBC3E3F1594293F67C73F3F7F
:1025A0000566283FDAD0403F5636273F70D8413F76
:1025B0000A05263F29DE423F25D2243F00E2433F61
:1025C000A99D233FF5E3443F9967223F03E4453F3C
:1025D000F92F213F2AE2463FCBF61F3F65DE473FFA
:1025E00012BC1E3FB3D8483FD17F1D3F12D1493F97
:1025F0000C421C3F7FC74A3FC6021B3FF8BB4B3F04
:1026000000C2193F79AE4C3FC07F183F029F4D3F3B
:10261000073C173F908D4E3FD9F6153F1F7A4F3F2D
:1026200039B0143FAF64503F2A68133F3D4D513FCE
:10263000B01E123FC633523FCDD3103F4918533F0F
:1026400084870F3FC3FA533FDA390E3F31DB543FE3
:10265000D0EA0C3F93B9553F6B9A0B3FE595563F37
:10266000AD480A3F2670573F9BF5083F5348583FF7
:1026700036A1073F6A1E593F824B063F6AF2593F17
:1026800084F4043F50C45A3F3D9C033F1A945B3F7F
:10269000B142023FC7615C3FE4E7003F532D5D3F1D
:1026A000B217FF3EBEF65D3F275DFC3E05BE5E3FB6
:1026B0002DA0F93E27835F3FCBE0F63E2146603FE9
:1026C000071FF43EF206613FEA5AF13E98C5613FAA
:1026D0007994EE3E1082623FBBCBEB3E5A3C633FA7
:1026E000B700E93E73F4633F7533E63E59AA643F91
:1026F000FA63E33E0B5E653F4F92E03E880F663F14
:1027000079BEDD3ECCBE663F80E8DA3ED86B673FDF
:102710006B10D83EA816683F4136D53E3CBF683F97
:10272000095AD23E9165693FCA7BCF3EA7096A3FED
:102730008B9BCC3E7BAB6A3F53B9C93E0C4B6B3F86
:1027400029D5C63E58E86B3F15EFC33E5E836C3F0C
:102750001E07C13E1D1C6D3F4A1DBE3E93B26D3F1C
:10276000A031BB3EBE466E3F2A44B83E9ED86E3F67
:10277000EC54B53E30686F3FEF63B23E73F56F3F88
:102780003A71AF3E6680703FD47CAC3E0809713F21
:10279000C486A93E578F713F128FA63E5213723FD7
:1027A000C595A33EF894723FE59AA03E4714733F47
:1027B000789E9D3E3F91733F86A09A3EDD0B743F0D
:1027C00017A1973E2284743F31A0943E0BFA743FC8
:1027D000DD9D913E976D753F229A8E3EC6DE753F18
:1027E00007958B3E974D763F938E883E07BA763F8E
:1027F000CE86853E1724773FC07D823EC58B773FCE
:10280000E1E67E3E10F1773FCCCF783EF853783F3B
:1028100051B6723E7BB4783F7F9A6C3E9812793FF6
:10282000667C663E4E6E793F135C603E9DC7793F85
:1028300097395A3E841E7A3F0115543E02737A3FFF
:1028400060EE4D3E16C57A3FC2C5473EBE147B3F83
:10285000379B413EFC617B3FCF6E3B3ECDAC7B3F27
:102860009840353E31F57B3FA2102F3E283B7C3F00
:10287000FCDE283EB07E7C3FB6AB223EC9BF7C3F2B
:10288000DE761C3E73FE7C3F8340163EAC3A7D3FB5
:10289000B708103E74747D3F86CF093ECCAB7D3FB8
:1028A0000295033EB1E07D3F73B2FA3D24137E3FB3
:1028B0007638EE3D23437E3F2EBCE13DB0707E3F37
:1028C000B93DD53DC99B7E3F36BDC83D6DC47E3FF9
:1028D000C33ABC3D9DEA7E3F80B6AF3D580E7F3F78
:1028E0008C30A33D9D2F7F3F05A9963D6D4E7F3FC8
:1028F0000A208A3DC76A7F3F742B7B3DAB847F3FB4
:102900006814623D189C7F3F2FFB483D0FB17F3F0D
:1029100007E02F3D8FC37F3F2CC3163D98D37F3FE9
:10292000B949FB3C29E17F3FB00AC93C43EC7F3FFA
:10293000B6C9963CE6F47F3F900E493C11FB7F3FC1
:10294000890FC93BC4FE7F3F000000000000803FAC
:10295000890FC9BBC4FE7F3F900E49BC11FB7F3F6E
:10296000B6C996BCE6F47F3FB00AC9BC43EC7F3FD2
:10297000B949FBBC29E17F3F2CC316BD98D37F3FEB
:1029800007E02FBD8FC37F3F2FFB48BD0FB17F3FB7
:10299000681462BD189C7F3F742B7BBDAB847F3F66
:1029A0000A208ABDC76A7F3F05A996BD6D4E7F3F4D
:1029B0008C30A3BD9D2F7F3F80B6AFBD580E7F3FAB
:1029C000C33ABCBD9DEA7E3F36BDC8BD6DC47E3FE7
:1029D000B93DD5BDC99B7E3F2EBCE1BDB0707E3FE9
:1029E0007638EEBD23437E3F73B2FABD24137E3F9B
:1029F000029503BEB1E07D3F86CF09BECCAB7D3FE3
:102A0000B70810BE74747D3F834016BEAC3A7D3F5C
:102A1000DE761CBE73FE7C3FB6AB22BEC9BF7C3FD8
:102A2000FCDE28BEB07E7C3FA2102FBE283B7C3F40
:102A3000984035BE31F57B3FCF6E3BBECDAC7B3F82
:102A4000379B41BEFC617B3FC2C547BEBE147B3F86
:102A500060EE4DBE16C57A3F011554BE02737A3F33
:102A600097395ABE841E7A3F135C60BE9DC7793F7A
:102A7000667C66BE4E6E793F7F9A6CBE9812793F37
:102A800051B672BE7BB4783FCCCF78BEF853783F56
:102A9000E1E67EBE10F1773FC07D82BEC58B773FF9
:102AA000CE8685BE1724773F938E88BE07BA763FC1
:102AB00007958BBE974D763F229A8EBEC6DE753F38
:102AC000DD9D91BE976D753F31A094BE0BFA743FAA
:102AD00017A197BE2284743F86A09ABEDD0B743F77
:102AE000789E9DBE3F91733FE59AA0BE4714733F09
:102AF000C595A3BEF894723F128FA6BE5213723FC3
:102B0000C486A9BE578F713FD47CACBE0809713F03
:102B10003A71AFBE6680703FEF63B2BE73F56F3F30
:102B2000EC54B5BE30686F3F2A44B8BE9ED86E3FA5
:102B3000A031BBBEBE466E3F4A1DBEBE93B26D3FC6
:102B40001E07C1BE1D1C6D3F15EFC3BE5E836C3FEB
:102B500029D5C6BE58E86B3F53B9C9BE0C4B6B3F75
:102B60008B9BCCBE7BAB6A3FCA7BCFBEA7096A3FBB
:102B7000095AD2BE9165693F4136D5BE3CBF683F18
:102B80006B10D8BEA816683F80E8DABED86B673FE6
:102B900079BEDDBECCBE663F4F92E0BE880F663F79
:102BA000FA63E3BE0B5E653F7533E6BE59AA643F28
:102BB000B700E9BE73F4633FBBCBEBBE5A3C633F47
:102BC0007994EEBE1082623FEA5AF1BE98C5613F29
:102BD000071FF4BEF206613FCBE0F6BE2146603F20
:102BE0002DA0F9BE27835F3F275DFCBE05BE5E3F7B
:102BF000B217FFBEBEF65D3FE4E700BF532D5D3F59
:102C0000B14202BFC7615C3F3D9C03BF1A945B3F6A
:102C100084F404BF50C45A3F824B06BF6AF2593F46
:102C200036A107BF6A1E593F9BF508BF5348583F5E
:102C3000AD480ABF2670573F6B9A0BBFE595563FCC
:102C4000D0EA0CBF93B9553FDA390EBF31DB543FA0
:102C500084870FBFC3FA533FCDD310BF4918533FEA
:102C6000B01E12BFC633523F2A6813BF3D4D513FBD
:102C700039B014BFAF64503FD9F615BF1F7A4F3F2C
:102C8000073C17BF908D4E3FC07F18BF029F4D3F3E
:102C900000C219BF79AE4C3FC6021BBFF8BB4B3F09
:102CA0000C421CBF7FC74A3FD17F1DBF12D1493F95
:102CB00012BC1EBFB3D8483FCBF61FBF65DE473FEF
:102CC000F92F21BF2AE2463F996722BF03E4453F1F
:102CD000A99D23BFF5E3443F25D224BF00E2433F33
:102CE0000A0526BF29DE423F563627BF70D8413F2E
:102CF000056628BFDAD0403F159429BF67C73F3F1C
:102D000082C02ABF1BBC3E3F4AEB2BBFF9AE3D3F02
:102D100069142DBF03A03C3FDE3B2EBF3B8F3B3FE2
:102D2000A5612FBFA47C3A3FBB8530BF4268393FC5
:102D30001DA831BF1652383FC9C832BF233A373FAA
:102D4000BCE733BF6C20363FF30435BFF304353F97
:102D50006C2036BFBCE7333F233A37BFC9C8323F88
:102D6000165238BF1DA8313F426839BFBB85303F7E
:102D7000A47C3ABFA5612F3F3B8F3BBFDE3B2E3F7C
:102D800003A03CBF69142D3FF9AE3DBF4AEB2B3F7A
:102D90001BBC3EBF82C02A3F67C73FBF1594293F77
:102DA000DAD040BF0566283F70D841BF5636273F6E
:102DB00029DE42BF0A05263F00E243BF25D2243F59
:102DC000F5E344BFA99D233F03E445BF9967223F34
:102DD0002AE246BFF92F213F65DE47BFCBF61F3FF2
:102DE000B3D848BF12BC1E3F12D149BFD17F1D3F8F
:102DF0007FC74ABF0C421C3FF8BB4BBFC6021B3FFC
:102E000079AE4CBF00C2193F029F4DBFC07F183F33
:102E1000908D4EBF073C173F1F7A4FBFD9F6153F25
:102E2000AF6450BF39B0143F3D4D51BF2A68133FC6
:102E3000C63352BFB01E123F491853BFCDD3103F07
:102E4000C3FA53BF84870F3F31DB54BFDA390E3FDB
:102E500093B955BFD0EA0C3FE59556BF6B9A0B3F2F
:102E6000267057BFAD480A3F534858BF9BF5083FEF
:102E70006A1E59BF36A1073F6AF259BF824B063F0F
:102E800050C45ABF84F4043F1A945BBF3D9C033F77
:102E9000C7615CBFB142023F532D5DBFE4E7003F15
:102EA000BEF65DBFB217FF3E05BE5EBF275DFC3EAE
:102EB00027835FBF2DA0F93E214660BFCBE0F63EE1
:102EC000F20661BF071FF43E98C561BFEA5AF13EA2
:102ED000108262BF7994EE3E5A3C63BFBBCBEB3E9F
:102EE00073F463BFB700E93E59AA64BF7533E63E89
:102EF0000B5E65BFFA63E33E880F66BF4F92E03E0C
:102F0000CCBE66BF79BEDD3ED86B67BF80E8DA3ED7
:102F1000A81668BF6B10D83E3CBF68BF4136D53E8F
:102F2000916569BF095AD23EA7096ABFCA7BCF3EE5
:102F30007BAB6ABF8B9BCC3E0C4B6BBF53B9C93E7E
:102F400058E86BBF29D5C63E5E836CBF15EFC33E04
:102F50001D1C6DBF1E07C13E93B26DBF4A1DBE3E14
:102F6000BE466EBFA031BB3E9ED86EBF2A44B83E5F
:102F700030686FBFEC54B53E73F56FBFEF63B23E80
:102F8000668070BF3A71AF3E080971BFD47CAC3E19
:102F9000578F71BFC486A93E521372BF128FA63ECF
:102FA000F89472BFC595A33E471473BFE59AA03E3F
:102FB0003F9173BF789E9D3EDD0B74BF86A09A3E05
:102FC000228474BF17A1973E0BFA74BF31A0943EC0
:102FD000976D75BFDD9D913EC6DE75BF229A8E3E10
:102FE000974D76BF07958B3E07BA76BF938E883E86
:102FF000172477BFCE86853EC58B77BFC07D823EC6
:1030000010F177BFE1E67E3EF85378BFCCCF783E33
:103010007BB478BF51B6723E981279BF7F9A6C3EEE
:103020004E6E79BF667C663E9DC779BF135C603E7D
:10303000841E7ABF97395A3E02737ABF0115543EF7
:1030400016C57ABF60EE4D3EBE147BBFC2C5473E7B
:10305000FC617BBF379B413ECDAC7BBFCF6E3B3E1F
:1030600031F57BBF9840353E283B7CBFA2102F3EF8
:10307000B07E7CBFFCDE283EC9BF7CBFB6AB223E23
:1030800073FE7CBFDE761C3EAC3A7DBF8340163EAD
:1030900074747DBFB708103ECCAB7DBF86CF093EB0
:1030A000B1E07DBF0295033E24137EBF73B2FA3DAB
:1030B00023437EBF7638EE3DB0707EBF2EBCE13D2F
:1030C000C99B7EBFB93DD53D6DC47EBF36BDC83DF1
:1030D0009DEA7EBFC33ABC3D580E7FBF80B6AF3D70
:1030E0009D2F7FBF8C30A33D6D4E7FBF05A9963DC0
:1030F000C76A7FBF0A208A3DAB847FBF742B7B3DAC
:10310000189C7FBF6814623D0FB17FBF2FFB483D05
:103110008FC37FBF07E02F3D98D37FBF2CC3163DE1
:1031200029E17FBFB949FB3C43EC7FBFB00AC93CF2
:10313000E6F47FBFB6C9963C11FB7FBF900E493CB9
:10314000C4FE7FBF890FC93B000080BF00000000A4
:10315000C4FE7FBF890FC9BB11FB7FBF900E49BC66
:10316000E6F47FBFB6C996BC43EC7FBFB00AC9BCCA
:1031700029E17FBFB949FBBC98D37FBF2CC316BDE3
:103180008FC37FBF07E02FBD0FB17FBF2FFB48BDAF
:10319000189C7FBF681462BDAB847FBF742B7BBD5E
:1031A000C76A7FBF0A208ABD6D4E7FBF05A996BD45
:1031B0009D2F7FBF8C30A3BD580E7FBF80B6AFBDA3
:1031C0009DEA7EBFC33ABCBD6DC47EBF36BDC8BDDF
:1031D000C99B7EBFB93DD5BDB0707EBF2EBCE1BDE1
:1031E00023437EBF7638EEBD24137EBF73B2FABD93
:1031F000B1E07DBF029503BECCAB7DBF86CF09BEDB
:1032000074747DBFB70810BEAC3A7DBF834016BE54
:1032100073FE7CBFDE761CBEC9BF7CBFB6AB22BED0
:10322000B07E7CBFFCDE28BE283B7CBFA2102FBE38
:1032300031F57BBF984035BECDAC7BBFCF6E3BBE7A
:10324000FC617BBF379B41BEBE147BBFC2C547BE7E
:1032500016C57ABF60EE4DBE02737ABF011554BE2B
:10326000841E7ABF97395ABE9DC779BF135C60BE72
:103270004E6E79BF667C66BE981279BF7F9A6CBE2F
:103280007BB478BF51B672BEF85378BFCCCF78BE4E
:1032900010F177BFE1E67EBEC58B77BFC07D82BEF1
:1032A000172477BFCE8685BE07BA76BF938E88BEB9
:1032B000974D76BF07958BBEC6DE75BF229A8EBE30
:1032C000976D75BFDD9D91BE0BFA74BF31A094BEA2
:1032D000228474BF17A197BEDD0B74BF86A09ABE6F
:1032E0003F9173BF789E9DBE471473BFE59AA0BE01
:1032F000F89472BFC595A3BE521372BF128FA6BEBB
:10330000578F71BFC486A9BE080971BFD47CACBEFB
:10331000668070BF3A71AFBE73F56FBFEF63B2BE28
:1033200030686FBFEC54B5BE9ED86EBF2A44B8BE9D
:10333000BE466EBFA031BBBE93B26DBF4A1DBEBEBE
:103340001D1C6DBF1E07C1BE5E836CBF15EFC3BEE3
:1033500058E86BBF29D5C6BE0C4B6BBF53B9C9BE6D
:103360007BAB6ABF8B9BCCBEA7096ABFCA7BCFBEB3
:10337000916569BF095AD2BE3CBF68BF4136D5BE10
:10338000A81668BF6B10D8BED86B67BF80E8DABEDE
:10339000CCBE66BF79BEDDBE880F66BF4F92E0BE71
:1033A0000B5E65BFFA63E3BE59AA64BF7533E6BE20
:1033B00073F463BFB700E9BE5A3C63BFBBCBEBBE3F
:1033C000108262BF7994EEBE98C561BFEA5AF1BE21
:1033D000F20661BF071FF4BE214660BFCBE0F6BE18
:1033E00027835FBF2DA0F9BE05BE5EBF275DFCBE73
:1033F000BEF65DBFB217FFBE532D5DBFE4E700BF51
:10340000C7615CBFB14202BF1A945BBF3D9C03BF62
:1034100050C45ABF84F404BF6AF259BF824B06BF3E
:103420006A1E59BF36A107BF534858BF9BF508BF56
:10343000267057BFAD480ABFE59556BF6B9A0BBFC4
:1034400093B955BFD0EA0CBF31DB54BFDA390EBF98
:10345000C3FA53BF84870FBF491853BFCDD310BFE2
:10346000C63352BFB01E12BF3D4D51BF2A6813BFB5
:10347000AF6450BF39B014BF1F7A4FBFD9F615BF24
:10348000908D4EBF073C17BF029F4DBFC07F18BF36
:1034900079AE4CBF00C219BFF8BB4BBFC6021BBF01
:1034A0007FC74ABF0C421CBF12D149BFD17F1DBF8D
:1034B000B3D848BF12BC1EBF65DE47BFCBF61FBFE7
:1034C0002AE246BFF92F21BF03E445BF996722BF17
:1034D000F5E344BFA99D23BF00E243BF25D224BF2B
:1034E00029DE42BF0A0526BF70D841BF563627BF26
:1034F000DAD040BF056628BF67C73FBF159429BF14
:103500001BBC3EBF82C02ABFF9AE3DBF4AEB2BBFFA
:1035100003A03CBF69142DBF3B8F3BBFDE3B2EBFDA
:10352000A47C3ABFA5612FBF426839BFBB8530BFBD
:10353000165238BF1DA831BF233A37BFC9C832BFA2
:103540006C2036BFBCE733BFF30435BFF30435BF8F
:10355000BCE733BF6C2036BFC9C832BF233A37BF80
:103560001DA831BF165238BFBB8530BF426839BF76
:10357000A5612FBFA47C3ABFDE3B2EBF3B8F3BBF74
:1035800069142DBF03A03CBF4AEB2BBFF9AE3DBF72
:1035900082C02ABF1BBC3EBF159429BF67C73FBF6F
:1035A000056628BFDAD040BF563627BF70D841BF66
:1035B0000A0526BF29DE42BF25D224BF00E243BF51
:1035C000A99D23BFF5E344BF996722BF03E445BF2C
:1035D000F92F21BF2AE246BFCBF61FBF65DE47BFEA
:1035E00012BC1EBFB3D848BFD17F1DBF12D149BF87
:1035F0000C421CBF7FC74ABFC6021BBFF8BB4BBFF4
:1036000000C219BF79AE4CBFC07F18BF029F4DBF2B
:10361000073C17BF908D4EBFD9F615BF1F7A4FBF1D
:1036200039B014BFAF6450BF2A6813BF3D4D51BFBE
:10363000B01E12BFC63352BFCDD310BF491853BFFF
:1036400084870FBFC3FA53BFDA390EBF31DB54BFD3
:10365000D0EA0CBF93B955BF6B9A0BBFE59556BF27
:10366000AD480ABF267057BF9BF508BF534858BFE7
:1036700036A107BF6A1E59BF824B06BF6AF259BF07
:1036800084F404BF50C45ABF3D9C03BF1A945BBF6F
:10369000B14202BFC7615CBFE4E700BF532D5DBF0D
:1036A000B217FFBEBEF65DBF275DFCBE05BE5EBFA6
:1036B0002DA0F9BE27835FBFCBE0F6BE214660BFD9
:1036C000071FF4BEF20661BFEA5AF1BE98C561BF9A
:1036D0007994EEBE108262BFBBCBEBBE5A3C63BF97
:1036E000B700E9BE73F463BF7533E6BE59AA64BF81
:1036F000FA63E3BE0B5E65BF4F92E0BE880F66BF04
:1037000079BEDDBECCBE66BF80E8DABED86B67BFCF
:103710006B10D8BEA81668BF4136D5BE3CBF68BF87
:10372000095AD2BE916569BFCA7BCFBEA7096ABFDD
:103730008B9BCCBE7BAB6ABF53B9C9BE0C4B6BBF76
:1037400029D5C6BE58E86BBF15EFC3BE5E836CBFFC
:103750001E07C1BE1D1C6DBF4A1DBEBE93B26DBF0C
:10376000A031BBBEBE466EBF2A44B8BE9ED86EBF57
:10377000EC54B5BE30686FBFEF63B2BE73F56FBF78
:103780003A71AFBE668070BFD47CACBE080971BF11
:10379000C486A9BE578F71BF128FA6BE521372BFC7
:1037A000C595A3BEF89472BFE59AA0BE471473BF37
:1037B000789E9DBE3F9173BF86A09ABEDD0B74BFFD
:1037C00017A197BE228474BF31A094BE0BFA74BFB8
:1037D000DD9D91BE976D75BF229A8EBEC6DE75BF08
:1037E00007958BBE974D76BF938E88BE07BA76BF7E
:1037F000CE8685BE172477BFC07D82BEC58B77BFBE
:10380000E1E67EBE10F177BFCCCF78BEF85378BF2B
:1038100051B672BE7BB478BF7F9A6CBE981279BFE6
:10382000667C66BE4E6E79BF135C60BE9DC779BF75
:1038300097395ABE841E7ABF011554BE02737ABFEF
:1038400060EE4DBE16C57ABFC2C547BEBE147BBF73
:10385000379B41BEFC617BBFCF6E3BBECDAC7BBF17
:10386000984035BE31F57BBFA2102FBE283B7CBFF0
:10387000FCDE28BEB07E7CBFB6AB22BEC9BF7CBF1B
:10388000DE761CBE73FE7CBF834016BEAC3A7DBFA5
:10389000B70810BE74747DBF86CF09BECCAB7DBFA8
:1038A000029503BEB1E07DBF73B2FABD24137EBFA3
:1038B0007638EEBD23437EBF2EBCE1BDB0707EBF27
:1038C000B93DD5BDC99B7EBF36BDC8BD6DC47EBFE9
:1038D000C33ABCBD9DEA7EBF80B6AFBD580E7FBF68
:1038E0008C30A3BD9D2F7FBF05A996BD6D4E7FBFB8
:1038F0000A208ABDC76A7FBF742B7BBDAB847FBFA4
:10390000681462BD189C7FBF2FFB48BD0FB17FBFFD
:1039100007E02FBD8FC37FBF2CC316BD98D37FBFD9
:10392000B949FBBC29E17FBFB00AC9BC43EC7FBFEA
:10393000B6C996BCE6F47FBF900E49BC11FB7FBFB1
:10394000890FC9BBC4FE7FBF00000080000080BF9C
:10395000890FC93BC4FE7FBF900E493C11FB7FBF5E
:10396000B6C9963CE6F47FBFB00AC93C43EC7FBFC2
:10397000B949FB3C29E17FBF2CC3163D98D37FBFDB
:1039800007E02F3D8FC37FBF2FFB483D0FB17FBFA7
:103990006814623D189C7FBF742B7B3DAB847FBF56
:1039A0000A208A3DC76A7FBF05A9963D6D4E7FBF3D
:1039B0008C30A33D9D2F7FBF80B6AF3D580E7FBF9B
:1039C000C33ABC3D9DEA7EBF36BDC83D6DC47EBFD7
:1039D000B93DD53DC99B7EBF2EBCE13DB0707EBFD9
:1039E0007638EE3D23437EBF73B2FA3D24137EBF8B
:1039F0000295033EB1E07DBF86CF093ECCAB7DBFD3
:103A0000B708103E74747DBF8340163EAC3A7DBF4C
:103A1000DE761C3E73FE7CBFB6AB223EC9BF7CBFC8
:103A2000FCDE283EB07E7CBFA2102F3E283B7CBF30
:103A30009840353E31F57BBFCF6E3B3ECDAC7BBF72
:103A4000379B413EFC617BBFC2C5473EBE147BBF76
:103A500060EE4D3E16C57ABF0115543E02737ABF23
:103A600097395A3E841E7ABF135C603E9DC779BF6A
:103A7000667C663E4E6E79BF7F9A6C3E981279BF27
:103A800051B6723E7BB478BFCCCF783EF85378BF46
:103A9000E1E67E3E10F177BFC07D823EC58B77BFE9
:103AA000CE86853E172477BF938E883E07BA76BFB1
:103AB00007958B3E974D76BF229A8E3EC6DE75BF28
:103AC000DD9D913E976D75BF31A0943E0BFA74BF9A
:103AD00017A1973E228474BF86A09A3EDD0B74BF67
:103AE000789E9D3E3F9173BFE59AA03E471473BFF9
:103AF000C595A33EF89472BF128FA63E521372BFB3
:103B0000C486A93E578F71BFD47CAC3E080971BFF3
:103B10003A71AF3E668070BFEF63B23E73F56FBF20
:103B2000EC54B53E30686FBF2A44B83E9ED86EBF95
:103B3000A031BB3EBE466EBF4A1DBE3E93B26DBFB6
:103B40001E07C13E1D1C6DBF15EFC33E5E836CBFDB
:103B500029D5C63E58E86BBF53B9C93E0C4B6BBF65
:103B60008B9BCC3E7BAB6ABFCA7BCF3EA7096ABFAB
:103B7000095AD23E916569BF4136D53E3CBF68BF08
:103B80006B10D83EA81668BF80E8DA3ED86B67BFD6
:103B900079BEDD3ECCBE66BF4F92E03E880F66BF69
:103BA000FA63E33E0B5E65BF7533E63E59AA64BF18
:103BB000B700E93E73F463BFBBCBEB3E5A3C63BF37
:103BC0007994EE3E108262BFEA5AF13E98C561BF19
:103BD000071FF43EF20661BFCBE0F63E214660BF10
:103BE0002DA0F93E27835FBF275DFC3E05BE5EBF6B
:103BF000B217FF3EBEF65DBFE4E7003F532D5DBF49
:103C0000B142023FC7615CBF3D9C033F1A945BBF5A
:103C100084F4043F50C45ABF824B063F6AF259BF36
:103C200036A1073F6A1E59BF9BF5083F534858BF4E
:103C3000AD480A3F267057BF6B9A0B3FE59556BFBC
:103C4000D0EA0C3F93B955BFDA390E3F31DB54BF90
:103C500084870F3FC3FA53BFCDD3103F491853BFDA
:103C6000B01E123FC63352BF2A68133F3D4D51BFAD
:103C700039B0143FAF6450BFD9F6153F1F7A4FBF1C
:103C8000073C173F908D4EBFC07F183F029F4DBF2E
:103C900000C2193F79AE4CBFC6021B3FF8BB4BBFF9
:103CA0000C421C3F7FC74ABFD17F1D3F12D149BF85
:103CB00012BC1E3FB3D848BFCBF61F3F65DE47BFDF
:103CC000F92F213F2AE246BF9967223F03E445BF0F
:103CD000A99D233FF5E344BF25D2243F00E243BF23
:103CE0000A05263F29DE42BF5636273F70D841BF1E
:103CF0000566283FDAD040BF1594293F67C73FBF0C
:103D000082C02A3F1BBC3EBF4AEB2B3FF9AE3DBFF2
:103D100069142D3F03A03CBFDE3B2E3F3B8F3BBFD2
:103D2000A5612F3FA47C3ABFBB85303F426839BFB5
:103D30001DA8313F165238BFC9C8323F233A37BF9A
:103D4000BCE7333F6C2036BFF304353FF30435BF87
:103D50006C20363FBCE733BF233A373FC9C832BF78
:103D60001652383F1DA831BF4268393FBB8530BF6E
:103D7000A47C3A3FA5612FBF3B8F3B3FDE3B2EBF6C
:103D800003A03C3F69142DBFF9AE3D3F4AEB2BBF6A
:103D90001BBC3E3F82C02ABF67C73F3F159429BF67
:103DA000DAD0403F056628BF70D8413F563627BF5E
:103DB00029DE423F0A0526BF00E2433F25D224BF49
:103DC000F5E3443FA99D23BF03E4453F996722BF24
:103DD0002AE2463FF92F21BF65DE473FCBF61FBFE2
:103DE000B3D8483F12BC1EBF12D1493FD17F1DBF7F
:103DF0007FC74A3F0C421CBFF8BB4B3FC6021BBFEC
:103E000079AE4C3F00C219BF029F4D3FC07F18BF23
:103E1000908D4E3F073C17BF1F7A4F3FD9F615BF15
:103E2000AF64503F39B014BF3D4D513F2A6813BFB6
:103E3000C633523FB01E12BF4918533FCDD310BFF7
:103E4000C3FA533F84870FBF31DB543FDA390EBFCB
:103E500093B9553FD0EA0CBFE595563F6B9A0BBF1F
:103E60002670573FAD480ABF5348583F9BF508BFDF
:103E70006A1E593F36A107BF6AF2593F824B06BFFF
:103E800050C45A3F84F404BF1A945B3F3D9C03BF67
:103E9000C7615C3FB14202BF532D5D3FE4E700BF05
:103EA000BEF65D3FB217FFBE05BE5E3F275DFCBE9E
:103EB00027835F3F2DA0F9BE2146603FCBE0F6BED1
:103EC000F206613F071FF4BE98C5613FEA5AF1BE92
:103ED0001082623F7994EEBE5A3C633FBBCBEBBE8F
:103EE00073F4633FB700E9BE59AA643F7533E6BE79
:103EF0000B5E653FFA63E3BE880F663F4F92E0BEFC
:103F0000CCBE663F79BEDDBED86B673F80E8DABEC7
:103F1000A816683F6B10D8BE3CBF683F4136D5BE7F
:103F20009165693F095AD2BEA7096A3FCA7BCFBED5
:103F30007BAB6A3F8B9BCCBE0C4B6B3F53B9C9BE6E
:103F400058E86B3F29D5C6BE5E836C3F15EFC3BEF4
:103F50001D1C6D3F1E07C1BE93B26D3F4A1DBEBE04
:103F6000BE466E3FA031BBBE9ED86E3F2A44B8BE4F
:103F700030686F3FEC54B5BE73F56F3FEF63B2BE70
:103F80006680703F3A71AFBE0809713FD47CACBE09
:103F9000578F713FC486A9BE5213723F128FA6BEBF
:103FA000F894723FC595A3BE4714733FE59AA0BE2F
:103FB0003F91733F789E9DBEDD0B743F86A09ABEF5
:103FC0002284743F17A197BE0BFA743F31A094BEB0
:103FD000976D753FDD9D91BEC6DE753F229A8EBE00
:103FE000974D763F07958BBE07BA763F938E88BE76
:103FF0001724773FCE8685BEC58B773FC07D82BEB6
:1040000010F1773FE1E67EBEF853783FCCCF78BE23
:104010007BB4783F51B672BE9812793F7F9A6CBEDE
:104020004E6E793F667C66BE9DC7793F135C60BE6D
:10403000841E7A3F97395ABE02737A3F011554BEE7
:1040400016C57A3F60EE4DBEBE147B3FC2C547BE6B
:10405000FC617B3F379B41BECDAC7B3FCF6E3BBE0F
:1040600031F57B3F984035BE283B7C3FA2102FBEE8
:10407000B07E7C3FFCDE28BEC9BF7C3FB6AB22BE13
:1040800073FE7C3FDE761CBEAC3A7D3F834016BE9D
:1040900074747D3FB70810BECCAB7D3F86CF09BEA0
:1040A000B1E07D3F029503BE24137E3F73B2FABD9B
:1040B00023437E3F7638EEBDB0707E3F2EBCE1BD1F
:1040C000C99B7E3FB93DD5BD6DC47E3F36BDC8BDE1
:1040D0009DEA7E3FC33ABCBD580E7F3F80B6AFBD60
:1040E0009D2F7F3F8C30A3BD6D4E7F3F05A996BDB0
:1040F000C76A7F3F0A208ABDAB847F3F742B7BBD9C
:10410000189C7F3F681462BD0FB17F3F2FFB48BDF5
:104110008FC37F3F07E02FBD98D37F3F2CC316BDD1
:1041200029E17F3FB949FBBC43EC7F3FB00AC9BCE2
:10413000E6F47F3FB6C996BC11FB7F3F900E49BCA9
:10414000C4FE7F3F890FC9BB0000803F0000000014
:10415000B1FF7F3FC70F493BC4FE7F3F890FC93B7B
:1041600039FD7F3F59CB163C11FB7F3F900E493CF8
:104170004AF87F3F4B517B3CE6F47F3FB6C9963C03
:10418000E3F07F3F69EAAF3C43EC7F3FB00AC93CB4
:1041900005E77F3F7B2AE23C29E17F3FB949FB3CB1
:1041A000AFDA7F3F2F340A3D98D37F3F2CC3163DB3
:1041B000E2CB7F3FCC51233D8FC37F3F07E02F3DB4
:1041C0009EBA7F3FD56D3C3D0FB17F3F2FFB483DF1
:1041D000E3A67F3F0E88553D189C7F3F6814623DE3
:1041E000B1907F3F38A06E3DAB847F3F742B7B3D09
:1041F00008787F3F0ADB833DC76A7F3F0A208A3DFC
:10420000E95C7F3FB464903D6D4E7F3F05A9963DCC
:10421000543F7F3FF9EC9C3D9D2F7F3F8C30A33D69
:10422000491F7F3FBA73A93D580E7F3F80B6AF3D0F
:10423000C9FC7E3FDAF8B53D9DEA7E3FC33ABC3DFE
:10424000D4D77E3F397CC23D6DC47E3F36BDC83D6C
:1042500069B07E3FB7FDCE3DC99B7E3FB93DD53DA0
:104260008B867E3F377DDB3DB0707E3F2EBCE13DCF
:10427000385A7E3F9AFAE73D23437E3F7638EE3D3B
:10428000722B7E3FC075F43D24137E3F73B2FA3D1E
:1042900038FA7D3F4577003EB1E07D3F0295033E11
:1042A0008CC67D3F6EB2063ECCAB7D3F86CF093ECD
:1042B0006E907D3F4AEC0C3E74747D3FB708103E13
:1042C000DE577D3FCA24133EAC3A7D3F8340163E05
:1042D000DD1C7D3FE05B193E73FE7C3FDE761C3EBD
:1042E0006CDF7C3F7B911F3EC9BF7C3FB6AB223E5B
:1042F0008A9F7C3F8CC5253EB07E7C3FFCDE283EFD
:104300003A5D7C3F04F82B3E283B7C3FA2102F3EB9
:104310007A187C3FD428323E31F57B3F9840353EB9
:104320004DD17B3FEC57383ECDAC7B3FCF6E3B3E13
:10433000B2877B3F3E853E3EFC617B3F379B413EE3
:10434000AB3B7B3FB9B0443EBE147B3FC2C5473E4A
:1043500037ED7A3F4FDA4A3E16C57A3F60EE4D3E62
:10436000599C7A3FF101513E02737A3F0115543E48
:1043700010497A3F8F27573E841E7A3F97395A3E1D
:104380005EF3793F1A4B5D3E9DC7793F135C603EFB
:10439000439B793F836C633E4E6E793F667C663EFD
:1043A000C040793FBA8B693E9812793F7F9A6C3E44
:1043B000D6E3783FB2A86F3E7BB4783F51B6723EE9
:1043C0008684783F5AC3753EF853783FCCCF783E09
:1043D000D122783FA4DB7B3E10F1773FE1E67E3EC1
:1043E000B7BE773FC0F8803EC58B773FC07D823E29
:1043F0003A58773F7002843E1724773FCE86853E39
:104400005BEF763FDA0A873E07BA763F938E883EA7
:104410001B84763FF8118A3E974D763F07958B3E79
:104420007A16763FC0178D3EC6DE753F229A8E3EC5
:104430007BA6753F2C1C903E976D753FDD9D913E90
:104440001D34753F351F933E0BFA743F31A0943EE7
:1044500062BF743FD220963E2284743F17A1973EDC
:104460004B48743FFE20993EDD0B743F86A09A3E78
:10447000D9CE733FAF1F9C3E3F91733F789E9D3EC8
:104480000E53733FDF1C9F3E4714733FE59AA03ED7
:10449000EBD4723F8718A23EF894723FC595A33EB5
:1044A0007054723F9F12A53E5213723F128FA63E68
:1044B0009FD1713F1F0BA83E578F713FC486A93E05
:1044C0007A4C713F0102AB3E0809713FD47CAC3E8F
:1044D00002C5703F3CF7AD3E6680703F3A71AF3E1B
:1044E000373B703FCBEAB03E73F56F3FEF63B23EB0
:1044F0001BAF6F3FA5DCB33E30686F3FEC54B53E59
:10450000B0206F3FC3CCB63E9ED86E3F2A44B83E23
:10451000F88F6E3F1EBBB93EBE466E3FA031BB3E1C
:10452000F2FC6D3FAFA7BC3E93B26D3F4A1DBE3E4D
:10453000A1676D3F6F92BF3E1D1C6D3F1E07C13EC0
:1045400007D06C3F557BC23E5E836C3F15EFC33E88
:1045500024366C3F5C62C53E58E86B3F29D5C63EA9
:10456000FB996B3F7C47C83E0C4B6B3F53B9C93E30
:104570008CFB6A3FAE2ACB3E7BAB6A3F8B9BCC3E2B
:10458000D95A6A3FEA0BCE3EA7096A3FCA7BCF3EA3
:10459000E4B7693F2AEBD03E9165693F095AD23EA4
:1045A000AE12693F67C8D33E3CBF683F4136D53E37
:1045B000396B683F99A3D63EA816683F6B10D83E6A
:1045C00087C1673FB97CD93ED86B673F80E8DA3E48
:1045D0009915673FC153DC3ECCBE663F79BEDD3ED8
:1045E0007167663FA928DF3E880F663F4F92E03E25
:1045F00010B7653F6AFBE13E0B5E653FFA63E33E41
:104600007904653FFECBE43E59AA643F7533E63E2C
:10461000AC4F643F5D9AE73E73F4633FB700E93EF9
:10462000AC98633F8166EA3E5A3C633FBBCBEB3EAE
:104630007BDF623F6330ED3E1082623F7994EE3E55
:104640001A24623FFBF7EF3E98C5613FEA5AF13EFC
:104650008A66613F43BDF23EF206613F071FF43EAA
:10466000CFA6603F3580F53E2146603FCBE0F63E69
:10467000E9E45F3FC840F83E27835F3F2DA0F93E45
:10468000DB205F3FF7FEFA3E05BE5E3F275DFC3E46
:10469000A65A5E3FBBBAFD3EBEF65D3FB217FF3E77
:1046A0004D925D3F063A003F532D5D3FE4E7003FEA
:1046B000D1C75C3F7395013FC7615C3FB142023F88
:1046C00034FB5B3F9FEF023F1A945B3F3D9C033FEF
:1046D000792C5B3F8948043F50C45A3F84F4043F1F
:1046E000A05B5A3F2CA0053F6AF2593F824B063F20
:1046F000AD88593F86F6063F6A1E593F36A1073FEF
:10470000A1B3583F924B083F5348583F9BF5083F91
:104710007FDC573F4E9F093F2670573FAD480A3F09
:104720004803573FB7F10A3FE595563F6B9A0B3F59
:10473000FE27563FC9420C3F93B9553FD0EA0C3F84
:10474000A44A553F81920D3F31DB543FDA390E3F89
:104750003B6B543FDBE00E3FC3FA533F84870F3F70
:10476000C789533FD52D103F4918533FCDD3103F34
:1047700049A6523F6B79113FC633523FB01E123FDC
:10478000C2C0513F9AC3123F3D4D513F2A68133F6B
:1047900037D9503F5F0C143FAF64503F39B0143FDE
:1047A000A8EF4F3FB753153F1F7A4F3FD9F6153F3C
:1047B00017044F3F9F99163F908D4E3F073C173F80
:1047C00089164E3F12DE173F029F4D3FC07F183FB4
:1047D000FD264D3F0F21193F79AE4C3F00C2193FD6
:1047E00078354C3F93621A3FF8BB4B3FC6021B3FE4
:1047F000FA414B3F99A21B3F7FC74A3F0C421C3FE7
:10480000874C4A3F1FE11C3F12D1493FD17F1D3FDA
:104810002155493F221E1E3FB3D8483F12BC1E3FC0
:10482000CA5B483F9F591F3F65DE473FCBF61F3F9E
:104830008560473F9393203F2AE2463FF92F213F6F
:104840005463463FFBCB213F03E4453F9967223F3A
:104850003964453FD302233FF5E3443FA99D233FFD
:104860003763443F1A38243F00E2433F25D2243FB8
:104870005160433FCB6B253F29DE423F0A05263F6F
:10488000895B423FE39D263F70D8413F5636273F24
:10489000E154413F61CE273FDAD0403F0566283FD3
:1048A0005C4C403F41FD283F67C73F3F1594293F7F
:1048B000FC413F3F802A2A3F1BBC3E3F82C02A3F2B
:1048C000C5353E3F1B562B3FF9AE3D3F4AEB2B3FD4
:1048D000B8273D3F0F802C3F03A03C3F69142D3F7C
:1048E000D9173C3F59A82D3F3B8F3B3FDE3B2E3F26
:1048F00029063B3FF7CE2E3FA47C3A3FA5612F3FD0
:10490000ACF2393FE6F32F3F4268393FBB85303F79
:1049100065DD383F2217313F1652383F1DA8313F21
:1049200055C6373FAA38323F233A373FC9C8323FCE
:104930007FAD363F7A58333F6C20363FBCE7333F7C
:10494000E792353F8F76343FF304353FF304353F2C
:104950008F76343FE792353FBCE7333F6C20363FDC
:104960007A58333F7FAD363FC9C8323F233A373F8D
:10497000AA38323F55C6373F1DA8313F1652383F3F
:104980002217313F65DD383FBB85303F4268393FF4
:10499000E6F32F3FACF2393FA5612F3FA47C3A3FAD
:1049A000F7CE2E3F29063B3FDE3B2E3F3B8F3B3F62
:1049B00059A82D3FD9173C3F69142D3F03A03C3F18
:1049C0000F802C3FB8273D3F4AEB2B3FF9AE3D3FD0
:1049D0001B562B3FC5353E3F82C02A3F1BBC3E3F86
:1049E000802A2A3FFC413F3F1594293F67C73F3F3C
:1049F00041FD283F5C4C403F0566283FDAD0403FF0
:104A000061CE273FE154413F5636273F70D8413FA2
:104A1000E39D263F895B423F0A05263F29DE423F50
:104A2000CB6B253F5160433F25D2243F00E2433FFB
:104A30001A38243F3763443FA99D233FF5E3443FA1
:104A4000D302233F3964453F9967223F03E4453F42
:104A5000FBCB213F5463463FF92F213F2AE2463FDB
:104A60009393203F8560473FCBF61F3F65DE473F6E
:104A70009F591F3FCA5B483F12BC1E3FB3D8483FF7
:104A8000221E1E3F2155493FD17F1D3F12D1493F74
:104A90001FE11C3F874C4A3F0C421C3F7FC74A3FE7
:104AA00099A21B3FFA414B3FC6021B3FF8BB4B3F4D
:104AB00093621A3F78354C3F00C2193F79AE4C3FA4
:104AC0000F21193FFD264D3FC07F183F029F4D3FEC
:104AD00012DE173F89164E3F073C173F908D4E3F21
:104AE0009F99163F17044F3FD9F6153F1F7A4F3F46
:104AF000B753153FA8EF4F3F39B0143FAF64503F55
:104B00005F0C143F37D9503F2A68133F3D4D513F4A
:104B10009AC3123FC2C0513FB01E123FC633523F2C
:104B20006B79113F49A6523FCDD3103F4918533FEF
:104B3000D52D103FC789533F84870F3FC3FA533F9A
:104B4000DBE00E3F3B6B543FDA390E3F31DB543F25
:104B500081920D3FA44A553FD0EA0C3F93B9553F8F
:104B6000C9420C3FFE27563F6B9A0B3FE595563FD7
:104B7000B7F10A3F4803573FAD480A3F2670573FF9
:104B80004E9F093F7FDC573F9BF5083F5348583FF6
:104B9000924B083FA1B3583F36A1073F6A1E593FC9
:104BA00086F6063FAD88593F824B063F6AF2593F71
:104BB0002CA0053FA05B5A3F84F4043F50C45A3FE9
:104BC0008948043F792C5B3F3D9C033F1A945B3F2F
:104BD0009FEF023F34FB5B3FB142023FC7615C3F46
:104BE0007395013FD1C75C3FE4E7003F532D5D3F24
:104BF000063A003F4D925D3FB217FF3EBEF65D3F65
:104C0000BBBAFD3EA65A5E3F275DFC3E05BE5E3F39
:104C1000F7FEFA3EDB205F3F2DA0F93E27835F3F82
:104C2000C840F83EE9E45F3FCBE0F63E2146603FF6
:104C30003580F53ECFA6603F071FF43EF206613F88
:104C400043BDF23E8A66613FEA5AF13E98C5613F34
:104C5000FBF7EF3E1A24623F7994EE3E1082623FEA
:104C60006330ED3E7BDF623FBBCBEB3E5A3C633FA4
:104C70008166EA3EAC98633FB700E93E73F4633F58
:104C80005D9AE73EAC4F643F7533E63E59AA643FF8
:104C9000FECBE43E7904653FFA63E33E0B5E653F7D
:104CA0006AFBE13E10B7653F4F92E03E880F663FDA
:104CB000A928DF3E7167663F79BEDD3ECCBE663F08
:104CC000C153DC3E9915673F80E8DA3ED86B673FF9
:104CD000B97CD93E87C1673F6B10D83EA816683FA4
:104CE00099A3D63E396B683F4136D53E3CBF683FFD
:104CF00067C8D33EAE12693F095AD23E9165693FFB
:104D00002AEBD03EE4B7693FCA7BCF3EA7096A3F92
:104D1000EA0BCE3ED95A6A3F8B9BCC3E7BAB6A3FB7
:104D2000AE2ACB3E8CFB6A3F53B9C93E0C4B6B3F5E
:104D30007C47C83EFB996B3F29D5C63E58E86B3F80
:104D40005C62C53E24366C3F15EFC33E5E836C3F0C
:104D5000557BC23E07D06C3F1E07C13E1D1C6D3FF8
:104D60006F92BF3EA1676D3F4A1DBE3E93B26D3F3D
:104D7000AFA7BC3EF2FC6D3FA031BB3EBE466E3FCE
:104D80001EBBB93EF88F6E3F2A44B83E9ED86E3F98
:104D9000C3CCB63EB0206F3FEC54B53E30686F3F99
:104DA000A5DCB33E1BAF6F3FEF63B23E73F56F3FC1
:104DB000CBEAB03E373B703F3A71AF3E6680703F02
:104DC0003CF7AD3E02C5703FD47CAC3E0809713F54
:104DD0000102AB3E7A4C713FC486A93E578F713FAA
:104DE0001F0BA83E9FD1713F128FA63E5213723FF8
:104DF0009F12A53E7054723FC595A33EF894723F32
:104E00008718A23EEBD4723FE59AA03E4714733F49
:104E1000DF1C9F3E0E53733F789E9D3E3F91733F34
:104E2000AF1F9C3ED9CE733F86A09A3EDD0B743FE8
:104E3000FE20993E4B48743F17A1973E2284743F51
:104E4000D220963E62BF743F31A0943E0BFA743F6D
:104E5000351F933E1D34753FDD9D913E976D753F27
:104E60002C1C903E7BA6753F229A8E3EC6DE753F77
:104E7000C0178D3E7A16763F07958B3E974D763F4D
:104E8000F8118A3E1B84763F938E883E07BA763FA0
:104E9000DA0A873E5BEF763FCE86853E1724773F62
:104EA0007002843E3A58773FC07D823EC58B773F83
:104EB000C0F8803EB7BE773FE1E67E3E10F1773F17
:104EC000A4DB7B3ED122783FCCCF783EF853783FAD
:104ED0005AC3753E8684783F51B6723E7BB4783FA4
:104EE000B2A86F3ED6E3783F7F9A6C3E9812793F26
:104EF000BA8B693EC040793F667C663E4E6E793F14
:104F0000836C633E439B793F135C603E9DC7793F52
:104F10001A4B5D3E5EF3793F97395A3E841E7A3FC5
:104F20008F27573E10497A3F0115543E02737A3F4E
:104F3000F101513E599C7A3F60EE4D3E16C57A3FD5
:104F40004FDA4A3E37ED7A3FC2C5473EBE147B3F3B
:104F5000B9B0443EAB3B7B3F379B413EFC617B3F5E
:104F60003E853E3EB2877B3FCF6E3B3ECDAC7B3F26
:104F7000EC57383E4DD17B3F9840353E31F57B3F75
:104F8000D428323E7A187C3FA2102F3E283B7C3F2B
:104F900004F82B3E3A5D7C3FFCDE283EB07E7C3F31
:104FA0008CC5253E8A9F7C3FB6AB223EC9BF7C3F65
:104FB0007B911F3E6CDF7C3FDE761C3E73FE7C3FA8
:104FC000E05B193EDD1C7D3F8340163EAC3A7D3FE1
:104FD000CA24133EDE577D3FB708103E74747D3FF0
:104FE0004AEC0C3E6E907D3F86CF093ECCAB7D3FB8
:104FF0006EB2063E8CC67D3F0295033EB1E07D3F1A
:105000004577003E38FA7D3F73B2FA3D24137E3F68
:10501000C075F43D722B7E3F7638EE3D23437E3FD4
:105020009AFAE73D385A7E3F2EBCE13DB0707E3F94
:10503000377DDB3D8B867E3FB93DD53DC99B7E3FAD
:10504000B7FDCE3D69B07E3F36BDC83D6DC47E3FE5
:10505000397CC23DD4D77E3FC33ABC3D9DEA7E3FFA
:10506000DAF8B53DC9FC7E3F80B6AF3D580E7F3FB4
:10507000BA73A93D491F7F3F8C30A33D9D2F7F3FD1
:10508000F9EC9C3D543F7F3F05A9963D6D4E7F3F17
:10509000B464903DE95C7F3F0A208A3DC76A7F3F48
:1050A0000ADB833D08787F3F742B7B3DAB847F3FD9
:1050B00038A06E3DB1907F3F6814623D189C7F3FE1
:1050C0000E88553DE3A67F3F2FFB483D0FB17F3F44
:1050D000D56D3C3D9EBA7F3F07E02F3D8FC37F3F9C
:1050E000CC51233DE2CB7F3F2CC3163D98D37F3F6D
:1050F0002F340A3DAFDA7F3FB949FB3C29E17F3FBE
:105100007B2AE23C05E77F3FB00AC93C43EC7F3F86
:1051100069EAAF3CE3F07F3FB6C9963CE6F47F3FD7
:105120004B517B3C4AF87F3F900E493C11FB7F3F3F
:1051300059CB163C39FD7F3F890FC93BC4FE7F3FE9
:10514000C70F493BB1FF7F3F000000000000803FD8
:10515000C70F49BBB1FF7F3F890FC9BBC4FE7F3F6B
:1051600059CB16BC39FD7F3F900E49BC11FB7F3FE8
:105170004B517BBC4AF87F3FB6C996BCE6F47F3FF3
:1051800069EAAFBCE3F07F3FB00AC9BC43EC7F3FA4
:105190007B2AE2BC05E77F3FB949FBBC29E17F3FA1
:1051A0002F340ABDAFDA7F3F2CC316BD98D37F3FA3
:1051B000CC5123BDE2CB7F3F07E02FBD8FC37F3FA4
:1051C000D56D3CBD9EBA7F3F2FFB48BD0FB17F3FE1
:1051D0000E8855BDE3A67F3F681462BD189C7F3FD3
:1051E00038A06EBDB1907F3F742B7BBDAB847F3FF9
:1051F0000ADB83BD08787F3F0A208ABDC76A7F3FEC
:10520000B46490BDE95C7F3F05A996BD6D4E7F3FBC
:10521000F9EC9CBD543F7F3F8C30A3BD9D2F7F3F59
:10522000BA73A9BD491F7F3F80B6AFBD580E7F3FFF
:10523000DAF8B5BDC9FC7E3FC33ABCBD9DEA7E3FEE
:10524000397CC2BDD4D77E3F36BDC8BD6DC47E3F5C
:10525000B7FDCEBD69B07E3FB93DD5BDC99B7E3F90
:10526000377DDBBD8B867E3F2EBCE1BDB0707E3FBF
:105270009AFAE7BD385A7E3F7638EEBD23437E3F2B
:10528000C075F4BD722B7E3F73B2FABD24137E3F0E
:10529000457700BE38FA7D3F029503BEB1E07D3F01
:1052A0006EB206BE8CC67D3F86CF09BECCAB7D3FBD
:1052B0004AEC0CBE6E907D3FB70810BE74747D3F03
:1052C000CA2413BEDE577D3F834016BEAC3A7D3FF5
:1052D000E05B19BEDD1C7D3FDE761CBE73FE7C3FAD
:1052E0007B911FBE6CDF7C3FB6AB22BEC9BF7C3F4B
:1052F0008CC525BE8A9F7C3FFCDE28BEB07E7C3FED
:1053000004F82BBE3A5D7C3FA2102FBE283B7C3FA9
:10531000D42832BE7A187C3F984035BE31F57B3FA9
:10532000EC5738BE4DD17B3FCF6E3BBECDAC7B3F03
:105330003E853EBEB2877B3F379B41BEFC617B3FD3
:10534000B9B044BEAB3B7B3FC2C547BEBE147B3F3A
:105350004FDA4ABE37ED7A3F60EE4DBE16C57A3F52
:10536000F10151BE599C7A3F011554BE02737A3F38
:105370008F2757BE10497A3F97395ABE841E7A3F0D
:105380001A4B5DBE5EF3793F135C60BE9DC7793FEB
:10539000836C63BE439B793F667C66BE4E6E793FED
:1053A000BA8B69BEC040793F7F9A6CBE9812793F34
:1053B000B2A86FBED6E3783F51B672BE7BB4783FD9
:1053C0005AC375BE8684783FCCCF78BEF853783FF9
:1053D000A4DB7BBED122783FE1E67EBE10F1773FB1
:1053E000C0F880BEB7BE773FC07D82BEC58B773F19
:1053F000700284BE3A58773FCE8685BE1724773F29
:10540000DA0A87BE5BEF763F938E88BE07BA763F97
:10541000F8118ABE1B84763F07958BBE974D763F69
:10542000C0178DBE7A16763F229A8EBEC6DE753FB5
:105430002C1C90BE7BA6753FDD9D91BE976D753F80
:10544000351F93BE1D34753F31A094BE0BFA743FD7
:10545000D22096BE62BF743F17A197BE2284743FCC
:10546000FE2099BE4B48743F86A09ABEDD0B743F68
:10547000AF1F9CBED9CE733F789E9DBE3F91733FB8
:10548000DF1C9FBE0E53733FE59AA0BE4714733FC7
:105490008718A2BEEBD4723FC595A3BEF894723FA5
:1054A0009F12A5BE7054723F128FA6BE5213723F58
:1054B0001F0BA8BE9FD1713FC486A9BE578F713FF5
:1054C0000102ABBE7A4C713FD47CACBE0809713F7F
:1054D0003CF7ADBE02C5703F3A71AFBE6680703F0B
:1054E000CBEAB0BE373B703FEF63B2BE73F56F3FA0
:1054F000A5DCB3BE1BAF6F3FEC54B5BE30686F3F49
:10550000C3CCB6BEB0206F3F2A44B8BE9ED86E3F13
:105510001EBBB9BEF88F6E3FA031BBBEBE466E3F0C
:10552000AFA7BCBEF2FC6D3F4A1DBEBE93B26D3F3D
:105530006F92BFBEA1676D3F1E07C1BE1D1C6D3FB0
:10554000557BC2BE07D06C3F15EFC3BE5E836C3F78
:105550005C62C5BE24366C3F29D5C6BE58E86B3F99
:105560007C47C8BEFB996B3F53B9C9BE0C4B6B3F20
:10557000AE2ACBBE8CFB6A3F8B9BCCBE7BAB6A3F1B
:10558000EA0BCEBED95A6A3FCA7BCFBEA7096A3F93
:105590002AEBD0BEE4B7693F095AD2BE9165693F94
:1055A00067C8D3BEAE12693F4136D5BE3CBF683F27
:1055B00099A3D6BE396B683F6B10D8BEA816683F5A
:1055C000B97CD9BE87C1673F80E8DABED86B673F38
:1055D000C153DCBE9915673F79BEDDBECCBE663FC8
:1055E000A928DFBE7167663F4F92E0BE880F663F15
:1055F0006AFBE1BE10B7653FFA63E3BE0B5E653F31
:10560000FECBE4BE7904653F7533E6BE59AA643F1C
:105610005D9AE7BEAC4F643FB700E9BE73F4633FE9
:105620008166EABEAC98633FBBCBEBBE5A3C633F9E
:105630006330EDBE7BDF623F7994EEBE1082623F45
:10564000FBF7EFBE1A24623FEA5AF1BE98C5613FEC
:1056500043BDF2BE8A66613F071FF4BEF206613F9A
:105660003580F5BECFA6603FCBE0F6BE2146603F59
:10567000C840F8BEE9E45F3F2DA0F9BE27835F3F35
:10568000F7FEFABEDB205F3F275DFCBE05BE5E3F36
:10569000BBBAFDBEA65A5E3FB217FFBEBEF65D3F67
:1056A000063A00BF4D925D3FE4E700BF532D5D3FDA
:1056B000739501BFD1C75C3FB14202BFC7615C3F78
:1056C0009FEF02BF34FB5B3F3D9C03BF1A945B3FDF
:1056D000894804BF792C5B3F84F404BF50C45A3F0F
:1056E0002CA005BFA05B5A3F824B06BF6AF2593F10
:1056F00086F606BFAD88593F36A107BF6A1E593FDF
:10570000924B08BFA1B3583F9BF508BF5348583F81
:105710004E9F09BF7FDC573FAD480ABF2670573FF9
:10572000B7F10ABF4803573F6B9A0BBFE595563F49
:10573000C9420CBFFE27563FD0EA0CBF93B9553F74
:1057400081920DBFA44A553FDA390EBF31DB543F79
:10575000DBE00EBF3B6B543F84870FBFC3FA533F60
:10576000D52D10BFC789533FCDD310BF4918533F24
:105770006B7911BF49A6523FB01E12BFC633523FCC
:105780009AC312BFC2C0513F2A6813BF3D4D513F5B
:105790005F0C14BF37D9503F39B014BFAF64503FCE
:1057A000B75315BFA8EF4F3FD9F615BF1F7A4F3F2C
:1057B0009F9916BF17044F3F073C17BF908D4E3F70
:1057C00012DE17BF89164E3FC07F18BF029F4D3FA4
:1057D0000F2119BFFD264D3F00C219BF79AE4C3FC6
:1057E00093621ABF78354C3FC6021BBFF8BB4B3FD4
:1057F00099A21BBFFA414B3F0C421CBF7FC74A3FD7
:105800001FE11CBF874C4A3FD17F1DBF12D1493FCA
:10581000221E1EBF2155493F12BC1EBFB3D8483FB0
:105820009F591FBFCA5B483FCBF61FBF65DE473F8E
:10583000939320BF8560473FF92F21BF2AE2463F5F
:10584000FBCB21BF5463463F996722BF03E4453F2A
:10585000D30223BF3964453FA99D23BFF5E3443FED
:105860001A3824BF3763443F25D224BF00E2433FA8
:10587000CB6B25BF5160433F0A0526BF29DE423F5F
:10588000E39D26BF895B423F563627BF70D8413F14
:1058900061CE27BFE154413F056628BFDAD0403FC3
:1058A00041FD28BF5C4C403F159429BF67C73F3F6F
:1058B000802A2ABFFC413F3F82C02ABF1BBC3E3F1B
:1058C0001B562BBFC5353E3F4AEB2BBFF9AE3D3FC4
:1058D0000F802CBFB8273D3F69142DBF03A03C3F6C
:1058E00059A82DBFD9173C3FDE3B2EBF3B8F3B3F16
:1058F000F7CE2EBF29063B3FA5612FBFA47C3A3FC0
:10590000E6F32FBFACF2393FBB8530BF4268393F69
:10591000221731BF65DD383F1DA831BF1652383F11
:10592000AA3832BF55C6373FC9C832BF233A373FBE
:105930007A5833BF7FAD363FBCE733BF6C20363F6C
:105940008F7634BFE792353FF30435BFF304353F1C
:10595000E79235BF8F76343F6C2036BFBCE7333FCC
:105960007FAD36BF7A58333F233A37BFC9C8323F7D
:1059700055C637BFAA38323F165238BF1DA8313F2F
:1059800065DD38BF2217313F426839BFBB85303FE4
:10599000ACF239BFE6F32F3FA47C3ABFA5612F3F9D
:1059A00029063BBFF7CE2E3F3B8F3BBFDE3B2E3F52
:1059B000D9173CBF59A82D3F03A03CBF69142D3F08
:1059C000B8273DBF0F802C3FF9AE3DBF4AEB2B3FC0
:1059D000C5353EBF1B562B3F1BBC3EBF82C02A3F76
:1059E000FC413FBF802A2A3F67C73FBF1594293F2C
:1059F0005C4C40BF41FD283FDAD040BF0566283FE0
:105A0000E15441BF61CE273F70D841BF5636273F92
:105A1000895B42BFE39D263F29DE42BF0A05263F40
:105A2000516043BFCB6B253F00E243BF25D2243FEB
:105A3000376344BF1A38243FF5E344BFA99D233F91
:105A4000396445BFD302233F03E445BF9967223F32
:105A5000546346BFFBCB213F2AE246BFF92F213FCB
:105A6000856047BF9393203F65DE47BFCBF61F3F5E
:105A7000CA5B48BF9F591F3FB3D848BF12BC1E3FE7
:105A8000215549BF221E1E3F12D149BFD17F1D3F64
:105A9000874C4ABF1FE11C3F7FC74ABF0C421C3FD7
:105AA000FA414BBF99A21B3FF8BB4BBFC6021B3F3D
:105AB00078354CBF93621A3F79AE4CBF00C2193F94
:105AC000FD264DBF0F21193F029F4DBFC07F183FDC
:105AD00089164EBF12DE173F908D4EBF073C173F11
