:020000040800F2
:10000000B0BD00204D790008E9760008EB760008C5
:10001000ED760008EF760008F17600080000000099
:10002000000000000000000000000000F37600085F
:10003000F576000800000000F7760008F976000861
:10004000697900086D7900087179000875790008F0
:10005000797900087D7900088179000885790008A0
:10006000897900088D7900081D5E00088163000809
:100070009179000895790008997900089D79000820
:10008000A1790008A5790008A9790008AD790008D0
:10009000B1790008B5790008B9790008BD79000880
:1000A000C1790008C5790008C9790008CD79000830
:1000B000D1790008D5790008D97900081F770008A0
:1000C000DD790008E1790008E5790008856100081C
:1000D0009B610008E9790008ED790008F1790008D2
:1000E000F5790008F9790008FD790008017A00081F
:1000F000057A0008097A00080D7A0008776300087D
:10010000117A0008157A0008197A0008836300083C
:100110001D7A0008217A0008257A0008297A00084B
:100120002D7A0008317A0008357A0008397A0008FB
:100130003D7A0008417A0008457A0008497A0008AB
:100140004D7A0008517A0008557A00082577000892
:10015000597A00085D7A0008617A0008197700086A
:10016000657A0008697A00086D7A0008717A0008DB
:10017000757A0008797A00087D7A0008000000008E
:10018000817A0008857A0008897A00088D7A00084B
:10019000917A00087F5D0008957A0008997A000836
:1001A0009D7A0008A17A0008A57A0008A97A0008BB
:1001B000AD7A0008B17A0008B57A0008B97A00086B
:1001C000BD7A0008C17A000800F5E070026891422B
:1001D00003D343689A18914202D380680028F5D16E
:1001E0007047DFF85807016891B94FF4803181609A
:1001F0004FF4805141604FF0FF31C1600161042133
:10020000DFF83C274161C2F8BC11DFF83817016004
:100210000120704701F1080313F0070305D001F135
:100220000803C3F1080303F007035918D21A8161C8
:10023000C26042F001034B60511828234B60DFF885
:10024000FC160969C16170472DE9F84F064601F1B6
:10025000080010F0070008BF884607D001F1080029
:10026000C0F1080000F0070000EB010802F10800EF
:1002700010F0070006D002F10800C0F1080000F0FD
:10028000070082181546A5EB0800A0EB030903EB55
:10029000080B43F00300C8F80400AB4528BF01F089
:1002A0000BFA2879C00758BF01F006FAB9F1100F10
:1002B00038BF01F001FAB069854209D1F0684844BD
:1002C000F060C6F818B040F00100CBF804006DE112
:1002D000706985420BD1B0684844B060C6F814B06C
:1002E00040F00101CBF8041040F80B005EE16868B3
:1002F00000F00301012940F0AD80C008C00001906A
:10030000C00820283AD2D5F808A0EF680090BD4276
:1003100008BF01F0D1F9554508BF01F0CDF9686873
:100320000099C008C000B0EBC10F18BF01F0C4F9BC
:10033000009806EBC00000F128018A4507D031691A
:100340008A45C0F08280DAF80C10A9427DD1574569
:1003500006D1009A3068012191408843306076E0F0
:100360002830874205D0306987426ED3B868A842EA
:100370006BD1CAF80C70C7F808A068E0EF68D5F830
:1003800018A0AF420CD0A8683169884223D3C16855
:10039000A94204BFB968A9421DD1C760B8601CE07A
:1003A00005F11400076837B905F110000768A7B117
:1003B00001E00846076807F114010A68002A02BF35
:1003C00007F110010A68002AF3D13169884202D38B
:1003D0000021016001E001F06FF9BAF1000F36D0A1
:1003E000E86906EB800000F5987001688D4208D13D
:1003F0000760A7B9EA69706801219140884370607D
:1004000025E03069824508D3DAF81000A84214BF0D
:10041000CAF81470CAF8107001E001F04DF9B7B1D4
:100420003069874211D3C7F818A0296929B18142E0
:1004300026BF39618F6101F03FF9686938B13169D0
:10044000884202D37861876101E001F035F90198B3
:100450004519814468684008400068604FEAD90542
:1004600049F00100CBF8040049F80B90202D23D26D
:1004700006EBC50000F12807BA46B9F1100F38BFE6
:1004800001F01AF9306820FA05F1C90704D40121F6
:10049000A9400843306006E0B868316988422CBF43
:1004A000824601F009F9C7F808B0CAF80CB0CBF8D9
:1004B00008A0CBF80C7079E05FEA192108BF002092
:1004C00023D0B1F5803F28BF1F201ED2A1F5807038
:1004D000000C00F008008140A1F58052120C02F0DF
:1004E00004029140A1F580431B0CC0F10E0003F003
:1004F0000203801AC01A994000EBD130C11D29FABD
:1005000001F202F0010101EB4000CBF81C000022D7
:10051000CBF81420CBF8102006EB8001726822FA89
:1005200000F3DB0701F5987107D4012303FA00F00B
:1005300010437060C1F800B01DE009681F280EBFAD
:1005400000204008C0F1190009FA00F000E011464F
:100550004A68D208D2004A4514D0C20F01EB820289
:1005600002F1100340001A68002AF0D1306983427A
:100570001AD3C3F800B0CBF81810CBF80CB0CBF8F6
:1005800008B013E032698868914228BF90420BD3CB
:10059000C0F80CB0C1F808B0CBF80800CBF80C10CC
:1005A0000020CBF8180001E001F086F808F10800FF
:1005B000BDE8E68F2DE9FA4D0546DFF8800384B0EB
:1005C000006808B9FFF70DFEDFF870030499806832
:1005D00041182F31401E21EA00000499814280F029
:1005E000A88105F5D876B16839B1326880188242A1
:1005F00080F09F818142C0F09C8101F061F8002869
:100600001EBF0446D0F8008014F1010F00F0918164
:100610003068716840443060814238BF0146716083
:10062000A86980BB286908B1844200D22C610020EF
:10063000F0613461C6F8148005F12801BF480068F4
:1006400068624FF0FF302862002001F10802C960A3
:100650001160801C10312028D2609260F5D3B84818
:10066000854203D1A8F12802214629E055F8040C5F
:10067000C00805EBC000A0F1080108EB0400401A17
:10068000A0F128021CE005F5E071084600E0806852
:10069000D0B1026843689A189442F8D1027B1207DD
:1006A00012D4AA6903689A420ED347683B449A421F
:1006B0000AD208EB07014160E868A96908EB00026B
:1006C0002846FFF7A7FD1EE128698442084638BF87
:1006D0002C6108EB040100E0806880B102688A4266
:1006E000FAD1017B09070AD40460416841444160A2
:1006F0002146049B284606B0BDE8F04DA4E5AF694D
:1007000039462846FFF760FD0168406840180290AE
:100710002F3800F1080111F0070105D000F10801A0
:10072000C1F1080101F00701081807F11001884222
:1007300034BF0097009000980830019004F1080140
:10074000009800F1180A11F007014FF0000BA8F112
:10075000280005D004F10801C1F1080101F00701EA
:100760000A19401AAA61E86040F00101516080183E
:100770002821416071480069E861019810F0070084
:1007800018BF00F099FF00991B20486005F5E07143
:10079000B1E80C500198A0E80C503461C6F8148000
:1007A000C6F81CB00198B061029800E08A460722A2
:1007B000CAF804200AF104010A1D82420BF1010B60
:1007C000F4D3BBF1020FB8BF00F076FF0098B84237
:1007D00000F09980C01BC119C4084A685208520031
:1007E0004A6040F001017960C051202C20D205EB15
:1007F000C40101F12806B046102838BF00F05CFFA4
:10080000286820FA04F1C90704D40121A140084353
:10081000286006E0B068296988422CBF804600F055
:100820004BFFB760C8F80C70C7F80880FE606AE03C
:10083000010A08BF002223D0B1F5803F28BF1F2244
:100840001ED2A1F58072120C02F008029140A1F5AF
:1008500080531B0C03F004039940A1F58044240C41
:10086000C2F10E0204F00204D21A121BA14002EBE4
:10087000D131CA1D20FA02F303F0010202EB41025A
:10088000FA6100237B613B6105EB82016B6823FA0F
:1008900002F4E40701F5987105D401209040184353
:1008A00068600F601CE009681F2A0EBF0022520812
:1008B000C2F1190200FA02F200E019464B68DB08A7
:1008C000DB00834210D0D30F01EB830303F110044C
:1008D00052002368002BF0D12869844211D327608D
:1008E000B961FF60BF600EE02A698868914228BF45
:1008F000904206D3C7608F60B860F9600020B8618D
:1009000001E000F0D9FEE8680499814211D2401A52
:10091000E860A969049A5218AA6140F00100506089
:10092000049840F00300486006B001F10800BDE8FB
:10093000F08D002006B0BDE8F08D0000809D002005
:10094000BC9700206859883C2DE9F04D04460026EC
:1009500088465FEA1820C8F1000B08BF002123D0A9
:10096000B0F5803F28BF1F211ED2A0F58071090C71
:1009700001F008018840A0F58052120C02F0040238
:100980009040A0F580431B0CC1F10E0103F002035F
:10099000891AC91A984001EBD030C11D28FA01F21A
:1009A00002F0010101EB400104EB8100D0F83001BD
:1009B00018B31F290EBF00224A08C2F1190208FA13
:1009C00002F2002300E052004568ED08ED00A5EBBF
:1009D00008055D4503D25FEA050B06460BD0456965
:1009E000D70F00EB8700002D00691CBF85422B4606
:1009F0000028E8D11846B8BBC6BB0120884040009B
:100A0000414208436168084000F063814142084068
:100A1000401E010B01F01001C840420902F008021B
:100A2000D040830803F00403D840450805F00205D0
:100A30005118E8405918C0F3400729443944F84098
:100A4000401804EB8000D0F830010DE00846416802
:100A5000C908C900A1EB080159453CBF8B460646B1
:100A600001690029F2D140690028F0D1002E00F080
:100A70003081A068A0EB0800834580F02A812069BE
:100A80008642C0F024817068C008C00008EB0B01EA
:100A900008EB0605884218BF00F00EFEAE4280F05B
:100AA0001681F768D6F818A0B7420CD0B068216953
:100AB000884223D3C168B14204BFB968B1421DD195
:100AC000C760B8601CE006F11400076837B906F18A
:100AD00010000768A7B101E00846076807F1140194
:100AE0000A68002A02BF07F110010A68002AF3D140
:100AF0002169884202D30021016001E000F0DCFDA1
:100B0000BAF1000F38D0F06904EB800000F598705E
:100B100001688E4209D10760380014D1F26960681B
:100B2000012191408843606026E02069824508D316
:100B3000DAF81000B04214BFCAF81470CAF8107086
:100B400001E000F0B9FDBFB12069874212D3C7F8B8
:100B500018A0306930B12169884226BF38618761A9
:100B600000F0AAFD706938B12169884202D378612A
:100B7000876101E000F0A0FDBBF1100F0CD208EB83
:100B80000B0040F00300706008EB0B008019416817
:100B900041F00101416096E048F0030070604BF0C5
:100BA000010068604FEADB004BF805B020281DD239
:100BB00004EBC00101F12807216821FA00F2D207F5
:100BC000BB4605D4012202FA00F00843206006E08B
:100BD000B868216988422CBF834600F06DFDBD6076
:100BE000CBF80C50C5F808B0EF606CE05FEA1B2151
:100BF00008BF002023D0B1F5803F28BF1F201ED2A0
:100C0000A1F58070000C00F008008140A1F5805231
:100C1000120C02F004029140A1F580431B0CC0F1BC
:100C20000E0003F00203801AC01A994000EBD13085
:100C3000C11D2BFA01F202F0010101EB4000E86155
:100C400000226A612A6104EB8001626822FA00F3E3
:100C5000DB0701F5987106D4012303FA00F0104375
:100C600060600D601CE009681F280EBF002040086E
:100C7000C0F119000BFA00F000E011464A68D208F2
:100C8000D2005A4510D0C20F01EB820202F11003CC
:100C900040001A68002AF0D12069834211D31D60F8
:100CA000A961ED60AD600EE022698868914228BFBD
:100CB000904206D3C5608D60A860E9600020A861FD
:100CC00001E000F0F9FC06F10800BDE8F08D00F04D
:100CD000F3FC0020BDE8F08D2DE9F84F044688466E
:100CE000606841420840401E010B01F01001C840FD
:100CF000420902F00802D040830803F00403D84000
:100D0000450805F002055118E8405918C0F340069F
:100D100029447118F040401804EB8000D0F83001ED
:100D20004168C908C9000646A1EB080A09E008465F
:100D30004168C908C900A1EB080151453CBF8A467A
:100D4000064601690029F2D140690028F0D12069E6
:100D50008642C0F0C4807068C00808EB0A09C00071
:100D600008EB060B484518BF00F0A6FC5E4580F076
:100D7000B680F768B569B7420CD0B068216988427F
:100D800023D3C168B14204BFB968B1421DD1C76065
:100D9000B8601CE006F11400076837B906F11000CE
:100DA0000768A7B101E00846076807F114010A685F
:100DB000002A02BF07F110010A68002AF3D1216955
:100DC000884202D30021016001E000F075FC002D93
:100DD00034D0F06904EB800000F5987001688E4211
:100DE00009D10760380011D1F26960680121914092
:100DF0008843606022E02069854205D32869B042BB
:100E000014BF6F612F6101E000F056FCB7B120699B
:100E1000874211D3BD61306930B12169884226BF54
:100E20003861876100F048FC706938B121698842F7
:100E300002D37861876101E000F03EFCBAF1100F47
:100E400009D249F00300706009EB0600416841F0E7
:100E5000010141603FE048F0030070604AF001008A
:100E6000CBF804004AF80BA0D4F808804FEAD80564
:100E7000202D28BF00F020FCB8F1000F27D0D4F8B7
:100E80001490009504EBC50000F128052F46B8F139
:100E9000100F38BF00F010FC2068009920FA01F212
:100EA000D10705D4009A012191400843206006E053
:100EB000A868216988422CBF074600F0FDFBC5F8F1
:100EC0000890C7F80C90C9F80870C9F80C50C4F81D
:100ED00008A0C4F814B006F10800BDE8F28F00F0D5
:100EE000EBFB0020BDE8F28F2DE9F04F83B0054603
:100EF000C046C046F52DDFF8B84780F002810B2DC3
:100F000031BF102705F10B00C708FF002068FE085D
:100F1000F04010F0030F42D0C04300F001008619EA
:100F200004EBC60000F12808F700D8F808506868FC
:100F3000C008C000B84218BF00F0BEFBD5F808904A
:100F4000454508BF00F0B8FB4D4508BF00F0B4FBB5
:100F50006868C008C000B84218BF00F0ADFBC845C3
:100F600005D120680121B140884320600DE020694F
:100F7000814508D3D9F80C00A84204D1C8F80890DC
:100F8000C9F80C8001E000F097FB47F003006860AF
:100F900078190835416841F001014160F9E0A16824
:100FA000B94280F0C080002800F0A280012505FA37
:100FB00006F149004A42B04011430840414208400E
:100FC000401E010B01F01001C840420902F0080266
:100FD000D040830803F00403D840460806F0020618
:100FE0005118F0405918C0F340087118414420FAD4
:100FF00008F000EB010804EBC80000F128094FEAF3
:10100000C80AD9F808607068C008C000504518BF09
:1010100000F052FBD6F808B04E4508BF00F04CFB7C
:101020005E4508BF00F048FB7068C008C00050452E
:1010300018BF00F041FBD94505D1206805FA08F139
:10104000884320600DE02069834508D3DBF80C005D
:10105000B04204D1C9F808B0CBF80C9001E000F020
:101060002BFB47F003007060AAEB0708B81901904A
:1010700048F0010001994860019848F80080A7688D
:101080004FEAD70ABAF1200F28BF00F015FB47B38B
:10109000CDF800A004EBCA00D4F8149000F1280A9F
:1010A000D346102F38BF00F007FB2068009920FAC4
:1010B00001F2D10705D4009905FA01F10843206037
:1010C00007E0DAF80800216988422CBF834600F067
:1010D000F3FACAF80890CBF80C90C9F808B0C9F830
:1010E0000CA0C4F8088006F108050198606150E082
:1010F0006068C0B339462046FFF7EEFD050012D008
:1011000047E015F1400F28BF4FF0FF370BD205F134
:101110000B00C7086068FF0028B139462046FFF77A
:1011200013FC050035D1A068B8421CD3C11B62690D
:1011300010290AD3B8186061A16041F0010343602F
:10114000095047F0030050600AE00021A16061618E
:1011500040F0030151608018416841F00101416095
:1011600002F1080515E0E06887420DD2C01BA169B5
:10117000E0607A18A26140F00100506001F10805BA
:1011800047F00300486004E039462046FFF712FAB2
:101190000546C046C046284603B0BDE8F08F00B9FA
:1011A00070472DE9F047A0F10804C046C046DFF8BB
:1011B000005528698442C0F07482616801F003021E
:1011C000012A00F06E82CA084FEAC208CA0708EB7B
:1011D000040936D4226811F0030F00F06482A41AC7
:1011E00084429044C0F05D8269698C4200F0D880EE
:1011F000D608202E70D2D4F80CA0A768544508BF9A
:1012000000F05AFABC4208BF00F056FA6068C00805
:10121000C000B0EBC60F18BF00F04EFA05EBC600D9
:1012200000F128018F4205D029698F4251D3F96816
:10123000A1424ED1BA453DD128680121B140884331
:1012400028604C4580F02D82D9F80400C10740F198
:101250002882810700F17A81A969894540F0B5802B
:10126000E868AC614044E86040F001016160696990
:101270008C4202D100216961A960E969814280F054
:101280001282DFF83004006808B9FEF7AAFFA969E6
:10129000002900F00882E868292824BF2846FEF7C4
:1012A00093FFE869E968884280F0FD814FF0FF30E4
:1012B000E861F8E12830824506D02869824508D3E4
:1012C000DAF80800A04204D1C7F80CA0CAF80870E8
:1012D000B7E700F0F1F9B4E7E768A669A7420BD0D9
:1012E000A168814222D3C868A04204BFB868A04266
:1012F0001CD1CF60B9601BE004F114010F6837B94D
:1013000004F110010F689FB101E011460F6807F169
:1013100014021368002B02BF07F110021368002BA0
:10132000F3D1814202D30020086001E000F0C4F94B
:10133000002E86D0E06905EB800000F5987001680A
:101340008C4209D10760380011D1E2696868012137
:1013500091408843686074E72869864205D3306904
:10136000A04214BF7761376101E000F0A5F9002FBA
:101370003FF467AF28698742ABD3BE61216929B1C9
:10138000814226BF39618F6100F096F960690028BB
:101390003FF457AF296988429BD37861876150E752
:1013A00099F8040000F0030003287FF44AAFC5F861
:1013B0000880D9F8040040084000C9F8040048F04B
:1013C0000100606048F804806DE16969894508D1D1
:1013D000A8686C614044A86040F001016160005160
:1013E00061E1C008C0004FEAD00ABAF1200F804482
:1013F00036D2D9F80C70D9F80860B94508BF00F0AA
:101400005BF9B14508BF00F057F9D9F80400C008EE
:10141000C000B0EBCA0F18BF00F04EF905EBCA00D0
:1014200000F128018E4206D029698E42C0F08180E9
:10143000F16849457DD1B74206D12868012101FAFA
:101440000AF18843286076E02830874205D0286971
:1014500087426ED3B86848456BD1F760BE606AE0DA
:10146000D9F80C70D9F818604F450DD0D9F808009C
:101470002969884223D3C168494504BFB9684945F1
:101480001DD1C760B8601CE009F11400076837B9C6
:1014900009F110000768A7B101E00846076807F1E5
:1014A00014010A68002A02BF07F110010A68002A25
:1014B000F3D12969884202D30021016001E000F0E4
:1014C000FBF8002E37D0D9F81C0005EB800000F5A2
:1014D0009870016889450AD10760380012D1D9F89F
:1014E0001C206868012191408843686023E02869D6
:1014F000864205D33069484514BF7761376101E002
:1015000000F0DAF8BFB12869874212D3BE61D9F87A
:10151000101029B1814226BF39618F6100F0CCF8EB
:10152000D9F8140038B12969884202D378618761FB
:1015300001E000F0C1F848F00100606048F8048064
:10154000686984420BD1C5F80880ACE040084000CF
:10155000C9F8040048F00100606048F804804FEAD0
:10156000D807202F22D205EBC70000F128094E46EC
:10157000B8F1100F38BF00F09FF8286820FA07F183
:10158000C90704D40121B9400843286007E0D9F80D
:101590000800296988422CBF064600F08DF8C9F87A
:1015A0000840F460A660C4F80C907CE05FEA182064
:1015B00008BF002123D0B0F5803F28BF1F211ED2D5
:1015C000A0F58071090C01F008018840A0F5805257
:1015D000120C02F004029040A0F580431B0CC1F1F4
:1015E0000E0103F00203891AC91A984001EBD030AA
:1015F000C11D28FA01F202F0010101EB40010022B5
:1016000062612261E16105EB81006A6822FA01F3FF
:10161000DB0700F5987006D4012303FA01F11143AA
:10162000696004601CE000681F290EBF00214908A2
:10163000C1F1190108FA01F100E010464268D20830
:10164000D200424510D0CA0F00EB820202F1100313
:1016500049001A68002AF0D129698B4211D31C6015
:10166000A061E460A4600EE02A698168904228BF0E
:10167000914206D3CC608460E060A1600020A0614C
:1016800001E000F019F8286A401E28620BD1D5F855
:10169000C80100E080680028FCD14FF0FF302862CC
:1016A00001E000F009F8C046C046BDE8F087000040
:1016B000BC970020809D0020012000F017B800009A
:1016C0000749086808B1002070470648C008C000F4
:1016D00008600549C908C900091A0160704700BFC0
:1016E000A89D0020B7BD0020B0DD002080B500F02F
:1016F00007F8024A11001820ABBEFBE726000200E3
:1017000080B500F033F802000023DB4310689842F4
:1017100004D011000220ABBE002010605068984237
:1017200004D0111D0220ABBE0020506001BD00009E
:1017300010B584B0040000F019F8A1004218106838
:101740000021C94388420DD107A00090002C01D18F
:10175000002000E00420019003200290694601204F
:10176000ABBE106004B010BD3A74740000487047FE
:10177000F804002030B50468256825F4802525602C
:1017800063608068402807BFA260E160A160E260FA
:1017900030BD10B508B9012010BD0221DFF860345A
:1017A00080F8351001680A681A4043681A43836854
:1017B0001A43C3681A4303691A4343691A43836986
:1017C0001A43C3691A43036A1A43436A042B03D1B9
:1017D000C36A046B23431A430A6001684A69436A77
:1017E000D208042B43EAC20204BF836A1A434A6147
:1017F0000021C164012180F83510002010BD0028AF
:101800002DE9F04F1DBF00F1340149780229012074
:1018100000F0F4810168DFF8EC83DFF8EC334FF07F
:10182000807E4FF48027DFF8E4430A684FF4807924
:10183000DFF8DC53DFF8DCA3520852000A600268CC
:101840000021DFF8D4631160026851600268916082
:101850000268D16002681161026821215161D0F8EB
:1018600000C0DFF8B813DFF8B823C4450DD3B44582
:1018700008BFD64606D0AC4508BFCE4602D0A44528
:1018800008BFBE46C2F804E040E09C4513D3DFF831
:1018900008B4DC4508BFD6460AD0DFF800A4D4451A
:1018A00008BFCE4604D0DFF8F893CC4508BFBE464B
:1018B000C2F800E02AE0DFF8ECB3DC4513D3DFF830
:1018C000E8B3DC4508BFD6460AD0DFF8E0A3D4452C
:1018D00008BFCE4604D0DFF8D893CC4508BFBE463B
:1018E000C1F804E012E0DFF8CCB3DC4508BFD6460F
:1018F0000AD0DFF8C4A3D44508BFCE4604D0DFF831
:10190000BC93CC4508BFBE46C1F800E007684FF065
:10191000006C4FF4001E4FF4006947450ED3B742E8
:1019200008BF4FF0200C06D0AF4208BFCC4602D013
:10193000A74208BFF446C2F804C043E09F4214D354
:10194000DFF854A3574508BF4FF0200C0AD0DFF84A
:101950004CA3574508BFCC4604D0DFF844934F450D
:1019600008BFF446C2F800C02CE0DFF838A35745A2
:1019700014D3DFF834A3574508BF4FF0200C0AD02A
:10198000DFF828A3574508BFCC4604D0DFF82093E2
:101990004F4508BFF446C1F804C013E0DFF814A3B4
:1019A000574508BF4FF0200C0AD0DFF80CA357456D
:1019B00008BFCC4604D0DFF804934F4508BFF44677
:1019C000C1F800C007684FF0007C4FF4002E4FF4C0
:1019D000007947450ED3B74208BF4FF0080C06D038
:1019E000AF4208BFCC4602D0A74208BFF446C2F8B7
:1019F00004C043E09F4214D3DFF89CA2574508BFC0
:101A00004FF0080C0AD0DFF894A2574508BFCC4627
:101A100004D0DFF88C924F4508BFF446C2F800C0EE
:101A20002CE0DFF880A2574514D3DFF87CA257459D
:101A300008BF4FF0080C0AD0DFF870A2574508BF66
:101A4000CC4604D0DFF868924F4508BFF446C1F891
:101A500004C013E0DFF85CA2574508BF4FF0080C44
:101A60000AD0DFF854A2574508BFCC4604D0DFF8AF
:101A70004C924F4508BFF446C1F800C007684FF4C8
:101A8000800C4FF4803EDFF8389247450ED3B742C2
:101A900008BFCC4607D0AF4208BF4FF0400C02D081
:101AA000A74208BFF446C2F804C043E09F4214D3E3
:101AB000DFF8E4A1574508BFCC460BD0DFF8DC9136
:101AC0004F4508BF4FF0400C04D0DFF8D4914F458C
:101AD00008BFF446C2F800C02CE0DFF8C8A15745A3
:101AE00014D3DFF8C4A1574508BFCC460BD0DFF8AC
:101AF000BC914F4508BF4FF0400C04D0DFF8B091C7
:101B00004F4508BFF446C1F804C013E0DFF8A4A1B4
:101B1000574508BFCC460BD0DFF89C914F4508BF16
:101B20004FF0400C04D0DFF894914F4508BFF446C5
:101B3000C1F800C007684FF0806C4FF4801E4FF46E
:101B4000806947450ED3B74208BF4FF0100C06D04E
:101B5000AF4208BFCC4602D0A74208BFF446C2F845
:101B600004C043E09F4214D3DFF82C118F4208BF1A
:101B70004FF0100C0AD0DFF824118F4208BFCC467A
:101B800004D0DFF81C118F4208BFF446C2F800C031
:101B90002CE0DFF81021974214D3DFF80C21974294
:101BA00008BF4FF0100C0AD0DFF80021974208BFA1
:101BB000CC4604D0DFF8F820974208BFF446C1F8BD
:101BC00004C013E0DFF8EC20974208BF4FF0100C80
:101BD0000AD0DFF8E420974208BFCC4604D0DFF8F3
:101BE000DC20974208BFF446C1F800C0002100F194
:101BF00034029161517080F834100020BDE8F08FFC
:101C00003F8010F059640240B9600240A064024075
:101C10008864024004008000706402400860024052
:101C20000864024038B500F030F801D1022032BD1E
:101C300000F020F82068016841F010010160206880
:101C4000016841F0080101602068016841F0040169
:101C500001602068416941F08001416120680168AC
:101C600041F0020101602068016841F0010101605A
:101C7000002032BD012505700225457020680568E9
:101C80006D086D000560204674E5044604F13400DB
:101C90000578012D7047000010640240286402405E
:101CA0004064024059600240706002408860024017
:101CB000A060024010600240286002404060024084
:101CC000010080002DE9F84F0446DFF8C099DFF8E5
:101CD000C059DFF8C06923684FF000704FF400214D
:101CE0004FF400724B45DFF8B0A9DFF8B08911D38B
:101CF0004345D6F804E008BF4FF0080C53D05345D5
:101D000008BF94464FD0DFF89879BB4214BF844691
:101D10008C4648E0DFF88C79BB4215D3DFF8647954
:101D2000D6F800E0BB4208BF4FF0080C3BD0DFF80C
:101D30007879BB4208BF944635D0DFF84C79BB4276
:101D400014BF84468C462EE0DFF86079BB4215D381
:101D5000DFF82C79D5F804E0BB4208BF4FF0080C3F
:101D600021D0DFF84C79BB4208BF94461BD0DFF886
:101D70004479BB4214BF84468C4614E0DFF83879BE
:101D8000D5F800E0BB4208BF4FF0080C0BD0DFF8DD
:101D90002C79BB4208BF944605D0DFF82479BB42BA
:101DA0000CBF8C4684461CEA0E0C04F1340769D043
:101DB000D3F800C05FEA4C7C64D5D3F800C02CF0A7
:101DC000040CC3F800C023684B450ED3434508BF3D
:101DD000082008D0534508BF104604D0DFF8C028BB
:101DE000934208BF0846F0603FE0DFF8B8C863459B
:101DF00012D3DFF890C8634508BF08200AD0DFF887
:101E0000A8C8634508BF104604D0DFF87C28934279
:101E100008BF0846B06028E0DFF890C8634512D3D9
:101E2000DFF85CC8634508BF08200AD0DFF880C827
:101E3000634508BF104604D0DFF87828934208BFF6
:101E40000846E86011E0DFF870C8634508BF082065
:101E50000AD0DFF868C8634508BF104604D0DFF831
:101E60006028934208BF0846A860B86940F00100A6
:101E7000B8610420787000203870796908001CBFB0
:101E80002046884723684FF480004FF48031DFF804
:101E900034284B4511D34345D6F804E008BF944697
:101EA00054D0534508BF4FF0400C4FD0DFF8F0B787
:101EB0005B4514BF84468C4648E0DFF8E8E773458D
:101EC00015D3DFF8C0B7D6F800E05B4508BF9446ED
:101ED0003CD0DFF8D4B75B4508BF4FF0400C35D09D
:101EE000DFF8A4B75B4514BF84468C462EE0DFF8CC
:101EF000BCE7734515D3DFF888B7D5F804E05B4538
:101F000008BF944622D0DFF8A8B75B4508BF4FF062
:101F1000400C1BD0DFF89CB75B4514BF84468C4651
:101F200014E0DFF894B7D5F800E05B4508BF9446AD
:101F30000CD0DFF888B75B4508BF4FF0400C05D0E8
:101F4000DFF87CB75B450CBF8C4684461CEA0E0C60
:101F500069D0D3F814C05FEA0C6C64D5D3F814C010
:101F60002CF0800CC3F814C023684B450ED34345B6
:101F700008BF104608D0534508BF402004D0DFF802
:101F80002027934208BF0846F0603FE0DFF814C7FF
:101F9000634512D3DFF8ECC6634508BF10460AD08C
:101FA000DFF80427934208BF402004D0DFF8D8268A
:101FB000934208BF0846B06028E0DFF8F0C66345EA
:101FC00012D3DFF8BCC6634508BF10460AD0DFF85D
:101FD000E026934208BF402004D0DFF8D826934281
:101FE00008BF0846E86011E0DFF8CCC6634508BFCB
:101FF00010460AD0DFF8C426934208BF402004D020
:10200000DFF8BC26934208BF0846A860B86940F0D4
:102010000200B861042078700020387079690800E7
:102020001CBF2046884720684FF4802100904FF461
:1020300080728446CC454FF08070DFF88C3610D328
:10204000C445D6F804E008BF9C4650D0D44508BF2C
:1020500094464CD0DFF848B6DC4514BF84468C4625
:1020600045E0DFF840E6F44514D3DFF818B6D6F8BB
:1020700000E0DC4508BF9C4639D0DFF82CB6DC45D3
:1020800008BF944633D0DFF800B6DC4514BF844661
:102090008C462CE0DFF814E6F44514D3DFF8E0B505
:1020A000D5F804E0DC4508BF9C4620D0DFF800B638
:1020B000DC4508BF94461AD0DFF8F8B5DC4514BFFC
:1020C00084468C4613E0DFF8F0B5D5F800E0DC4537
:1020D00008BF9C460BD0DFF8E4B5DC4508BF94464A
:1020E00005D0DFF8DCB5DC450CBF8C4684461CEA25
:1020F0000E0C70D0DDF800C0DCF800C05FEA8C7C0C
:1021000069D5DDF800C0DCF800C0DDF800E02CF097
:10211000020CCEF800C0D4F800C0CC450ED3C445A4
:1021200008BF184608D0D44508BF104604D0DFF8D1
:102130007025944508BF0846F0603FE0DFF864E58D
:10214000F44512D3DFF83CE5F44508BF18460AD041
:10215000DFF854359C4508BF104604D0DFF8282529
:10216000944508BF0846B06028E0DFF840E5F44534
:1021700012D3DFF80CE5F44508BF18460AD0DFF8A3
:1021800030359C4508BF104604D0DFF8282594451B
:1021900008BF0846E86011E0DFF81CE5F44508BF19
:1021A00018460AD0DFF814359C4508BF104604D005
:1021B000DFF80C25944508BF0846A860B86940F0D0
:1021C0000400B86104207870002038707969080034
:1021D0001CBF2046884723684FF080604FF4801171
:1021E0004FF480629C46CC4511D3C445D6F804E038
:1021F00008BF4FF0100B53D0D44508BF93464FD0C3
:10220000DFF89CB4DC4514BF83468B4648E0DFF81A
:1022100094E4F44515D3DFF86CB4D6F800E0DC455F
:1022200008BF4FF0100B3BD0DFF87CB4DC4508BF93
:10223000934635D0DFF850B4DC4514BF83468B4657
:102240002EE0DFF868E4F44515D3DFF834B4D5F8B0
:1022500004E0DC4508BF4FF0100B21D0DFF850B48C
:10226000DC4508BF93461BD0DFF848B4DC4514BFFB
:1022700083468B4614E0DFF840B4D5F800E0DC4537
:1022800008BF4FF0100B0BD0DFF830B4DC4508BFAF
:10229000934605D0DFF828B4DC450CBF8B46834657
:1022A0001BEA0E0E00F0C580D3F800E05FEA0E7E58
:1022B00040F1BF80D3F800E05FEA4E3E59D5CC45EF
:1022C0000ED3C44508BF102008D0D44508BF10461F
:1022D00004D0DFF8CC23944508BF0846F0603FE007
:1022E000DFF8C0339C4512D3DFF898339C4508BF14
:1022F00010200AD0DFF8B0339C4508BF104604D048
:10230000DFF88423944508BF0846B06028E0DFF872
:102310009C339C4512D3DFF868339C4508BF1020DE
:102320000AD0DFF88C339C4508BF104604D0DFF894
:102330008423944508BF0846E86011E0DFF878334D
:102340009C4508BF10200AD0DFF870339C4508BFB9
:10235000104604D0DFF86823944508BF0846A860FB
:102360002068016809035DD5006800035CD5412041
:1023700059E0D3F800C05FEACC5C05D4D3F800C0C4
:102380002CF0080CC3F800C023684B450DD343451F
:1023900008BF102007D0534508BF104603D0C04ADD
:1023A000934208BF0846F0603CE0DFF8F8C263459E
:1023B00011D3DFF8D0C2634508BF102009D0DFF881
:1023C000E8C2634508BF104603D0AF4A934208BF36
:1023D0000846B06026E0DFF8D4C2634511D3DFF8C9
:1023E000A0C2634508BF102009D0DFF8C4C263450E
:1023F00008BF104603D0AF4A934208BF0846E860C2
:1024000010E0DFF8B4C2634508BF102009D0DFF840
:10241000ACC2634508BF104603D0A94A934208BF27
:102420000846A86031207870F96808001CBF204673
:10243000884723684FF000604FF400114FF40062AA
:102440009C46CC4511D3C445D6F804E008BF4FF0F4
:10245000200B53D0D44508BF93464FD0DFF840B28D
:10246000DC4514BF83468B4648E0DFF838E2F4458C
:1024700015D3DFF810B2D6F800E0DC4508BF4FF006
:10248000200B3BD0DFF820B2DC4508BF934635D0A7
:10249000DFF8F4B1DC4514BF83468B462EE0DFF84D
:1024A0000CE2F44515D3DFF8D8B1D5F804E0DC45EB
:1024B00008BF4FF0200B21D0DFF8F4B1DC4508BF96
:1024C00093461BD0DFF8ECB1DC4514BF83468B4646
:1024D00014E0DFF8E4B1D5F800E0DC4508BF4FF0C8
:1024E000200B0BD0DFF8D4B1DC4508BF934605D0F4
:1024F000DFF8CCB1DC450CBF8B4683461BEA0E0EE1
:1025000054D0D3F800E05FEACE6E56D5D3F800E0A1
:102510005FEA4E3E53D5CC450DD3C44508BF2020BD
:1025200007D0D44508BF104603D05D4A944508BF84
:102530000846F06034E05B4B9C450FD3514B9C4503
:1025400008BF202008D0584B9C4508BF104603D038
:102550004D4A944508BF0846B06021E0534B9C4566
:102560000FD3474B9C4508BF202008D0504B9C45BB
:1025700008BF104603D04F4A944508BF0846E8609C
:102580000EE04D4B9C4508BF202008D04B4B9C458E
:1025900008BF104603D04A4A944508BF0846A860C1
:1025A00020680168090306D43969080066D020460E
:1025B000BDE8F44F0847006800035FD557E0D3F843
:1025C00000C05FEACC5C05D4D3F800C02CF0100C3E
:1025D000C3F800C023684B450DD3434508BF2020F6
:1025E00007D0534508BF104603D02D4A934208BF79
:1025F0000846F06035E0DFF8ACA053450FD3214D1D
:10260000AB4208BF202008D0274DAB4208BF104680
:1026100003D01D4A934208BF0846B06021E0234E14
:10262000B3420FD3164EB34208BF202008D0204E2D
:10263000B34208BF104603D01E4A934208BF084663
:10264000E8600EE01C4EB34208BF202008D01B4EAD
:10265000B34208BF104603D0194A934208BF084648
:10266000A860B869B8611120787000203870B96826
:10267000080003D02046BDE8F44F0847BDE8F18FBD
:10268000706002401064024040640240596402409D
:1026900000600240006402408864024070640240AE
:1026A000A0640240B96002402864024059600240C0
:1026B00088600240A0600240106002402860024032
:1026C0004060024001008000040080002DE9F04FCE
:1026D00080460FF2A47095B015461E46D0E900233F
:1026E000CDE9132303AF00200391B8610DF1340944
:1026F00000E065190020ADF8020013AB4FF0FF3287
:1027000029460DF1020000F0C3FB0446012C04DA57
:102710002878441EA441E443E40FBDF802002528B4
:102720000CBFA4F1010BA346BBF1010F0EDBAA46BF
:102730001AF8011B0398C0470028039000F0DA80C4
:10274000B869401CBBF1010BB861F1D1BDF80200C2
:10275000252804D10020F8603861786105E0002860
:10276000C7D1B86906E340F0010015F8011F202920
:10277000F9D023290DD02B2904D02D2906D03029BA
:102780000AD00CE040F0020080B2EEE740F0040016
:10279000FAE740F00800F7E740F01000F4E72A29D4
:1027A0000ED13168316051F8042B3160002A3A6251
:1027B00004D5514240F00400396280B26D1C13E030
:1027C000002139620BE0396A6FF00043994205D06D
:1027D00001EB810302EB4301303939626D1C2A7829
:1027E000A2F130010A29EED329782E2903D04FF027
:1027F000FF31F9611FE015F8011F2A2907D131685F
:1028000031606D1C51F8042B3160FA6113E0002136
:10281000F9610BE0F9696FF00043994205D001EBD3
:10282000810302EB43013039F9616D1C2A78A2F172
:1028300030010A29EED3B8840FF24460297800F001
:1028400037FB08B115F8010B8DF832009DF8320006
:10285000682804BF2878682803D162208DF83200E8
:102860006D1C0DA8B86015F8014B252C13D0582C01
:102870004BD0632C00F0A380642C18BF692C7CD053
:102880006F2C42D0702C36D0732C0AD0752C18BF08
:10289000782C3AD0B6E00120F86025208DF834007D
:1028A000BAE09DF832006C283068306018D050F8DB
:1028B000044B30607C60D7F81CA0BAF1000F04D53F
:1028C000204600F001FB824607E0524600212046E8
:1028D00000F016FB08B1A0EB040AC7F810A09BE0BB
:1028E00050F8042B306002A9404600F02DF9002872
:1028F00040F192803CE23068306050F8041B306058
:1029000002910DA87860782155E09DF832006C287E
:102910000DD0712818BF6A2809D13068C01D20F079
:1029200007023260D2E900010832326004E0316807
:10293000316051F8040B316002909DF83200682834
:1029400002D102A8008803E0622802D102A8007820
:10295000029097F82400000728D5029830B344F07D
:102960002000782822D1F868302100F80910401C96
:10297000411CF96000F8094018E09DF8320031462A
:1029800000F0BCF80028029002D5F8682D2109E07B
:10299000B88C810702D5F8682B2103E0C00705D564
:1029A000F868202100F80910401CF8600DA8F968AB
:1029B00008187860214602A800F0DFF92CE09DF8A5
:1029C00032006C2809D00120F8603068306050F87F
:1029D000041B30608DF834101EE03068306001AAAE
:1029E00050F8041B3060ADF804100020ADF806006C
:1029F00002A94FF0FF30F861404600F0A5F800282A
:102A00000AD577E70120F86025208DF834001CB145
:102A10000220F86089F80140386AF968401A79693B
:102A2000401A3969441A97F82400400711D420202D
:102A3000012C8DF800000CDBA24601236A4602A996
:102A4000404600F001FA00287FF454AFBAF1010AC1
:102A5000F3D1D7F80CB0BBF1000F0DF1340A0DD053
:102A60001AF8011B0398C047002803903FF442AFB7
:102A7000B869401CBBF1010BB861F1D1D7F814A0C3
:102A80003020BAF1010F8DF800000BDB01236A46FC
:102A900002A9404600F0D8F900287FF42BAFBAF124
:102AA000010AF3D1D7F810B0D7F804A0BBF1000F9A
:102AB0000DD01AF8011B0398C047002803903FF47B
:102AC00019AFB869401CBBF1010BB861F1D197F89F
:102AD000240040077FF50EAE2020012C8DF8000069
:102AE000FFF608AE01236A4602A9404600F0ACF9A1
:102AF00000287FF4FFAE641EF4D1FBE5622815D0F8
:102B000068280CD06C2818BF742816D07A2814D1E5
:102B10000A680A6052F8040B0A60002170470A68CC
:102B20000A6052F8040B0A6000B20BE00A680A60FF
:102B300052F8040B0A6040B204E00A680A6052F8D6
:102B4000040B0A60C11770472DE9F44F0D4694B08D
:102B50002F6A002F804648BF6FF0004700F0FCF955
:102B6000696A401801900FF22030D0E90023CDE9C6
:102B7000022395F82800400702D40198412805D285
:102B800040200DF110090190002606E0FEF7ACF997
:102B90005FEA0009F8D1EBE03F1B012FC0F29480FF
:102BA0001498018802AA0DF1010000F0DAF900285A
:102BB000044600F19C801498008810B9641E00F14E
:102BC0009680A742C0F2808028690199221891421C
:102BD00068D26E624042A969401A6969461A95F83E
:102BE0002800400710D42020012E8DF800000BDBB8
:102BF000B24601236A462946404600F025F90028DE
:102C000075D1BAF1010AF4D1D5F810B0BBF1000FBB
:102C1000CA460CD01AF8011B6868C04700286860D3
:102C200065D0E869401CBBF1010BE861F2D13020AE
:102C30008DF80000D5F818A0BAF1010F0ADB0123C6
:102C40006A462946404600F0FFF800284FD1BAF105
:102C5000010AF4D1D5F814B0D5F808A0BBF1000FE3
:102C60000CD01AF8011B6868C047002868603ED085
:102C7000E869401CBBF1010BE861F2D195F828002E
:102C800040070DD52020012E8DF8000008DB012320
:102C90006A462946404600F0D7F840BB761EF6D17A
:102CA00000262E61224628690DF10101484400F0FA
:102CB00065F92869201828611498801C1490801EDA
:102CC000008800287FF468AF686A2969401AA969FA
:102CD000401A6969471A95F8280040070FD4012F58
:102CE0000DDB3C4668682021C047686010B94FF092
:102CF000FF3635E0E869401C641EE861F2D12B69BB
:102D00004A462946404600F09FF80028EFD1AC69BA
:102D1000012C0ADB68683021C04700286860E6D0D3
:102D2000E869401C641EE861F4D16B69AA68294611
:102D3000404600F089F80028D9D195F828004007CE
:102D40000CD5012F0ADB68682021C0470028686085
:102D5000CDD0E869401C7F1EE861F4D12E616E621F
:102D600004A881451CBF4846FEF719FA304601E029
:102D70004FF0FF3015B0BDE8F08FF0B4C2686F2996
:102D800008BF082405D041F02003782B14BF0A2483
:102D9000102418230668642918BF6929374602D110
:102DA000002E48BF7F425FB9056A4DB9082C27D174
:102DB00090F82810090723D530211723D1751FE07B
:102DC000B7FBF4F604FB16773037FFB25D1E3A2FDF
:102DD000A4BFA1F1510C6744AF542B46370003D078
:102DE00085689E18B542EBD3082C09D190F82810BD
:102DF000090705D5995C302902D05B1E3021995412
:102E00009A188260C3F11801026A4161914208DA9E
:102E1000511A81614FF6EF72018D11400185F0BCAE
:102E20007047002A0ED590F8282002F01402102ACC
:102E300008D1426A0369D21A8369D21A531A012B44
:102E4000A8BF8361F0BC7047F8B504460D4616462E
:102E50001F46002077B116F8011B6868A04768601C
:102E600030B1E869401CE86100207F1EF3D1F2BD5B
:102E70004FF0FF30F2BD0000000000000000000035
:102E8000686C747A4C000000000000000000000034
:102E9000F8B504460D4616461F4600F0ABF83B4613
:102EA00032462946204601B0BDE8F04000F0B9B8EE
:102EB0000278C9B28A421AB11CBF10F8012FF9E793
:102EC00018BF00207047000000F10103810704D003
:102ED00010F8011B89B18107FAD10268B2F1013102
:102EE000914311F0803F04BF50F8042FF6E710F82B
:102EF000011B11B110F8011BFBE7C01A704700005D
:102F0000C9B2830706D0521E22D310F8013B994262
:102F1000F7D11FE0083A13D302F1040241EA01217C
:102F200041EA014150F8043B121F21BF4B40A3F17D
:102F3000013C2CEA030C1CF0803FF3D0C9B2001F07
:102F4000083210F8013B521E28BF91EA030FF8D84F
:102F500018BF0120401E704780B500F04BF80120DB
:102F600002BD70B504460D46164600F043F83246E1
:102F700029462046BDE8704000F046B862B38B0792
:102F800008D0521E11F8013B00F8013B00F02480EC
:102F90008B07F6D1830740F0208000BF103A07D39B
:102FA00030B4B1E83810103AA0E83810F9D230BC8B
:102FB000530724BFB1E80810A0E8081044BF51F837
:102FC000043B40F8043BD20724BF31F8022B20F821
:102FD000022B44BF0B7803707047083A07D3B1E85F
:102FE0000810083A40F8043B40F804CBF7D25307E6
:102FF000E4E7000080B5DFF80C0000F035F88069E8
:1030000002BD00009803002030B430B90FF2480030
:10301000D0E90045C2E900451BE00170012030BC49
:10302000704730B431B90FF23800D0E90045C3E938
:1030300000450EE01AB930BC6FF00100704708B1CE
:103040000A7802800978481E804130BCC043C00F16
:103050007047002030BC70470000000000000000F6
:10306000000000000000000070470000F8B50446B2
:1030700000252668304600F0F3FA01287CD100F0E4
:103080007CF8002878D000F078F8800203D5216819
:103090004FF40010486100F070F8C00203D52168B9
:1030A0004FF48010486100F068F8400103D52168B2
:1030B0004FF08060486100F060F8800702D5216819
:1030C0000220486100F059F8800010D506F58860AC
:1030D000016821F02E010160204600F071FB20689C
:1030E000012100F0C1FA21684FF00050486100F062
:1030F00044F8C00144BF204600F01CFA00F03DF83F
:10310000000705D5204600F053FB216808204861E0
:1031100000F033F880011ED5206800F0DBFA074686
:1031200002E000F022F96D1CA06885420FD227FA58
:1031300005F0C007F7D506EB4510E9B200F5A06031
:10314000006800042046ECD500F040F8EBE7216869
:103150004FF00070486100F010F8C0060CD52068F0
:10316000816921F010018161204600F0ADF92068ED
:10317000816941F010018161F1BD206800F06CBAF5
:1031800010B500F011F801D1022010BD012084F823
:103190008C02206800F028FA2068012100F07BFAF8
:1031A000002084F88C0210BD044694F88C0201289B
:1031B000704710B5FFF7F8FF01D1022010BD0120C4
:1031C00084F88C02206800F0B7FAE9E72DE9F041B5
:1031D00004460D46206800EB451000F5A066282047
:1031E00010FB0548B06808F14407400706D50420E5
:1031F000B060F06840F00200F06021E0B068800646
:1032000048BF20201BD4B06800070CD5F06840F000
:103210000200F060052078751020B0600820B060D2
:1032200000F0A0F80CE0B068400509D5F06800F0A7
:1032300096F81020B060082078754FF48060B06078
:10324000B068800504D500F088F84FF4007062E0A3
:10325000B068C0072AD5206928B1386831694903A8
:10326000B0EB513078600120787500203861012082
:10327000B06098F83B00002818BF022804D100F085
:103280006CF81020B0600CE003280AD130680122ED
:10329000294640F00050306001203875204600F08B
:1032A00093FA387A80F0010038724BE0B0688007FA
:1032B00021D5F06820F00200F060787D012814BF6D
:1032C000052838750FD0062818BF08280BD1386993
:1032D000411C0428396123BF0020386104200220EA
:1032E000387500F031F802202946B0603A7D20465A
:1032F00000F06AFA26E0B06800060ED5F0682946AC
:1033000040F00200F0603869401C38610620787592
:1033100000F028F88020B06014E0B068C00611D535
:1033200098F83B00032801D100F017F803207875C6
:103330001020B06098F83B00002818BF022801D187
:1033400000F002F8BDE8F081306820F08040306085
:10335000306840F0004030607047F068294640F027
:103360000200F060206800F0BAB938B5026802EBDC
:10337000411202F5A064A268520706D50420A0609D
:10338000E06840F00200E06031BD2822A36812FB33
:10339000010202F1540539329B060BD52023A360AC
:1033A0001278012A05D104226A7100F086F8022001
:1033B000287131BDA3685B0605D504226A7100F04F
:1033C0007AF8402029E0A3689B0504D500F075F841
:1033D0004FF4007021E0A368DB0704D500F06BF820
:1033E0000120A06026E0A3681B0705D50822A26083
:1033F00000F063F805201DE0A368DB0605D500F0AA
:103400005AF803206871102007E0A3681B0606D550
:1034100000F053F8062068718020A06031BDA368D9
:103420005B0509D500F049F81020A0604FF48060DA
:10343000A0600820687131BDA3689B073AD5E36896
:1034400023F00203E3606B79012B08D12B71937891
:10345000022B2AD1137D83F00103137525E0032B82
:1034600008BF022209D0042B04D102232B710023B0
:1034700013701AE0052B02D105222A7115E0062BE4
:1034800018BF082B11D12A68531C042A2B6023BFB4
:1034900000222A60042202222A71226822F080423D
:1034A0002260226842F0004222600222A2602A7951
:1034B00000F08AF931BD00222A60E26842F002027F
:1034C000E260006800F00BB90146F8B50868026ACE
:1034D00002F00F050446C2F30A16C2F34342022A61
:1034E00024D11EB3282212FB051101F140073968CF
:1034F000E1B1324600F09EF838680D4A3018386065
:10350000B8683018B86004EB451000F5A060016998
:1035100011420BD0016821F080410160016841F047
:1035200000410160387B80F001003873F1BD00007C
:103530000000F81F7CB505462868064606F5886435
:103540002168019121680091009921F02E010091DC
:10355000019989070DD50199C90706D5816921F01F
:1035600000518161284600F027F9009840F00200E0
:103570000090019800072CD5009840F008000090BA
:10358000019840071CD5A86902280BD12868019929
:1035900001F4C021B1F5802F0CBF0221012100F000
:1035A00063F807E0E868032804D14EF6602006F5CA
:1035B00080614860284600F0FFF8E86848B903E0F9
:1035C000206820F02E0020602868816941F00051B9
:1035D00081610198800603D5009840F0200000909A
:1035E0000098206073BD0000816841F0010102E095
:1035F000816849084900816000207047890141F0D5
:1036000020010161DFF82C11491E01D10320704710
:1036100002699206F8D40020704710210161DFF89A
:103620001411491E01D1032070470269D206F8D453
:103630000020704710B5D21C5410002302EB947286
:1036400005E000F580545B1C246841F8044BB3EBA3
:10365000A20FF6D3084610BD416980690840704743
:10366000406900F00100704700F5806001F003033D
:10367000026892089200026002681A4301290260FF
:1036800008BF4BF6803103D0022902D141F270719C
:1036900041600020704700F5886081B002680092A8
:1036A000009A22F02E020092009AD20407D4012937
:1036B00005D1009941F480510160009807E0009A1B
:1036C000D20404D519B9009921F480510160002079
:1036D00001B0704700F58060406980B2704700EB30
:1036E000411101F5A0610A680B6840F2E9321B0341
:1036F0000B6843F080430B604EBFC06A00F58060EA
:1037000000690004086810D140004008086008689B
:1037100040F000400860086820F400400860521E35
:1037200006D008680028FAD402E040F000400860A3
:1037300000207047410D030070B504460025FFF7D7
:1037400057FF10212046FFF759FF20466FF08026D3
:10375000FFF763FF002104EB4112491C02F5A06250
:103760001368334043F0804310291360F3DB0021DA
:1037700004EB411202F5A062136823F4004343F006
:10378000404313606D1CB5F57A7F02D81368002B97
:10379000F8D4491C1029EBDB4FF0FF3104F58060B1
:1037A000416120466161FFF71FFF002070BD0000EE
:1037B000D0F8900200F018B8D0F8900200F022B8CB
:1037C000D0F8900200F032B8704780B5D0F8B0025F
:1037D000FFF7D6FC002002BD80B5D0F8B002FFF79D
:1037E000E8FC002002BD000000F519714A6C521C73
:1037F0004A6402780A2A04D1096800291CBF896931
:103800000847704780B5017849B9012180F81E1238
:10381000D0F8B422110007D00421904704E00178C9
:10382000012904BF02210170002002BD10B5044629
:10383000FFF7D2FF00F01EF8617900F01CF80020BD
:1038400084F81E02D4F8B422100002D005212046CC
:1038500090470FF2280000F01DF805A000F01AF8BC
:103860002046FFF7B2FF03202070002010BD0000AB
:103870000A0000002179204600F01EB8555342206E
:1038800044657669636520646973636F6E6E656312
:10389000746564000EB400B582B003A900910246BD
:1038A0006B460121034878440A30FEF70FFF06BC3F
:1038B0005DF810FB774000000B2907DA00EB810070
:1038C000D0F86C124904490CC0F86C120020704703
:1038D0002DE9F04F074683B0DFF814050121816020
:1038E00081680029FCD1DFF80C1501600068DFF861
:1038F0000815884240F0B480DFF8000507F1100693
:1039000001600020F0600021B06070603060B06144
:10391000706130617C68204600F082FA00F0A1807E
:103920003D88680800F08AFA0146204600F08EFAC9
:1039300080F097804FF08740214600F099FA00F020
:10394000A1FA82468B46204600F09CFA80468946C2
:10395000284600F0C9FADFF8A824DFF8B03400F0F8
:10396000D1FA42464B4600F0F9FB02460B46504660
:10397000594600F0C7FA00F065FCB083204600F01D
:1039800081FADFF88024DFF8803400F081FC0446FF
:1039900038880D464FF0804900F0A6FA02460B46E3
:1039A0002046294600F0AEFA00F044FD00F06AFA25
:1039B00004460D46012200F085FD00224B4600F032
:1039C00067FC02460B460020494600F0A3FF00F0CA
:1039D00031FD824601222046294600F073FD04464F
:1039E0000D468AF0004000F04DFACDE90001504646
:1039F000514600F03DFA00F045FA82468B4600221F
:103A00004B462046294600F043FC00224FF040433D
:103A100000F0A4FB00F00EFD00F034FA0022DFF805
:103A2000F03300F035FC02460B465046594600F094
:103A300071FF00F0FFFC00F025FA01F02BF8DDE942
:103A4000002300F08BFB0022DFF8C83300F020FCDD
:103A50000022DFF8C43300F01BFC00F0F3FB01E0B0
:103A6000FEE70020B083BC680021204600F0D8F9B2
:103A700022D0B7F800804FEA082000F02BFA8246E7
:103A80008B46204600F0FEF9DFF87423DFF87C3324
:103A900000F0FEFB04460D46404600F025FA2246A3
:103AA0002B4600F05BFB02460B465046594600F0A1
:103AB00029FA00F0C7FB00E00020F08338884FF4BB
:103AC0007A7103B090FBF1F03084BDE8F08F000014
:103AD0002DE9FE4FDFF82413DFF81C338FB00A689E
:103AE0009A4200D0FEE7119A119D10320092009B7D
:103AF0001269009C5B690693009B9B690293009B83
:103B0000AD89E4681E685F689B680195009DAD8B78
:103B10000595DDF814C0009DCCF5807EDDF804C06D
:103B2000ED8BCDF838E0CCEBCC0EDDF804C0CDF851
:103B300034E00CEB4C0E0995DDF804C05FF0000595
:103B40004FEA4E0ECDF830E00CEB8C0EDDF804C0E1
:103B5000CDF82CE00CEB4C0EDDF800C0CDF828E0E1
:103B6000BCF820C0BCF1000F00F02C8190F800C020
:103B70000CEB010E9EF804C26744DDF804C0089700
:103B80009EF804711CF800C006EB47079EF804601D
:103B90000CEB010E9EF804C26744DDF804C00497E4
:103BA0009EF8047110F81CC006EB47069EF80470DE
:103BB0008C449CF804E2B6449CF8046107EB460888
:103BC0000A9F9CF804603F5C7F1897F804C2E044A9
:103BD000CDF80C8097F804C106EB4C0C3E79019FA0
:103BE00010F8277007EB010999F804720CEB07082D
:103BF000DDF82CC099F804711CF800C006EB4707EB
:103C000099F804608C449CF80492B9449CF80471BF
:103C100006EB47069CF80470DDF830C01CF800C0C5
:103C20000CEB010B9BF804C206EB0C0A9BF8046139
:103C300007EB460C0D9E9BF80470365C761896F8E0
:103C400004B2E344CDF81CB096F804C1367907EB12
:103C50004C07DDF820C0CCEBCC0BDDF810C004EB3A
:103C60008B044FF0150B0BFB0C44CEEB0E1C644485
:103C7000DDF80CC00CEB8C0B08EB480C04EB4B0490
:103C800004EB4C0409EB490C64440AEB040C089C5B
:103C900004EBC40B049C03EB8B034FF02A0B0BFBD0
:103CA00004332E2414FB0E33039C0EEB4E0E4444BF
:103CB00004EB440B2E2403EB0B1314FB09332A24CF
:103CC00014FB0A33079C04EBC40B03EB8B04049B2B
:103CD0007344DDF80CE00EEB4E0B08EB880E03EBA3
:103CE0004B0303EB4E03C9EB091E73444FF0150E53
:103CF0001EFB0A33DDF81CE0CEEBCE08ACF5003E2F
:103D0000DDF824C003EB8803BCF1000F10D0DDF810
:103D10001880DDF824C07244CDF818E0A2EB080248
:103D200002FB0CF24FEAE21C02EB1C6212129646F6
:103D3000DDF814C0BCF1000F11D0DDF81490DDF8EF
:103D400038C0DDF808800EFB09FE08FB0CEC4FEADA
:103D5000EC1E0CEB1E6C4FEA2C2ECDF808E0BDF8E3
:103D600040C00CFB0EFCBCF1010FACBF0CF1080C09
:103D7000ACF1080C4FEAEC0E0CEB1E7CDFF89CE07B
:103D80004FEA2C1CF445B8BFF44605DB47F6BD7E70
:103D9000F445A8BF47F6BC7CDDF84480DDF83CE084
:103DA000B8F80E8005FB08F86D1C2EF818C0DDF879
:103DB00004C000EBCC00DDF800C0BCF820C06545B5
:103DC000FFF6D4AE009806600098476000988360C4
:103DD0000098C460009802610698009948610298B2
:103DE00000998861009812B0008CBDE8F08F000047
:103DF00000300240C2A507F4CDB5E8B500000020B0
:103E00001F85EB51182D4454FB211940B81E194051
:103E1000000010400000E03F000070404480FFFFC1
:103E200040EA010C5FEA4C0C07D0884205D14FEA0A
:103E3000400C1CF1807F98BF8042704700EE100A52
:103E4000B8EE400A10EE100A704700004FF0807C78
:103E50001CEB400F94BF1CEB410F05E040EA010C46
:103E60005FEA4C0C01D28842704718BF814270470C
:103E700000EE100A00EE901A20EE200A10EE100A52
:103E8000704700005FF0FF0C1CEAD05114BF614581
:103E900006E0C110400721F0E04101F16051704798
:103EA00079B900F0004100020AD0B0FA80FC00FAB3
:103EB0000CF001F16051A1EB0C5101EBD021400558
:103EC000704741020CBF40F4E0016FF00001002098
:103ED00070470000010040F10980F446404200F0C4
:103EE00005F851F000416047010000BF09D0B0FA69
:103EF00080F18840C91CC1F58461090501EBD0211E
:103F0000400570472DE9F04140F2FF7581EA030C4E
:103F10000CF0004C15EA11541DBF15EA1357AC42C2
:103F2000AF42E9E0BC41C1F31301C3F31303801AAC
:103F3000994143F4801304D2641E40004941801823
:103F40005941C90241EA5051B1FBF3F603FB161186
:103F5000A2FB0675D7EBC020A94102D2761E8018BD
:103F60005941C90241EA5051B1FBF3FE03FB1E1156
:103F7000A2FB0E75D7EBC020A94103D2AEF1010E12
:103F800080185941890241EA9051760546EA8E2E01
:103F9000B1FBF3F603FB1611A2FB0675D7EB8020ED
:103FA000A94102D2761E80185941C90241EA5051F6
:103FB0004EEA060EB1FBF3F603FB1611A2FB0675E3
:103FC000D7EBC020A94102D2761E80185941C90200
:103FD00041EA5051B1FBF3F703FB1711A2FB073580
:103FE000D3EBC020A94167F100070CBF004247F0A6
:103FF000010766F3D5274FEA1E31B80814F580642F
:1040000014DDBD0775F1004250EB0E5051EB045129
:1040100011F5801F5CBF41EA0C01BDE8F0814CF056
:104020007F6141F0E0410020BDE8F081BD076D08EF
:1040300040EA0E5041F48011D4F10104B4F120069D
:104040000ADAC4F120060200E04001FA06F3E1407A
:104050001843B24015430EE0342C14DCC6F12004A2
:1040600045EA40056D0820FA06F2154321FA06F0EC
:10407000A1400D43002175F1004250F1000051EBC9
:104080000C01BDE8F08100205FEA0C01BDE8F08181
:10409000CFB992185B41B3FA83F704BFB2FA82F644
:1040A000BF190B3FB7F120062FBF02FA06F3BB4042
:1040B000C7F1200622FA06F638BF3343BA401CB1D6
:1040C000E419641E2FE77F4231F00041B1FA81F418
:1040D00004BFB0FA80F6A4190B3CB4F120062FBF40
:1040E00000FA06F1A140C4F1200620FA06F638BF16
:1040F0003143A0403C1B16E7AC421ABF05EA1357F8
:10410000AF4214E050EA41061CBF52EA4306BFE743
:1041100050EA4107304661461CBF41EA0551BDE8FF
:10412000F08152EA430C08BFC143BDE8F081002092
:104130004FF4001616EB410F98BF16EB430F08BF64
:1041400016EB410F24BFC14305E016EB430F0CBF34
:1041500061464CEA0551BDE8F0810000F0B44FF033
:10416000004591EA030C44BF6B4000F0DDBB00BF8B
:10417000841A71EB030603D2001BB141121973417B
:104180004FF4001C1CEB410F34BF7CEB430443E0B5
:104190000C0DA4EB1356352E50DC45EAC323DB0A85
:1041A00045EAC121C912B6F120050DDD63FA05F615
:1041B000EB4086EA0305124218BF45F00105C0181E
:1041C00051F100010CD213E062FA06F5F2405540BD
:1041D000F3415A40B340F3405A408018594107D345
:1041E00049085FEA30005FEA350528BF45F0010560
:1041F00001F58011420875F1004250F1000041EBD9
:104200000451F0BC4FF4001C1CEB410F38BF704749
:104210000020090D090570471CEB410F10D252EA2E
:1042200043060BD0BCEB410F05D80C0DAB43661E0B
:10423000342EB5DD02E0AB4380185941F0BC704725
:10424000F0BC7047F446400D40EAC120490006D258
:1042500000F00EF8004248BF6FF00040604700F0E9
:1042600007F84FF0004188428CBF08464042604743
:1042700040F00040490DA1F58061491C05D4D1F101
:104280001F0154BFC840C01770474FF0000070476F
:10429000B0B581EA030C0CF0004C40F2FF7515EA52
:1042A00011541DBF15EA1357AC42AF4239E0E4196F
:1042B00023EA455343F48013C90241F0004141EA27
:1042C000505EC7021100A7FB020200284FF0000059
:1042D000EEFB01204FF00001E3FB072118BF42F085
:1042E0000102401800214941E3FB0E01A4F580645E
:1042F0000F0302D252004041494154F101046CDDE8
:10430000470872F1004250F1000051EB0451A1F551
:1043100080115CBF41EA0C01B0BD4CEA05510020A0
:10432000B0BD05EA1357AC4214BFAF4241E050EABA
:10433000410E1CBF52EA430E02E061460020B0BDB0
:1043400024423C441BD15FEA070EF6D0090302BFAA
:1043500001460020AEF1140EB1FA81F7AEEB07046E
:1043600001FA07FE0C37C7F1200100FA07F7C84031
:104370004EEA000E23EA455343F48013A2E733F0DC
:104380000043B3FA83F704BFB2FA82FE77440B3FCF
:10439000E41BB7F1200E2FBF02FA0EF3BB40C7F1AA
:1043A000200E22FA0EFE38BF43EA0E03BA40641C08
:1043B00082E750EA410E14BF52EA430E6FF000014B
:1043C0004FF4001717EB430F8ABF194617EB410F45
:1043D000B5E74CEA05510020B0BDD4F10104B4F1B9
:1043E00020070FDAC4F12007520828BF42F001026B
:1043F00010FA07F501FA07F7E1BF2A43E040384316
:10440000E1400FE0352C98DCC7F1200452EA40026D
:1044100020FA07F218BF42F0010231FA07F0A1407A
:104420000A43002172F1004250F1000051EB0C01EF
:10443000B0BD00004FEAF17CBCF1E04C2CBFBCF5F4
:10444000001F11E05FEA4C0C34BFBCF17F5F2EE02F
:104450005FEA9C0C4FEA0C1C4FEA3C0CC10071F166
:1044600000414CEB50707047C90241EA5051C00204
:1044700018BF41F0010141F000414FEA6C50C0F11A
:104480000900212810D240EACC7CCCF1200C11FA92
:104490000CF070F10040CCF1200C21FA0CF00CF083
:1044A000004C40EB0C0070474FEACC70704749005D
:1044B00011F5001F04D84FEACC10FF30C00570473B
:1044C000C8177047F8B52DED048B41EC180B154655
:1044D00082B053EC182BDFF8A003DFF8A013FFF72E
:1044E000D7FE41EC190B21F00041DFF89423DFF8EF
:1044F000943300F047FB80F0F68051EC190B00225A
:10450000002300F057FB53EC192B99BF0020DFF874
:1045100078130020DFF87413FFF720FEFFF792FEF8
:10452000040052D0FFF7D6FC0022DFF86433FFF717
:10453000AFFE41EC190B53EC192B4FF0A040D549BD
:10454000FFF7A6FE02460B4651EC180B00F0E2F90D
:1045500006460F4653EC192B4FF0C040CE49FFF7EB
:1045600097FE02460B463046394600F0D3F9064620
:104570000F4653EC192B4FF00050C849FFF788FE47
:1045800002460B463046394600F0C4F906460F464F
:1045900053EC192B0020C249FFF77AFE02460B4666
:1045A0003046394600F0B6F906460F4653EC192B53
:1045B0004FF00050BB49FFF76BFE02460B463046FA
:1045C000394600F0A7F941EC180B04F00300451937
:1045D00051EC180B6FF00102B34B00F0EBFA0BD863
:1045E00000224FF0795300F0CDFA05D2E80740F1F0
:1045F00034819FEDC68B30E153EC182BFFF748FE5A
:1046000041EC190BE80731D553EC192BA748A84901
:10461000FFF73EFEA74AA84BFFF7A0FD53EC192B6E
:10462000FFF736FEA54AA64BFFF798FD53EC192B72
:10463000FFF72EFEA34AA44BFFF790FD53EC192B76
:10464000FFF726FEA14AA24BFFF788FD53EC192B7A
:10465000FFF71EFE6FF051029E4BFFF77FFD53ECFC
:10466000192BFFF715FE00229B4B37E053EC182B5C
:1046700051EC190BFFF70CFE06460F4653EC192BB5
:1046800096489749FFF704FE964A974BFFF766FD59
:1046900053EC192BFFF7FCFD944A954BFFF75EFD99
:1046A00053EC192BFFF7F4FD924A934BFFF756FD9D
:1046B00053EC192BFFF7ECFD904A914BFFF74EFDA1
:1046C00053EC192BFFF7E4FD8E4A8F4BFFF746FDA5
:1046D00032463B46FFF7DCFD53EC182BFFF73EFD5F
:1046E00041EC180BB9E08DED008BDDE90001DDE94F
:1046F0000023C3F30A5140F2FF7291420BD000290C
:1047000004BF190350EA113016D1002D00F0AD801E
:104710009FED7E8BA9E0190350EA113040F0A5808F
:1047200000F060FA2121016002B04FF0FF30BDECD3
:10473000048B6FF00041F4BD8DED008B684600F0F6
:1047400057FA45199DED008B574B51EC180B6FF044
:10475000010200F02FFA0AD800224FF0795300F03E
:1047600011FA04D2E80778D59FED688B75E053EC19
:10477000182BFFF78DFD41EC190BE80731D553ECF1
:10478000192B4A484A49FFF783FD4A4A4A4BFFF72B
:10479000E5FC53EC192BFFF77BFD484A484BFFF72C
:1047A000DDFC53EC192BFFF773FD464A464BFFF730
:1047B000D5FC53EC192BFFF76BFD444A444BFFF734
:1047C000CDFC53EC192BFFF763FD6FF05102414B09
:1047D000FFF7C4FC53EC192BFFF75AFD00223E4BA8
:1047E00037E053EC182B51EC190BFFF751FD06463F
:1047F0000F4653EC192B39483949FFF749FD394A1F
:10480000394BFFF7ABFC53EC192BFFF741FD374A4F
:10481000374BFFF7A3FC53EC192BFFF739FD354A53
:10482000354BFFF79BFC53EC192BFFF731FD334A57
:10483000334BFFF793FC53EC192BFFF729FD314A5B
:10484000314BFFF78BFC32463B46FFF721FD53EC23
:10485000182BFFF783FC41EC180BA80705D551EC8A
:10486000180B81F0004141EC180B02B051EC180B11
:10487000BDEC048BF4BD000083C8C96D305FE43F1C
:104880000000A0FFFFFFDF410000E03F0000E0BFAD
:104890000000303EFB21B941B410114026A6513E24
:1048A0005C14D33C9A833B3BFFFF3FBE09260A10B2
:1048B00039BA213E3BA861C6F97D92BE63AC309007
:1048C0009F01FA3EF6FB51166CC156BFB102555519
:1048D0005555A53FFFFFDFBF0000F03FB08F2FC34E
:1048E00010D8E53D8F0C73A1E1E55ABE4DADE44F04
:1048F000E31DC73E3EE3B519A0012ABFFAF010112F
:104900001111813F425555555555C5BF0000000056
:104910000000F03FF0B44FF0004591EA030F44BFB0
:104920006B40FFF725BC00BF841A71EB030604D26D
:104930006E40001BB141121973414FF4001C1CEB77
:10494000410F34BF7CEB430684E00C0DA4EB1356FF
:10495000362E7DDC012E43DC45EAC32343EA525365
:1049600012BFD20292025B08240545EAC12141EA46
:104970005051D2EBC020994125D407D1B0FA80F62E
:1049800010FA06F164D00020203608E0B1FA81F672
:10499000B140C6F1200220FA02F21143B0404FEAC2
:1049A000F474B4EB465434F001064FEA74040AD8A8
:1049B000D6F50016760D04F00044F04061FA06F2D8
:1049C0005040F1404840C00A40EA415021F00041C7
:1049D00028BF5FEA500550F1000044EBD12137E0D9
:1049E00045EAC323DB0A45EAC121C90AB6F120051D
:1049F0000EDD42EA0242120CC5F1200603FA06F669
:104A0000EB4042EA06056D42984161F100010DE07C
:104A100062FA06F5F240554063FA06FC82EA0C029F
:104A2000F3405A406D42904161EB030111F4801F45
:104A300005D1641E620502D06D004041494121F458
:104A40008011430875F1004350F1000041EB04511F
:104A5000F0BC70471CEB410F15D223F0004352EA23
:104A600043060BD04FEA4C0CBCEB410F04D80C0DA5
:104A7000661E342EB7DDEBE7801A994150EA4106F5
:104A800008BF0021E4E708BF1CEB430F28BF6FF00D
:104A90000001DDE740F2FF7C0B0D4DD0634566D28F
:104AA00030B421EA035141F4801103F2FD3C5FEA86
:104AB0005C0C01D300184941890041EA90718000E3
:104AC0004FF440140023E202D50AB1F5100107D4D7
:104AD0006D081DD2091B641900184941491BF7D5FF
:104AE0006D080AD20919641B00184941491BEFD50A
:104AF0006D08F7D301E0520817D0C01861419B1A26
:104B0000AC4100184941801AA941F4D452080AD096
:104B1000C01AA1419B186C4100184941801AA94153
:104B2000E9D45208F4D15B1C6C4161084FEA3300B0
:104B300001EB0C5130BC704750EA0103FBD030B49C
:104B4000B1FA81F311B9B0FA80F41B190B3BB3F140
:104B500020042FBF00FA04F19940C3F1200420FA89
:104B600004F438BF21439840D3F101039DE7634526
:104B7000E1D011F5801FDED850EA4101DBD0D943E6
:104B800000F0EAB84FF4001C1CEB410F94BF1CEB83
:104B9000430F09E041EA030C50EA4C0C52EA0C0CBA
:104BA00003D2994208BF9042704714BF8B428242A1
:104BB000704700004FF4001C1CEB410F94BF1CEB2E
:104BC000430F09E041EA030C50EA4C0C52EA0C0C8A
:104BD00003D28B4208BF8242704714BF9942904271
:104BE000704700000148FEF73FBA000000050020B2
:104BF000D0B52DED048B044682B094ED008B474870
:104C0000474953EC182BFFF743FBCDE90001002285
:104C10000023FFF7CFFFDDE9002399BF00204149C2
:104C200000204149FFF79AFACDE9000100216846CA
:104C300000F098F8DDE900230020002100F0D0F812
:104C40004ED03A49FFF724FB41EC190B53EC192BDA
:104C50004FF0A0403649FFF71BFB02460B4651ECD4
:104C6000180BFFF757FE06460F4653EC192B4FF073
:104C7000C0403049FFF70CFB02460B463046394630
:104C8000FFF748FE06460F4653EC192B4FF0005035
:104C90002949FFF7FDFA02460B4630463946FFF731
:104CA00039FE06460F4653EC192B00202349FFF727
:104CB000EFFA02460B4630463946FFF72BFE064612
:104CC0000F4653EC192B4FF000501D49FFF7E0FA47
:104CD00002460B4630463946FFF71CFE41EC180BE6
:104CE00084ED008BDDE90001164A174BFFF74AFF00
:104CF00004D3164A164BFFF75DFF05D80022154B6B
:104D000000F07EF8CDE90001DDE90001FFF79AFA35
:104D100002B000F00300BDEC048BD0BD83C8C96DA8
:104D2000305FE43F0000E03F0000E0BF0000303EA5
:104D3000FB21B941B410114026A6513E5C14D33C6E
:104D40009A833B3B0000C0FFFFFFDFC10100C0FFB3
:104D5000FFFFDF410000E0411FB5FFF743FF2121C6
:104D600001601FBD4268C2F30A5240F2FF739A42CB
:104D700007D14168090303BF006800280120022011
:104D8000704743685B0004BF0368002B25D040F2E6
:104D900033439A1A521A012A1FDB352A06DB41686F
:104DA00001F0004141600021016013E0012102F0A7
:104DB0001F039940491E920607D5426811404A4098
:104DC000426002681143002202E0026811404A403A
:104DD000026011B14FF0FF307047002070470000B3
:104DE00090420CD141EA030C50EA4C0C07D0994296
:104DF00005D14FF4001C1CEB410F38BF89427047AE
:104E000070B540F2FF7601F0004C5B0006EA1154E9
:104E10005D0D1ABFB442B54278E0B3EB410F08BF55
:104E200082424BD2C3F3530343F48013C1F3130103
:104E300041F48011641B0B3C13D9C90241EA505163
:104E4000B1FBF3FE03FB1E11A2FB0EE6DEEBC0205E
:104E5000B14101D28018594150EA010653D00B3CB0
:104E6000EBD80B34C4F12006A14020FA06F6A0408E
:104E70003143B1FBF3FE03FB1E11A2FB0EE6B0EBC8
:104E80000E00B14101D28018594102BF0146203DB8
:104E90000020C1B3B1FA81F39940C3F1200220FA96
:104EA00002F211439840ED1A0A3509DBC00A40EAC4
:104EB00041504CEAD12101EB055170BD23D070BDAA
:104EC000D5F10B05B5F120020DDAC5F12002030082
:104ED000E84001FA02F6E940934073F10043704163
:104EE00051EB0C0170BD402D0DDC430821FA02F09E
:104EF000C2F1200511FA05F6334373F10043704106
:104F00005CF1000170BD6146002070BD53EA020EE5
:104F10001ABFB442B54237E0B3EB410F08BF82423B
:104F2000CCD25B08B3FA83F504BFB2FA82F6AD19AE
:104F30000B3DB5F1200624BF02FA06F305E0AB40B5
:104F4000C5F1200622FA06F63343AA40D5F1010541
:104F500024427FF46BAF31F00041B1FA81F404BF19
:104F6000B0FA80F6A4190B3CB4F1200624BF00FA75
:104F700006F105E0A140C4F1200620FA06F631430F
:104F8000A040D4F1010455E74FF4001515EB410F93
:104F90002CBF6FF00041EB4218BF6FF00041BDE83D
:104FA0007040FFF4D9AE70472DE9F041044682B05D
:104FB00041F28938DFF8E8542078C0075CD5A8684A
:104FC00000F00C00042805D000F074F90AD16868DC
:104FD000400207D5286880034ED5606800284BD171
:104FE00001205BE100F061F9286820F4802028604E
:104FF00000F05BF900F094FA07462868800305D5B5
:1050000000F08EFAC01B4045F7D344E100F04DF9A3
:105010006068B0F5803F03D1286820F4802005E067
:10502000B0F5A02F286806D140F4802028602868B9
:1050300040F4803005E020F480202860286820F4C7
:1050400080302860606858B100F06AFA0746286826
:10505000800311D400F064FAC01B4045F7D31AE175
:1050600000F05EFA07462868800305D500F058FA7C
:10507000C01B4045F7D30EE12078800716D5A868FD
:1050800010F00C0F05D000F015F925D1686840022A
:1050900022D42868800702D5E0680128A0D12868BA
:1050A000216920F0F80040EAC1002860207800075C
:1050B00043D560690028686F30D040F00100686710
:1050C00000F02EFA0746686F800736D400F028FA01
:1050D000C01B6528F7D3DEE0E068002828680ED002
:1050E00040F00100286000F01BFA0746286880079E
:1050F000D5D400F015FAC01B6528F7D3CBE04008E3
:105100004000286000F00CFA074628688007CDD5DB
:1051100000F006FAC01B6528F7D3BCE04008400049
:10512000686700F0FDF90746686F800705D500F055
:10513000F7F9C01B6528F7D3ADE02078400762D5AA
:10514000286CDFF8606340F080502864286C00F021
:10515000805000900098306840F48070306000F01B
:10516000DFF907463068C00505D400F0D9F9C01B47
:105170006528F7D38FE000F093F8286F20F0040043
:10518000286700F08DF800F0CBF90746286F8007FC
:1051900005D500F0C5F9C01B4045F7D37BE000F012
:1051A0007FF8A068012803D1286F20F0040004E0F4
:1051B0000528286F06D140F004002867286F40F0CA
:1051C000010005E020F004002867286F4008400037
:1051D0002867A06858B100F0A3F90746286F800738
:1051E00011D400F09DF9C01B4045F7D353E000F007
:1051F00097F90746286F800705D500F091F9C01B85
:105200004045F7D347E0A069002846D0A96801F0DF
:105210000C0108293FF4E4AE0228286820F08070D1
:1052200028602DD100F07CF907462868800105D55B
:1052300000F076F9C01B6528F7D32CE0206A616A7C
:1052400040EA8110A16A891EC903090C40EA0140A5
:10525000E1690843E16A40EA016040F0005068609B
:10526000286840F08070286000F05AF907462868E6
:10527000800112D400F054F9C01B6528F7D30AE06E
:1052800000F04EF907462868800106D500F048F97D
:10529000C01B6528F7D3032000E00020BDE8F6819D
:1052A000286F4008400028677047286820F4803045
:1052B00028607047A86800F00C00082870472DE9A6
:1052C000F843DFF8E4510446894641F289382868FA
:1052D000DFF8CC6100F00F0048453AD200F097F8B3
:1052E00073D100F09EF872D56068012802D1316850
:1052F000890303E00228316802D1890102D464E005
:10530000890762D500F07CF80746606801280AD159
:10531000B06800F00C00042859D000F001F9C01B5F
:105320004045F5D34CE0022809D1B068FFF7C3FF30
:105330004DD000F0F5F8C01B4045F6D340E0B06812
:1053400010F00C0F43D000F0EBF8C01B4045F6D333
:1053500036E000F066F835D56068012802D1316882
:10536000890303E00228316802D1890102D42CE0CC
:1053700089072AD500F044F80746606801280AD159
:10538000B06800F00C0004281CD000F0C9F8C01B65
:105390004045F5D314E0022809D1B068FFF78BFF30
:1053A00010D000F0BDF8C01B4045F6D308E0B0684F
:1053B00010F00C0F06D000F0B3F8C01B4045F6D338
:1053C00003201BE000F023F801D0012016E0207834
:1053D000400705D5B068E16820F4E0500843B060AC
:1053E0002078000706D5B068216920F4604040EAC3
:1053F000C100B0600F2000F07CF80020BDE8F2830F
:10540000B168890840EA8100B06000F089B8286876
:10541000000949EA00102860286800F00F0048459C
:1054200070472078800705D5B068A16820F0F000AB
:105430000843B0602078C00770471D48416801F0FC
:105440000C01042902D0082902D017E0194870473E
:1054500001680268520201F03F014CBF154A164A2A
:10546000B2FBF1F102680068C2F38812C0F3014098
:105470005143401C4000B1FBF0F070470E487047AC
:1054800080B5FFF7DAFF094B0FF234020B491B68B6
:10549000C3F303139A5CD0400860086802BD0000A3
:1054A0000038024000700040003C024008380240D2
:1054B0000438024040787D010024F400F404002008
:1054C00000000000010203040102030406070809AA
:1054D000154880B5016841F400710160032000F0B7
:1054E00034F80F2000F005F800F002F8002002BDAB
:1054F000704710B50446FFF7C3FF4FF47A71B0FB55
:10550000F1F000F05BF8002221464FF0FF3000F090
:1055100029F8002010BD05480168491C016070474A
:105520000248006870470000003C02409C9D00203B
:105530000901002806D5304A00F00F00801800F855
:10554000041C70472D4A815470472D494FF6FF03C4
:1055500000F007000A681A4042EA0020294A104376
:105560000860704738B5264B1B68C3F30223C3F1AC
:105570000704052C28BF04241D1D072D34BF00235C
:10558000DB1E012505FA04F4641E2140994005FA4A
:1055900003F35B1E1A401143BDE83440C8E7012104
:1055A00000F01F029140184A04E0012100F01F02A0
:1055B0009140164A400942F820107047401EB0F151
:1055C000807F10B501D3012010BD114C0F21606008
:1055D0004FF0FF30FFF7ACFF0020A06007202060F5
:1055E000002010BD0A49042808680CBF40F00400E0
:1055F00020F004000860704718ED00E000E400E0CF
:105600000CED00E00000FA0500E100E080E100E0C0
:1056100010E000E02DE9F047044682B00027B846CC
:105620002078DFF84464C0070AD5B06820F4000091
:10563000B060B068616B0843B060606B00B901276F
:105640002068DFF8285400030ED5A868E16B20F429
:1056500040100843A860E06BB0F5801F08BF012729
:1056600002D008B94FF001082068C0020ED5A86822
:10567000216C20F440000843A860206CB0F5800F36
:1056800008BF012702D008B94FF001082068C10106
:1056900048BF012780065BD5306F216B00F4407056
:1056A00001F44071884253D0306CDFF8C49340F06D
:1056B00080503064306C00F0805000900098D9F831
:1056C000000040F48070C9F80000FFF729FF82460F
:1056D000D9F80000C00506D4FFF722FFA0EB0A00AE
:1056E0006528F5D3A7E1306F316F41F48031316720
:1056F000316F20F4407021F48031316730678007CA
:105700000ED5FFF70DFF8246306F800708D4FFF7F4
:1057100007FFA0EB0A0041F289318842F4D38AE105
:10572000206B00F44071B1F5407F07D1B168DFF81C
:105730004423104021F4F811084302E0B06820F43B
:10574000F810B060306F216B090550EA11503067D6
:105750002078C00607D5A86820F08070A860A868E7
:10576000A16B0843A8602068400405D5E868616E15
:1057700020F440300843E8602068000405D5E8685C
:10578000A16E20F440200843E8602068C00305D5DE
:10579000E868E16E20F440100843E8602068800368
:1057A00005D5E868216F20F440000843E8602078C0
:1057B000400605D5E868616C800841EA8000E86031
:1057C0002078000605D5E868A16C20F00C0008439D
:1057D000E8602068C00505D5E868E16C20F030007D
:1057E0000843E8602068800505D5E868216D20F051
:1057F000C0000843E8602068400505D5E868616D91
:1058000020F440700843E8602068000505D5E8688A
:10581000A16D20F440600843E8602068C00405D50D
:10582000E868E16D20F440500843E8602068800497
:1058300005D5E868216E20F440400843E860206800
:10584000400205D5E868A16F20F080600843E86059
:10585000206880020BD5E868E16F20F00060084303
:10586000E860E06FB0F1006F08BF4FF001082068FA
:10587000010748BF4FF00108400305D5E868616F94
:1058800020F040700843E8602068000206D5E86810
:10589000D4F8801020F080500843E8601FB92068D9
:1058A000B0F1007F67D1306820F0806000F0D9F857
:1058B00007463068000105D5FFF732FEC01B65289A
:1058C000F7D3B8E02078C0070FD5606B68B92868B7
:1058D0002968626800F4403001F0706140EA82108B
:1058E0000843A16840EA017028602068010303D5DD
:1058F000E16BB1F5801F05D0C00214D5206CB0F566
:10590000800F10D128682968626800F099F8E26871
:1059100040EA026008432860A868616A4009491E9D
:1059200041EA4010A8602068C00106D528682968AF
:105930002369626800F08BF82860206880010BD52D
:1059400021696068090441EA8010E16840EA016069
:10595000A16840EA01702860306840F0806000F083
:1059600080F807463068000105D4FFF7D9FDC01B59
:105970006528F7D35FE0B8F1000F5ED0306820F003
:10598000805000F06EF807463068800005D5FFF7BC
:10599000C7FDC01B6528F7D34DE02068010301D582
:1059A000E16B19B1C00213D5206C88B968686968C9
:1059B000626900F045F8A26940EA02600843686045
:1059C000A868A16A20F4F850491E40EA0120A860A6
:1059D000206880020AD5E06FB0F1006F06D16868D8
:1059E0006968236A626900F032F86860207800070D
:1059F00013D568686968626901F4403100F070602D
:105A000041EA82110843E16940EA01706860A868D0
:105A1000E16A20F440300843A860306840F08050CC
:105A200000F01FF804463068800006D4FFF778FDC8
:105A3000001B6528F7D3032000E00020BDE8F687AF
:105A400000F4403001F0E04140EA8210704700F07D
:105A5000706001F0E0411B0443EA821210430843E6
:105A600070473060FFF75CBD003802408438024068
:105A700000700040FFFCFF0F2DE9F04182B00024D0
:105A800000F087F8DFF8C403DFF8C41304600A6885
:105A900042F400320A6000F07CF80C67BFF34F8FCD
:105AA000CA6EC2F34E33C2F3C90543F6E07606EA86
:105AB000431646EA857606612E46751E002EF4D101
:105AC0001D466B1E002DEED1BFF34F8F086840F4CA
:105AD0008030086000F05DF8FFF7FAFC00F067F82E
