:020000040800F2
:1000000000000520D9020008F1290108F52901089E
:100010003D2A0108412A0108452A01080000000084
:10002000000000000000000000000000492A010854
:100030004D2A010800000000512A0108552A010834
:1000400029C4000829C4000829C4000829C40008DC
:1000500029C4000829C4000829C4000829C40008CC
:1000600029C4000829C4000869FD0008FDF600083D
:1000700029C4000829C4000829C4000829C40008AC
:1000800029C4000829C4000829C4000829C400089C
:1000900029C4000829C4000829C40008B1FD0008CB
:1000A00029C4000829C4000829C4000829C400087C
:1000B00029C4000829C4000829C40008C52A010869
:1000C00029C40008D12A010829C400082D470108C5
:1000D000FD48010829C4000829C40008B92A0108FC
:1000E000ADFD000829C4000829C4000829C400087F
:1000F00029C4000829C4000829C4000881F50008A3
:1001000029C4000829C4000829C4000801F7000810
:1001100029C4000829C4000829C4000829C400080B
:1001200029C4000829C4000829C4000829C40008FB
:10013000E92A010829C4000829C4000829C40008C4
:1001400029C4000829C4000829C40008DD2A0108C0
:100150006558010871580108ED2A0108B52A0108FF
:1001600029C4000829C4000829C4000829C40008BB
:1001700029C4000829C4000829C4000800000000A0
:1001800029C4000829C4000829C4000829C400089B
:10019000D14A0108254D0108BD4D010829C40008B8
:1001A00029C4000829C4000829C4000829C400087B
:1001B00029C4000829C4000829C4000829C400086B
:1001C00029C4000829C4000800B583B0304D0CF0E4
:1001D00017F93048304B314A314C98422A6022603E
:1001E00007D2C2432F49134423F00302043219F00B
:1001F000FDFE2A682C4B9A4200D0FEE722682B4B6A
:100200009A42FAD12A482B4B244A2B4D98422B4C28
:100210002A60226007D2C2430021134423F0030264
:10022000043219F07DFF2B6803B1FEE72368002B31
:10023000FBD10CF0F7F801A96846214C0CF028F826
:10024000204B1A1B032A05DD1D4654F8043B984732
:10025000AC42FAD11C4B1D4C1A1B032A05DD1D466E
:1002600054F8043B9847AC42FAD19DE803000FF0E4
:1002700047FF174C174B0646E21A032A05DD1D46B9
:1002800054F8043D9847A542FAD130460BF0DAFF06
:100290000000002000000020A80C0020BABADECA2E
:1002A000A40C002084ED020878563412325476985B
:1002B000C00C0020B0F70320C00C0020ACF70320D6
:1002C0007403000874030008740300087403000832
:1002D000740300087403000808B5FFF775FF00BF3A
:1002E00000BEFEE71EF0040F0CBFEFF30880EFF333
:1002F00009807146124A104700BEFEE700BEFEE7C5
:100300001EF0040F0CBFEFF30880EFF30980714675
:100310000C4A104700BEFEE71EF0040F0CBFEFF3BF
:100320000880EFF309807146074A104700BEFEE7D8
:1003300000BEFEE700BEFEE700BEFEE7704700001D
:0C034000F9020008150300082D03000856
:10034C0084ED020800000020A80C002084ED0208B7
:10035C000000001000000010C00C0020B0F70320BB
:08036C00000000100000001069
:10037800704700BF704700BF10B5094B4FF0FF3200
:1003880000241A621C625A625C621A611C615A611A
:100398005C619A619C61FFF7EDFF204610BD00BFCC
:1003A8000038024010B5044605F0AAFC064BA3FB32
:1003B8000030800900F024F9214600224FF0FF3078
:1003C80000F0B8F8002010BDD34D6210074A032092
:1003D80008B5136843F40073136000F097F80F2012
:1003E800FFF7E0FFFFF7C4FF002008BD003C024014
:1003F800024A136801331360704700BFC40C002021
:10040800014B1868704700BFC40C002010B582B0BB
:100418000190FFF7F5FF0446FFF7F2FF019B001B71
:100428009842F9D302B010BD024A136823F00203C0
:100438001360704710E000E0024A136843F00203BB
:100448001360704710E000E00048704700040001A6
:10045800014B1868000C7047002004E0024B186834
:10046800C0F30B00704700BF002004E0024A536845
:1004780043F0010353607047002004E0024A5368C8
:1004880023F0010353607047002004E0024A5368D8
:1004980043F0020353607047002004E0024A5368A7
:1004A80023F0020353607047002004E0024A5368B7
:1004B80043F0040353607047002004E0024A536885
:1004C80023F0040353607047002004E0024A136AD3
:1004D80043F001031362704700380140024A136A6F
:1004E80023F001031362704700380140024A136881
:1004F80043F480631360704700380140024A136870
:1005080023F44063136070470038014007494FF6F1
:10051800FF020002064B10B4CC6800F4E0602240F1
:100528005DF8044B13430343CB60704700ED00E0D4
:100538000000FA05194BDB68C3F3022330B4C3F19A
:1005480007051C1D042D28BF0425062C19D9033BBB
:1005580001249C40013C22400124002804FA05F4AF
:1005680004F1FF3401EA040101FA03F342EA030249
:100578000ADB12010A4BD2B2034483F8002330BCD1
:10058800704700221346E7E700F00F001201054B01
:10059800D2B203441A7630BC704700BF00ED00E0C9
:1005A80000E100E0FCEC00E000F01F010123034A39
:1005B80040098B4042F82030704700BF00E100E05E
:1005C8004309012200F01F000349203302FA00F01A
:1005D80041F82300704700BF00E100E0BFF34F8FF0
:1005E8000549064BCA6802F4E0621343CB60BFF3C7
:1005F8004F8F00BFFDE700BF00ED00E00400FA05E3
:100608000138B0F1807F0DD2074B0022072130B4AA
:10061800F025064C5860104684F823509A601960FB
:1006280030BC70470120704710E000E000ED00E0AA
:10063800F0B4134E4378B36003781BB9F3603361A9
:10064800F0BC70474368F360C47A027B24060578DF
:10065800817A44EA0274427B877B2C43C37B457AC8
:1006680044EAC141007A41EA824141EA474242EA0A
:10067800034242EA052343EA40033361F0BC704772
:1006880090ED00E0024BD868C0F30220704700BF2D
:1006980000ED00E0002870B41EDB124C205C00095D
:1006A80001F00701C1F107060C1D042E28BF04261E
:1006B800062C0ED9033901248C40013C0440012545
:1006C800C84005FA06F10139084010601C6070BC8A
:1006D800704700242146F2E700F00F00024C205C2E
:1006E8000009DDE700E400E014ED00E04309012221
:1006F80000F01F000349403302FA00F041F82300DC
:10070800704700BF00E100E04309054A00F01F0000
:10071800403352F8233023FA00F000F0010070470C
:1007280000E100E04309012200F01F0003496033A3
:1007380002FA00F041F82300704700BF00E100E032
:100748004309054A00F01F00803352F8233023FA8A
:1007580000F000F00100704700E100E0044A0428BE
:1007680013680CBF43F0040323F0040313607047BD
:1007780010E000E0704700BF08B5FFF7FBFF08BDB9
:10078800F8B50446FFF73CFE002C72D0022223681D
:100798000021054684F835201A6884F8341022F0C0
:1007A80001021A6005E0FFF72BFE401B05283DD823
:1007B80023681A68D107F6D4A2686568E06815430B
:1007C800226961692843A6691F680243E569206AAE
:1007D8001143354A31433A40676A0D43042F40EAD2
:1007E800050042EA000228D01A605A6922F007027E
:1007F80047EA0201DAB22D4D5961103A2C48A5FB9F
:100808000212002101251209805C032A294AE065A9
:1008180002EA03024FF03F0388BF043283400846D0
:10082800A2659360616584F83550F8BD03232022E2
:100838001846626584F83530F8BDE56A216BA06A10
:10084800294340F004070A431A605A6922F0070254
:1008580047EA02017EB9012822D001D30228C9D172
:10086800EA01C7D5012340221846626584F835306D
:10087800F8BD0120F8BDB6F5005F04D00228F1D913
:100888000328B7D1ECE70328B4D801A252F820F026
:100898006D080008690800086D080008A908000824
:1008A800B5F1C07FA6D1DDE73F8010F0ABAAAAAAB8
:1008B80054A4010800FCFFFF00282FD090F8353021
:1008C800DBB2022B2BD003680021DAB2F0B4103A65
:1008D800144F1C682125A7FB0272134E24F0010453
:1008E80012091C60032AB45C104A196002EA030268
:1008F80059609960D96088BF0432196100215D612F
:100908003F23C46503FA04F482659460416580F866
:10091800341080F835100846F0BC7047012318469B
:10092800704700BFABAAAAAA54A4010800FCFFFFA5
:1009380070B490F83440012C0DD0012590F8354062
:10094800AC4280F834500AD00022022380F83420C8
:10095800184670BC7047022370BC1846704704687C
:100968000226002580F83560456586682568402E92
:1009780025F480202060636007D0A160E2602268CF
:10098800002342F001022260E2E7A260E160F6E79C
:10099800F0B490F83440012C0ED0012590F8354081
:1009A800866DAC4280F834500AD00022022380F8C9
:1009B80034201846F0BC70470223F0BC1846704734
:1009C80004680227002580F8357045658768256822
:1009D800402F25F480252560636019D0A160E2606E
:1009E800C16D3F23026C8B40B360236843F016034C
:1009F8002360636943F0800363611AB1236843F09D
:100A0800080323602268002342F001022260D0E735
:100A1800A260E160E4E700BF70B50446866DFFF7A9
:100A2800EFFC94F83530022B06D0802200230120F9
:100A3800626584F8343070BD23680546216C1A68F5
:100A480022F016021A605A6922F080025A6139B3FC
:100A58001A6822F008021A601A6822F001021A6065
:100A680005E0FFF7CDFC401B05280FD823681B685D
:100A780013F00103F5D1E56D3F2201211846AA4084
:100A8800B26084F8343084F8351070BD0323202117
:100A980000226165184684F8342084F8353070BD2A
:100AA800A26C002AD4D1D7E790F835200346022A51
:100AB80003D0802201205A65704702680521002072
:100AC80083F83510136823F001031360704700BFE3
:100AD8002DE9F04F044683B089461746FFF790FC8E
:100AE80023681B68DD0543D48046B9F1000F3BD06D
:100AF8001022E36D9A40A66D35682A423FD1DFF88F
:100B08009891DFF898B11FB3791C48D04FF0080AC4
:100B180018E0E36D0AFA03F009FA03F10BFA03F29D
:100B2800054206D0D4F854E04EF0010EC4F854E063
:100B3800B0600D4204D0606D40F002006065B160A5
:100B4800154253D1FFF75CFCC8EB00008742E0D2A6
:100B58002021002201230320616584F8342084F8D1
:100B6800353003B0BDE8F08F2022E36D9A40C2E72C
:100B78004FF480730120636503B0BDE8F08F606DAA
:100B880018B1626DD20741D40120B9F1000F33D0FA
:100B9800102202FA03F3B36003B0BDE8F08F082116
:100BA80009FA03FA0BFA03F2994005EA0A0C05EA76
:100BB800020E0192009105EA01006146BC465746C3
:100BC8009A467346AE46009D20B1626D42F001021E
:100BD8006265B56021B1626D42F002026265B7607C
:100BE800002BF1D0019A754667465346616D41F076
:100BF80004016165B26086E73022012102FA03F33D
:100C0800B36084F8349084F83510AAE7FFF7F8FB4E
:100C180094F835300546022B0DD08023E16D6365CD
:100C28003023012200258B401046B36084F83450ED
:100C380084F8352095E72368216C1A6822F016029B
:100C48001A605A6922F080025A6101B31A6822F0C8
:100C580008021A601A6822F001021A6005E0FFF71C
:100C6800CFFB401B05280BD823681B68DB07F6D48D
:100C7800E16D3F2301228B40B36084F83520CFE734
:100C880020220323E16D626584F83530C8E7A26C41
:100C9800002ADBD1DEE700BF0100800004008000ED
:100CA800F0B5044683B000200822A76DE36D0190DB
:100CB8009A403D68604915420E6803D0216808686B
:100CC800400776D45D4A9A40154203D021684969A5
:100CD800080668D45A4A9A40154203D02168096820
:100CE80089075AD410229A40154203D0216808680F
:100CF80000073FD420229A40154203D02168086893
:100D0800C00625D4636D0BB3636DDA071AD50523C6
:100D180021684C4A84F83530A2FB06320B6823F070
:100D28000103920A0B6002E00B68DB0704D5019B04
:100D380001339A420193F7D20022012384F8342028
:100D480084F83530E36C0BB12046984703B0F0BD0A
:100D5800BA6094F83520052A3BD00B6813F4802F2D
:100D68000B6854D019035FD5E36B002BCAD020461B
:100D78009847C7E7BA600A6812F4802F0A6822D138
:100D8800D20503D40A6822F008020A60226C002AFD
:100D9800B0D020469047E36DACE7BA60626D42F090
:100DA800040262659EE7BA60626D42F00202626503
:100DB80090E7086820F004000860BA60626D42F0AD
:100DC800010262657EE71103E0D5A26C002AE0D13A
:100DD80090E70A68206C22F016020A604A6922F03D
:100DE80080024A6120B30A6822F008020A603F22A2
:100DF80000250120216D02FA03F3BB6084F834500A
:100E080084F835000029A1D0204688479EE713F4CE
:100E18008073A9D10A68012022F010020A6084F8C0
:100E2800343084F835009FE7636C002B9FD169E765
:100E3800A26C002AD7D1DAE7100000200100800058
:100E480004008000B5814E1B90F83430012B0FD080
:100E5800012310B4044690F83500984284F83430E1
:100E680008D00022184684F834205DF8044B7047F7
:100E780002207047052916D8DFE801F0120F0C0987
:100E8800060322650023ECE7E2640023E9E7A26495
:100E98000023E6E762640023E3E722640023E0E737
:100EA800E2630023DDE70023DBE700BF90F834307E
:100EB8000246012B0BD0012390F83500984282F8A6
:100EC800343006D00021184682F8341070470220CA
:100ED8007047062920D8DFE801F01C191613100DF9
:100EE80004000021D1630B46116451649164D164FC
:100EF8001165E7E700231365E4E70023D364E1E71E
:100F080000239364DEE700235364DBE700231364C4
:100F1800D8E70023D363D5E70123D3E790F835005A
:100F2800704700BF406D70472DE9F04FD1F800C001
:100F380083B00024DFF82082DFF820E203E00134E8
:100F4800102C00F0B5800123A34033EA0C02F6D13F
:100F58004D6825F01006022E40F0AD80E70804F039
:100F680007024FF00F0B0E6900EB87079200D7F8C6
:100F780020A04FEA44090BFA02FB06FA02F22AEA19
:100F88000B0A4FF0030B42EA0A060BFA09F205EACC
:100F98000B0B3E62D24306680BFA09F716403E4334
:100FA8000660C5F30016876806FA04FACE6807EAF1
:100FB800020B06FA09F747EA0B078760466826EA34
:100FC80003064AEA06064660C7688E683A4006FA8B
:100FD80009F63243C260EA00B1D5002624F0030BBB
:100FE800534F04F0030A01964FF00F09D8F8442034
:100FF8005F444FEA8A0A42F4804B09FA0AF2C8F8B9
:1010080044B0D8F8449009F48049CDF80490DDF84C
:101018000490D7F8089029EA0209464A904260D01D
:1010280002F5806290425ED0434A90425FD0434AC4
:10103800904260D0424A904265D0424A904266D07F
:10104800414A904267D0414A904268D0404A904213
:1010580069D0404A904252D00A2606FA0AF249EA72
:101068000202DE430134BA60EF03DEF800204CBF11
:101078001A433240AF03CEF80020DEF804204CBFFC
:101088001A433240EF02CEF80420DEF808204CBFA5
:101098001A433240AD02CEF80820DEF80C2054BFC7
:1010A80006EA02031343102CCEF80C307FF44BAF42
:1010B80003B0BDE8F08F4FEA440903220768013EF8
:1010C80005EA020A02FA09F2012E6FEA02020AFA96
:1010D80009FA07EA02074AEA070707603FF674AF0A
:1010E8005FE73246BBE7012606FA0AF2B7E70226AF
:1010F80006FA0AF2B3E7032202FA0AF2AFE7092274
:1011080002FA0AF2ABE7042202FA0AF2A7E705227A
:1011180002FA0AF2A3E7062202FA0AF29FE7072276
:1011280002FA0AF29BE7082202FA0AF297E700BFDE
:10113800003801400000024000080240000C024054
:10114800001002400014024000180240001C024037
:10115800002002400024024000380240003C0140C8
:101168002DE9F04F00238A46DFF87CB103E0013314
:10117800102B00F08280012707FA03F131EA0A02F6
:10118800F5D14FF0030E03FA07F6026803F00704DF
:101198000EFA06F623FA0EF54FF00F08A400F643F0
:1011A80000EB850508FA04F423F0030C3240C94328
:1011B800026003EA0E02D5F82090920029EA04049E
:1011C8002C6208FA02F4D0F808803D4D06EA0808B7
:1011D8006544C0F80880D0F804C00CEA010CC0F8D7
:1011E80004C0D0F80CC006EA0C06C660AE6806EA71
:1011F800040C344EB04246D006F58066B0423FD06B
:10120800314EB04241D0314EB04242D0304EB04261
:1012180042D0304EB04243D02F4EB04244D02F4E31
:10122800B04245D02E4FB84246D02E4FB84226D0B5
:101238000A2707FA02F2944599D1AA68013322EAEB
:101248000404102BAC60DBF8002002EA0102CBF8A2
:101258000020DBF8042002EA0102CBF80420DBF8C6
:10126800082002EA0102CBF80820DBF80C2001EA8A
:101278000201CBF80C107FF47EAFBDE8F08F092790
:1012880007FA02F2D7E70022D5E7022707FA02F2A7
:10129800D1E70EFA02F2CEE7042707FA02F2CAE70C
:1012A800052707FA02F2C6E7062707FA02F2C2E79D
:1012B800072707FA02F2BEE7082707FA02F2BAE799
:1012C800003801400000024000080240000C0240C3
:1012D800001002400014024000180240001C0240A6
:1012E8000020024000240240003C014003691942EA
:1012F80014BF01200020704702B9090481617047BA
:10130800436959404161704782B04FF4803301937B
:10131800019B0B430193019BC361C161019BC361A5
:10132800C3690193C06980F48030C0F3004002B003
:10133800704700BF704700BF044A5169014200D19D
:10134800704708B55061FFF7F5FF08BD003C014044
:10135800F8B50546FFF754F807462B689B699B06C6
:1013680040D4FFF74DF82A680646936913F0100435
:1013780006D120E0FFF744F8801B19282BD82A68EB
:10138800936913F02004F5D010212023D161D36193
:101398009369D90701D40123D36156680424124BF9
:1013A8000121002033405360AC6385F834000120EC
:1013B80085F83510F8BDFFF723F8C01B1928CCD9DC
:1013C800AB6B012285F83440032043F02003AB6364
:1013D80085F83520F8BD012385F83440012085F8CB
:1013E8003530F8BD0020F8BD00E800FEF8B5044629
:1013F8000D46FFF705F807466E1C226822D193694F
:10140800980722D4FEF7FCFF22689369D906F6D51F
:1014180093699B06FCD520231021D161D361936980
:10142800DF0701D40123D361566804251E4B01212F
:10143800002033405360A56384F83400012084F809
:101448003510F8BD93699B0701D50020F8BDFEF75C
:10145800D7FF226806469369D80607D412E04DB133
:10146800FEF7CEFF801B854204D322689369990654
:10147800F5D5D0E701220023012084F8352084F82F
:101488003430F8BD25B1FEF7BBFFC01B8542B3D28F
:10149800A36B01220021032043F0200384F83410B9
:1014A800A36384F83520F8BD00E800FEF8B50D46C2
:1014B8000446FEF7A5FF002D4ED0064623689B691B
:1014C8005F0766D4FEF79CFF226807469369D80633
:1014D8001BD56E1C2DD193699D06FCD510212023A8
:1014E800D161D3619369D90701D40123D3615668C7
:1014F80004252A4B0121002033405360A56384F85A
:101508003400012084F83510F8BD9369990631D468
:10151800FEF776FF801B8542D0D2A36B0122002103
:10152800032043F0200384F83410A36384F83520A3
:10153800F8BD93699806D1D435B1FEF761FFC01B99
:10154800854201D32268C4E701220023012084F8E0
:10155800352084F83430F8BD23689B695A071AD4BB
:10156800FEF74EFF226807469369DB06B1D49369FC
:101578009B06D2D52020094B00250121D061566851
:10158800084633405360A56384F8345084F8351016
:10159800F8BD0020F8BD2846F8BD00BF00E800FEF1
:1015A8002DE9F84399460368C1F30904264E5968A2
:1015B8009046264A5FFA89FE0E40089F0546324348
:1015C8003946144344EA0E445C60FFF70FFF60B9E4
:1015D800B9F1010F044610D02A684FEA182339469A
:1015E80028469362FFF702FF40B3AB6B042B0CBF96
:1015F800012403242046BDE8F8835FFA88F22B68AB
:101608009A62FEF7FDFE0646781C2A6805D19369A2
:101618001906FCD52046BDE8F88393691B06E9D472
:1016280027B1FEF7EDFE801B8742EDD20122002391
:10163800032485F8352085F83430DBE75FFA88F332
:101648002A689362DDE700BF009800FC00200001D3
:101658002DE9F84399460368C1F30904264D5968F2
:1016680090465FFA89F2089F0D400646394645F4D0
:1016780000552C4344EA02445C60FFF7B7FE60B9AA
:10168800B9F1010F044610D032684FEA18233946E1
:1016980030469362FFF7AAFE40B3B36B042B0CBF2E
:1016A800012403242046BDE8F8835FFA88F23368F2
:1016B8009A62FEF7A5FE0546781C326805D1936943
:1016C8005906FCD52046BDE8F88393695B06E9D442
:1016D80027B1FEF795FE401B8742EDD20122002379
:1016E800032486F8352086F83430DBE75FFA88F380
:1016F80032689362DDE700BF009800FC704700BFC6
:10170800002849D0F8B590F83530044603F0FF02B8
:10171800002B34D023680221626884F835101968D8
:1017280022F07062A06821F0010119601A619A68BC
:1017380022F400429A60E26820B1012A28D040F4DD
:1017480004409860022A1FD027694FF0010E626991
:1017580000255968A6693A43104F284642EA0622EE
:10176800E6690F43216A31435F60DA6019601A68DD
:1017780042EA0E021A60A56384F835E0F8BD80F8E5
:1017880034200EF02FFAC5E74FF400625A60DBE709
:1017980040F400409860D7E70120704700800002BD
:1017A800704700BF98B10268022310B580F8353041
:1017B8000446136823F0010313600EF097F9002321
:1017C800A363184684F8353084F8343010BD0120FE
:1017D800704700BF2DE9F843044690F83500C0B2C1
:1017E800012803D002263046BDE8F8831746002AB0
:1017F80067D01D46002B64D02268936913F4004318
:10180800F0D194F83460012EECD01226FF2D84F824
:101818003400C1F3090884F83560A363536840F2C3
:10182800A8806B494FF0FF0919406A4B0B4348EAFF
:101838000303536008992046FFF7D8FD06460028A1
:101848003AD1013D226817F8011BB9F10109ADB27F
:10185800916201D1002D36D1002DEBD1FEF7D0FDDC
:10186800089B0546002B00F0A58023689A6992061C
:1018780000F18C80FEF7C4FD226807469369DB06F9
:1018880038D5089B013359D193699D06FCD51021A1
:101898002023D161D3619369D90701D40123D3618E
:1018A800566804254C4B0121002033405360A56342
:1018B80084F8340084F83510A36B042B01D0032678
:1018C80091E701268FE7FEF79BFD0646089A2368F5
:1018D800013220D198690006FCD5FF2D3BD95A6802
:1018E8004FF0FF093A4911403C4A0A4348EA0202CC
:1018F8005A609FE7FEF784FD089B401B8342B4D2E1
:10190800A36B0122002143F0200384F83410A36361
:1019180084F83520D0E79A691106DED4089B2BB1EC
:10192800FEF76EFD089B801B8342CFD20122002365
:10193800032684F8352084F8343054E793699806F0
:10194800A5D4089B7BB3FEF75BFD089BC01B8342B5
:1019580029D3226895E7586829041D4AA94601F445
:101968007F01024042F0007242EA08020A435A60CC
:1019780060E717482904A9461840194B01F47F016C
:10198800034343EA08030B43536053E72025124AF5
:1019980001200021DD615D682A405A6084F8350025
:1019A80084F834101FE70122002384F8352084F8D6
:1019B800343081E723689A699206E7D4FEF720FD60
:1019C800226807469369DE063FF55BAF98E700BFDC
:1019D800009800FC0020FF0100E800FE0000FF0165
:1019E800002000022DE9F041044690F83500C0B20D
:1019F800012802D00220BDE8F0811646002A43D013
:101A08001D46002B40D02268936913F40043F1D19E
:101A180094F83470012FEDD02227FF2D84F834007C
:101A280084F83570C1F30907A36353686DD93D493C
:101A38004FF0FF0819403C4B0B433B4353600421D4
:101A48002046FFF733FD002859D12368013DB8F13E
:101A580001085A6AADB206F8012B00D1BDB9002DB4
:101A6800EDD12046FFF774FC002848D123682026D2
:101A78002E4A0121DE615E6832405A6084F8345093
:101A880084F83510BDE8F0810120BDE8F081FEF74B
:101A9800B7FC8046069A236801320ED19869010680
:101AA800FCD5FF2D1ED95A684FF0FF081D4911407B
:101AB8001F4A0A433A435A60C1E79A691206F0D4AA
:101AC800069B33B1FEF79CFC069BC8EB00008342E3
:101AD800E0D201220023032084F8352084F8343032
:101AE800BDE8F081586829040E4AA84601F47F0130
:101AF800024042F000723A430A435A609FE7A36BE0
:101B0800042BC1D00320BDE8F08106482904A8466B
:101B18001840084B01F47F0103433B430B435360D8
:101B28008DE700BF009800FC0024FF0100E800FEDC
:101B38000000FF01002400022DE9F04190F8354033
:101B4800E4B2012C02D00220BDE8F08100294FD078
:101B5800B2FA82FE4FEA5E1EBEF1000F48D190F83D
:101B68003450012DEFD01E4690464223026880F87B
:101B780034400F4680F835300546C0F838E05368E1
:101B880023F400435360FEF73BFC0446701C2B68AB
:101B980031D198690107FCD5EA680821022AD96180
:101BA8004BD0FEF72DFC0446701C2B683AD19A697D
:101BB800D103FCD508F1FF387C1E17FA88F805E038
:101BC80014F8012F2B6844459A624DD031462846B7
:101BD800FFF70CFC07460028F2D02A68536843F444
:101BE80000435360AB6B042B02D00320BDE8F081A7
:101BF8000120BDE8F0819A691207CDD42EB1FEF715
:101C0800FFFB001B8642C1D22B6801220021032062
:101C180085F835205A6885F8341042F400425A6035
:101C2800BDE8F0819A69D203C4D4002EEDD0FEF746
:101C3800E7FB001B8642B7D2E6E7FEF7E1FB044666
:101C4800701C2B6805D19A691107FCD50822DA6146
:101C5800A7E79A691207F9D4002ED6D0FEF7D0FB71
:101C6800001B8642ECD2CFE72846FFF771FB2B68B2
:101C780038B15A6842F400425A60AA6B042AB4D1B7
:101C8800AF63202432464FF400412846DC6101F05E
:101C980093FE2A6830B15368032043F4004353602D
:101CA800BDE8F0815368012143F40043536085F88F
:101CB800340085F83510BDE8F08100BFF0B50D4659
:101CC80090F8351083B0C9B2012902D0022003B0C0
:101CD800F0BD002D61D00446B2FA82F04009002818
:101CE8005BD194F83460012EF0D02668422784F83E
:101CF800341084F83570A063716821F40041716074
:101D08008DE80C00FEF77CFB07469DE80C00591C8B
:101D1800266844D1B1690F07FCD50821F1618DE827
:101D28000C00FEF76DFB07469DE80C00591C266861
:101D38004FD1B169C803FCD4561EB6B201362E4441
:101D480005E02268526A05F8012BB54216D01946FB
:101D580020460093FFF7AAFB009B0028F1D02368D8
:101D68005A6842F400425A609A69520701D55B6A80
:101D78002B70A36B202B10D10320A8E720460093DB
:101D8800FFF7E6FA009B002832D02268536843F434
:101D980000435360A36B042BEED1012097E7B16990
:101DA8000807BAD44BB18DE80C00FEF729FB019B5C
:101DB800C01B009A8342AAD226680123002203206E
:101DC80084F83530736884F8342043F40043736032
:101DD8007DE7B169C903AFD5002BEED08DE80C00C3
:101DE800FEF70EFB019BC01B009A83429ED2E3E7DD
:101DF800206820251A464FF40041C561204601F0AD
:101E0800DBFD226828B15368032043F40043536084
:101E18005DE75368012143F40043536084F83400BC
:101E280084F8351053E700BFF0B490F83540E4B2B9
:101E3800012C02D00220F0BC70477AB373B3066855
:101E4800B56915F40045F5D190F83470012FF1D03B
:101E5800FF2B80F834401C464FF0120728BFFF24A0
:101E6800426280F83570FF2C85630485438517D05E
:101E78007768C1F30901114D2204114B3D4002F46A
:101E88007F022B430B43134373603268002342F0F5
:101E9800F20280F8343018463260CCE70120CAE7F5
:101EA800438D9BB2FF2BE3D97468C1F30901034A40
:101EB800044B22400A4313437360E6E7009800FC92
:101EC800002000020020FF01F0B490F83540E4B291
:101ED800012C02D00220F0BC70477AB373B30668B5
:101EE800B56915F40045F5D190F83470012FF1D09B
:101EF800FF2B80F834401C464FF0220728BFFF24F0
:101F0800426280F83570FF2C85630485438517D0BD
:101F18007768C1F30901114D2204114B3D4002F4C9
:101F28007F022B430B43134373603268002342F054
:101F3800F40280F8343018463260CCE70120CAE752
:101F4800438D9BB2FF2BE3D97468C1F30901034A9F
:101F5800044B22400A4313437360E6E7009800FCF1
:101F6800002400020024FF01034690F835000128F0
:101F780001D002207047F9B170B4B2FA82F4640952
:101F8800E4B993F83400012814D01D68322620469D
:101F980083F835609C636E6826F400466E605A8547
:101FA8002E68596246F0FA011A8583F83440296090
:101FB80070BC70470220FBE7012070470120F7E75B
:101FC800034690F83500012801D002207047F9B186
:101FD80070B4B2FA82F46409E4B993F834000128C1
:101FE80014D01D684226204683F835609C636E68CD
:101FF80026F400466E605A852E68596246F0FC0148
:102008001A8583F83440296070BC70470220FBE7CA
:10201800012070470120F7E72DE9F04190F835409D
:10202800E4B2012C02D00220BDE8F081002A4ED093
:10203800002B4CD0D0F800C0DCF8185015F4004E36
:10204800F1D190F83450012DEDD080461E46FF2B7B
:1020580015464FF0120088F8344028BFFF23D8F8FF
:102068002C4088F835000F46C8F838E02946A8F80B
:102078002A602046274E284DC8F824200CF1280253
:10208800A8F82830E663E564FEF782FCB8F8283043
:10209800FF2B2ED0D8F80040DAB22048C7F3090148
:1020A80065681F4B284003430B4343EA02436360C0
:1020B80019214046FFF79AF9D8F8002050B913685B
:1020C80043F48043136088F83400BDE8F0810120B0
:1020D800BDE8F0815368D8F82C0043F400435360FE
:1020E800FEF79AFCD8F83830042BF0D00320BDE86E
:1020F800F081B8F82A2092B2FF2ACBD9D8F800008C
:10210800C7F30901054A4468064B224013430B43B1
:102118004360CDE7012D0008D92C0008009800FC89
:10212800002000020020FF012DE9F84390F8354017
:10213800E4B2012C02D00220BDE8F883002A4DD079
:10214800002B4BD0D0F800C0DCF8186016F4004E15
:10215800F1D190F83460012EEDD01E46804622233E
:1021680080F83440FF2E046BC8F82420B14680F86C
:10217800353028BF4FF0FF09C0F838E00F46A8F8FF
:102188002A604B46254E0CF12401254D2046A8F81F
:102198002890E663E564FEF7FBFBB8F82830FF2BD0
:1021A8002AD0D8F80040DAB21E48C7F3090165689A
:1021B8001D4B284003430B4343EA02436360042159
:1021C8004046FFF773F960B9D8F80020136843F464
:1021D8000043136088F83400BDE8F8830120BDE8A7
:1021E800F883D8F83000FEF717FCD8F83830042BFD
:1021F800F4D00320BDE8F883B8F82A2092B2FF2A69
:10220800CFD9D8F80000C7F30901064A4468074B3C
:10221800224013430B434360D1E700BF6D2E0008F3
:10222800D92C0008009800FC002400020024FF01BB
:10223800F8B590F83540E4B2012C01D00220F8BD81
:10224800002951D0B2FA82F77F09002F4CD190F8BB
:102258003450012DF2D005464FF0320CD0F82CE066
:10226800134680F8344042F2107685F835C070463F
:10227800AF632A856A852D4C2A682D4F69622832FA
:10228800CEF84C40CEF83C70FEF782FB2A685368C3
:1022980023F400435360FEF7B3F8044604E0FEF766
:1022A800AFF8001BB04221D82B689A691107F6D500
:1022B800EA680821022AD96125D0FEF7A1F8044668
:1022C80004E0FEF79DF8001B19280FD82A689369C7
:1022D800DB4313F48033F4D11168184641F480418C
:1022E800116085F83430F8BD0120F8BD2A68012353
:1022F8000021032085F83530536885F8341043F4FD
:1023080000435360F8BDFEF77BF842F210740646AE
:1023180004E0FEF775F8801BA042E7D82B689A699D
:102328001207F6D50822DA61C7E700BFD92C0008E2
:1023380005300008F8B590F83540E4B2012C01D01A
:102348000220F8BD002951D0B2FA82F77F09002F88
:102358004CD190F83430012BF2D005461646DFF800
:10236800C8C00A46D5F830E0422085F834403346E4
:1023780069622C4C296885F835007046AF632431B2
:102388002E8542F210776E85CEF84C40CEF83CC0D0
:10239800FEF7FEFA2A68536823F400435360FEF7F9
:1023A8002FF8044604E0FEF72BF8001BB8421FD8AC
:1023B8002B689A691207F6D50822DA61FEF720F829
:1023C800064604E0FEF71CF8801B19281DD82A6869
:1023D8009369DB4313F48034F4D01368002143F489
:1023E80000430846136085F83410F8BD0120F8BD95
:1023F8002A6801230021032085F83530536885F8C1
:10240800341043F400435360F8BD2A68012385F86B
:102418003440032085F83530536843F40043536053
:10242800F8BD00BFD92C0008853000082DE9F0431D
:1024380090F8354083B0E4B2BDF82C60012C03D08D
:10244800022003B0BDE8F0830A9F17B30EB30768F4
:102458000546BF6917F40048F2D190F83470012F8F
:10246800EED04FF0520E0C9F80F83440894600970A
:1024780080F835E0C0F83880FFF792F858B1AB6BB8
:1024880085F83480042B04D00320DAE7AB6B042BE7
:10249800FAD10120D5E7FF2E2968C9F3090461D9CB
:1024A8004868FF27364A374B0240134323434B60A3
:1024B8000C992846FEF79AFF0028E7D10A99013EB1
:1024C8002B68013F11F8012BB6B20A919A6200D12C
:1024D8009EB9002EECD12846FEF73AFF0028D5D148
:1024E8002B682024284A0121DC615C6822405A605C
:1024F80085F8346085F83510A3E7FDF781FF0C9B5C
:10250800074601332A680DD193691906FCD5FF2EB9
:102518001BD95068FF271A491A4B01400B43234324
:102528005360C5E793691B06F1D40C9B2BB1FDF7EB
:1025380067FF0C9BC01B8342E3D2012200230320C8
:1025480085F8352085F834307BE7506831040C4B2A
:10255800374601F47F01034043F0007323430B43E4
:102568005360A5E748683204054B374602F47F02FA
:10257800034043F00073234313434B6098E700BFC5
:10258800009800FC0000FF0100E800FE2DE9F04380
:1025980090F8354083B0E4B2BDF82C60012C03D02C
:1025A800022003B0BDE8F0830A9F002F4BD0002E15
:1025B80049D007680546BF6917F40048F0D190F87C
:1025C8003470012FECD04FF0620E0C9F80F834402D
:1025D8008946009780F835E0C0F83880FFF738F86A
:1025E80030B1AB6B85F83480042B2CD00320D8E7AE
:1025F800FF2E6DD92968C9F30904454AFF274868A1
:10260800444B0240134323434B60FDF7F9FE0C9BF8
:10261800804601332A682DD193695B07FCD5536A3C
:10262800013E0A9A013FB6B202F8013B0A9200D174
:102638005EB9002EE9D12846FEF78AFE002859D057
:10264800AB6B042BD2D10120ABE7FDF7D9FE0C9B75
:10265800074601332A6821D193691906FCD5FF2E54
:1026680029D95068FF272A492B4B01400B432343A4
:102678005360CAE793695807D1D40C9B33B1FDF76F
:10268800BFFE0C9BC8EB00008342C2D2012200238C
:10269800032085F8352085F8343082E793691B06D6
:1026A800DDD40C9B002BF1D0FDF7AAFE0C9BC01BC0
:1026B8008342CED2EAE750683104154B374601F41D
:1026C8007F01034043F0007323430B4353609CE7AF
:1026D800286833040E49C9F30904D0F804E003F468
:1026E8007F020E4B37460EEA01010B432343134387
:1026F80043608AE72B682024094A0121DC615C6871
:1027080022405A6085F8346085F8351049E700BFE3
:10271800009800FC0024FF010000FF0100240002D3
:1027280000E800FE2DE9F04790F8354082B0E4B2A9
:10273800BDF82C60012C03D0022002B0BDE8F08760
:102748000A9F67B35EB307680546BF6917F4004878
:10275800F2D190F83470012FEED0FF2EB4464FF02E
:1027680052094FF0190E28BF4FF0FF0C0A9F80F84E
:1027780035908A46C0F8388080F834404762A0F81F
:1027880028C0CDF800E04685FEF70AFF48B1AB6BDC
:1027980085F83480042B0CBF20460320CDE70120A8
:1027A800CBE72B8DFF2B14D02A68D9B2104BCAF374
:1027B80009075468234043F0007343EA01433B434D
:1027C80053601368002143F0F20385F83410136056
:1027D800B3E76A8D92B2FF2AE6D92A68CAF30907D5
:1027E80003495468034B21400B433B435360E8E7DC
:1027F800009800FC0000FF012DE9F04790F83540F3
:1028080082B0E4B2BDF82C60012C03D0022002B0E3
:10281800BDE8F0870A9F57B34EB307680546BF69FE
:1028280017F40048F2D190F83470012FEED0FF2E43
:10283800B4464FF062094FF0190E28BF4FF0FF0C55
:102848000A9F80F835908A4680F834404762A0F89D
:1028580028C04685CDF800E0FEF7FAFE48B1AB6B1C
:1028680085F83480042B0CBF20460320CFE70120D5
:10287800CDE72B8DFF2B14D02A68D9B2104CCAF3A0
:10288800090756680F4B3440234343EA01433B434F
:1028980053601368002143F0F40385F83410136083
:1028A800B5E76A8D92B2FF2AE6D92A68CAF3090702
:1028B80003495468044B21400B433B435360E8E70A
:1028C800009800FC002400020024FF012DE9F047D5
:1028D80090F8354082B0E4B2BDF82C50012C03D0FA
:1028E800022002B0BDE8F0870A9E002E5FD0002DBE
:1028F8005DD0D0F800E0DEF8186016F40048EFD19B
:1029080090F83460012EEBD08246FF2D1F464FF021
:102918005203D0F82CC0914680F834400EF12802BA
:102928008AF835300E46CAF838802946AAF82A505F
:1029380028BFFF210A98DFF8BCE00B462A4DCAF8E9
:1029480024006046AAF828100A99CCF83CE0CCF894
:102958004C50FEF71DF819213B464A460091504657
:102968003146FEF71DFE38B1DAF838308AF834807F
:10297800042B1CD00320B4E7BAF82830FF2B21D051
:10298800DAF80000DAB2194BC6F3090144682340AB
:1029980043F0007343EA02430B4343601921504656
:1029A800FEF724FD28B1DAF83830042BE2D10120F3
:1029B80097E7DAF80020136843F4804313608AF835
:1029C80034008EE7BAF82A2092B2FF2AD8D9DAF86A
:1029D8000000C6F30901054A4468054B2240134329
:1029E8000B434360DAE700BFD92C0008009800FCCD
:1029F8000000FF01093100082DE9F04790F8354043
:102A080082B0E4B2BDF82C60012C04D00226304616
:102A180002B0BDE8F0870A9D002D40D0002E3ED0C0
:102A2800D0F800E0DEF8185015F40049EED190F81F
:102A38003450012DEAD00546FF2E9A464FF0620326
:102A4800D0F830C0904680F83440324685F83530AA
:102A580028BFFF226E850F460A980EF124012F4EDB
:102A68001346DFF8C8E0686260462A85CCF84C60F7
:102A78000A9ACCF83CE0FDF78BFF192153464246F1
:102A8800009128463946FEF7E3FD064648B1AB6B90
:102A980085F83490042B0CBF26460326B7E7012699
:102AA800B5E72B8DFF2B2AD02868DAB21C49C7F36B
:102AB800090744681B4B21400B4343EA02431F4369
:102AC8004760FDF79DFC044604E0FDF799FC001BF8
:102AD80019280CD82A689369DB4313F00403F4D14E
:102AE800116841F40041116085F834308FE7012204
:102AF8000023032685F8352085F8343087E76A8D6A
:102B080092B2FF2AD0D92968C7F30907044A48684E
:102B1800054B024013433B434B60D2E7D92C0008D6
:102B2800009800FC002400020024FF017532000810
:102B38002DE9F047002482B0019490F835E05FFA5F
:102B48008EFEBEF1010F03D0022002B0BDE8F0876F
:102B58000468A56915F4004CF6D190F83450012D9D
:102B6800F2D0C1F30907DFF848811D461646022353
:102B780047EA0808814647F4205780F8353080F83E
:102B880034E0C0F838C0D9F80C30012B14BF3B46EC
:102B980043466360FDF734FC04466A1CD9F800100C
:102BA80007D036E08B69DC0606D499F83530032B5C
:102BB80002D08C69A306F5D58B69DB0658D5FDF7DD
:102BC8001FFC82466A1CD9F8004016D1A1698B0601
:102BD800FCD510222023E261E361019B5A1CB34219
:102BE800019228D0019B9E42CDD8012200230320C8
:102BF80089F8352089F83430A7E7A3699806E8D41E
:102C0800002DF2D0FDF7FCFBCAEB00008542D9D2BB
:102C1800EBE78B699806CFD48B69DA06CCD499F8A0
:102C28003530032BC8D0002DDFD0FDF7E9FB001BA2
:102C38008542B2D2D9E7636843F480436360FDF705
:102C4800DFFB8246691CD9F8004005D1A3699A06C2
:102C5800FCD52023E361C5E7A3699B06F9D4002DC1
:102C6800C3D0FDF7CDFBCAEB00008542EAD2BCE732
:102C7800FDF7C6FB04466E1CD9F800200CD19369F9
:102C88009806FCD5202000230121D061184689F838
:102C9800351089F8343058E793699906F2D4002D35
:102CA800A3D0FDF7ADFB001B8542E4D29DE700BF32
:102CB80000200002704700BF704700BF704700BF88
:102CC800704700BF704700BF704700BF704700BF24
:102CD80038B5836B00250124196818464A6842F400
:102CE80000424A605D8583F835409A6B42F01002D5
:102CF8009A63FFF7EBFF38BD70B5846B258DFF2D08
:102D080024D02046FEF724FBB0B923682021524A7C
:102D18000020D96101215D682A405A601A6822F4AE
:102D280080421A606085204684F83510A36B002B1A
:102D380055D1FFF7BFFF70BDA36B042BA36B0CBF6E
:102D480043F0040343F02003A363DEE7638D9BB2E3
:102D5800FF2BD6D9FDF754FB064604E0FDF750FBE0
:102D6800801B19285BD8226893691B06F6D513685F
:102D780023F480431360A36B002B33D1238D608D24
:102D8800616AC01A194483B261626385638D9BB21C
:102D9800FF2B50D8658DADB22B4656682832258555
:102DA800E06AB5B2FDF7F4FD238DFF2B45D021680D
:102DB800C5F30905294ADBB24868024042F00072AF
:102DC800154345EA03434B6019212046FEF70EFBE5
:102DD80040B92268136843F48043136070BDFFF75D
:102DE80075FF70BD2046FEF7B3FA40B1A36B042B04
:102DF800A36B0CBF43F0040343F02003A3632368D1
:102E08002021154A0025D96101215E6820463240FB
:102E18005A60658584F83510FFF758FF70BD0123A7
:102E28000021226884F83530A36B84F8341043F00D
:102E38002003A3639BE7FF23AFE7628D92B2FF2ACB
:102E4800B5D92168C5F30905044A4868044B02400E
:102E580013431D434D60B7E700E800FE009800FCEF
:102E68000000FF0170B5846B258DFF2D24D020460E
:102E7800FEF76EFAB0B9236820215D4A0020D961B7
:102E880001215D682A405A601A6822F400421A60DB
:102E98006085204684F83510A36B002B5FD1FFF7BF
:102EA8000BFF70BDA36B042BA36B0CBF43F0040393
:102EB80043F02003A363DEE7638D9BB2FF2BD6D9D3
:102EC800FDF79EFA064604E0FDF79AFA801B1928DA
:102ED80065D821688B691A06F6D50B6823F4004378
:102EE8000B60A36B002B3DD1238D608D626AC01AE5
:102EF8001A4483B262626385638D9BB2FF2B5AD8F2
:102F0800658DADB22B464E6824312585206BB5B250
:102F1800FDF73EFD238DFF2B5AD02168C5F3090527
:102F2800344ADBB24868024042F00072154345EA71
:102F380003434B60FDF764FA054604E0FDF760FAC9
:102F4800401B192839D823689B695B07F6D5A36B02
:102F580043B92268136843F40043136070BDFFF758
:102F6800B5FE70BD2046FEF7F3F940B1A36B042B04
:102F7800A36B0CBF43F0040343F02003A36323684F
:102F880020211B4A0025D96101215E682046324074
:102F98005A60658584F83510FFF798FE70BD0123E7
:102FA8000022216884F83530A36B84F8342043F07C
:102FB8002003A36391E7FF23A5E70123002284F8F8
:102FC8003530A36B84F8342043F02003A363BEE7B5
:102FD800628D92B2FF2AA0D92168C5F30905054A76
:102FE8004868054B024013431D434D60A2E700BFEC
:102FF80000E800FE009800FC0000FF0170B5856B3A
:103008002846FEF7A5F930B1AB6B042B32D0AB6B79
:1030180043F02003AB632B682022DA61FDF7F0F957
:10302800064604E0FDF7ECF9801B192814D82A6835
:103038009369DB4313F40044F4D0136800200121A2
:1030480023F4804313606885284685F83510AB6BF8
:103058006BB9FFF733FE70BD012385F834402A6849
:1030680085F83530AB6B43F02003AB63E5E7FFF73A
:103078002DFE70BD0023AB63CDE700BF70B5856B37
:103088002846FEF765F940B1AB6B042BAB6B0CBF60
:1030980043F0040343F02003AB632B682022DA617A
:1030A800FDF7AEF9064604E0FDF7AAF9801B1928DA
:1030B80018D82A689369DB4313F40044F4D01368E2
:1030C8000020012123F400431360536843F40043B4
:1030D80053606885284685F83510AB6B6BB9FFF7E8
:1030E800EFFD70BD012385F834402A6885F8353036
:1030F800AB6B43F02003AB63E1E7FFF7E7FD70BD7F
:1031080070B5846B258DFF2D24D02046FEF720F95D
:10311800B0B923682021524A0020D96101215D6895
:103128002A405A601A6822F480421A606085204654
:1031380084F83510A36B002B55D1FFF7C3FD70BD84
:10314800A36B042BA36B0CBF43F0040343F02003D1
:10315800A363DEE7638D9BB2FF2BD6D9FDF750F949
:10316800064604E0FDF74CF9801B19285BD8226855
:1031780093691B06F6D5136823F480431360A36B89
:10318800002B33D1238D608D616AC01A194483B234
:1031980061626385638D9BB2FF2B50D8658DADB29C
:1031A8002B46566828322585E06AB5B2FDF7F0FB54
:1031B800238DFF2B45D02168C5F30905294ADBB2C9
:1031C8004868024042F00072154345EA03434B60E9
:1031D80019212046FEF70AF940B92268136843F41A
:1031E8008043136070BDFFF771FD70BD2046FEF788
:1031F800AFF840B1A36B042BA36B0CBF43F00403DF
:1032080043F02003A36323682021154A0025D961D0
:1032180001215E68204632405A60658584F8351081
:10322800FFF754FD70BD01230021226884F8353072
:10323800A36B84F8341043F02003A3639BE7FF23B8
:10324800AFE7628D92B2FF2AB5D92168C5F30905A7
:10325800044A4868044B024013431D434D60B7E7D6
:1032680000E800FE009800FC0000FF0170B5846BC8
:10327800258DFF2D24D02046FEF76AF8B0B92368C3
:1032880020215D4A0020D96101215D682A405A60E9
:103298001A6822F400421A606085204684F83510C6
:1032A800A36B002B5FD1FFF70FFD70BDA36B042B41
:1032B800A36B0CBF43F0040343F02003A363DEE7D2
:1032C800638D9BB2FF2BD6D9FDF79AF8064604E02A
:1032D800FDF796F8801B192865D821688B691A06AE
:1032E800F6D50B6823F400430B60A36B002B3DD18C
:1032F800238D608D626AC01A1A4483B26262638544
:10330800638D9BB2FF2B5AD8658DADB22B464E68A4
:1033180024312585206BB5B2FDF73AFB238DFF2BB1
:103328005AD02168C5F30905344ADBB2486802401F
:1033380042F00072154345EA03434B60FDF760F81D
:10334800054604E0FDF75CF8401B192839D82368C6
:103358009B695B07F6D5A36B43B92268136843F4EE
:103368000043136070BDFFF7B1FC70BD2046FDF748
:10337800EFFF40B1A36B042BA36B0CBF43F0040316
:1033880043F02003A363236820211B4A0025D96149
:1033980001215E68204632405A60658584F8351000
:1033A800FFF794FC70BD01230022216884F83530B2
:1033B800A36B84F8342043F02003A36391E7FF2331
:1033C800A5E70123002284F83530A36B84F8342064
:1033D80043F02003A363BEE7628D92B2FF2AA0D90F
:1033E8002168C5F30905054A4868054B024013439F
:1033F8001D434D60A2E700BF00E800FE009800FCF6
:103408000000FF0103689A6970B59607044602D464
:103418009A6915064AD51A6802F07A027A2A00F0E3
:1034280089809A69920702D49A69160634D51A686F
:1034380002F07202722A00F0B4809A69520702D42C
:103448009A6916061BD51A6802F07C027C2A00F0DD
:103458008D809A69560702D49A69150605D51A68A7
:1034680002F07402742A2ED070BD9A695006F6D400
:103478009A699106F3D49A69D206F5D5EFE79A6965
:103488005506E0D49A699006DDD49A69D106DAD453
:103498009A691207DDD5D6E79A695506C7D49A699D
:1034A8009006C4D49A69D106C7D5C0E79A69500670
:1034B800B1D49A699106AED49A69D206ABD49A6906
:1034C8001607AED5A7E794F83520222A03D094F83A
:1034D8003520622AC8D194F83420012AC4D09A69C8
:1034E8000121560784F8341000F192809A6912F08D
:1034F800800200F0A780228D002A40F0B080628D03
:1035080092B2002A00F0AB805A68618D92B289B2FB
:10351800FF2940F27A815E68C2F30902AC48FF25B0
:10352800AC49304001430A435A602585002384F89A
:10353800343099E794F83520322A7FF472AF94F842
:103548003420012A3FF46DAF99690122CD0684F831
:10355800342040F1C780628D92B2002A40F09781F2
:103568001022DA61002284F834205AE794F83520D2
:10357800422A7FF46EAF94F83420012A3FF469AFF1
:1035880099690122CE0684F8342000F102819969F4
:103598000D0740F1BA800822DA61002284F834204D
:1035A80057E794F83520122A04D094F83520522A87
:1035B8007FF443AF94F83420012A3FF43EAF9A6970
:1035C8000121920784F834102FD49A6912F08002EE
:1035D80050D0228D002A40F08C80628D92B2002A51
:1035E80000F087805A68618D92B289B2FF2940F253
:1035F8005C815E68C2F309027548FF257549304051
:1036080001430A435A602585002284F8342014E7D0
:10361800626A5B6A511861621370638D228D013B87
:10362800013A9BB22285638580E7626A218D501C2E
:103638000139606212789A62628D2185013A92B2EC
:103648006285E1E799694D0621D5618D89B2002926
:1036580040F013815A6842F480425A6066E7A36BCF
:103668000022204643F0400384F83420A363FFF788
:103678002DFB5BE799694E065AD5618D89B2002901
:1036880040F023815A6842F480425A60BCE79A6944
:1036980012F0200200F08B809A69D00605D510221E
:1036A800DA61A26B42F00402A263196820204A4A38
:1036B80021F0F4011960D86159680A405A60A36B77
:1036C800002B40F00D8194F83520204684F83430E2
:1036D800622A4FF0010284F8352000F01E81FFF7BE
:1036E800EBFA23E7996911F0080177D00822DA612B
:1036F80038E7A36B0022204643F0400384F83420C7
:10370800A363FFF7E3FA23687EE7996911F00401E0
:1037180000F08B80626A5B6A511C61621370628D73
:10372800218D013A2368013992B22185628534E7F7
:103738009A6912F0200200F08F809A69D50605D5A3
:103748001022DA61A26B42F00402A26319682020F9
:10375800214A21F0F2011960D86159680A405A607B
:103768009A69D00701D40122DA61A36B002B40F0DB
:10377800D78094F83520204684F83430522A4FF008
:10378800010284F8352000F0D680FFF793FA236809
:103798003AE7102100222046D961A36B84F834202F
:1037A80043F00403A363FFF791FA2368F5E69969E8
:1037B800C9067FF5BBAE10212046D961A36B84F8FA
:1037C800342043F00403A363FFF780FAAEE600BF9A
:1037D800009800FC0000FF0100E800FE98698006E0
:1037E80000F188809A6991077FF5BCAE628D92B22C
:1037F800002A3FF4B7AE626A511C616212789A627D
:10380800628D013A92B26285ACE6608DC2F309021C
:103818005D684B49C0B2294041F000710A4342EA51
:1038280000425A60638D238580E6986980067FF59B
:10383800B4AE1D682026204625F0FC051D605D6895
:1038480045F400455D60DE6184F8352084F8341065
:10385800FFF736FA2368A0E69969C9067FF5D4AE62
:1038680010212046D961A36B84F8342043F0040367
:10387800A363FFF72BFA2368C6E6A36B204684F8F8
:10388800342043F04003A363FFF720FA4EE61021EB
:1038980000222046D961A36B84F8342043F0040346
:1038A800A363FFF713FA23685CE6608DC2F309028D
:1038B8005D682349C0B2294041F000710A4342EAD9
:1038C80000425A60628D22859EE6A36B204684F8EA
:1038D800342043F04003A363FFF7F8F9236893E625
:1038E80001220023204684F8352084F83430FFF77D
:1038F800EDF91BE61D682026204625F0FE051D6013
:103908005D6845F400455D60DE6184F8352084F823
:103918003410FFF7D3F9236824E6FFF7D5F905E655
:1039280000230122204684F8343084F83520FFF73C
:10393800CDF9236868E6FFF7C5F9236864E600BF98
:10394800009800FC08B503689A69D10502D51A6881
:10395800120623D49A69510502D51A68120615D49D
:103968009A69910502D51A68120607D4836B23B1A8
:10397800012280F83520FFF7A9F908BD826B4FF4C2
:10398800007142F002028263D961EFE7826B4FF463
:10399800806142F008028263D961E1E7826B4FF4EB
:1039A800807142F001028263D961D3E790F8350053
:1039B800704700BF806B7047F8B504460F46154640
:1039C800FCF71EFD064622689369DB43C3F3100328
:1039D8003B4210D16B1CF7D03DB9012200230320D4
:1039E80084F8352084F83430F8BDFCF709FD801BD5
:1039F8008542E8D2F1E70020F8BD00BF90F83530E5
:103A0800DBB2022B30D090F83530122B2BD090F847
:103A18003530222B27D090F83530322B23D090F830
:103A28003530422B1FD090F83430012B1BD0026860
:103A3800022370B480F8353001261468002524F07C
:103A480001041460146824F4805414601468214339
:103A5800116011683143116080F8356080F8345086
:103A6800284670BC704702231846704790F83530D6
:103A7800DBB2022B2FD090F83530122B2AD090F8D9
:103A88003530222B26D090F83530322B22D090F8C2
:103A98003530422B1ED090F83430012B1AD00268F2
:103AA800022370B480F8353001261468002524F00C
:103AB80001041460146824F4706444EA012111605C
:103AC80011683143116080F8356080F83450284619
:103AD80070BC704702231846704700BF704700BF8C
:103AE800002800F08880F8B590F83930044603F0D3
:103AF800FF02002B70D025680221404A84F8391053
:103B0800E869636902408B42EA612962EE69B6B2EC
:103B180067D0E768E169002F0CBF20224022012905
:103B280029D0022962D13649486810F4800F4868C4
:103B380008BF344900F03F0E18BF3349B1FBFEF00F
:103B4800DFF8BCE0DEF88410DEF884E0C1F3027C24
:103B5800CEF3881100FB01FE2069B0F5007FBEFBA3
:103B6800FCF10DD1090A01EB81014900B1FBF3F326
:103B780005339AB20DE025492069B0F5007FF1D0F0
:103B8800B1FBF2F202EB82025200B2FBF3F2531DD8
:103B98009AB21F4BA3FB0223DB085A0803F001016A
:103BA800931EFD2B24D90023022261681843314358
:103BB80042EA0003A068002641F40061A2699BB2B2
:103BC800014330462B62012311430F43BFB2EF611B
:103BD800E66384F83930F8BD80F838200BF008FE29
:103BE80089E71A46E76820690023DEE70021C3E772
:103BF80009020BB2D9E70120704700BF40F0FFFF70
:103C0800003802400024F40040787D010080BB00A9
:103C1800CDCCCCCC704700BF70B1022310B580F872
:103C280039300446FFF7F6FF0023E363184684F8AB
:103C3800393084F8383010BD0120704790F8393099
:103C4800012B01D00220704769B362B30368016297
:103C5800D96901F00701032927D0D96901F00701C3
:103C6800052922D08284C28490F83820012AE9D01C
:103C78000322002110B4012480F83840C16380F881
:103C880039205A6842F0A0025A60DA69520503D412
:103C9800DA6942F48062DA6100235DF8044B80F847
:103CA80038301846704701207047520092B282841B
:103CB800C284D9E790F83930012B01D0022070472F
:103CC80069B362B303688162D96901F00701032906
:103CD80027D0D96901F00701052922D08285C2853C
:103CE80090F83820012AE9D00422002110B40124D8
:103CF80080F83840C16380F839205A6842F0600281
:103D08005A60DA69520503D4DA6942F48062DA61EA
:103D180000235DF8044B80F83830184670470120BE
:103D28007047520092B28285C285D9E739B132B163
:103D3800F8B590F83930012B03D00220F8BD0120E6
:103D4800704704680162E36903F00703032B32D06C
:103D5800E36903F00703052B2DD08284C28490F811
:103D68003830012BE9D0054601220020032385F8CD
:103D7800382004F10C022E6B114CE863304685F8AC
:103D88003930104FAB8C34640F4C9BB2F763F4643A
:103D9800FCF7FEFD2B68DA69520503D4DA6942F4B0
:103DA8008062DA615A68002142F0020208465A60CD
:103DB80085F83810F8BD53009BB28384C384CEE7DE
:103DC800D13F0008E13F0008BD42000831B12AB1E7
:103DD80090F83930012B03D002207047012070473A
:103DE800F0B5046883B08162E36903F00703032B2D
:103DF80042D0E36903F00703052B3DD08285C285D5
:103E080090F83830012B3CD0012604230022456B62
:103E180080F83860C26380F83930E3691A4E03F4D9
:103E280040731A4F2E64B3F5407F194EEF63EE646A
:103E38001BD0838D06460A4628469BB204F10C0126
:103E4800FCF7A6FD3368DA69520509D55A680021DE
:103E580042F0010208465A6086F8381003B0F0BDF7
:103E6800DA6942F48062DA61F0E70192E36801936B
:103E7800A3680193019BDCE7520092B28285C28558
:103E8800BEE70220EAE700BF1D4000082D400008F9
:103E9800BD42000890F83830012B13D0012380F878
:103EA800383090F83930032B0ED090F83930042B85
:103EB80014D090F83930052B1AD0002380F8383008
:103EC80018467047022070470268536823F00203BF
:103ED8005360002380F838301846704702685368EA
:103EE80023F001035360002380F8383018467047E8
:103EF80090E80C0033F4007353680CBF23F00203FE
:103F080023F001035360D8E790F83830012B17D01D
:103F1800012380F8383090F83930032B12D090F80C
:103F28003930042B036813D0DA69520503D4DA69EF
:103F380042F48062DA61002380F83830184670470E
:103F48000220704703685A6842F002025A60EBE7A1
:103F58005A6842F001025A60E6E700BF38B590F8A7
:103F68003830012B2BD0036804460122006B84F8FB
:103F780038205A6822F002025A605A6822F0010278
:103F88005A6030B10268136823F001031360FCF72C
:103F980043FD606B30B10268136823F001031360BE
:103FA800FCF73AFD216800220125CB69104623F46D
:103FB8008063CB6184F8395084F8382038BD0220FA
:103FC80038BD00BF704700BF08B5806BFFF7FAFF28
:103FD80008BD00BF704700BF08B50368806B1B6849
:103FE80013F480730CD10268C384536823F002036E
:103FF800536090F83930052B05D0012380F839300B
:104008000BF0D6FF08BDC38D9BB2002BF8D1F4E7A7
:10401800704700BF08B5806BFFF7FAFF08BD00BF07
:10402800704700BF08B50368806B1B6813F4807382
:104038000CD101684A6822F001024A60C38590F8F1
:104048003930052B05D0012380F83930FFF7E8FF18
:1040580008BDC38C9BB2002BF8D1F4E7704700BFB2
:1040680049B142B1F8B51D4690F839300446012BE4
:1040780003D00220F8BD0120704700680E46C369CE
:1040880003F00703032B5BD0C36903F00703052B79
:1040980056D0A284E28494F83830012BE9D000226B
:1040A8000323012184F83810E26384F83930C369A6
:1040B8005A0540D5E38C9BB2002B46D036F8023B1C
:1040C800C360E28C013A92B2E284FCF799F90746A0
:1040D8006B1C206816D1826802F00202002AFAD10D
:1040E80083681B07E6D501250023204684F839504C
:1040F80084F83830E36B43F00403E363FFF7AEFF63
:104108002846F8BD836803F00203002BE8D025B1E8
:10411800FCF776F9C01B8542DAD20122002320463B
:1041280084F8392084F83830E36B1343E363FFF7EE
:1041380095FF0320F8BDC36943F48063C361B9E701
:1041480053009BB2A384E384A5E7C36913F4407FBB
:104158000DD0C36903F44073B3F5807F07D0002303
:104168000122184684F8392084F83830F8BDFCF765
:1041780047F90646691C226805D1936803F0800355
:10418800002BFAD1EBE7936803F08003002BE6D00D
:10419800002DC2D0FCF734F9801B8542EAD2BCE777
:1041A80059B152B1F0B51D4690F8393083B0044684
:1041B800012B04D0022003B0F0BD012070470E4649
:1041C8000168CB6903F00703032B56D0CB6903F0D2
:1041D8000703052B51D08285C28594F83830012B0E
:1041E800E8D000220423012084F83800E26384F830
:1041F8003930CB695A0503D4CB6943F48063CB616A
:10420800CB6903F44073B3F5407F2ED0E38D9BB2A6
:10421800002B37D0FCF7F4F807466B1C20680DD14B
:104228008268D107FCD483685B0633D4C36826F858
:10423800023BE28D013A92B2E285E7E78368DA074A
:10424800F1D525B1FCF7DCF8C01B8542E5D2012287
:104258000023204684F8392084F83830E36B134370
:10426800E363FFF7FBFE0320A5E700230193CB6878
:1042780001938B680193019BC8E753009BB2A38508
:10428800E385AAE700230122184684F8392084F838
:10429800383090E701250023204684F8395084F807
:1042A8003830E36B43F00203E363FFF7D7FE284699
:1042B80081E700BF38B5836B002101251C681846CB
:1042C800626822F003026260D984D98583F8395084
:1042D800DA6B42F00802DA63FFF7C0FE38BD00BFB0
:1042E800036830B59A6883B00446019290F8392083
:1042F800042A21D090F83920032A01D003B030BD18
:10430800019A920702D55A68150648D4019B1907E5
:10431800F4D523685A689206F0D55A6801212046D8
:1043280022F0A0025A6084F83910E36B43F00403CA
:10433800E363FFF793FEE1E7019AD20702D55A68D3
:10434800550615D4019B5806D8D523685A68910696
:10435800D4D55A680121204622F060025A6084F8B8
:104368003910E36B43F00203E363FFF777FEC5E719
:10437800826AD968951C85621180C28D013A92B211
:10438800C285C28D92B2002ADCD15A68012122F07E
:1043980060025A6080F83910FFF742FED2E7026ADD
:1043A800911C12880162DA60C28C013A92B2C2840E
:1043B800C28C92B2002AA9D15A68012122F0A00227
:1043C8005A6080F839100BF0F3FD9FE790F8390038
:1043D800704700BFC06B7047704700BF002800F0EF
:1043E80010822DE9F04F4FF0030804468BB00746C2
:1043F80080F87D8301250FF0FFFA206806F0C6FCDF
:1044080057F810EB6E464FF0040A4FF0020B4FF0CE
:1044180005090FCF0FC60FCF0FC6221D3B68704688
:1044280033604FF009060ECA06F04CFC00212068E4
:1044380006F0B4FC00234FF007010620082284F898
:10444800343084F8373004F1100CE363EE4623640B
:10445800A36484F85330A365E365636684F86F301A
:104468006367A367C4F8803084F88B30C4F8903051
:10447800C4F89430C4F89C3084F8A730C4F8AC3041
:10448800C4F8B030C4F8B83084F8888084F835505F
:1044980084F8515084F8505084F86D5084F889504D
:1044A80084F8A55084F8C15084F86CB084F8A4A0AE
:1044B80084F8C09084F8C33084F8F8104FF00B01EA
:1044C80084F830614FF00A06C4F8C830C4F8CC301C
:1044D800C4F8D43084F8DF30C4F8E430C4F8E830E5
:1044E800C4F8F03084F8FB30C4F80031C4F8043163
:1044F800C4F80C3184F81731C4F81C31C4F82031E1
:10450800C4F8283184F83331C4F83831C4F83C3160
:10451800C4F8443184F84F31C4F85431C4F85831E0
:1045280084F8DC0084F8142184F84C6184F8DD50A8
:1045380084F8F95084F8155184F8315184F84D51B4
:10454800C4F8603184F868114FF00C01266884F8CB
:1045580084114FF00D0184F86B3184F8A0114FF0ED
:104568000E01C4F8703184F8BC114FF00701C4F88B
:104578007431C4F87C3184F88731C4F88C31C4F8BC
:104588009031C4F8983184F8A331C4F8A831C4F83C
:10459800AC31C4F8B43184F8BF31C4F8C431C4F8BC
:1045A800C831C4F8D03184F8D93184F8D831638758
:1045B80084F8DB31C4F8E031C4F8E431C4F8EC31F4
:1045C80084F8695184F8855184F8A15184F8BD5163
:1045D800C6F8043184F8F53184F8F731C4F8FC31B1
:1045E800C4F80032C4F8083284F8F451A4F85650DC
:1045F800C6F8083184F8113284F81332C4F8183236
:10460800C4F81C32C4F8243284F810B2A4F872B08A
:10461800C6F80C3184F82D3284F82F32C4F83432BD
:10462800C4F83832C4F8403284F82C82A4F88E805A
:10463800C6F8103184F8493284F84B32C4F8503245
:10464800C4F85432C4F85C3284F848A2A4F8AAA08A
:10465800C6F8143184F8653284F86732C4F86C32CD
:10466800C4F87032C4F8783284F86492A4F8C6901A
:10467800C6F8183184F8813284F88002A4F8E20080
:1046880084F88332C4F88832C4F88C32C4F894327F
:10469800C6F81C3184F89C124FF0070184F89D324B
:1046A800A4F8FE104FF0090184F89F32C4F8A43230
:1046B800C4F8A832C4F8B032C6F8203184F8B93248
:1046C80084F8B822A4F81A2184F8BB32C4F8C0329E
:1046D800C4F8C432C4F8CC32C6F8243184F8D532D0
:1046E80084F8D4124FF0090184F8D732A4F83611AF
:1046F8004FF00A01C4F8DC32C4F8E032C4F8E832FA
:10470800C6F8283184F8F0124FF00A0184F8F13223
:10471800A4F852114FF00B0184F8F332C4F8F832C0
:10472800C4F8FC32C4F80433C6F82C3184F80C13EE
:104738004FF00B0184F80D33A4F86E114FF00C0103
:1047480084F80F33C4F81433C4F81833C4F820338A
:10475800C6F8303184F828134FF00C0184F8293357
:10476800A4F88A114FF00D0184F82B33C4F83033C4
:10477800C4F83433C4F83C33C6F8343184F84413ED
:104788004FF00D0184F84533A4F8A6114FF00E013F
:1047980084F84733C4F84C33C4F85033C4F858335A
:1047A800C6F8383184F860134FF00E0184F861338D
:1047B80084F86333A4F8C211C4F86833C4F86C33BE
:1047C800C4F87433C6F83C31BCE80F00AEE80F00FB
:1047D800BCE80F00AEE80F0004EB0A023B68304665
:1047E800CEF800300ECA06F0F3FA636A84F87D53F7
:1047F800AB4208D0206807F023F800200BB0BDE8D2
:10480800F08F01207047204600F0F4FCF2E700BF6B
:10481800704700BFF0B190F87C330322012B10B52C
:10482800044680F87D230ED00123006884F87C3389
:1048380006F0ACFA206806F083FF206807F000F85D
:10484800002384F87C3320460FF01AF9002084F8FE
:104858007D0310BD0120704790F87C33012B01D1F6
:104868000220704710B501230446006884F87C33A1
:1048780006F0DAFF206806F081FA002084F87C034D
:1048880010BD00BF90F87C33012B01D10220704786
:1048980010B501230446006884F87C3306F076FAE4
:1048A800206806F04DFF206806F0CAFF002084F853
:1048B8007C0310BD704700BF704700BF704700BF42
:1048C800704700BF704700BF704700BF704700BF08
:1048D800704700BF704700BF704700BF704700BFF8
:1048E8002DE9F04F056887B00446284606F0E6FF34
:1048F80010B107B0BDE8F08F206806F0ADFF0028C2
:10490800F7D0206806F0A8FF10F0020F206801D049
:104918000223436106F0A0FF010300F1F4804FF089
:10492800000A206806F098FF10F4802F206840F0F5
:104938008F8006F091FF0028C0F2AB81206806F056
:104948008BFF000563D4206806F086FF020112D5AC
:1049580023684FF0006194F8B0235961002A60D1B0
:104968005B6D01212046C3F3830384F8B013C4F8B8
:10497800B43300F069FC206806F06EFFC30400F150
:104988002681206806F068FF10F4005F206840F078
:10499800008106F061FF10F0100F206811D08369C4
:1049A80023F0100383612E6AC6F3434306F00F0712
:1049B800022B00F0FE81062B37D0836943F01003E9
:1049C800836106F049FF070700F15281206806F06D
:1049D80043FFC60200F14281206806F03DFF8502D0
:1049E80000F14D81206806F037FF400000F12E816C
:1049F800206806F031FF41077FF57BAF23685D68CB
:104A08006A0700F1BB815A682A435A6071E7D5F8F2
:104A18000838D90700F1B78120684FF40063436173
:104A280092E720460FF068F8A5E7C7EBC70708220A
:104A3800284604F5607106F02FFEC6F30A1604EB4B
:104A48008703D3F8F0211644C3F8F0612068B4E76F
:104A580006F00EFF8346002800F0E3812068264612
:104A680005F510694FF0000A039509E05FEA5B0B52
:104A78000AF1010A06F11C0609F1200900F01C815F
:104A88001BF0010FF2D05FFA8AF7394606F002FFF1
:104A9800C30705461ED5039B01222069D3F83418A5
:104AA80002FA0AF221EA0202C3F8342801239842E2
:104AB800C9F8083000F09B81394620460EF0FEFF09
:104AC8002369012B06D1BAF1000F03D1A36C002B87
:104AD80000F0AA81280702D50823C9F80830E9069A
:104AE80002D51023C9F808306A0602D54023C9F850
:104AF8000830AB0702D50223C9F808302D0600F1AB
:104B0800E3802068B2E7206806F0AAFE064600287F
:104B18003FF405AF05F53067A0464FF0000A08E0FE
:104B280076080AF1010A07F1200708F11C083FF48A
:104B3800F8AEF207F4D55FFA8AFB2068594606F00A
:104B48009FFE10F0010F814614D001222369934281
:104B5800BA6000F05181594620460EF0A5FF23693E
:104B6800012B07D1BAF1000F04D1D4F8EC31002B96
:104B780000F0618119F0080F40F0A08019F0100FC3
:104B880001D01023BB6019F0200FC9D02023BB60CF
:104B9800C6E706F097FE2368DA68184622F47052D2
:104BA800DA6006F001FA2268002840F0F080D36845
:104BB8004FF40071E06043F410536161D360204604
:104BC8000EF08AFF20684FF400534361E1E605F5D3
:104BD80000677B682068002123F001037B6006F0F2
:104BE800B9F9666866B105F530630022FF21013224
:104BF800A3F500702033B242816043F8181CF6D147
:104C08004FF0FF33E26ABB61FB6943F00113FB61BC
:104C1800002A00F0C580D7F8843043F00B03C7F8AA
:104C280084307B6C43F00B037B64D5F8003804F5C3
:104C38006072217C23F4FE632068C5F8003806F012
:104C48005DFE20684FF4805343619BE620460EF0DA
:104C580063FF20684FF080434361CAE620465FFA4D
:104C68008AF10EF055FF20684FF480134361B4E6D3
:104C780020460EF02DFF206808234361A7E6204652
:104C88005FFA8AF10EF040FF20684FF40013436189
:104C9800A9E694F8B013D5F80428012922F00102F6
:104CA800C5F8042800F0B68020460EF029FF2068D9
:104CB8004FF00043436142E6039D3AE620460EF07A
:104CC800EDFE0823BB6059E72368B06CD6F84CE0CA
:104CD80003F51068F26B0493CEEB000308EB4A1857
:104CE80093421D46D8F8181028BF154689B215F109
:104CF800030C48BF05F1060CB1EBAC0F40F2A280E3
:104D0800002800F09F80704540F29C80CDF814A0E8
:104D18001546316CDDF810A006E0B26CEAB19A4293
:104D2800A2EB030319D9F56B9D42207C3A4628BFB4
:104D38001D4600905046ABB206F09AFC316CF36CFD
:104D4800E81C29442B4448BFA81D3164F364D8F8F3
:104D5800182092B2B2EBA00FDFD8DDF814A02068BB
:104D6800002D3FF783AE049B0122D3F8341802FAD2
:104D78000AF221EA0202C3F8342877E620460EF048
:104D8800CFFE23683FE620460EF0B6FE44E6D36821
:104D98000320402143F4A053E0606161D3600EE733
:104DA8007B6943F02B037B613B6943F00B033B6159
:104DB8003BE747F6F0733340002B3FF4FEADC7EBFB
:104DC800C707C6F30A16284604EB87053246D5F806
:104DD800E41106F061FCD5F8E431D5F8F02133444C
:104DE8001644C5F8E431C5F8F0612068E5E5326C91
:104DF800F36B134433645FE63B69D8F8E011D8F8E5
:104E0800E421C3F312030A44CB1AC8F8E421C8F812
:104E1800F031A0E60021204684F8B01300F014FA1F
:104E280045E78246206884E504F560720121206820
:104E380006F064FD4EE604F560720121206806F074
:104E48005DFD97E604988BE790F87C33012B01D140
:104E58000220704710B501230446006884F87C33AB
:104E680006F0E2FC002084F87C0310BD90F87C3347
:104E7800012B01D10220704710B5012304460068B8
:104E880084F87C3306F0DCFC002084F87C0310BD39
:104E980090F87C33012B01D10220704710B5012313
:104EA8000446006884F87C3306F0ACFC002084F8E3
:104EB8007C0310BD70B50C0618D4C1EBC1040025E5
:104EC800022B4FEA840404F5EC760444064484F883
:104ED800D811C4F8E02184F8DB3184F8D9511CD00A
:104EE80090F87C33012B1ED1022070BD01F07F04A5
:104EF800022B4FF00101C4EBC4054FEA850500EB16
:104F08000506354606F1340685F83440EA6385F827
:104F180037306C8785F83510E2D10023337190F86B
:104F28007C33012BE0D0044601233146006884F825
:104F38007C3306F055F8002084F87C0370BD00BF70
:104F480010B54CB2002C1ADBC1EBC1030A4600EBCA
:104F5800830303F5EC71E40F0A704C7090F87C330E
:104F6800012B01D1022010BD04460123006884F8FA
:104F78007C3306F0F5F8002084F87C0310BD01F0BE
:104F88007F02C2EBC20300EB830303F13401E2E7C3
:104F980070B501F07F060021F500AC1B00EB84041E
:104FA800C4F8E421C4F8EC3184F8D861C4F8F011ED
:104FB80084F8D9110369012B08BFC4F8E82190F8D7
:104FC8007C23012A17D0AD1B0122044600EB85057E
:104FD80080F87C23DAB2006805F5EC712EB106F092
:104FE80031F9002084F87C0370BD06F07BFA0020BC
:104FF80084F87C0370BD022070BD00BF01F07F0102
:10500800C1EBC10100EB8100B0F8F001704700BFAF
:10501800F8B501F07F0600270121F500AC1B00EB75
:1050280084042264A36484F83460E76484F8351047
:1050380003698B4208BF626490F87C23012A17D069
:10504800AD1B0122044600EB850580F87C23DAB20B
:10505800006805F134012EB106F0F4F8002084F858
:105068007C03F8BD06F03EFA002084F87C03F8BD06
:105078000220F8BD4AB2002A38B51CDBC1EBC103D7
:105088000D4600EB830101F5EC71D20F01230D7081
:105098004A708B7090F87C239A4201D1022038BD67
:1050A800044680F87C33006806F00CFB65B10020EC
:1050B80084F87C0338BD01F07F05C5EBC50300EB20
:1050C800830303F13401E0E704F56072217C206872
:1050D80006F014FCEBE700BF38B54CB2002C1CDB23
:1050E800C1EBC1030A4600EB830303F5EC71E40F3F
:1050F80000250A704C708D7090F87C33012B01D11B
:10510800022038BD04460123006884F87C3306F089
:10511800F9FA84F87C53284638BD01F07F02C2EBC7
:10512800C20300EB830303F13401E0E790F87C331A
:10513800012B0DD0012310B580F87C330B060446F3
:1051480008D4006805F018FF002084F87C0310BD1F
:105158000220704701F07F01006805F0FBFE002087
:1051680084F87C0310BD00BF0368D3F8082803F552
:105178000063D20703D55A6842F001025A60002042
:10518800704700BF03680020D3F8042822F001020A
:10519800C3F80428704700BF90F87D03704700BF2C
:1051A80070B40668736AD1B1B46A013903EB144468
:1051B8000CD0002318464033013006EB8303C0B2FD
:1051C8005D688842034604EB1544F4DB403144EA49
:1051D8000244002006EB81014C6070BC704743EA32
:1051E80002440020B46270BC704700BF036800200E
:1051F8005962704703680121084A30B4C0F8B813EF
:1052080004469969002541F0006184F8B0532846A6
:105218009961596D0A4330BC5A6570470300001004
:1052280003680146074A10B40024C1F8B843204671
:1052380099695DF8044B21F000619961596D0A4044
:105248005A657047FCFFFFEF704700BF38B50B4B3E
:105258005A681C4642F400725A60FBF7D1F80546BA
:1052680005E0FBF7CDF8401BB0F57A7F04D86368FA
:105278001B07F6D5002038BD032038BD007000405C
:1052880038B50B4B5A681C4622F400725A60FBF77B
:10529800B7F8054605E0FBF7B3F8401BB0F57A7F91
:1052A80004D8606810F00800F5D138BD032038BD77
:1052B80000700040024A136843F40073136070479B
:1052C80000700040024A136823F4007313607047AB
:1052D80000700040024A136843F40063136070478B
:1052E80000700040024A136823F40063136070479B
:1052F80000700040024A136843F4806313607047EB
:1053080000700040024A136823F4806313607047FA
:105318000070004030B51C4A83B000211B4B01913E
:105328001C46116C41F080511164126C02F08052DD
:105338000192019A1A6842F480321A60FBF760F809
:10534800054605E0FBF75CF8401BB0F57A7F18D8F6
:1053580063680E4AD903F5D51368144643F400333D
:105368001360FBF74DF8054605E0FBF749F8401BCD
:10537800B0F57A7F05D863689B03F6D5002003B0A3
:1053880030BD032003B030BD00380240007000403B
:1053980030B51C4A83B000211B4B01911C46116C8F
:1053A80041F080511164126C02F080520192019A0E
:1053B8001A6822F400321A60FBF722F8054605E065
:1053C800FBF71EF8401BB0F57A7F18D863680E4AC1
:1053D8009B03F5D41368144623F480331360FBF75A
:1053E8000FF8054605E0FBF70BF8401BB0F57A7F90
:1053F80005D8606810F48030F5D103B030BD0320C3
:1054080003B030BD0038024000700040F0B5234AB8
:1054180083B000240F46224B06460194116C1C46AB
:1054280041F080511164126C02F080520192019A8D
:105438005A6842F440225A601A6842F440221A60BC
:10544800FAF7DEFF054605E0FAF7DAFF401BB0F58C
:105458007A7F1DD86368124A03F44023B3F5402FBE
:10546800F2D01068012F0F4B0F4903EA000346EAF8
:10547800030616600B6943F004030B610BD020BFD1
:10548800094A0020136923F00403136103B0F0BD37
:10549800032003B0F0BD30BFF2E700BF0038024080
:1054A80000700040FCF3FFFF00ED00E0024B1868BD
:1054B80000F44040704700BF0070004070B52C4BAE
:1054C80082B0002200921A6C42F080521A641A6C60
:1054D80002F080520092009A9A6802F00C02082AA0
:1054E80043D01A6806461C4622F080721A60FAF702
:1054F80087FF054604E0FAF783FF401B642831D88C
:1055080023681B4A13F00073F5D11A491446019316
:105518000B6823F440431E430E600B6803F44043BA
:105528000193019B136843F080731360FAF768FFD7
:10553800054604E0FAF764FF401B642812D8236884
:105548009A01F7D5FAF75CFF0A4C054605E0FAF729
:1055580057FF401BB0F57A7F04D863685B04F6D523
:10556800002000E0032002B070BD012002B070BD31
:1055780000380240007000400F4B00220F481049CD
:1055880030B41D680F4C45F081051D609A601D6898
:105598002C401C605A605C6820435860C3F8842023
:1055A800D3F884000143C3F88410196821F48021DA
:1055B80030BC1960DA6070470038024010300004CF
:1055C80000300020FFFFF6FA0368F0B5DE0783B06D
:1055D80005464FD5A9498A6802F00C02042A00F052
:1055E8002F818A6802F00C02082A00F02581A34B5B
:1055F8001A681C4622F480321A601A6822F4802243
:105608001A601A6822F480321A60FAF7F9FE064620
:1056180005E0FAF7F5FE801B642800F2FC80236899
:10562800964A9903F5D4136823F4803313606B68A2
:10563800B3F5803F00F0A881B3F5A02F00F04881B2
:10564800116821F480211160116821F48031116002
:10565800002B40F045811446FAF7D2FE064605E0D5
:10566800FAF7CEFE801B642800F2D58023689B03DE
:10567800F6D42B689F0731D5804A916811F00C0F3A
:1056880000F0D080916801F00C01082900F0C68074
:10569800EB68002B00F00881784B1A681C4642F032
:1056A80001021A60FAF7ACFE064605E0FAF7A8FE12
:1056B800801B642800F2AF802368704A9807F5D5EC
:1056C8001368F82191FAA1F12869B1FA81F123F060
:1056D800F80300FA01F10B4313602B681A0721D471
:1056E8005C0738D4AA69D2B1644B996801F00C01FF
:1056F800082900F09E80022A1A681C4622F080724F
:105708001A6000F0FB80FAF77BFE054604E0FAF722
:1057180077FE401B64287ED823689B01F7D40020BD
:1057280003B0F0BD6B69002B00F09480534B5A6FA7
:105738001C4642F001025A67FAF762FE064604E088
:10574800FAF75EFE801B642865D8636F9B07F7D560
:105758002B685C07C6D5494A0021494B0191116C59
:105768001C4641F080511164126C02F08052019283
:10577800019A1A6842F480721A60FAF741FE0646E6
:1057880004E0FAF73DFE801B642844D82368D80556
:10579800F7D53A4B41F288371A6F1C4622F00102BE
:1057A8001A671A6F22F004021A671A6F22F00102B0
:1057B8001A67FAF725FE064604E0FAF721FE801B71
:1057C800B84228D8236F2D4A9907F6D4136F23F0CF
:1057D80001031367AB68012B00F0F780052B00F07D
:1057E800DC80116F21F004011167116F21F00101B4
:1057F8001167002B40F0D980144641F28836FAF739
:10580800FFFD0746236F98077FF56CAFFAF7F8FDA1
:10581800C01BB042F6D9032003B0F0BD526856024F
:105828003FF536AF154A126894072BD5EA68012A66
:1058380028D0012003B0F0BD4A6854027FF5D7AEE6
:105848000E4A126890037FF515AF6A68002A7FF444
:1058580011AFEEE7094B5A6F1C4622F001025A6756
:10586800FAF7CEFD064604E0FAF7CAFD801B642865
:10587800D1D8636F9F07F7D46AE700BF00380240AA
:1058880000700040554CF822216892FAA2F228696B
:10589800B2FA82F221F0F80100FA02F20A43226019
:1058A8001A077FF51DAF3DE74C4B1A681C4622F0DE
:1058B80001021A60FAF7A4FD064604E0FAF7A0FD13
:1058C800801B6428A7D823689907F7D42B6805E7B5
:1058D800136843F480231360136843F48033136020
:1058E800FAF78EFD3D4C064604E0FAF789FD801B69
:1058F800642890D823689A03F7D5BAE6FAF780FDAA
:10590800064604E0FAF77CFD801B642883D82368E8
:10591800324A9901F6D447F6C07494FAA4F44FF4C5
:105928004033B4FA84FC93FAA3F34FF07060B3FAEF
:1059380083F690FAA0F0E969B0FA80FEAB6A2F6AA4
:105948006C6A0F435908E86A04FA0CF4013947F005
:10595800005500FA0EF0254301FA06F314462B43CE
:1059680003435360136843F080731360FAF748FDEC
:10597800054605E0FAF744FD401B64283FF64BAFA7
:1059880023689A01F6D5CAE6136823F480231360C6
:10599800136843F480331360A2E7136F43F00403E2
:1059A8001367136F43F001031367FAF729FD0B4CD4
:1059B800074641F28836236F9B073FF593AEFAF707
:1059C8001FFDC01BB042F6D925E7136F23F004036F
:1059D8001367136F43F001031367E6E700380240CB
:1059E8006C4A136803F00F038B422DE9F0410C4613
:1059F80005460CD2136823F00F030B43136013689A
:105A080003F00F03994258D00120BDE8F0810368E4
:105A18009A0706D56048AA68816821F0F0010A4310
:105A28008260DF0724D56B685B4A012B126800F09F
:105A38008A80022B00F08E809107E5D5564E41F200
:105A48008838B26822F003021343B360FAF7D8FC2F
:105A58006B680746012B65D0022B05D16DE0FAF77C
:105A6800CFFCC01B404572D8B36813F00C0FF6D1B9
:105A7800484A136823F00F0323431360136803F0A5
:105A88000F039C42C0D12B685A0706D54248EA68E2
:105A9800816821F4E0510A4382601B0707D53E4A1A
:105AA8002969936823F4604343EAC10393600F2094
:105AB800FAF778FC0020BDE8F08103689F0706D557
:105AC8003548AA68816821F0F0010A438260DE0740
